{
	"data": {
		"bytecode": {
			"linkReferences": {},
			"object": "608060405234801562000010575f80fd5b506203f480335f73ffffffffffffffffffffffffffffffffffffffff168173ffffffffffffffffffffffffffffffffffffffff160362000089575f6040517fc22c8022000000000000000000000000000000000000000000000000000000008152600401620000809190620003eb565b60405180910390fd5b816001601a6101000a81548165ffffffffffff021916908365ffffffffffff160217905550620000c25f801b826200014060201b60201c565b5050507f920994fc3bfe282f3f20cdccf1b7c5e46c63d963e822d98efff90abd41c12e21600c5f8081526020019081526020015f20819055507ffbe1ac7c192839090e0e8fe24586cbf0e3c232386b46344ee88ba44324daee07600c5f600181526020019081526020015f2081905550600260038190555062000406565b5f805f1b830362000201575f73ffffffffffffffffffffffffffffffffffffffff16620001726200021b60201b60201c565b73ffffffffffffffffffffffffffffffffffffffff1614620001c0576040517f3fc3c27a00000000000000000000000000000000000000000000000000000000815260040160405180910390fd5b8160025f6101000a81548173ffffffffffffffffffffffffffffffffffffffff021916908373ffffffffffffffffffffffffffffffffffffffff1602179055505b6200021383836200024360201b60201c565b905092915050565b5f60025f9054906101000a900473ffffffffffffffffffffffffffffffffffffffff16905090565b5f6200025683836200033e60201b60201c565b620003345760015f808581526020019081526020015f205f015f8473ffffffffffffffffffffffffffffffffffffffff1673ffffffffffffffffffffffffffffffffffffffff1681526020019081526020015f205f6101000a81548160ff021916908315150217905550620002d0620003a160201b60201c565b73ffffffffffffffffffffffffffffffffffffffff168273ffffffffffffffffffffffffffffffffffffffff16847f2f8788117e7eff1d82e926ec794901d17c78024a50270940304540a733656f0d60405160405180910390a46001905062000338565b5f90505b92915050565b5f805f8481526020019081526020015f205f015f8373ffffffffffffffffffffffffffffffffffffffff1673ffffffffffffffffffffffffffffffffffffffff1681526020019081526020015f205f9054906101000a900460ff16905092915050565b5f33905090565b5f73ffffffffffffffffffffffffffffffffffffffff82169050919050565b5f620003d382620003a8565b9050919050565b620003e581620003c7565b82525050565b5f602082019050620004005f830184620003da565b92915050565b61574f80620004145f395ff3fe608060405234801561000f575f80fd5b5060043610610251575f3560e01c80636f47603411610144578063a2c6393b116100c1578063cf6eefb711610085578063cf6eefb714610773578063d547741f14610792578063d602b9fd146107ae578063f98b5998146107b8578063fa7e6bf5146107d4578063fc04f4ba1461080457610251565b8063a2c6393b146106cf578063a3ff907b146106ff578063c8c4a0f21461071b578063cc8463c81461074b578063cefc14291461076957610251565b80638da5cb5b116101085780638da5cb5b1461060f57806391d148541461062d578063a10fd6d81461065d578063a1eda53c14610692578063a217fddf146106b157610251565b80636f4760341461054157806378aee5aa1461057157806383913aee1461058d57806384ef8ffc146105c057806388560f91146105de57610251565b80633e0a60db116101d2578063634e93da11610196578063634e93da1461049f578063649a5ec7146104bb57806368dd17a5146104d757806369d1369b146104f55780636c8c51e41461052557610251565b80633e0a60db146103c35780635263fb1d146103df57806354f8a6221461040f57806359945ae71461043f57806359cf7c4f1461046f57610251565b80632ae8a7e3116102195780632ae8a7e3146102fb5780632bcd799e1461032b5780632f2ff15d1461035b578063354c2bf81461037757806336568abe146103a757610251565b806301ffc9a714610255578063022d63fb146102855780630aa6220b146102a3578063248a9ca3146102ad578063279185a0146102dd575b5f80fd5b61026f600480360381019061026a9190613f2a565b610822565b60405161027c9190613f6f565b60405180910390f35b61028d61089b565b60405161029a9190613fa8565b60405180910390f35b6102ab6108a5565b005b6102c760048036038101906102c29190613ff4565b6108bc565b6040516102d4919061402e565b60405180910390f35b6102e56108d8565b6040516102f2919061402e565b60405180910390f35b610315600480360381019061031091906140a1565b6108fc565b6040516103229190613f6f565b60405180910390f35b61034560048036038101906103409190614112565b61091c565b6040516103529190614339565b60405180910390f35b61037560048036038101906103709190614359565b610dc4565b005b610391600480360381019061038c9190614397565b610e0d565b60405161039e9190613f6f565b60405180910390f35b6103c160048036038101906103bc9190614359565b610e2a565b005b6103dd60048036038101906103d891906143c2565b610f3c565b005b6103f960048036038101906103f4919061452c565b611142565b604051610406919061467a565b60405180910390f35b61042960048036038101906104249190614397565b6111c4565b60405161043691906146a9565b60405180910390f35b610459600480360381019061045491906146c2565b6111d9565b6040516104669190614339565b60405180910390f35b610489600480360381019061048491906143c2565b61170b565b6040516104969190613f6f565b60405180910390f35b6104b960048036038101906104b49190614397565b611735565b005b6104d560048036038101906104d0919061473c565b61174e565b005b6104df611767565b6040516104ec919061402e565b60405180910390f35b61050f600480360381019061050a9190614112565b61178b565b60405161051c91906147dc565b60405180910390f35b61053f600480360381019061053a91906143c2565b611b6c565b005b61055b600480360381019061055691906147fc565b611d72565b6040516105689190614902565b60405180910390f35b61058b60048036038101906105869190614aa4565b611e03565b005b6105a760048036038101906105a29190614112565b612172565b6040516105b79493929190614b74565b60405180910390f35b6105c86123c1565b6040516105d59190614be2565b60405180910390f35b6105f860048036038101906105f39190614112565b6123e9565b604051610606929190614bfb565b60405180910390f35b610617612707565b6040516106249190614be2565b60405180910390f35b61064760048036038101906106429190614359565b612715565b6040516106549190613f6f565b60405180910390f35b61067760048036038101906106729190614397565b612778565b60405161068996959493929190614c30565b60405180910390f35b61069a6129d4565b6040516106a8929190614cab565b60405180910390f35b6106b9612a32565b6040516106c6919061402e565b60405180910390f35b6106e960048036038101906106e491906146c2565b612a38565b6040516106f691906147dc565b60405180910390f35b61071960048036038101906107149190614cd2565b612ea3565b005b61073560048036038101906107309190614397565b6130b6565b6040516107429190613f6f565b60405180910390f35b6107536130d3565b6040516107609190613fa8565b60405180910390f35b610771613140565b005b61077b6131d5565b604051610789929190614db9565b60405180910390f35b6107ac60048036038101906107a79190614359565b613216565b005b6107b661325f565b005b6107d260048036038101906107cd9190614de0565b613276565b005b6107ee60048036038101906107e99190614397565b61343b565b6040516107fb91906146a9565b60405180910390f35b61080c613450565b60405161081991906146a9565b60405180910390f35b5f7f31498786000000000000000000000000000000000000000000000000000000007bffffffffffffffffffffffffffffffffffffffffffffffffffffffff1916827bffffffffffffffffffffffffffffffffffffffffffffffffffffffff19161480610894575061089382613456565b5b9050919050565b5f62069780905090565b5f801b6108b1816134cf565b6108b96134e3565b50565b5f805f8381526020019081526020015f20600101549050919050565b7ffbe1ac7c192839090e0e8fe24586cbf0e3c232386b46344ee88ba44324daee0781565b5f805f1b610909816134cf565b6109138385612715565b91505092915050565b610924613dd7565b7f920994fc3bfe282f3f20cdccf1b7c5e46c63d963e822d98efff90abd41c12e2161094e816134cf565b60045f8573ffffffffffffffffffffffffffffffffffffffff1673ffffffffffffffffffffffffffffffffffffffff1681526020019081526020015f206005015f9054906101000a900460ff166109da576040517f08c379a00000000000000000000000000000000000000000000000000000000081526004016109d190614f23565b60405180910390fd5b5f60055f8673ffffffffffffffffffffffffffffffffffffffff1673ffffffffffffffffffffffffffffffffffffffff1681526020019081526020015f20549050808410610a5d576040517f08c379a0000000000000000000000000000000000000000000000000000000008152600401610a5490614f8b565b60405180910390fd5b60065f8673ffffffffffffffffffffffffffffffffffffffff1673ffffffffffffffffffffffffffffffffffffffff1681526020019081526020015f205f8581526020019081526020015f206040518060400160405290815f82016040518060c00160405290815f82018054610ad290614fd6565b80601f0160208091040260200160405190810160405280929190818152602001828054610afe90614fd6565b8015610b495780601f10610b2057610100808354040283529160200191610b49565b820191905f5260205f20905b815481529060010190602001808311610b2c57829003601f168201915b50505050508152602001600182018054610b6290614fd6565b80601f0160208091040260200160405190810160405280929190818152602001828054610b8e90614fd6565b8015610bd95780601f10610bb057610100808354040283529160200191610bd9565b820191905f5260205f20905b815481529060010190602001808311610bbc57829003601f168201915b50505050508152602001600282015481526020016003820154815260200160048201548152602001600582015f9054906101000a900473ffffffffffffffffffffffffffffffffffffffff1673ffffffffffffffffffffffffffffffffffffffff1673ffffffffffffffffffffffffffffffffffffffff16815250508152602001600682016040518060a00160405290815f82015f9054906101000a900473ffffffffffffffffffffffffffffffffffffffff1673ffffffffffffffffffffffffffffffffffffffff1673ffffffffffffffffffffffffffffffffffffffff168152602001600182015f9054906101000a900473ffffffffffffffffffffffffffffffffffffffff1673ffffffffffffffffffffffffffffffffffffffff1673ffffffffffffffffffffffffffffffffffffffff1681526020016002820154815260200160038201548152602001600482018054610d3690614fd6565b80601f0160208091040260200160405190810160405280929190818152602001828054610d6290614fd6565b8015610dad5780601f10610d8457610100808354040283529160200191610dad565b820191905f5260205f20905b815481529060010190602001808311610d9057829003601f168201915b505050505081525050815250509250505092915050565b5f801b8203610dff576040517f3fc3c27a00000000000000000000000000000000000000000000000000000000815260040160405180910390fd5b610e0982826134ef565b5050565b6008602052805f5260405f205f915054906101000a900460ff1681565b5f801b82148015610e6d5750610e3e6123c1565b73ffffffffffffffffffffffffffffffffffffffff168173ffffffffffffffffffffffffffffffffffffffff16145b15610f2e575f80610e7c6131d5565b915091505f73ffffffffffffffffffffffffffffffffffffffff168273ffffffffffffffffffffffffffffffffffffffff16141580610ec15750610ebf81613511565b155b80610ed25750610ed081613525565b155b15610f1457806040517f19ca5ebb000000000000000000000000000000000000000000000000000000008152600401610f0b9190613fa8565b60405180910390fd5b600160146101000a81549065ffffffffffff021916905550505b610f388282613538565b5050565b7f920994fc3bfe282f3f20cdccf1b7c5e46c63d963e822d98efff90abd41c12e21610f66816134cf565b60045f8373ffffffffffffffffffffffffffffffffffffffff1673ffffffffffffffffffffffffffffffffffffffff1681526020019081526020015f206005015f9054906101000a900460ff16610ff2576040517f08c379a0000000000000000000000000000000000000000000000000000000008152600401610fe990614f23565b60405180910390fd5b61101c7ffbe1ac7c192839090e0e8fe24586cbf0e3c232386b46344ee88ba44324daee0784612715565b80156110a9575060075f8473ffffffffffffffffffffffffffffffffffffffff1673ffffffffffffffffffffffffffffffffffffffff1681526020019081526020015f205f8373ffffffffffffffffffffffffffffffffffffffff1673ffffffffffffffffffffffffffffffffffffffff1681526020019081526020015f205f9054906101000a900460ff165b6110e8576040517f08c379a00000000000000000000000000000000000000000000000000000000081526004016110df90615076565b60405180910390fd5b6001600b5f8573ffffffffffffffffffffffffffffffffffffffff1673ffffffffffffffffffffffffffffffffffffffff1681526020019081526020015f205f6101000a81548160ff021916908315150217905550505050565b61114a613dfd565b7f920994fc3bfe282f3f20cdccf1b7c5e46c63d963e822d98efff90abd41c12e21611174816134cf565b6040518060c001604052808981526020018881526020018781526020018681526020018581526020018473ffffffffffffffffffffffffffffffffffffffff168152509150509695505050505050565b6009602052805f5260405f205f915090505481565b6111e1613dd7565b7ffbe1ac7c192839090e0e8fe24586cbf0e3c232386b46344ee88ba44324daee0761120b816134cf565b60045f8573ffffffffffffffffffffffffffffffffffffffff1673ffffffffffffffffffffffffffffffffffffffff1681526020019081526020015f206005015f9054906101000a900460ff16611297576040517f08c379a000000000000000000000000000000000000000000000000000000000815260040161128e90614f23565b60405180910390fd5b60085f8673ffffffffffffffffffffffffffffffffffffffff1673ffffffffffffffffffffffffffffffffffffffff1681526020019081526020015f205f9054906101000a900460ff16611320576040517f08c379a000000000000000000000000000000000000000000000000000000000815260040161131790615104565b60405180910390fd5b5f60055f8673ffffffffffffffffffffffffffffffffffffffff1673ffffffffffffffffffffffffffffffffffffffff1681526020019081526020015f205490508084106113a3576040517f08c379a000000000000000000000000000000000000000000000000000000000815260040161139a90614f8b565b60405180910390fd5b60065f8673ffffffffffffffffffffffffffffffffffffffff1673ffffffffffffffffffffffffffffffffffffffff1681526020019081526020015f205f8581526020019081526020015f206040518060400160405290815f82016040518060c00160405290815f8201805461141890614fd6565b80601f016020809104026020016040519081016040528092919081815260200182805461144490614fd6565b801561148f5780601f106114665761010080835404028352916020019161148f565b820191905f5260205f20905b81548152906001019060200180831161147257829003601f168201915b505050505081526020016001820180546114a890614fd6565b80601f01602080910402602001604051908101604052809291908181526020018280546114d490614fd6565b801561151f5780601f106114f65761010080835404028352916020019161151f565b820191905f5260205f20905b81548152906001019060200180831161150257829003601f168201915b50505050508152602001600282015481526020016003820154815260200160048201548152602001600582015f9054906101000a900473ffffffffffffffffffffffffffffffffffffffff1673ffffffffffffffffffffffffffffffffffffffff1673ffffffffffffffffffffffffffffffffffffffff16815250508152602001600682016040518060a00160405290815f82015f9054906101000a900473ffffffffffffffffffffffffffffffffffffffff1673ffffffffffffffffffffffffffffffffffffffff1673ffffffffffffffffffffffffffffffffffffffff168152602001600182015f9054906101000a900473ffffffffffffffffffffffffffffffffffffffff1673ffffffffffffffffffffffffffffffffffffffff1673ffffffffffffffffffffffffffffffffffffffff168152602001600282015481526020016003820154815260200160048201805461167c90614fd6565b80601f01602080910402602001604051908101604052809291908181526020018280546116a890614fd6565b80156116f35780601f106116ca576101008083540402835291602001916116f3565b820191905f5260205f20905b8154815290600101906020018083116116d657829003601f168201915b50505050508152505081525050925050509392505050565b6007602052815f5260405f20602052805f5260405f205f915091509054906101000a900460ff1681565b5f801b611741816134cf565b61174a826135b3565b5050565b5f801b61175a816134cf565b6117638261362d565b5050565b7f920994fc3bfe282f3f20cdccf1b7c5e46c63d963e822d98efff90abd41c12e2181565b611793613e45565b7f920994fc3bfe282f3f20cdccf1b7c5e46c63d963e822d98efff90abd41c12e216117bd816134cf565b60045f8573ffffffffffffffffffffffffffffffffffffffff1673ffffffffffffffffffffffffffffffffffffffff1681526020019081526020015f206005015f9054906101000a900460ff16611849576040517f08c379a000000000000000000000000000000000000000000000000000000000815260040161184090614f23565b60405180910390fd5b5f60095f8673ffffffffffffffffffffffffffffffffffffffff1673ffffffffffffffffffffffffffffffffffffffff1681526020019081526020015f205490508084106118cc576040517f08c379a00000000000000000000000000000000000000000000000000000000081526004016118c39061516c565b60405180910390fd5b600a5f8673ffffffffffffffffffffffffffffffffffffffff1673ffffffffffffffffffffffffffffffffffffffff1681526020019081526020015f205f8581526020019081526020015f206040518060800160405290815f8201805461193290614fd6565b80601f016020809104026020016040519081016040528092919081815260200182805461195e90614fd6565b80156119a95780601f10611980576101008083540402835291602001916119a9565b820191905f5260205f20905b81548152906001019060200180831161198c57829003601f168201915b505050505081526020016001820180546119c290614fd6565b80601f01602080910402602001604051908101604052809291908181526020018280546119ee90614fd6565b8015611a395780601f10611a1057610100808354040283529160200191611a39565b820191905f5260205f20905b815481529060010190602001808311611a1c57829003601f168201915b50505050508152602001600282018054611a5290614fd6565b80601f0160208091040260200160405190810160405280929190818152602001828054611a7e90614fd6565b8015611ac95780601f10611aa057610100808354040283529160200191611ac9565b820191905f5260205f20905b815481529060010190602001808311611aac57829003601f168201915b50505050508152602001600382018054611ae290614fd6565b80601f0160208091040260200160405190810160405280929190818152602001828054611b0e90614fd6565b8015611b595780601f10611b3057610100808354040283529160200191611b59565b820191905f5260205f20905b815481529060010190602001808311611b3c57829003601f168201915b5050505050815250509250505092915050565b7f920994fc3bfe282f3f20cdccf1b7c5e46c63d963e822d98efff90abd41c12e21611b96816134cf565b60045f8373ffffffffffffffffffffffffffffffffffffffff1673ffffffffffffffffffffffffffffffffffffffff1681526020019081526020015f206005015f9054906101000a900460ff16611c22576040517f08c379a0000000000000000000000000000000000000000000000000000000008152600401611c1990614f23565b60405180910390fd5b611c4c7ffbe1ac7c192839090e0e8fe24586cbf0e3c232386b46344ee88ba44324daee0784612715565b8015611cd9575060075f8473ffffffffffffffffffffffffffffffffffffffff1673ffffffffffffffffffffffffffffffffffffffff1681526020019081526020015f205f8373ffffffffffffffffffffffffffffffffffffffff1673ffffffffffffffffffffffffffffffffffffffff1681526020019081526020015f205f9054906101000a900460ff165b611d18576040517f08c379a0000000000000000000000000000000000000000000000000000000008152600401611d0f90615076565b60405180910390fd5b600160085f8573ffffffffffffffffffffffffffffffffffffffff1673ffffffffffffffffffffffffffffffffffffffff1681526020019081526020015f205f6101000a81548160ff021916908315150217905550505050565b611d7a613e6d565b7f920994fc3bfe282f3f20cdccf1b7c5e46c63d963e822d98efff90abd41c12e21611da4816134cf565b6040518060a001604052808873ffffffffffffffffffffffffffffffffffffffff1681526020018773ffffffffffffffffffffffffffffffffffffffff1681526020018681526020018581526020018481525091505095945050505050565b7f920994fc3bfe282f3f20cdccf1b7c5e46c63d963e822d98efff90abd41c12e21611e2d816134cf565b60045f8573ffffffffffffffffffffffffffffffffffffffff1673ffffffffffffffffffffffffffffffffffffffff1681526020019081526020015f206005015f9054906101000a900460ff16611eb9576040517f08c379a0000000000000000000000000000000000000000000000000000000008152600401611eb0906151fa565b60405180910390fd5b8260065f8673ffffffffffffffffffffffffffffffffffffffff1673ffffffffffffffffffffffffffffffffffffffff1681526020019081526020015f205f60055f8873ffffffffffffffffffffffffffffffffffffffff1673ffffffffffffffffffffffffffffffffffffffff1681526020019081526020015f205481526020019081526020015f205f015f820151815f019081611f5891906153b5565b506020820151816001019081611f6e91906153b5565b5060408201518160020155606082015181600301556080820151816004015560a0820151816005015f6101000a81548173ffffffffffffffffffffffffffffffffffffffff021916908373ffffffffffffffffffffffffffffffffffffffff1602179055509050508160065f8673ffffffffffffffffffffffffffffffffffffffff1673ffffffffffffffffffffffffffffffffffffffff1681526020019081526020015f205f60055f8873ffffffffffffffffffffffffffffffffffffffff1673ffffffffffffffffffffffffffffffffffffffff1681526020019081526020015f205481526020019081526020015f206006015f820151815f015f6101000a81548173ffffffffffffffffffffffffffffffffffffffff021916908373ffffffffffffffffffffffffffffffffffffffff1602179055506020820151816001015f6101000a81548173ffffffffffffffffffffffffffffffffffffffff021916908373ffffffffffffffffffffffffffffffffffffffff1602179055506040820151816002015560608201518160030155608082015181600401908161211691906153b5565b5090505060055f8573ffffffffffffffffffffffffffffffffffffffff1673ffffffffffffffffffffffffffffffffffffffff1681526020019081526020015f205f815480929190612167906154b1565b919050555050505050565b600a602052815f5260405f20602052805f5260405f205f9150915050805f01805461219c90614fd6565b80601f01602080910402602001604051908101604052809291908181526020018280546121c890614fd6565b80156122135780601f106121ea57610100808354040283529160200191612213565b820191905f5260205f20905b8154815290600101906020018083116121f657829003601f168201915b50505050509080600101805461222890614fd6565b80601f016020809104026020016040519081016040528092919081815260200182805461225490614fd6565b801561229f5780601f106122765761010080835404028352916020019161229f565b820191905f5260205f20905b81548152906001019060200180831161228257829003601f168201915b5050505050908060020180546122b490614fd6565b80601f01602080910402602001604051908101604052809291908181526020018280546122e090614fd6565b801561232b5780601f106123025761010080835404028352916020019161232b565b820191905f5260205f20905b81548152906001019060200180831161230e57829003601f168201915b50505050509080600301805461234090614fd6565b80601f016020809104026020016040519081016040528092919081815260200182805461236c90614fd6565b80156123b75780601f1061238e576101008083540402835291602001916123b7565b820191905f5260205f20905b81548152906001019060200180831161239a57829003601f168201915b5050505050905084565b5f60025f9054906101000a900473ffffffffffffffffffffffffffffffffffffffff16905090565b6006602052815f5260405f20602052805f5260405f205f9150915050805f016040518060c00160405290815f8201805461242290614fd6565b80601f016020809104026020016040519081016040528092919081815260200182805461244e90614fd6565b80156124995780601f1061247057610100808354040283529160200191612499565b820191905f5260205f20905b81548152906001019060200180831161247c57829003601f168201915b505050505081526020016001820180546124b290614fd6565b80601f01602080910402602001604051908101604052809291908181526020018280546124de90614fd6565b80156125295780601f1061250057610100808354040283529160200191612529565b820191905f5260205f20905b81548152906001019060200180831161250c57829003601f168201915b50505050508152602001600282015481526020016003820154815260200160048201548152602001600582015f9054906101000a900473ffffffffffffffffffffffffffffffffffffffff1673ffffffffffffffffffffffffffffffffffffffff1673ffffffffffffffffffffffffffffffffffffffff168152505090806006016040518060a00160405290815f82015f9054906101000a900473ffffffffffffffffffffffffffffffffffffffff1673ffffffffffffffffffffffffffffffffffffffff1673ffffffffffffffffffffffffffffffffffffffff168152602001600182015f9054906101000a900473ffffffffffffffffffffffffffffffffffffffff1673ffffffffffffffffffffffffffffffffffffffff1673ffffffffffffffffffffffffffffffffffffffff168152602001600282015481526020016003820154815260200160048201805461268290614fd6565b80601f01602080910402602001604051908101604052809291908181526020018280546126ae90614fd6565b80156126f95780601f106126d0576101008083540402835291602001916126f9565b820191905f5260205f20905b8154815290600101906020018083116126dc57829003601f168201915b505050505081525050905082565b5f6127106123c1565b905090565b5f805f8481526020019081526020015f205f015f8373ffffffffffffffffffffffffffffffffffffffff1673ffffffffffffffffffffffffffffffffffffffff1681526020019081526020015f205f9054906101000a900460ff16905092915050565b6004602052805f5260405f205f91509050805f01805461279790614fd6565b80601f01602080910402602001604051908101604052809291908181526020018280546127c390614fd6565b801561280e5780601f106127e55761010080835404028352916020019161280e565b820191905f5260205f20905b8154815290600101906020018083116127f157829003601f168201915b50505050509080600101805461282390614fd6565b80601f016020809104026020016040519081016040528092919081815260200182805461284f90614fd6565b801561289a5780601f106128715761010080835404028352916020019161289a565b820191905f5260205f20905b81548152906001019060200180831161287d57829003601f168201915b5050505050908060020180546128af90614fd6565b80601f01602080910402602001604051908101604052809291908181526020018280546128db90614fd6565b80156129265780601f106128fd57610100808354040283529160200191612926565b820191905f5260205f20905b81548152906001019060200180831161290957829003601f168201915b50505050509080600301805461293b90614fd6565b80601f016020809104026020016040519081016040528092919081815260200182805461296790614fd6565b80156129b25780601f10612989576101008083540402835291602001916129b2565b820191905f5260205f20905b81548152906001019060200180831161299557829003601f168201915b505050505090806004015490806005015f9054906101000a900460ff16905086565b5f806002601a9054906101000a900465ffffffffffff1690506129f681613511565b8015612a085750612a0681613525565b155b612a13575f80612a2a565b600260149054906101000a900465ffffffffffff16815b915091509091565b5f801b81565b612a40613e45565b7ffbe1ac7c192839090e0e8fe24586cbf0e3c232386b46344ee88ba44324daee07612a6a816134cf565b60045f8573ffffffffffffffffffffffffffffffffffffffff1673ffffffffffffffffffffffffffffffffffffffff1681526020019081526020015f206005015f9054906101000a900460ff16612af6576040517f08c379a0000000000000000000000000000000000000000000000000000000008152600401612aed90614f23565b60405180910390fd5b600b5f8673ffffffffffffffffffffffffffffffffffffffff1673ffffffffffffffffffffffffffffffffffffffff1681526020019081526020015f205f9054906101000a900460ff16612b7f576040517f08c379a0000000000000000000000000000000000000000000000000000000008152600401612b7690615568565b60405180910390fd5b5f60095f8673ffffffffffffffffffffffffffffffffffffffff1673ffffffffffffffffffffffffffffffffffffffff1681526020019081526020015f20549050808410612c02576040517f08c379a0000000000000000000000000000000000000000000000000000000008152600401612bf99061516c565b60405180910390fd5b600a5f8673ffffffffffffffffffffffffffffffffffffffff1673ffffffffffffffffffffffffffffffffffffffff1681526020019081526020015f205f8581526020019081526020015f206040518060800160405290815f82018054612c6890614fd6565b80601f0160208091040260200160405190810160405280929190818152602001828054612c9490614fd6565b8015612cdf5780601f10612cb657610100808354040283529160200191612cdf565b820191905f5260205f20905b815481529060010190602001808311612cc257829003601f168201915b50505050508152602001600182018054612cf890614fd6565b80601f0160208091040260200160405190810160405280929190818152602001828054612d2490614fd6565b8015612d6f5780601f10612d4657610100808354040283529160200191612d6f565b820191905f5260205f20905b815481529060010190602001808311612d5257829003601f168201915b50505050508152602001600282018054612d8890614fd6565b80601f0160208091040260200160405190810160405280929190818152602001828054612db490614fd6565b8015612dff5780601f10612dd657610100808354040283529160200191612dff565b820191905f5260205f20905b815481529060010190602001808311612de257829003601f168201915b50505050508152602001600382018054612e1890614fd6565b80601f0160208091040260200160405190810160405280929190818152602001828054612e4490614fd6565b8015612e8f5780601f10612e6657610100808354040283529160200191612e8f565b820191905f5260205f20905b815481529060010190602001808311612e7257829003601f168201915b505050505081525050925050509392505050565b7f920994fc3bfe282f3f20cdccf1b7c5e46c63d963e822d98efff90abd41c12e21612ecd816134cf565b60045f8773ffffffffffffffffffffffffffffffffffffffff1673ffffffffffffffffffffffffffffffffffffffff1681526020019081526020015f206005015f9054906101000a900460ff16612f59576040517f08c379a0000000000000000000000000000000000000000000000000000000008152600401612f50906151fa565b60405180910390fd5b604051806080016040528086815260200185815260200184815260200183815250600a5f8873ffffffffffffffffffffffffffffffffffffffff1673ffffffffffffffffffffffffffffffffffffffff1681526020019081526020015f205f60095f8a73ffffffffffffffffffffffffffffffffffffffff1673ffffffffffffffffffffffffffffffffffffffff1681526020019081526020015f205481526020019081526020015f205f820151815f01908161301691906153b5565b50602082015181600101908161302c91906153b5565b50604082015181600201908161304291906153b5565b50606082015181600301908161305891906153b5565b5090505060095f8773ffffffffffffffffffffffffffffffffffffffff1673ffffffffffffffffffffffffffffffffffffffff1681526020019081526020015f205f8154809291906130a9906154b1565b9190505550505050505050565b600b602052805f5260405f205f915054906101000a900460ff1681565b5f806002601a9054906101000a900465ffffffffffff1690506130f581613511565b8015613106575061310581613525565b5b613124576001601a9054906101000a900465ffffffffffff1661313a565b600260149054906101000a900465ffffffffffff165b91505090565b5f6131496131d5565b5090508073ffffffffffffffffffffffffffffffffffffffff1661316b613693565b73ffffffffffffffffffffffffffffffffffffffff16146131ca5761318e613693565b6040517fc22c80220000000000000000000000000000000000000000000000000000000081526004016131c19190614be2565b60405180910390fd5b6131d261369a565b50565b5f8060015f9054906101000a900473ffffffffffffffffffffffffffffffffffffffff16600160149054906101000a900465ffffffffffff16915091509091565b5f801b8203613251576040517f3fc3c27a00000000000000000000000000000000000000000000000000000000815260040160405180910390fd5b61325b8282613765565b5050565b5f801b61326b816134cf565b613273613787565b50565b5f801b613282816134cf565b5f151560045f8973ffffffffffffffffffffffffffffffffffffffff1673ffffffffffffffffffffffffffffffffffffffff1681526020019081526020015f206005015f9054906101000a900460ff16151514613314576040517f08c379a000000000000000000000000000000000000000000000000000000000815260040161330b906155f6565b60405180910390fd5b5f6040518060c001604052808881526020018781526020018681526020018581526020018481526020016001151581525090508060045f8a73ffffffffffffffffffffffffffffffffffffffff1673ffffffffffffffffffffffffffffffffffffffff1681526020019081526020015f205f820151815f01908161339891906153b5565b5060208201518160010190816133ae91906153b5565b5060408201518160020190816133c491906153b5565b5060608201518160030190816133da91906153b5565b506080820151816004015560a0820151816005015f6101000a81548160ff0219169083151502179055509050506134317f920994fc3bfe282f3f20cdccf1b7c5e46c63d963e822d98efff90abd41c12e2189610dc4565b5050505050505050565b6005602052805f5260405f205f915090505481565b60035481565b5f7f7965db0b000000000000000000000000000000000000000000000000000000007bffffffffffffffffffffffffffffffffffffffffffffffffffffffff1916827bffffffffffffffffffffffffffffffffffffffffffffffffffffffff191614806134c857506134c782613793565b5b9050919050565b6134e0816134db613693565b6137fc565b50565b6134ed5f8061384d565b565b6134f8826108bc565b613501816134cf565b61350b838361393c565b50505050565b5f808265ffffffffffff1614159050919050565b5f428265ffffffffffff16109050919050565b613540613693565b73ffffffffffffffffffffffffffffffffffffffff168173ffffffffffffffffffffffffffffffffffffffff16146135a4576040517f6697b23200000000000000000000000000000000000000000000000000000000815260040160405180910390fd5b6135ae8282613a05565b505050565b5f6135bc6130d3565b6135c542613a85565b6135cf9190615614565b90506135db8282613ade565b8173ffffffffffffffffffffffffffffffffffffffff167f3377dc44241e779dd06afab5b788a35ca5f3b778836e2990bdb26a2a4b2e5ed6826040516136219190613fa8565b60405180910390a25050565b5f61363782613b8f565b61364042613a85565b61364a9190615614565b9050613656828261384d565b7ff1038c18cf84a56e432fdbfaf746924b7ea511dfe03a6506a0ceba4888788d9b8282604051613687929190614cab565b60405180910390a15050565b5f33905090565b5f806136a46131d5565b915091506136b181613511565b15806136c357506136c181613525565b155b1561370557806040517f19ca5ebb0000000000000000000000000000000000000000000000000000000081526004016136fc9190613fa8565b60405180910390fd5b6137185f801b6137136123c1565b613a05565b506137255f801b8361393c565b5060015f6101000a81549073ffffffffffffffffffffffffffffffffffffffff0219169055600160146101000a81549065ffffffffffff02191690555050565b61376e826108bc565b613777816134cf565b6137818383613a05565b50505050565b6137915f80613ade565b565b5f7f01ffc9a7000000000000000000000000000000000000000000000000000000007bffffffffffffffffffffffffffffffffffffffffffffffffffffffff1916827bffffffffffffffffffffffffffffffffffffffffffffffffffffffff1916149050919050565b6138068282612715565b6138495780826040517fe2517d3f00000000000000000000000000000000000000000000000000000000815260040161384092919061564d565b60405180910390fd5b5050565b5f6002601a9054906101000a900465ffffffffffff16905061386e81613511565b156138ed5761387c81613525565b156138bf57600260149054906101000a900465ffffffffffff166001601a6101000a81548165ffffffffffff021916908365ffffffffffff1602179055506138ec565b7f2b1fa2edafe6f7b9e97c1a9e0c3660e645beb2dcaa2d45bdbf9beaf5472e1ec560405160405180910390a15b5b82600260146101000a81548165ffffffffffff021916908365ffffffffffff160217905550816002601a6101000a81548165ffffffffffff021916908365ffffffffffff160217905550505050565b5f805f1b83036139f3575f73ffffffffffffffffffffffffffffffffffffffff166139656123c1565b73ffffffffffffffffffffffffffffffffffffffff16146139b2576040517f3fc3c27a00000000000000000000000000000000000000000000000000000000815260040160405180910390fd5b8160025f6101000a81548173ffffffffffffffffffffffffffffffffffffffff021916908373ffffffffffffffffffffffffffffffffffffffff1602179055505b6139fd8383613bed565b905092915050565b5f805f1b83148015613a495750613a1a6123c1565b73ffffffffffffffffffffffffffffffffffffffff168273ffffffffffffffffffffffffffffffffffffffff16145b15613a735760025f6101000a81549073ffffffffffffffffffffffffffffffffffffffff02191690555b613a7d8383613cd6565b905092915050565b5f65ffffffffffff8016821115613ad6576030826040517f6dfcc650000000000000000000000000000000000000000000000000000000008152600401613acd9291906156b9565b60405180910390fd5b819050919050565b5f613ae76131d5565b9150508260015f6101000a81548173ffffffffffffffffffffffffffffffffffffffff021916908373ffffffffffffffffffffffffffffffffffffffff16021790555081600160146101000a81548165ffffffffffff021916908365ffffffffffff160217905550613b5881613511565b15613b8a577f8886ebfc4259abdbc16601dd8fb5678e54878f47b3c34836cfc51154a960510960405160405180910390a15b505050565b5f80613b996130d3565b90508065ffffffffffff168365ffffffffffff1611613bc3578281613bbe91906156e0565b613be5565b613be48365ffffffffffff16613bd761089b565b65ffffffffffff16613dbf565b5b915050919050565b5f613bf88383612715565b613ccc5760015f808581526020019081526020015f205f015f8473ffffffffffffffffffffffffffffffffffffffff1673ffffffffffffffffffffffffffffffffffffffff1681526020019081526020015f205f6101000a81548160ff021916908315150217905550613c69613693565b73ffffffffffffffffffffffffffffffffffffffff168273ffffffffffffffffffffffffffffffffffffffff16847f2f8788117e7eff1d82e926ec794901d17c78024a50270940304540a733656f0d60405160405180910390a460019050613cd0565b5f90505b92915050565b5f613ce18383612715565b15613db5575f805f8581526020019081526020015f205f015f8473ffffffffffffffffffffffffffffffffffffffff1673ffffffffffffffffffffffffffffffffffffffff1681526020019081526020015f205f6101000a81548160ff021916908315150217905550613d52613693565b73ffffffffffffffffffffffffffffffffffffffff168273ffffffffffffffffffffffffffffffffffffffff16847ff6391f5c32d9c69d2a47ea670b442974b53935d1edc7fd64eb21e047a839171b60405160405180910390a460019050613db9565b5f90505b92915050565b5f818310613dcd5781613dcf565b825b905092915050565b6040518060400160405280613dea613dfd565b8152602001613df7613e6d565b81525090565b6040518060c0016040528060608152602001606081526020015f81526020015f81526020015f81526020015f73ffffffffffffffffffffffffffffffffffffffff1681525090565b6040518060800160405280606081526020016060815260200160608152602001606081525090565b6040518060a001604052805f73ffffffffffffffffffffffffffffffffffffffff1681526020015f73ffffffffffffffffffffffffffffffffffffffff1681526020015f81526020015f8152602001606081525090565b5f604051905090565b5f80fd5b5f80fd5b5f7fffffffff0000000000000000000000000000000000000000000000000000000082169050919050565b613f0981613ed5565b8114613f13575f80fd5b50565b5f81359050613f2481613f00565b92915050565b5f60208284031215613f3f57613f3e613ecd565b5b5f613f4c84828501613f16565b91505092915050565b5f8115159050919050565b613f6981613f55565b82525050565b5f602082019050613f825f830184613f60565b92915050565b5f65ffffffffffff82169050919050565b613fa281613f88565b82525050565b5f602082019050613fbb5f830184613f99565b92915050565b5f819050919050565b613fd381613fc1565b8114613fdd575f80fd5b50565b5f81359050613fee81613fca565b92915050565b5f6020828403121561400957614008613ecd565b5b5f61401684828501613fe0565b91505092915050565b61402881613fc1565b82525050565b5f6020820190506140415f83018461401f565b92915050565b5f73ffffffffffffffffffffffffffffffffffffffff82169050919050565b5f61407082614047565b9050919050565b61408081614066565b811461408a575f80fd5b50565b5f8135905061409b81614077565b92915050565b5f80604083850312156140b7576140b6613ecd565b5b5f6140c48582860161408d565b92505060206140d585828601613fe0565b9150509250929050565b5f819050919050565b6140f1816140df565b81146140fb575f80fd5b50565b5f8135905061410c816140e8565b92915050565b5f806040838503121561412857614127613ecd565b5b5f6141358582860161408d565b9250506020614146858286016140fe565b9150509250929050565b5f81519050919050565b5f82825260208201905092915050565b5f5b8381101561418757808201518184015260208101905061416c565b5f8484015250505050565b5f601f19601f8301169050919050565b5f6141ac82614150565b6141b6818561415a565b93506141c681856020860161416a565b6141cf81614192565b840191505092915050565b6141e3816140df565b82525050565b6141f281614066565b82525050565b5f60c083015f8301518482035f86015261421282826141a2565b9150506020830151848203602086015261422c82826141a2565b915050604083015161424160408601826141da565b50606083015161425460608601826141da565b50608083015161426760808601826141da565b5060a083015161427a60a08601826141e9565b508091505092915050565b5f60a083015f83015161429a5f8601826141e9565b5060208301516142ad60208601826141e9565b5060408301516142c060408601826141da565b5060608301516142d360608601826141da565b50608083015184820360808601526142eb82826141a2565b9150508091505092915050565b5f604083015f8301518482035f86015261431282826141f8565b9150506020830151848203602086015261432c8282614285565b9150508091505092915050565b5f6020820190508181035f83015261435181846142f8565b905092915050565b5f806040838503121561436f5761436e613ecd565b5b5f61437c85828601613fe0565b925050602061438d8582860161408d565b9150509250929050565b5f602082840312156143ac576143ab613ecd565b5b5f6143b98482850161408d565b91505092915050565b5f80604083850312156143d8576143d7613ecd565b5b5f6143e58582860161408d565b92505060206143f68582860161408d565b9150509250929050565b5f80fd5b5f80fd5b7f4e487b71000000000000000000000000000000000000000000000000000000005f52604160045260245ffd5b61443e82614192565b810181811067ffffffffffffffff8211171561445d5761445c614408565b5b80604052505050565b5f61446f613ec4565b905061447b8282614435565b919050565b5f67ffffffffffffffff82111561449a57614499614408565b5b6144a382614192565b9050602081019050919050565b828183375f83830152505050565b5f6144d06144cb84614480565b614466565b9050828152602081018484840111156144ec576144eb614404565b5b6144f78482856144b0565b509392505050565b5f82601f83011261451357614512614400565b5b81356145238482602086016144be565b91505092915050565b5f805f805f8060c0878903121561454657614545613ecd565b5b5f87013567ffffffffffffffff81111561456357614562613ed1565b5b61456f89828a016144ff565b965050602087013567ffffffffffffffff8111156145905761458f613ed1565b5b61459c89828a016144ff565b95505060406145ad89828a016140fe565b94505060606145be89828a016140fe565b93505060806145cf89828a016140fe565b92505060a06145e089828a0161408d565b9150509295509295509295565b5f60c083015f8301518482035f86015261460782826141a2565b9150506020830151848203602086015261462182826141a2565b915050604083015161463660408601826141da565b50606083015161464960608601826141da565b50608083015161465c60808601826141da565b5060a083015161466f60a08601826141e9565b508091505092915050565b5f6020820190508181035f83015261469281846145ed565b905092915050565b6146a3816140df565b82525050565b5f6020820190506146bc5f83018461469a565b92915050565b5f805f606084860312156146d9576146d8613ecd565b5b5f6146e68682870161408d565b93505060206146f78682870161408d565b9250506040614708868287016140fe565b9150509250925092565b61471b81613f88565b8114614725575f80fd5b50565b5f8135905061473681614712565b92915050565b5f6020828403121561475157614750613ecd565b5b5f61475e84828501614728565b91505092915050565b5f608083015f8301518482035f86015261478182826141a2565b9150506020830151848203602086015261479b82826141a2565b915050604083015184820360408601526147b582826141a2565b915050606083015184820360608601526147cf82826141a2565b9150508091505092915050565b5f6020820190508181035f8301526147f48184614767565b905092915050565b5f805f805f60a0868803121561481557614814613ecd565b5b5f6148228882890161408d565b95505060206148338882890161408d565b9450506040614844888289016140fe565b9350506060614855888289016140fe565b925050608086013567ffffffffffffffff81111561487657614875613ed1565b5b614882888289016144ff565b9150509295509295909350565b5f60a083015f8301516148a45f8601826141e9565b5060208301516148b760208601826141e9565b5060408301516148ca60408601826141da565b5060608301516148dd60608601826141da565b50608083015184820360808601526148f582826141a2565b9150508091505092915050565b5f6020820190508181035f83015261491a818461488f565b905092915050565b5f80fd5b5f80fd5b5f60c0828403121561493f5761493e614922565b5b61494960c0614466565b90505f82013567ffffffffffffffff81111561496857614967614926565b5b614974848285016144ff565b5f83015250602082013567ffffffffffffffff81111561499757614996614926565b5b6149a3848285016144ff565b60208301525060406149b7848285016140fe565b60408301525060606149cb848285016140fe565b60608301525060806149df848285016140fe565b60808301525060a06149f38482850161408d565b60a08301525092915050565b5f60a08284031215614a1457614a13614922565b5b614a1e60a0614466565b90505f614a2d8482850161408d565b5f830152506020614a408482850161408d565b6020830152506040614a54848285016140fe565b6040830152506060614a68848285016140fe565b606083015250608082013567ffffffffffffffff811115614a8c57614a8b614926565b5b614a98848285016144ff565b60808301525092915050565b5f805f60608486031215614abb57614aba613ecd565b5b5f614ac88682870161408d565b935050602084013567ffffffffffffffff811115614ae957614ae8613ed1565b5b614af58682870161492a565b925050604084013567ffffffffffffffff811115614b1657614b15613ed1565b5b614b22868287016149ff565b9150509250925092565b5f82825260208201905092915050565b5f614b4682614150565b614b508185614b2c565b9350614b6081856020860161416a565b614b6981614192565b840191505092915050565b5f6080820190508181035f830152614b8c8187614b3c565b90508181036020830152614ba08186614b3c565b90508181036040830152614bb48185614b3c565b90508181036060830152614bc88184614b3c565b905095945050505050565b614bdc81614066565b82525050565b5f602082019050614bf55f830184614bd3565b92915050565b5f6040820190508181035f830152614c1381856145ed565b90508181036020830152614c27818461488f565b90509392505050565b5f60c0820190508181035f830152614c488189614b3c565b90508181036020830152614c5c8188614b3c565b90508181036040830152614c708187614b3c565b90508181036060830152614c848186614b3c565b9050614c93608083018561469a565b614ca060a0830184613f60565b979650505050505050565b5f604082019050614cbe5f830185613f99565b614ccb6020830184613f99565b9392505050565b5f805f805f60a08688031215614ceb57614cea613ecd565b5b5f614cf88882890161408d565b955050602086013567ffffffffffffffff811115614d1957614d18613ed1565b5b614d25888289016144ff565b945050604086013567ffffffffffffffff811115614d4657614d45613ed1565b5b614d52888289016144ff565b935050606086013567ffffffffffffffff811115614d7357614d72613ed1565b5b614d7f888289016144ff565b925050608086013567ffffffffffffffff811115614da057614d9f613ed1565b5b614dac888289016144ff565b9150509295509295909350565b5f604082019050614dcc5f830185614bd3565b614dd96020830184613f99565b9392505050565b5f805f805f8060c08789031215614dfa57614df9613ecd565b5b5f614e0789828a0161408d565b965050602087013567ffffffffffffffff811115614e2857614e27613ed1565b5b614e3489828a016144ff565b955050604087013567ffffffffffffffff811115614e5557614e54613ed1565b5b614e6189828a016144ff565b945050606087013567ffffffffffffffff811115614e8257614e81613ed1565b5b614e8e89828a016144ff565b935050608087013567ffffffffffffffff811115614eaf57614eae613ed1565b5b614ebb89828a016144ff565b92505060a0614ecc89828a016140fe565b9150509295509295509295565b7f4572726f723a20456e7465727072697365206e6f7420726567697374657265645f82015250565b5f614f0d602083614b2c565b9150614f1882614ed9565b602082019050919050565b5f6020820190508181035f830152614f3a81614f01565b9050919050565b7f4572726f723a20496e76616c69642074726164654964000000000000000000005f82015250565b5f614f75601683614b2c565b9150614f8082614f41565b602082019050919050565b5f6020820190508181035f830152614fa281614f69565b9050919050565b7f4e487b71000000000000000000000000000000000000000000000000000000005f52602260045260245ffd5b5f6002820490506001821680614fed57607f821691505b60208210810361500057614fff614fa9565b5b50919050565b7f4572726f723a205f66756e64696e67506172747941646472206e6f742046554e5f8201527f44494e475f50415254595f524f4c450000000000000000000000000000000000602082015250565b5f615060602f83614b2c565b915061506b82615006565b604082019050919050565b5f6020820190508181035f83015261508d81615054565b9050919050565b7f5468652046756e64696e6720506172747920686173206e6f20547261646520445f8201527f6174612061636365737300000000000000000000000000000000000000000000602082015250565b5f6150ee602a83614b2c565b91506150f982615094565b604082019050919050565b5f6020820190508181035f83015261511b816150e2565b9050919050565b7f4572726f723a20496e76616c6964206c6f6769737469637349640000000000005f82015250565b5f615156601a83614b2c565b915061516182615122565b602082019050919050565b5f6020820190508181035f8301526151838161514a565b9050919050565b7f4572726f723a20456e7465727072697365206e6f7420726567697374657265645f8201527f2e00000000000000000000000000000000000000000000000000000000000000602082015250565b5f6151e4602183614b2c565b91506151ef8261518a565b604082019050919050565b5f6020820190508181035f830152615211816151d8565b9050919050565b5f819050815f5260205f209050919050565b5f6020601f8301049050919050565b5f82821b905092915050565b5f600883026152747fffffffffffffffffffffffffffffffffffffffffffffffffffffffffffffffff82615239565b61527e8683615239565b95508019841693508086168417925050509392505050565b5f819050919050565b5f6152b96152b46152af846140df565b615296565b6140df565b9050919050565b5f819050919050565b6152d28361529f565b6152e66152de826152c0565b848454615245565b825550505050565b5f90565b6152fa6152ee565b6153058184846152c9565b505050565b5b818110156153285761531d5f826152f2565b60018101905061530b565b5050565b601f82111561536d5761533e81615218565b6153478461522a565b81016020851015615356578190505b61536a6153628561522a565b83018261530a565b50505b505050565b5f82821c905092915050565b5f61538d5f1984600802615372565b1980831691505092915050565b5f6153a5838361537e565b9150826002028217905092915050565b6153be82614150565b67ffffffffffffffff8111156153d7576153d6614408565b5b6153e18254614fd6565b6153ec82828561532c565b5f60209050601f83116001811461541d575f841561540b578287015190505b615415858261539a565b86555061547c565b601f19841661542b86615218565b5f5b828110156154525784890151825560018201915060208501945060208101905061542d565b8683101561546f578489015161546b601f89168261537e565b8355505b6001600288020188555050505b505050505050565b7f4e487b71000000000000000000000000000000000000000000000000000000005f52601160045260245ffd5b5f6154bb826140df565b91507fffffffffffffffffffffffffffffffffffffffffffffffffffffffffffffffff82036154ed576154ec615484565b5b600182019050919050565b7f5468652046756e64696e6720506172747920686173206e6f204c6f67697374695f8201527f6373206163636573730000000000000000000000000000000000000000000000602082015250565b5f615552602983614b2c565b915061555d826154f8565b604082019050919050565b5f6020820190508181035f83015261557f81615546565b9050919050565b7f4572726f72203a205468697320616464726573732068617320616c72656164795f8201527f206265656e206164646564206173206120656e74657270726973652e00000000602082015250565b5f6155e0603c83614b2c565b91506155eb82615586565b604082019050919050565b5f6020820190508181035f83015261560d816155d4565b9050919050565b5f61561e82613f88565b915061562983613f88565b9250828201905065ffffffffffff81111561564757615646615484565b5b92915050565b5f6040820190506156605f830185614bd3565b61566d602083018461401f565b9392505050565b5f819050919050565b5f60ff82169050919050565b5f6156a361569e61569984615674565b615296565b61567d565b9050919050565b6156b381615689565b82525050565b5f6040820190506156cc5f8301856156aa565b6156d9602083018461469a565b9392505050565b5f6156ea82613f88565b91506156f583613f88565b9250828203905065ffffffffffff81111561571357615712615484565b5b9291505056fea2646970667358221220981a0ed31b9995b21fcb0199dff60ae85daca1ca0733e6c4a20eeacfc79b216264736f6c63430008160033",
			"opcodes": "PUSH1 0x80 PUSH1 0x40 MSTORE CALLVALUE DUP1 ISZERO PUSH3 0x10 JUMPI PUSH0 DUP1 REVERT JUMPDEST POP PUSH3 0x3F480 CALLER PUSH0 PUSH20 0xFFFFFFFFFFFFFFFFFFFFFFFFFFFFFFFFFFFFFFFF AND DUP2 PUSH20 0xFFFFFFFFFFFFFFFFFFFFFFFFFFFFFFFFFFFFFFFF AND SUB PUSH3 0x89 JUMPI PUSH0 PUSH1 0x40 MLOAD PUSH32 0xC22C802200000000000000000000000000000000000000000000000000000000 DUP2 MSTORE PUSH1 0x4 ADD PUSH3 0x80 SWAP2 SWAP1 PUSH3 0x3EB JUMP JUMPDEST PUSH1 0x40 MLOAD DUP1 SWAP2 SUB SWAP1 REVERT JUMPDEST DUP2 PUSH1 0x1 PUSH1 0x1A PUSH2 0x100 EXP DUP2 SLOAD DUP2 PUSH6 0xFFFFFFFFFFFF MUL NOT AND SWAP1 DUP4 PUSH6 0xFFFFFFFFFFFF AND MUL OR SWAP1 SSTORE POP PUSH3 0xC2 PUSH0 DUP1 SHL DUP3 PUSH3 0x140 PUSH1 0x20 SHL PUSH1 0x20 SHR JUMP JUMPDEST POP POP POP PUSH32 0x920994FC3BFE282F3F20CDCCF1B7C5E46C63D963E822D98EFFF90ABD41C12E21 PUSH1 0xC PUSH0 DUP1 DUP2 MSTORE PUSH1 0x20 ADD SWAP1 DUP2 MSTORE PUSH1 0x20 ADD PUSH0 KECCAK256 DUP2 SWAP1 SSTORE POP PUSH32 0xFBE1AC7C192839090E0E8FE24586CBF0E3C232386B46344EE88BA44324DAEE07 PUSH1 0xC PUSH0 PUSH1 0x1 DUP2 MSTORE PUSH1 0x20 ADD SWAP1 DUP2 MSTORE PUSH1 0x20 ADD PUSH0 KECCAK256 DUP2 SWAP1 SSTORE POP PUSH1 0x2 PUSH1 0x3 DUP2 SWAP1 SSTORE POP PUSH3 0x406 JUMP JUMPDEST PUSH0 DUP1 PUSH0 SHL DUP4 SUB PUSH3 0x201 JUMPI PUSH0 PUSH20 0xFFFFFFFFFFFFFFFFFFFFFFFFFFFFFFFFFFFFFFFF AND PUSH3 0x172 PUSH3 0x21B PUSH1 0x20 SHL PUSH1 0x20 SHR JUMP JUMPDEST PUSH20 0xFFFFFFFFFFFFFFFFFFFFFFFFFFFFFFFFFFFFFFFF AND EQ PUSH3 0x1C0 JUMPI PUSH1 0x40 MLOAD PUSH32 0x3FC3C27A00000000000000000000000000000000000000000000000000000000 DUP2 MSTORE PUSH1 0x4 ADD PUSH1 0x40 MLOAD DUP1 SWAP2 SUB SWAP1 REVERT JUMPDEST DUP2 PUSH1 0x2 PUSH0 PUSH2 0x100 EXP DUP2 SLOAD DUP2 PUSH20 0xFFFFFFFFFFFFFFFFFFFFFFFFFFFFFFFFFFFFFFFF MUL NOT AND SWAP1 DUP4 PUSH20 0xFFFFFFFFFFFFFFFFFFFFFFFFFFFFFFFFFFFFFFFF AND MUL OR SWAP1 SSTORE POP JUMPDEST PUSH3 0x213 DUP4 DUP4 PUSH3 0x243 PUSH1 0x20 SHL PUSH1 0x20 SHR JUMP JUMPDEST SWAP1 POP SWAP3 SWAP2 POP POP JUMP JUMPDEST PUSH0 PUSH1 0x2 PUSH0 SWAP1 SLOAD SWAP1 PUSH2 0x100 EXP SWAP1 DIV PUSH20 0xFFFFFFFFFFFFFFFFFFFFFFFFFFFFFFFFFFFFFFFF AND SWAP1 POP SWAP1 JUMP JUMPDEST PUSH0 PUSH3 0x256 DUP4 DUP4 PUSH3 0x33E PUSH1 0x20 SHL PUSH1 0x20 SHR JUMP JUMPDEST PUSH3 0x334 JUMPI PUSH1 0x1 PUSH0 DUP1 DUP6 DUP2 MSTORE PUSH1 0x20 ADD SWAP1 DUP2 MSTORE PUSH1 0x20 ADD PUSH0 KECCAK256 PUSH0 ADD PUSH0 DUP5 PUSH20 0xFFFFFFFFFFFFFFFFFFFFFFFFFFFFFFFFFFFFFFFF AND PUSH20 0xFFFFFFFFFFFFFFFFFFFFFFFFFFFFFFFFFFFFFFFF AND DUP2 MSTORE PUSH1 0x20 ADD SWAP1 DUP2 MSTORE PUSH1 0x20 ADD PUSH0 KECCAK256 PUSH0 PUSH2 0x100 EXP DUP2 SLOAD DUP2 PUSH1 0xFF MUL NOT AND SWAP1 DUP4 ISZERO ISZERO MUL OR SWAP1 SSTORE POP PUSH3 0x2D0 PUSH3 0x3A1 PUSH1 0x20 SHL PUSH1 0x20 SHR JUMP JUMPDEST PUSH20 0xFFFFFFFFFFFFFFFFFFFFFFFFFFFFFFFFFFFFFFFF AND DUP3 PUSH20 0xFFFFFFFFFFFFFFFFFFFFFFFFFFFFFFFFFFFFFFFF AND DUP5 PUSH32 0x2F8788117E7EFF1D82E926EC794901D17C78024A50270940304540A733656F0D PUSH1 0x40 MLOAD PUSH1 0x40 MLOAD DUP1 SWAP2 SUB SWAP1 LOG4 PUSH1 0x1 SWAP1 POP PUSH3 0x338 JUMP JUMPDEST PUSH0 SWAP1 POP JUMPDEST SWAP3 SWAP2 POP POP JUMP JUMPDEST PUSH0 DUP1 PUSH0 DUP5 DUP2 MSTORE PUSH1 0x20 ADD SWAP1 DUP2 MSTORE PUSH1 0x20 ADD PUSH0 KECCAK256 PUSH0 ADD PUSH0 DUP4 PUSH20 0xFFFFFFFFFFFFFFFFFFFFFFFFFFFFFFFFFFFFFFFF AND PUSH20 0xFFFFFFFFFFFFFFFFFFFFFFFFFFFFFFFFFFFFFFFF AND DUP2 MSTORE PUSH1 0x20 ADD SWAP1 DUP2 MSTORE PUSH1 0x20 ADD PUSH0 KECCAK256 PUSH0 SWAP1 SLOAD SWAP1 PUSH2 0x100 EXP SWAP1 DIV PUSH1 0xFF AND SWAP1 POP SWAP3 SWAP2 POP POP JUMP JUMPDEST PUSH0 CALLER SWAP1 POP SWAP1 JUMP JUMPDEST PUSH0 PUSH20 0xFFFFFFFFFFFFFFFFFFFFFFFFFFFFFFFFFFFFFFFF DUP3 AND SWAP1 POP SWAP2 SWAP1 POP JUMP JUMPDEST PUSH0 PUSH3 0x3D3 DUP3 PUSH3 0x3A8 JUMP JUMPDEST SWAP1 POP SWAP2 SWAP1 POP JUMP JUMPDEST PUSH3 0x3E5 DUP2 PUSH3 0x3C7 JUMP JUMPDEST DUP3 MSTORE POP POP JUMP JUMPDEST PUSH0 PUSH1 0x20 DUP3 ADD SWAP1 POP PUSH3 0x400 PUSH0 DUP4 ADD DUP5 PUSH3 0x3DA JUMP JUMPDEST SWAP3 SWAP2 POP POP JUMP JUMPDEST PUSH2 0x574F DUP1 PUSH3 0x414 PUSH0 CODECOPY PUSH0 RETURN INVALID PUSH1 0x80 PUSH1 0x40 MSTORE CALLVALUE DUP1 ISZERO PUSH2 0xF JUMPI PUSH0 DUP1 REVERT JUMPDEST POP PUSH1 0x4 CALLDATASIZE LT PUSH2 0x251 JUMPI PUSH0 CALLDATALOAD PUSH1 0xE0 SHR DUP1 PUSH4 0x6F476034 GT PUSH2 0x144 JUMPI DUP1 PUSH4 0xA2C6393B GT PUSH2 0xC1 JUMPI DUP1 PUSH4 0xCF6EEFB7 GT PUSH2 0x85 JUMPI DUP1 PUSH4 0xCF6EEFB7 EQ PUSH2 0x773 JUMPI DUP1 PUSH4 0xD547741F EQ PUSH2 0x792 JUMPI DUP1 PUSH4 0xD602B9FD EQ PUSH2 0x7AE JUMPI DUP1 PUSH4 0xF98B5998 EQ PUSH2 0x7B8 JUMPI DUP1 PUSH4 0xFA7E6BF5 EQ PUSH2 0x7D4 JUMPI DUP1 PUSH4 0xFC04F4BA EQ PUSH2 0x804 JUMPI PUSH2 0x251 JUMP JUMPDEST DUP1 PUSH4 0xA2C6393B EQ PUSH2 0x6CF JUMPI DUP1 PUSH4 0xA3FF907B EQ PUSH2 0x6FF JUMPI DUP1 PUSH4 0xC8C4A0F2 EQ PUSH2 0x71B JUMPI DUP1 PUSH4 0xCC8463C8 EQ PUSH2 0x74B JUMPI DUP1 PUSH4 0xCEFC1429 EQ PUSH2 0x769 JUMPI PUSH2 0x251 JUMP JUMPDEST DUP1 PUSH4 0x8DA5CB5B GT PUSH2 0x108 JUMPI DUP1 PUSH4 0x8DA5CB5B EQ PUSH2 0x60F JUMPI DUP1 PUSH4 0x91D14854 EQ PUSH2 0x62D JUMPI DUP1 PUSH4 0xA10FD6D8 EQ PUSH2 0x65D JUMPI DUP1 PUSH4 0xA1EDA53C EQ PUSH2 0x692 JUMPI DUP1 PUSH4 0xA217FDDF EQ PUSH2 0x6B1 JUMPI PUSH2 0x251 JUMP JUMPDEST DUP1 PUSH4 0x6F476034 EQ PUSH2 0x541 JUMPI DUP1 PUSH4 0x78AEE5AA EQ PUSH2 0x571 JUMPI DUP1 PUSH4 0x83913AEE EQ PUSH2 0x58D JUMPI DUP1 PUSH4 0x84EF8FFC EQ PUSH2 0x5C0 JUMPI DUP1 PUSH4 0x88560F91 EQ PUSH2 0x5DE JUMPI PUSH2 0x251 JUMP JUMPDEST DUP1 PUSH4 0x3E0A60DB GT PUSH2 0x1D2 JUMPI DUP1 PUSH4 0x634E93DA GT PUSH2 0x196 JUMPI DUP1 PUSH4 0x634E93DA EQ PUSH2 0x49F JUMPI DUP1 PUSH4 0x649A5EC7 EQ PUSH2 0x4BB JUMPI DUP1 PUSH4 0x68DD17A5 EQ PUSH2 0x4D7 JUMPI DUP1 PUSH4 0x69D1369B EQ PUSH2 0x4F5 JUMPI DUP1 PUSH4 0x6C8C51E4 EQ PUSH2 0x525 JUMPI PUSH2 0x251 JUMP JUMPDEST DUP1 PUSH4 0x3E0A60DB EQ PUSH2 0x3C3 JUMPI DUP1 PUSH4 0x5263FB1D EQ PUSH2 0x3DF JUMPI DUP1 PUSH4 0x54F8A622 EQ PUSH2 0x40F JUMPI DUP1 PUSH4 0x59945AE7 EQ PUSH2 0x43F JUMPI DUP1 PUSH4 0x59CF7C4F EQ PUSH2 0x46F JUMPI PUSH2 0x251 JUMP JUMPDEST DUP1 PUSH4 0x2AE8A7E3 GT PUSH2 0x219 JUMPI DUP1 PUSH4 0x2AE8A7E3 EQ PUSH2 0x2FB JUMPI DUP1 PUSH4 0x2BCD799E EQ PUSH2 0x32B JUMPI DUP1 PUSH4 0x2F2FF15D EQ PUSH2 0x35B JUMPI DUP1 PUSH4 0x354C2BF8 EQ PUSH2 0x377 JUMPI DUP1 PUSH4 0x36568ABE EQ PUSH2 0x3A7 JUMPI PUSH2 0x251 JUMP JUMPDEST DUP1 PUSH4 0x1FFC9A7 EQ PUSH2 0x255 JUMPI DUP1 PUSH4 0x22D63FB EQ PUSH2 0x285 JUMPI DUP1 PUSH4 0xAA6220B EQ PUSH2 0x2A3 JUMPI DUP1 PUSH4 0x248A9CA3 EQ PUSH2 0x2AD JUMPI DUP1 PUSH4 0x279185A0 EQ PUSH2 0x2DD JUMPI JUMPDEST PUSH0 DUP1 REVERT JUMPDEST PUSH2 0x26F PUSH1 0x4 DUP1 CALLDATASIZE SUB DUP2 ADD SWAP1 PUSH2 0x26A SWAP2 SWAP1 PUSH2 0x3F2A JUMP JUMPDEST PUSH2 0x822 JUMP JUMPDEST PUSH1 0x40 MLOAD PUSH2 0x27C SWAP2 SWAP1 PUSH2 0x3F6F JUMP JUMPDEST PUSH1 0x40 MLOAD DUP1 SWAP2 SUB SWAP1 RETURN JUMPDEST PUSH2 0x28D PUSH2 0x89B JUMP JUMPDEST PUSH1 0x40 MLOAD PUSH2 0x29A SWAP2 SWAP1 PUSH2 0x3FA8 JUMP JUMPDEST PUSH1 0x40 MLOAD DUP1 SWAP2 SUB SWAP1 RETURN JUMPDEST PUSH2 0x2AB PUSH2 0x8A5 JUMP JUMPDEST STOP JUMPDEST PUSH2 0x2C7 PUSH1 0x4 DUP1 CALLDATASIZE SUB DUP2 ADD SWAP1 PUSH2 0x2C2 SWAP2 SWAP1 PUSH2 0x3FF4 JUMP JUMPDEST PUSH2 0x8BC JUMP JUMPDEST PUSH1 0x40 MLOAD PUSH2 0x2D4 SWAP2 SWAP1 PUSH2 0x402E JUMP JUMPDEST PUSH1 0x40 MLOAD DUP1 SWAP2 SUB SWAP1 RETURN JUMPDEST PUSH2 0x2E5 PUSH2 0x8D8 JUMP JUMPDEST PUSH1 0x40 MLOAD PUSH2 0x2F2 SWAP2 SWAP1 PUSH2 0x402E JUMP JUMPDEST PUSH1 0x40 MLOAD DUP1 SWAP2 SUB SWAP1 RETURN JUMPDEST PUSH2 0x315 PUSH1 0x4 DUP1 CALLDATASIZE SUB DUP2 ADD SWAP1 PUSH2 0x310 SWAP2 SWAP1 PUSH2 0x40A1 JUMP JUMPDEST PUSH2 0x8FC JUMP JUMPDEST PUSH1 0x40 MLOAD PUSH2 0x322 SWAP2 SWAP1 PUSH2 0x3F6F JUMP JUMPDEST PUSH1 0x40 MLOAD DUP1 SWAP2 SUB SWAP1 RETURN JUMPDEST PUSH2 0x345 PUSH1 0x4 DUP1 CALLDATASIZE SUB DUP2 ADD SWAP1 PUSH2 0x340 SWAP2 SWAP1 PUSH2 0x4112 JUMP JUMPDEST PUSH2 0x91C JUMP JUMPDEST PUSH1 0x40 MLOAD PUSH2 0x352 SWAP2 SWAP1 PUSH2 0x4339 JUMP JUMPDEST PUSH1 0x40 MLOAD DUP1 SWAP2 SUB SWAP1 RETURN JUMPDEST PUSH2 0x375 PUSH1 0x4 DUP1 CALLDATASIZE SUB DUP2 ADD SWAP1 PUSH2 0x370 SWAP2 SWAP1 PUSH2 0x4359 JUMP JUMPDEST PUSH2 0xDC4 JUMP JUMPDEST STOP JUMPDEST PUSH2 0x391 PUSH1 0x4 DUP1 CALLDATASIZE SUB DUP2 ADD SWAP1 PUSH2 0x38C SWAP2 SWAP1 PUSH2 0x4397 JUMP JUMPDEST PUSH2 0xE0D JUMP JUMPDEST PUSH1 0x40 MLOAD PUSH2 0x39E SWAP2 SWAP1 PUSH2 0x3F6F JUMP JUMPDEST PUSH1 0x40 MLOAD DUP1 SWAP2 SUB SWAP1 RETURN JUMPDEST PUSH2 0x3C1 PUSH1 0x4 DUP1 CALLDATASIZE SUB DUP2 ADD SWAP1 PUSH2 0x3BC SWAP2 SWAP1 PUSH2 0x4359 JUMP JUMPDEST PUSH2 0xE2A JUMP JUMPDEST STOP JUMPDEST PUSH2 0x3DD PUSH1 0x4 DUP1 CALLDATASIZE SUB DUP2 ADD SWAP1 PUSH2 0x3D8 SWAP2 SWAP1 PUSH2 0x43C2 JUMP JUMPDEST PUSH2 0xF3C JUMP JUMPDEST STOP JUMPDEST PUSH2 0x3F9 PUSH1 0x4 DUP1 CALLDATASIZE SUB DUP2 ADD SWAP1 PUSH2 0x3F4 SWAP2 SWAP1 PUSH2 0x452C JUMP JUMPDEST PUSH2 0x1142 JUMP JUMPDEST PUSH1 0x40 MLOAD PUSH2 0x406 SWAP2 SWAP1 PUSH2 0x467A JUMP JUMPDEST PUSH1 0x40 MLOAD DUP1 SWAP2 SUB SWAP1 RETURN JUMPDEST PUSH2 0x429 PUSH1 0x4 DUP1 CALLDATASIZE SUB DUP2 ADD SWAP1 PUSH2 0x424 SWAP2 SWAP1 PUSH2 0x4397 JUMP JUMPDEST PUSH2 0x11C4 JUMP JUMPDEST PUSH1 0x40 MLOAD PUSH2 0x436 SWAP2 SWAP1 PUSH2 0x46A9 JUMP JUMPDEST PUSH1 0x40 MLOAD DUP1 SWAP2 SUB SWAP1 RETURN JUMPDEST PUSH2 0x459 PUSH1 0x4 DUP1 CALLDATASIZE SUB DUP2 ADD SWAP1 PUSH2 0x454 SWAP2 SWAP1 PUSH2 0x46C2 JUMP JUMPDEST PUSH2 0x11D9 JUMP JUMPDEST PUSH1 0x40 MLOAD PUSH2 0x466 SWAP2 SWAP1 PUSH2 0x4339 JUMP JUMPDEST PUSH1 0x40 MLOAD DUP1 SWAP2 SUB SWAP1 RETURN JUMPDEST PUSH2 0x489 PUSH1 0x4 DUP1 CALLDATASIZE SUB DUP2 ADD SWAP1 PUSH2 0x484 SWAP2 SWAP1 PUSH2 0x43C2 JUMP JUMPDEST PUSH2 0x170B JUMP JUMPDEST PUSH1 0x40 MLOAD PUSH2 0x496 SWAP2 SWAP1 PUSH2 0x3F6F JUMP JUMPDEST PUSH1 0x40 MLOAD DUP1 SWAP2 SUB SWAP1 RETURN JUMPDEST PUSH2 0x4B9 PUSH1 0x4 DUP1 CALLDATASIZE SUB DUP2 ADD SWAP1 PUSH2 0x4B4 SWAP2 SWAP1 PUSH2 0x4397 JUMP JUMPDEST PUSH2 0x1735 JUMP JUMPDEST STOP JUMPDEST PUSH2 0x4D5 PUSH1 0x4 DUP1 CALLDATASIZE SUB DUP2 ADD SWAP1 PUSH2 0x4D0 SWAP2 SWAP1 PUSH2 0x473C JUMP JUMPDEST PUSH2 0x174E JUMP JUMPDEST STOP JUMPDEST PUSH2 0x4DF PUSH2 0x1767 JUMP JUMPDEST PUSH1 0x40 MLOAD PUSH2 0x4EC SWAP2 SWAP1 PUSH2 0x402E JUMP JUMPDEST PUSH1 0x40 MLOAD DUP1 SWAP2 SUB SWAP1 RETURN JUMPDEST PUSH2 0x50F PUSH1 0x4 DUP1 CALLDATASIZE SUB DUP2 ADD SWAP1 PUSH2 0x50A SWAP2 SWAP1 PUSH2 0x4112 JUMP JUMPDEST PUSH2 0x178B JUMP JUMPDEST PUSH1 0x40 MLOAD PUSH2 0x51C SWAP2 SWAP1 PUSH2 0x47DC JUMP JUMPDEST PUSH1 0x40 MLOAD DUP1 SWAP2 SUB SWAP1 RETURN JUMPDEST PUSH2 0x53F PUSH1 0x4 DUP1 CALLDATASIZE SUB DUP2 ADD SWAP1 PUSH2 0x53A SWAP2 SWAP1 PUSH2 0x43C2 JUMP JUMPDEST PUSH2 0x1B6C JUMP JUMPDEST STOP JUMPDEST PUSH2 0x55B PUSH1 0x4 DUP1 CALLDATASIZE SUB DUP2 ADD SWAP1 PUSH2 0x556 SWAP2 SWAP1 PUSH2 0x47FC JUMP JUMPDEST PUSH2 0x1D72 JUMP JUMPDEST PUSH1 0x40 MLOAD PUSH2 0x568 SWAP2 SWAP1 PUSH2 0x4902 JUMP JUMPDEST PUSH1 0x40 MLOAD DUP1 SWAP2 SUB SWAP1 RETURN JUMPDEST PUSH2 0x58B PUSH1 0x4 DUP1 CALLDATASIZE SUB DUP2 ADD SWAP1 PUSH2 0x586 SWAP2 SWAP1 PUSH2 0x4AA4 JUMP JUMPDEST PUSH2 0x1E03 JUMP JUMPDEST STOP JUMPDEST PUSH2 0x5A7 PUSH1 0x4 DUP1 CALLDATASIZE SUB DUP2 ADD SWAP1 PUSH2 0x5A2 SWAP2 SWAP1 PUSH2 0x4112 JUMP JUMPDEST PUSH2 0x2172 JUMP JUMPDEST PUSH1 0x40 MLOAD PUSH2 0x5B7 SWAP5 SWAP4 SWAP3 SWAP2 SWAP1 PUSH2 0x4B74 JUMP JUMPDEST PUSH1 0x40 MLOAD DUP1 SWAP2 SUB SWAP1 RETURN JUMPDEST PUSH2 0x5C8 PUSH2 0x23C1 JUMP JUMPDEST PUSH1 0x40 MLOAD PUSH2 0x5D5 SWAP2 SWAP1 PUSH2 0x4BE2 JUMP JUMPDEST PUSH1 0x40 MLOAD DUP1 SWAP2 SUB SWAP1 RETURN JUMPDEST PUSH2 0x5F8 PUSH1 0x4 DUP1 CALLDATASIZE SUB DUP2 ADD SWAP1 PUSH2 0x5F3 SWAP2 SWAP1 PUSH2 0x4112 JUMP JUMPDEST PUSH2 0x23E9 JUMP JUMPDEST PUSH1 0x40 MLOAD PUSH2 0x606 SWAP3 SWAP2 SWAP1 PUSH2 0x4BFB JUMP JUMPDEST PUSH1 0x40 MLOAD DUP1 SWAP2 SUB SWAP1 RETURN JUMPDEST PUSH2 0x617 PUSH2 0x2707 JUMP JUMPDEST PUSH1 0x40 MLOAD PUSH2 0x624 SWAP2 SWAP1 PUSH2 0x4BE2 JUMP JUMPDEST PUSH1 0x40 MLOAD DUP1 SWAP2 SUB SWAP1 RETURN JUMPDEST PUSH2 0x647 PUSH1 0x4 DUP1 CALLDATASIZE SUB DUP2 ADD SWAP1 PUSH2 0x642 SWAP2 SWAP1 PUSH2 0x4359 JUMP JUMPDEST PUSH2 0x2715 JUMP JUMPDEST PUSH1 0x40 MLOAD PUSH2 0x654 SWAP2 SWAP1 PUSH2 0x3F6F JUMP JUMPDEST PUSH1 0x40 MLOAD DUP1 SWAP2 SUB SWAP1 RETURN JUMPDEST PUSH2 0x677 PUSH1 0x4 DUP1 CALLDATASIZE SUB DUP2 ADD SWAP1 PUSH2 0x672 SWAP2 SWAP1 PUSH2 0x4397 JUMP JUMPDEST PUSH2 0x2778 JUMP JUMPDEST PUSH1 0x40 MLOAD PUSH2 0x689 SWAP7 SWAP6 SWAP5 SWAP4 SWAP3 SWAP2 SWAP1 PUSH2 0x4C30 JUMP JUMPDEST PUSH1 0x40 MLOAD DUP1 SWAP2 SUB SWAP1 RETURN JUMPDEST PUSH2 0x69A PUSH2 0x29D4 JUMP JUMPDEST PUSH1 0x40 MLOAD PUSH2 0x6A8 SWAP3 SWAP2 SWAP1 PUSH2 0x4CAB JUMP JUMPDEST PUSH1 0x40 MLOAD DUP1 SWAP2 SUB SWAP1 RETURN JUMPDEST PUSH2 0x6B9 PUSH2 0x2A32 JUMP JUMPDEST PUSH1 0x40 MLOAD PUSH2 0x6C6 SWAP2 SWAP1 PUSH2 0x402E JUMP JUMPDEST PUSH1 0x40 MLOAD DUP1 SWAP2 SUB SWAP1 RETURN JUMPDEST PUSH2 0x6E9 PUSH1 0x4 DUP1 CALLDATASIZE SUB DUP2 ADD SWAP1 PUSH2 0x6E4 SWAP2 SWAP1 PUSH2 0x46C2 JUMP JUMPDEST PUSH2 0x2A38 JUMP JUMPDEST PUSH1 0x40 MLOAD PUSH2 0x6F6 SWAP2 SWAP1 PUSH2 0x47DC JUMP JUMPDEST PUSH1 0x40 MLOAD DUP1 SWAP2 SUB SWAP1 RETURN JUMPDEST PUSH2 0x719 PUSH1 0x4 DUP1 CALLDATASIZE SUB DUP2 ADD SWAP1 PUSH2 0x714 SWAP2 SWAP1 PUSH2 0x4CD2 JUMP JUMPDEST PUSH2 0x2EA3 JUMP JUMPDEST STOP JUMPDEST PUSH2 0x735 PUSH1 0x4 DUP1 CALLDATASIZE SUB DUP2 ADD SWAP1 PUSH2 0x730 SWAP2 SWAP1 PUSH2 0x4397 JUMP JUMPDEST PUSH2 0x30B6 JUMP JUMPDEST PUSH1 0x40 MLOAD PUSH2 0x742 SWAP2 SWAP1 PUSH2 0x3F6F JUMP JUMPDEST PUSH1 0x40 MLOAD DUP1 SWAP2 SUB SWAP1 RETURN JUMPDEST PUSH2 0x753 PUSH2 0x30D3 JUMP JUMPDEST PUSH1 0x40 MLOAD PUSH2 0x760 SWAP2 SWAP1 PUSH2 0x3FA8 JUMP JUMPDEST PUSH1 0x40 MLOAD DUP1 SWAP2 SUB SWAP1 RETURN JUMPDEST PUSH2 0x771 PUSH2 0x3140 JUMP JUMPDEST STOP JUMPDEST PUSH2 0x77B PUSH2 0x31D5 JUMP JUMPDEST PUSH1 0x40 MLOAD PUSH2 0x789 SWAP3 SWAP2 SWAP1 PUSH2 0x4DB9 JUMP JUMPDEST PUSH1 0x40 MLOAD DUP1 SWAP2 SUB SWAP1 RETURN JUMPDEST PUSH2 0x7AC PUSH1 0x4 DUP1 CALLDATASIZE SUB DUP2 ADD SWAP1 PUSH2 0x7A7 SWAP2 SWAP1 PUSH2 0x4359 JUMP JUMPDEST PUSH2 0x3216 JUMP JUMPDEST STOP JUMPDEST PUSH2 0x7B6 PUSH2 0x325F JUMP JUMPDEST STOP JUMPDEST PUSH2 0x7D2 PUSH1 0x4 DUP1 CALLDATASIZE SUB DUP2 ADD SWAP1 PUSH2 0x7CD SWAP2 SWAP1 PUSH2 0x4DE0 JUMP JUMPDEST PUSH2 0x3276 JUMP JUMPDEST STOP JUMPDEST PUSH2 0x7EE PUSH1 0x4 DUP1 CALLDATASIZE SUB DUP2 ADD SWAP1 PUSH2 0x7E9 SWAP2 SWAP1 PUSH2 0x4397 JUMP JUMPDEST PUSH2 0x343B JUMP JUMPDEST PUSH1 0x40 MLOAD PUSH2 0x7FB SWAP2 SWAP1 PUSH2 0x46A9 JUMP JUMPDEST PUSH1 0x40 MLOAD DUP1 SWAP2 SUB SWAP1 RETURN JUMPDEST PUSH2 0x80C PUSH2 0x3450 JUMP JUMPDEST PUSH1 0x40 MLOAD PUSH2 0x819 SWAP2 SWAP1 PUSH2 0x46A9 JUMP JUMPDEST PUSH1 0x40 MLOAD DUP1 SWAP2 SUB SWAP1 RETURN JUMPDEST PUSH0 PUSH32 0x3149878600000000000000000000000000000000000000000000000000000000 PUSH28 0xFFFFFFFFFFFFFFFFFFFFFFFFFFFFFFFFFFFFFFFFFFFFFFFFFFFFFFFF NOT AND DUP3 PUSH28 0xFFFFFFFFFFFFFFFFFFFFFFFFFFFFFFFFFFFFFFFFFFFFFFFFFFFFFFFF NOT AND EQ DUP1 PUSH2 0x894 JUMPI POP PUSH2 0x893 DUP3 PUSH2 0x3456 JUMP JUMPDEST JUMPDEST SWAP1 POP SWAP2 SWAP1 POP JUMP JUMPDEST PUSH0 PUSH3 0x69780 SWAP1 POP SWAP1 JUMP JUMPDEST PUSH0 DUP1 SHL PUSH2 0x8B1 DUP2 PUSH2 0x34CF JUMP JUMPDEST PUSH2 0x8B9 PUSH2 0x34E3 JUMP JUMPDEST POP JUMP JUMPDEST PUSH0 DUP1 PUSH0 DUP4 DUP2 MSTORE PUSH1 0x20 ADD SWAP1 DUP2 MSTORE PUSH1 0x20 ADD PUSH0 KECCAK256 PUSH1 0x1 ADD SLOAD SWAP1 POP SWAP2 SWAP1 POP JUMP JUMPDEST PUSH32 0xFBE1AC7C192839090E0E8FE24586CBF0E3C232386B46344EE88BA44324DAEE07 DUP2 JUMP JUMPDEST PUSH0 DUP1 PUSH0 SHL PUSH2 0x909 DUP2 PUSH2 0x34CF JUMP JUMPDEST PUSH2 0x913 DUP4 DUP6 PUSH2 0x2715 JUMP JUMPDEST SWAP2 POP POP SWAP3 SWAP2 POP POP JUMP JUMPDEST PUSH2 0x924 PUSH2 0x3DD7 JUMP JUMPDEST PUSH32 0x920994FC3BFE282F3F20CDCCF1B7C5E46C63D963E822D98EFFF90ABD41C12E21 PUSH2 0x94E DUP2 PUSH2 0x34CF JUMP JUMPDEST PUSH1 0x4 PUSH0 DUP6 PUSH20 0xFFFFFFFFFFFFFFFFFFFFFFFFFFFFFFFFFFFFFFFF AND PUSH20 0xFFFFFFFFFFFFFFFFFFFFFFFFFFFFFFFFFFFFFFFF AND DUP2 MSTORE PUSH1 0x20 ADD SWAP1 DUP2 MSTORE PUSH1 0x20 ADD PUSH0 KECCAK256 PUSH1 0x5 ADD PUSH0 SWAP1 SLOAD SWAP1 PUSH2 0x100 EXP SWAP1 DIV PUSH1 0xFF AND PUSH2 0x9DA JUMPI PUSH1 0x40 MLOAD PUSH32 0x8C379A000000000000000000000000000000000000000000000000000000000 DUP2 MSTORE PUSH1 0x4 ADD PUSH2 0x9D1 SWAP1 PUSH2 0x4F23 JUMP JUMPDEST PUSH1 0x40 MLOAD DUP1 SWAP2 SUB SWAP1 REVERT JUMPDEST PUSH0 PUSH1 0x5 PUSH0 DUP7 PUSH20 0xFFFFFFFFFFFFFFFFFFFFFFFFFFFFFFFFFFFFFFFF AND PUSH20 0xFFFFFFFFFFFFFFFFFFFFFFFFFFFFFFFFFFFFFFFF AND DUP2 MSTORE PUSH1 0x20 ADD SWAP1 DUP2 MSTORE PUSH1 0x20 ADD PUSH0 KECCAK256 SLOAD SWAP1 POP DUP1 DUP5 LT PUSH2 0xA5D JUMPI PUSH1 0x40 MLOAD PUSH32 0x8C379A000000000000000000000000000000000000000000000000000000000 DUP2 MSTORE PUSH1 0x4 ADD PUSH2 0xA54 SWAP1 PUSH2 0x4F8B JUMP JUMPDEST PUSH1 0x40 MLOAD DUP1 SWAP2 SUB SWAP1 REVERT JUMPDEST PUSH1 0x6 PUSH0 DUP7 PUSH20 0xFFFFFFFFFFFFFFFFFFFFFFFFFFFFFFFFFFFFFFFF AND PUSH20 0xFFFFFFFFFFFFFFFFFFFFFFFFFFFFFFFFFFFFFFFF AND DUP2 MSTORE PUSH1 0x20 ADD SWAP1 DUP2 MSTORE PUSH1 0x20 ADD PUSH0 KECCAK256 PUSH0 DUP6 DUP2 MSTORE PUSH1 0x20 ADD SWAP1 DUP2 MSTORE PUSH1 0x20 ADD PUSH0 KECCAK256 PUSH1 0x40 MLOAD DUP1 PUSH1 0x40 ADD PUSH1 0x40 MSTORE SWAP1 DUP2 PUSH0 DUP3 ADD PUSH1 0x40 MLOAD DUP1 PUSH1 0xC0 ADD PUSH1 0x40 MSTORE SWAP1 DUP2 PUSH0 DUP3 ADD DUP1 SLOAD PUSH2 0xAD2 SWAP1 PUSH2 0x4FD6 JUMP JUMPDEST DUP1 PUSH1 0x1F ADD PUSH1 0x20 DUP1 SWAP2 DIV MUL PUSH1 0x20 ADD PUSH1 0x40 MLOAD SWAP1 DUP2 ADD PUSH1 0x40 MSTORE DUP1 SWAP3 SWAP2 SWAP1 DUP2 DUP2 MSTORE PUSH1 0x20 ADD DUP3 DUP1 SLOAD PUSH2 0xAFE SWAP1 PUSH2 0x4FD6 JUMP JUMPDEST DUP1 ISZERO PUSH2 0xB49 JUMPI DUP1 PUSH1 0x1F LT PUSH2 0xB20 JUMPI PUSH2 0x100 DUP1 DUP4 SLOAD DIV MUL DUP4 MSTORE SWAP2 PUSH1 0x20 ADD SWAP2 PUSH2 0xB49 JUMP JUMPDEST DUP3 ADD SWAP2 SWAP1 PUSH0 MSTORE PUSH1 0x20 PUSH0 KECCAK256 SWAP1 JUMPDEST DUP2 SLOAD DUP2 MSTORE SWAP1 PUSH1 0x1 ADD SWAP1 PUSH1 0x20 ADD DUP1 DUP4 GT PUSH2 0xB2C JUMPI DUP3 SWAP1 SUB PUSH1 0x1F AND DUP3 ADD SWAP2 JUMPDEST POP POP POP POP POP DUP2 MSTORE PUSH1 0x20 ADD PUSH1 0x1 DUP3 ADD DUP1 SLOAD PUSH2 0xB62 SWAP1 PUSH2 0x4FD6 JUMP JUMPDEST DUP1 PUSH1 0x1F ADD PUSH1 0x20 DUP1 SWAP2 DIV MUL PUSH1 0x20 ADD PUSH1 0x40 MLOAD SWAP1 DUP2 ADD PUSH1 0x40 MSTORE DUP1 SWAP3 SWAP2 SWAP1 DUP2 DUP2 MSTORE PUSH1 0x20 ADD DUP3 DUP1 SLOAD PUSH2 0xB8E SWAP1 PUSH2 0x4FD6 JUMP JUMPDEST DUP1 ISZERO PUSH2 0xBD9 JUMPI DUP1 PUSH1 0x1F LT PUSH2 0xBB0 JUMPI PUSH2 0x100 DUP1 DUP4 SLOAD DIV MUL DUP4 MSTORE SWAP2 PUSH1 0x20 ADD SWAP2 PUSH2 0xBD9 JUMP JUMPDEST DUP3 ADD SWAP2 SWAP1 PUSH0 MSTORE PUSH1 0x20 PUSH0 KECCAK256 SWAP1 JUMPDEST DUP2 SLOAD DUP2 MSTORE SWAP1 PUSH1 0x1 ADD SWAP1 PUSH1 0x20 ADD DUP1 DUP4 GT PUSH2 0xBBC JUMPI DUP3 SWAP1 SUB PUSH1 0x1F AND DUP3 ADD SWAP2 JUMPDEST POP POP POP POP POP DUP2 MSTORE PUSH1 0x20 ADD PUSH1 0x2 DUP3 ADD SLOAD DUP2 MSTORE PUSH1 0x20 ADD PUSH1 0x3 DUP3 ADD SLOAD DUP2 MSTORE PUSH1 0x20 ADD PUSH1 0x4 DUP3 ADD SLOAD DUP2 MSTORE PUSH1 0x20 ADD PUSH1 0x5 DUP3 ADD PUSH0 SWAP1 SLOAD SWAP1 PUSH2 0x100 EXP SWAP1 DIV PUSH20 0xFFFFFFFFFFFFFFFFFFFFFFFFFFFFFFFFFFFFFFFF AND PUSH20 0xFFFFFFFFFFFFFFFFFFFFFFFFFFFFFFFFFFFFFFFF AND PUSH20 0xFFFFFFFFFFFFFFFFFFFFFFFFFFFFFFFFFFFFFFFF AND DUP2 MSTORE POP POP DUP2 MSTORE PUSH1 0x20 ADD PUSH1 0x6 DUP3 ADD PUSH1 0x40 MLOAD DUP1 PUSH1 0xA0 ADD PUSH1 0x40 MSTORE SWAP1 DUP2 PUSH0 DUP3 ADD PUSH0 SWAP1 SLOAD SWAP1 PUSH2 0x100 EXP SWAP1 DIV PUSH20 0xFFFFFFFFFFFFFFFFFFFFFFFFFFFFFFFFFFFFFFFF AND PUSH20 0xFFFFFFFFFFFFFFFFFFFFFFFFFFFFFFFFFFFFFFFF AND PUSH20 0xFFFFFFFFFFFFFFFFFFFFFFFFFFFFFFFFFFFFFFFF AND DUP2 MSTORE PUSH1 0x20 ADD PUSH1 0x1 DUP3 ADD PUSH0 SWAP1 SLOAD SWAP1 PUSH2 0x100 EXP SWAP1 DIV PUSH20 0xFFFFFFFFFFFFFFFFFFFFFFFFFFFFFFFFFFFFFFFF AND PUSH20 0xFFFFFFFFFFFFFFFFFFFFFFFFFFFFFFFFFFFFFFFF AND PUSH20 0xFFFFFFFFFFFFFFFFFFFFFFFFFFFFFFFFFFFFFFFF AND DUP2 MSTORE PUSH1 0x20 ADD PUSH1 0x2 DUP3 ADD SLOAD DUP2 MSTORE PUSH1 0x20 ADD PUSH1 0x3 DUP3 ADD SLOAD DUP2 MSTORE PUSH1 0x20 ADD PUSH1 0x4 DUP3 ADD DUP1 SLOAD PUSH2 0xD36 SWAP1 PUSH2 0x4FD6 JUMP JUMPDEST DUP1 PUSH1 0x1F ADD PUSH1 0x20 DUP1 SWAP2 DIV MUL PUSH1 0x20 ADD PUSH1 0x40 MLOAD SWAP1 DUP2 ADD PUSH1 0x40 MSTORE DUP1 SWAP3 SWAP2 SWAP1 DUP2 DUP2 MSTORE PUSH1 0x20 ADD DUP3 DUP1 SLOAD PUSH2 0xD62 SWAP1 PUSH2 0x4FD6 JUMP JUMPDEST DUP1 ISZERO PUSH2 0xDAD JUMPI DUP1 PUSH1 0x1F LT PUSH2 0xD84 JUMPI PUSH2 0x100 DUP1 DUP4 SLOAD DIV MUL DUP4 MSTORE SWAP2 PUSH1 0x20 ADD SWAP2 PUSH2 0xDAD JUMP JUMPDEST DUP3 ADD SWAP2 SWAP1 PUSH0 MSTORE PUSH1 0x20 PUSH0 KECCAK256 SWAP1 JUMPDEST DUP2 SLOAD DUP2 MSTORE SWAP1 PUSH1 0x1 ADD SWAP1 PUSH1 0x20 ADD DUP1 DUP4 GT PUSH2 0xD90 JUMPI DUP3 SWAP1 SUB PUSH1 0x1F AND DUP3 ADD SWAP2 JUMPDEST POP POP POP POP POP DUP2 MSTORE POP POP DUP2 MSTORE POP POP SWAP3 POP POP POP SWAP3 SWAP2 POP POP JUMP JUMPDEST PUSH0 DUP1 SHL DUP3 SUB PUSH2 0xDFF JUMPI PUSH1 0x40 MLOAD PUSH32 0x3FC3C27A00000000000000000000000000000000000000000000000000000000 DUP2 MSTORE PUSH1 0x4 ADD PUSH1 0x40 MLOAD DUP1 SWAP2 SUB SWAP1 REVERT JUMPDEST PUSH2 0xE09 DUP3 DUP3 PUSH2 0x34EF JUMP JUMPDEST POP POP JUMP JUMPDEST PUSH1 0x8 PUSH1 0x20 MSTORE DUP1 PUSH0 MSTORE PUSH1 0x40 PUSH0 KECCAK256 PUSH0 SWAP2 POP SLOAD SWAP1 PUSH2 0x100 EXP SWAP1 DIV PUSH1 0xFF AND DUP2 JUMP JUMPDEST PUSH0 DUP1 SHL DUP3 EQ DUP1 ISZERO PUSH2 0xE6D JUMPI POP PUSH2 0xE3E PUSH2 0x23C1 JUMP JUMPDEST PUSH20 0xFFFFFFFFFFFFFFFFFFFFFFFFFFFFFFFFFFFFFFFF AND DUP2 PUSH20 0xFFFFFFFFFFFFFFFFFFFFFFFFFFFFFFFFFFFFFFFF AND EQ JUMPDEST ISZERO PUSH2 0xF2E JUMPI PUSH0 DUP1 PUSH2 0xE7C PUSH2 0x31D5 JUMP JUMPDEST SWAP2 POP SWAP2 POP PUSH0 PUSH20 0xFFFFFFFFFFFFFFFFFFFFFFFFFFFFFFFFFFFFFFFF AND DUP3 PUSH20 0xFFFFFFFFFFFFFFFFFFFFFFFFFFFFFFFFFFFFFFFF AND EQ ISZERO DUP1 PUSH2 0xEC1 JUMPI POP PUSH2 0xEBF DUP2 PUSH2 0x3511 JUMP JUMPDEST ISZERO JUMPDEST DUP1 PUSH2 0xED2 JUMPI POP PUSH2 0xED0 DUP2 PUSH2 0x3525 JUMP JUMPDEST ISZERO JUMPDEST ISZERO PUSH2 0xF14 JUMPI DUP1 PUSH1 0x40 MLOAD PUSH32 0x19CA5EBB00000000000000000000000000000000000000000000000000000000 DUP2 MSTORE PUSH1 0x4 ADD PUSH2 0xF0B SWAP2 SWAP1 PUSH2 0x3FA8 JUMP JUMPDEST PUSH1 0x40 MLOAD DUP1 SWAP2 SUB SWAP1 REVERT JUMPDEST PUSH1 0x1 PUSH1 0x14 PUSH2 0x100 EXP DUP2 SLOAD SWAP1 PUSH6 0xFFFFFFFFFFFF MUL NOT AND SWAP1 SSTORE POP POP JUMPDEST PUSH2 0xF38 DUP3 DUP3 PUSH2 0x3538 JUMP JUMPDEST POP POP JUMP JUMPDEST PUSH32 0x920994FC3BFE282F3F20CDCCF1B7C5E46C63D963E822D98EFFF90ABD41C12E21 PUSH2 0xF66 DUP2 PUSH2 0x34CF JUMP JUMPDEST PUSH1 0x4 PUSH0 DUP4 PUSH20 0xFFFFFFFFFFFFFFFFFFFFFFFFFFFFFFFFFFFFFFFF AND PUSH20 0xFFFFFFFFFFFFFFFFFFFFFFFFFFFFFFFFFFFFFFFF AND DUP2 MSTORE PUSH1 0x20 ADD SWAP1 DUP2 MSTORE PUSH1 0x20 ADD PUSH0 KECCAK256 PUSH1 0x5 ADD PUSH0 SWAP1 SLOAD SWAP1 PUSH2 0x100 EXP SWAP1 DIV PUSH1 0xFF AND PUSH2 0xFF2 JUMPI PUSH1 0x40 MLOAD PUSH32 0x8C379A000000000000000000000000000000000000000000000000000000000 DUP2 MSTORE PUSH1 0x4 ADD PUSH2 0xFE9 SWAP1 PUSH2 0x4F23 JUMP JUMPDEST PUSH1 0x40 MLOAD DUP1 SWAP2 SUB SWAP1 REVERT JUMPDEST PUSH2 0x101C PUSH32 0xFBE1AC7C192839090E0E8FE24586CBF0E3C232386B46344EE88BA44324DAEE07 DUP5 PUSH2 0x2715 JUMP JUMPDEST DUP1 ISZERO PUSH2 0x10A9 JUMPI POP PUSH1 0x7 PUSH0 DUP5 PUSH20 0xFFFFFFFFFFFFFFFFFFFFFFFFFFFFFFFFFFFFFFFF AND PUSH20 0xFFFFFFFFFFFFFFFFFFFFFFFFFFFFFFFFFFFFFFFF AND DUP2 MSTORE PUSH1 0x20 ADD SWAP1 DUP2 MSTORE PUSH1 0x20 ADD PUSH0 KECCAK256 PUSH0 DUP4 PUSH20 0xFFFFFFFFFFFFFFFFFFFFFFFFFFFFFFFFFFFFFFFF AND PUSH20 0xFFFFFFFFFFFFFFFFFFFFFFFFFFFFFFFFFFFFFFFF AND DUP2 MSTORE PUSH1 0x20 ADD SWAP1 DUP2 MSTORE PUSH1 0x20 ADD PUSH0 KECCAK256 PUSH0 SWAP1 SLOAD SWAP1 PUSH2 0x100 EXP SWAP1 DIV PUSH1 0xFF AND JUMPDEST PUSH2 0x10E8 JUMPI PUSH1 0x40 MLOAD PUSH32 0x8C379A000000000000000000000000000000000000000000000000000000000 DUP2 MSTORE PUSH1 0x4 ADD PUSH2 0x10DF SWAP1 PUSH2 0x5076 JUMP JUMPDEST PUSH1 0x40 MLOAD DUP1 SWAP2 SUB SWAP1 REVERT JUMPDEST PUSH1 0x1 PUSH1 0xB PUSH0 DUP6 PUSH20 0xFFFFFFFFFFFFFFFFFFFFFFFFFFFFFFFFFFFFFFFF AND PUSH20 0xFFFFFFFFFFFFFFFFFFFFFFFFFFFFFFFFFFFFFFFF AND DUP2 MSTORE PUSH1 0x20 ADD SWAP1 DUP2 MSTORE PUSH1 0x20 ADD PUSH0 KECCAK256 PUSH0 PUSH2 0x100 EXP DUP2 SLOAD DUP2 PUSH1 0xFF MUL NOT AND SWAP1 DUP4 ISZERO ISZERO MUL OR SWAP1 SSTORE POP POP POP POP JUMP JUMPDEST PUSH2 0x114A PUSH2 0x3DFD JUMP JUMPDEST PUSH32 0x920994FC3BFE282F3F20CDCCF1B7C5E46C63D963E822D98EFFF90ABD41C12E21 PUSH2 0x1174 DUP2 PUSH2 0x34CF JUMP JUMPDEST PUSH1 0x40 MLOAD DUP1 PUSH1 0xC0 ADD PUSH1 0x40 MSTORE DUP1 DUP10 DUP2 MSTORE PUSH1 0x20 ADD DUP9 DUP2 MSTORE PUSH1 0x20 ADD DUP8 DUP2 MSTORE PUSH1 0x20 ADD DUP7 DUP2 MSTORE PUSH1 0x20 ADD DUP6 DUP2 MSTORE PUSH1 0x20 ADD DUP5 PUSH20 0xFFFFFFFFFFFFFFFFFFFFFFFFFFFFFFFFFFFFFFFF AND DUP2 MSTORE POP SWAP2 POP POP SWAP7 SWAP6 POP POP POP POP POP POP JUMP JUMPDEST PUSH1 0x9 PUSH1 0x20 MSTORE DUP1 PUSH0 MSTORE PUSH1 0x40 PUSH0 KECCAK256 PUSH0 SWAP2 POP SWAP1 POP SLOAD DUP2 JUMP JUMPDEST PUSH2 0x11E1 PUSH2 0x3DD7 JUMP JUMPDEST PUSH32 0xFBE1AC7C192839090E0E8FE24586CBF0E3C232386B46344EE88BA44324DAEE07 PUSH2 0x120B DUP2 PUSH2 0x34CF JUMP JUMPDEST PUSH1 0x4 PUSH0 DUP6 PUSH20 0xFFFFFFFFFFFFFFFFFFFFFFFFFFFFFFFFFFFFFFFF AND PUSH20 0xFFFFFFFFFFFFFFFFFFFFFFFFFFFFFFFFFFFFFFFF AND DUP2 MSTORE PUSH1 0x20 ADD SWAP1 DUP2 MSTORE PUSH1 0x20 ADD PUSH0 KECCAK256 PUSH1 0x5 ADD PUSH0 SWAP1 SLOAD SWAP1 PUSH2 0x100 EXP SWAP1 DIV PUSH1 0xFF AND PUSH2 0x1297 JUMPI PUSH1 0x40 MLOAD PUSH32 0x8C379A000000000000000000000000000000000000000000000000000000000 DUP2 MSTORE PUSH1 0x4 ADD PUSH2 0x128E SWAP1 PUSH2 0x4F23 JUMP JUMPDEST PUSH1 0x40 MLOAD DUP1 SWAP2 SUB SWAP1 REVERT JUMPDEST PUSH1 0x8 PUSH0 DUP7 PUSH20 0xFFFFFFFFFFFFFFFFFFFFFFFFFFFFFFFFFFFFFFFF AND PUSH20 0xFFFFFFFFFFFFFFFFFFFFFFFFFFFFFFFFFFFFFFFF AND DUP2 MSTORE PUSH1 0x20 ADD SWAP1 DUP2 MSTORE PUSH1 0x20 ADD PUSH0 KECCAK256 PUSH0 SWAP1 SLOAD SWAP1 PUSH2 0x100 EXP SWAP1 DIV PUSH1 0xFF AND PUSH2 0x1320 JUMPI PUSH1 0x40 MLOAD PUSH32 0x8C379A000000000000000000000000000000000000000000000000000000000 DUP2 MSTORE PUSH1 0x4 ADD PUSH2 0x1317 SWAP1 PUSH2 0x5104 JUMP JUMPDEST PUSH1 0x40 MLOAD DUP1 SWAP2 SUB SWAP1 REVERT JUMPDEST PUSH0 PUSH1 0x5 PUSH0 DUP7 PUSH20 0xFFFFFFFFFFFFFFFFFFFFFFFFFFFFFFFFFFFFFFFF AND PUSH20 0xFFFFFFFFFFFFFFFFFFFFFFFFFFFFFFFFFFFFFFFF AND DUP2 MSTORE PUSH1 0x20 ADD SWAP1 DUP2 MSTORE PUSH1 0x20 ADD PUSH0 KECCAK256 SLOAD SWAP1 POP DUP1 DUP5 LT PUSH2 0x13A3 JUMPI PUSH1 0x40 MLOAD PUSH32 0x8C379A000000000000000000000000000000000000000000000000000000000 DUP2 MSTORE PUSH1 0x4 ADD PUSH2 0x139A SWAP1 PUSH2 0x4F8B JUMP JUMPDEST PUSH1 0x40 MLOAD DUP1 SWAP2 SUB SWAP1 REVERT JUMPDEST PUSH1 0x6 PUSH0 DUP7 PUSH20 0xFFFFFFFFFFFFFFFFFFFFFFFFFFFFFFFFFFFFFFFF AND PUSH20 0xFFFFFFFFFFFFFFFFFFFFFFFFFFFFFFFFFFFFFFFF AND DUP2 MSTORE PUSH1 0x20 ADD SWAP1 DUP2 MSTORE PUSH1 0x20 ADD PUSH0 KECCAK256 PUSH0 DUP6 DUP2 MSTORE PUSH1 0x20 ADD SWAP1 DUP2 MSTORE PUSH1 0x20 ADD PUSH0 KECCAK256 PUSH1 0x40 MLOAD DUP1 PUSH1 0x40 ADD PUSH1 0x40 MSTORE SWAP1 DUP2 PUSH0 DUP3 ADD PUSH1 0x40 MLOAD DUP1 PUSH1 0xC0 ADD PUSH1 0x40 MSTORE SWAP1 DUP2 PUSH0 DUP3 ADD DUP1 SLOAD PUSH2 0x1418 SWAP1 PUSH2 0x4FD6 JUMP JUMPDEST DUP1 PUSH1 0x1F ADD PUSH1 0x20 DUP1 SWAP2 DIV MUL PUSH1 0x20 ADD PUSH1 0x40 MLOAD SWAP1 DUP2 ADD PUSH1 0x40 MSTORE DUP1 SWAP3 SWAP2 SWAP1 DUP2 DUP2 MSTORE PUSH1 0x20 ADD DUP3 DUP1 SLOAD PUSH2 0x1444 SWAP1 PUSH2 0x4FD6 JUMP JUMPDEST DUP1 ISZERO PUSH2 0x148F JUMPI DUP1 PUSH1 0x1F LT PUSH2 0x1466 JUMPI PUSH2 0x100 DUP1 DUP4 SLOAD DIV MUL DUP4 MSTORE SWAP2 PUSH1 0x20 ADD SWAP2 PUSH2 0x148F JUMP JUMPDEST DUP3 ADD SWAP2 SWAP1 PUSH0 MSTORE PUSH1 0x20 PUSH0 KECCAK256 SWAP1 JUMPDEST DUP2 SLOAD DUP2 MSTORE SWAP1 PUSH1 0x1 ADD SWAP1 PUSH1 0x20 ADD DUP1 DUP4 GT PUSH2 0x1472 JUMPI DUP3 SWAP1 SUB PUSH1 0x1F AND DUP3 ADD SWAP2 JUMPDEST POP POP POP POP POP DUP2 MSTORE PUSH1 0x20 ADD PUSH1 0x1 DUP3 ADD DUP1 SLOAD PUSH2 0x14A8 SWAP1 PUSH2 0x4FD6 JUMP JUMPDEST DUP1 PUSH1 0x1F ADD PUSH1 0x20 DUP1 SWAP2 DIV MUL PUSH1 0x20 ADD PUSH1 0x40 MLOAD SWAP1 DUP2 ADD PUSH1 0x40 MSTORE DUP1 SWAP3 SWAP2 SWAP1 DUP2 DUP2 MSTORE PUSH1 0x20 ADD DUP3 DUP1 SLOAD PUSH2 0x14D4 SWAP1 PUSH2 0x4FD6 JUMP JUMPDEST DUP1 ISZERO PUSH2 0x151F JUMPI DUP1 PUSH1 0x1F LT PUSH2 0x14F6 JUMPI PUSH2 0x100 DUP1 DUP4 SLOAD DIV MUL DUP4 MSTORE SWAP2 PUSH1 0x20 ADD SWAP2 PUSH2 0x151F JUMP JUMPDEST DUP3 ADD SWAP2 SWAP1 PUSH0 MSTORE PUSH1 0x20 PUSH0 KECCAK256 SWAP1 JUMPDEST DUP2 SLOAD DUP2 MSTORE SWAP1 PUSH1 0x1 ADD SWAP1 PUSH1 0x20 ADD DUP1 DUP4 GT PUSH2 0x1502 JUMPI DUP3 SWAP1 SUB PUSH1 0x1F AND DUP3 ADD SWAP2 JUMPDEST POP POP POP POP POP DUP2 MSTORE PUSH1 0x20 ADD PUSH1 0x2 DUP3 ADD SLOAD DUP2 MSTORE PUSH1 0x20 ADD PUSH1 0x3 DUP3 ADD SLOAD DUP2 MSTORE PUSH1 0x20 ADD PUSH1 0x4 DUP3 ADD SLOAD DUP2 MSTORE PUSH1 0x20 ADD PUSH1 0x5 DUP3 ADD PUSH0 SWAP1 SLOAD SWAP1 PUSH2 0x100 EXP SWAP1 DIV PUSH20 0xFFFFFFFFFFFFFFFFFFFFFFFFFFFFFFFFFFFFFFFF AND PUSH20 0xFFFFFFFFFFFFFFFFFFFFFFFFFFFFFFFFFFFFFFFF AND PUSH20 0xFFFFFFFFFFFFFFFFFFFFFFFFFFFFFFFFFFFFFFFF AND DUP2 MSTORE POP POP DUP2 MSTORE PUSH1 0x20 ADD PUSH1 0x6 DUP3 ADD PUSH1 0x40 MLOAD DUP1 PUSH1 0xA0 ADD PUSH1 0x40 MSTORE SWAP1 DUP2 PUSH0 DUP3 ADD PUSH0 SWAP1 SLOAD SWAP1 PUSH2 0x100 EXP SWAP1 DIV PUSH20 0xFFFFFFFFFFFFFFFFFFFFFFFFFFFFFFFFFFFFFFFF AND PUSH20 0xFFFFFFFFFFFFFFFFFFFFFFFFFFFFFFFFFFFFFFFF AND PUSH20 0xFFFFFFFFFFFFFFFFFFFFFFFFFFFFFFFFFFFFFFFF AND DUP2 MSTORE PUSH1 0x20 ADD PUSH1 0x1 DUP3 ADD PUSH0 SWAP1 SLOAD SWAP1 PUSH2 0x100 EXP SWAP1 DIV PUSH20 0xFFFFFFFFFFFFFFFFFFFFFFFFFFFFFFFFFFFFFFFF AND PUSH20 0xFFFFFFFFFFFFFFFFFFFFFFFFFFFFFFFFFFFFFFFF AND PUSH20 0xFFFFFFFFFFFFFFFFFFFFFFFFFFFFFFFFFFFFFFFF AND DUP2 MSTORE PUSH1 0x20 ADD PUSH1 0x2 DUP3 ADD SLOAD DUP2 MSTORE PUSH1 0x20 ADD PUSH1 0x3 DUP3 ADD SLOAD DUP2 MSTORE PUSH1 0x20 ADD PUSH1 0x4 DUP3 ADD DUP1 SLOAD PUSH2 0x167C SWAP1 PUSH2 0x4FD6 JUMP JUMPDEST DUP1 PUSH1 0x1F ADD PUSH1 0x20 DUP1 SWAP2 DIV MUL PUSH1 0x20 ADD PUSH1 0x40 MLOAD SWAP1 DUP2 ADD PUSH1 0x40 MSTORE DUP1 SWAP3 SWAP2 SWAP1 DUP2 DUP2 MSTORE PUSH1 0x20 ADD DUP3 DUP1 SLOAD PUSH2 0x16A8 SWAP1 PUSH2 0x4FD6 JUMP JUMPDEST DUP1 ISZERO PUSH2 0x16F3 JUMPI DUP1 PUSH1 0x1F LT PUSH2 0x16CA JUMPI PUSH2 0x100 DUP1 DUP4 SLOAD DIV MUL DUP4 MSTORE SWAP2 PUSH1 0x20 ADD SWAP2 PUSH2 0x16F3 JUMP JUMPDEST DUP3 ADD SWAP2 SWAP1 PUSH0 MSTORE PUSH1 0x20 PUSH0 KECCAK256 SWAP1 JUMPDEST DUP2 SLOAD DUP2 MSTORE SWAP1 PUSH1 0x1 ADD SWAP1 PUSH1 0x20 ADD DUP1 DUP4 GT PUSH2 0x16D6 JUMPI DUP3 SWAP1 SUB PUSH1 0x1F AND DUP3 ADD SWAP2 JUMPDEST POP POP POP POP POP DUP2 MSTORE POP POP DUP2 MSTORE POP POP SWAP3 POP POP POP SWAP4 SWAP3 POP POP POP JUMP JUMPDEST PUSH1 0x7 PUSH1 0x20 MSTORE DUP2 PUSH0 MSTORE PUSH1 0x40 PUSH0 KECCAK256 PUSH1 0x20 MSTORE DUP1 PUSH0 MSTORE PUSH1 0x40 PUSH0 KECCAK256 PUSH0 SWAP2 POP SWAP2 POP SWAP1 SLOAD SWAP1 PUSH2 0x100 EXP SWAP1 DIV PUSH1 0xFF AND DUP2 JUMP JUMPDEST PUSH0 DUP1 SHL PUSH2 0x1741 DUP2 PUSH2 0x34CF JUMP JUMPDEST PUSH2 0x174A DUP3 PUSH2 0x35B3 JUMP JUMPDEST POP POP JUMP JUMPDEST PUSH0 DUP1 SHL PUSH2 0x175A DUP2 PUSH2 0x34CF JUMP JUMPDEST PUSH2 0x1763 DUP3 PUSH2 0x362D JUMP JUMPDEST POP POP JUMP JUMPDEST PUSH32 0x920994FC3BFE282F3F20CDCCF1B7C5E46C63D963E822D98EFFF90ABD41C12E21 DUP2 JUMP JUMPDEST PUSH2 0x1793 PUSH2 0x3E45 JUMP JUMPDEST PUSH32 0x920994FC3BFE282F3F20CDCCF1B7C5E46C63D963E822D98EFFF90ABD41C12E21 PUSH2 0x17BD DUP2 PUSH2 0x34CF JUMP JUMPDEST PUSH1 0x4 PUSH0 DUP6 PUSH20 0xFFFFFFFFFFFFFFFFFFFFFFFFFFFFFFFFFFFFFFFF AND PUSH20 0xFFFFFFFFFFFFFFFFFFFFFFFFFFFFFFFFFFFFFFFF AND DUP2 MSTORE PUSH1 0x20 ADD SWAP1 DUP2 MSTORE PUSH1 0x20 ADD PUSH0 KECCAK256 PUSH1 0x5 ADD PUSH0 SWAP1 SLOAD SWAP1 PUSH2 0x100 EXP SWAP1 DIV PUSH1 0xFF AND PUSH2 0x1849 JUMPI PUSH1 0x40 MLOAD PUSH32 0x8C379A000000000000000000000000000000000000000000000000000000000 DUP2 MSTORE PUSH1 0x4 ADD PUSH2 0x1840 SWAP1 PUSH2 0x4F23 JUMP JUMPDEST PUSH1 0x40 MLOAD DUP1 SWAP2 SUB SWAP1 REVERT JUMPDEST PUSH0 PUSH1 0x9 PUSH0 DUP7 PUSH20 0xFFFFFFFFFFFFFFFFFFFFFFFFFFFFFFFFFFFFFFFF AND PUSH20 0xFFFFFFFFFFFFFFFFFFFFFFFFFFFFFFFFFFFFFFFF AND DUP2 MSTORE PUSH1 0x20 ADD SWAP1 DUP2 MSTORE PUSH1 0x20 ADD PUSH0 KECCAK256 SLOAD SWAP1 POP DUP1 DUP5 LT PUSH2 0x18CC JUMPI PUSH1 0x40 MLOAD PUSH32 0x8C379A000000000000000000000000000000000000000000000000000000000 DUP2 MSTORE PUSH1 0x4 ADD PUSH2 0x18C3 SWAP1 PUSH2 0x516C JUMP JUMPDEST PUSH1 0x40 MLOAD DUP1 SWAP2 SUB SWAP1 REVERT JUMPDEST PUSH1 0xA PUSH0 DUP7 PUSH20 0xFFFFFFFFFFFFFFFFFFFFFFFFFFFFFFFFFFFFFFFF AND PUSH20 0xFFFFFFFFFFFFFFFFFFFFFFFFFFFFFFFFFFFFFFFF AND DUP2 MSTORE PUSH1 0x20 ADD SWAP1 DUP2 MSTORE PUSH1 0x20 ADD PUSH0 KECCAK256 PUSH0 DUP6 DUP2 MSTORE PUSH1 0x20 ADD SWAP1 DUP2 MSTORE PUSH1 0x20 ADD PUSH0 KECCAK256 PUSH1 0x40 MLOAD DUP1 PUSH1 0x80 ADD PUSH1 0x40 MSTORE SWAP1 DUP2 PUSH0 DUP3 ADD DUP1 SLOAD PUSH2 0x1932 SWAP1 PUSH2 0x4FD6 JUMP JUMPDEST DUP1 PUSH1 0x1F ADD PUSH1 0x20 DUP1 SWAP2 DIV MUL PUSH1 0x20 ADD PUSH1 0x40 MLOAD SWAP1 DUP2 ADD PUSH1 0x40 MSTORE DUP1 SWAP3 SWAP2 SWAP1 DUP2 DUP2 MSTORE PUSH1 0x20 ADD DUP3 DUP1 SLOAD PUSH2 0x195E SWAP1 PUSH2 0x4FD6 JUMP JUMPDEST DUP1 ISZERO PUSH2 0x19A9 JUMPI DUP1 PUSH1 0x1F LT PUSH2 0x1980 JUMPI PUSH2 0x100 DUP1 DUP4 SLOAD DIV MUL DUP4 MSTORE SWAP2 PUSH1 0x20 ADD SWAP2 PUSH2 0x19A9 JUMP JUMPDEST DUP3 ADD SWAP2 SWAP1 PUSH0 MSTORE PUSH1 0x20 PUSH0 KECCAK256 SWAP1 JUMPDEST DUP2 SLOAD DUP2 MSTORE SWAP1 PUSH1 0x1 ADD SWAP1 PUSH1 0x20 ADD DUP1 DUP4 GT PUSH2 0x198C JUMPI DUP3 SWAP1 SUB PUSH1 0x1F AND DUP3 ADD SWAP2 JUMPDEST POP POP POP POP POP DUP2 MSTORE PUSH1 0x20 ADD PUSH1 0x1 DUP3 ADD DUP1 SLOAD PUSH2 0x19C2 SWAP1 PUSH2 0x4FD6 JUMP JUMPDEST DUP1 PUSH1 0x1F ADD PUSH1 0x20 DUP1 SWAP2 DIV MUL PUSH1 0x20 ADD PUSH1 0x40 MLOAD SWAP1 DUP2 ADD PUSH1 0x40 MSTORE DUP1 SWAP3 SWAP2 SWAP1 DUP2 DUP2 MSTORE PUSH1 0x20 ADD DUP3 DUP1 SLOAD PUSH2 0x19EE SWAP1 PUSH2 0x4FD6 JUMP JUMPDEST DUP1 ISZERO PUSH2 0x1A39 JUMPI DUP1 PUSH1 0x1F LT PUSH2 0x1A10 JUMPI PUSH2 0x100 DUP1 DUP4 SLOAD DIV MUL DUP4 MSTORE SWAP2 PUSH1 0x20 ADD SWAP2 PUSH2 0x1A39 JUMP JUMPDEST DUP3 ADD SWAP2 SWAP1 PUSH0 MSTORE PUSH1 0x20 PUSH0 KECCAK256 SWAP1 JUMPDEST DUP2 SLOAD DUP2 MSTORE SWAP1 PUSH1 0x1 ADD SWAP1 PUSH1 0x20 ADD DUP1 DUP4 GT PUSH2 0x1A1C JUMPI DUP3 SWAP1 SUB PUSH1 0x1F AND DUP3 ADD SWAP2 JUMPDEST POP POP POP POP POP DUP2 MSTORE PUSH1 0x20 ADD PUSH1 0x2 DUP3 ADD DUP1 SLOAD PUSH2 0x1A52 SWAP1 PUSH2 0x4FD6 JUMP JUMPDEST DUP1 PUSH1 0x1F ADD PUSH1 0x20 DUP1 SWAP2 DIV MUL PUSH1 0x20 ADD PUSH1 0x40 MLOAD SWAP1 DUP2 ADD PUSH1 0x40 MSTORE DUP1 SWAP3 SWAP2 SWAP1 DUP2 DUP2 MSTORE PUSH1 0x20 ADD DUP3 DUP1 SLOAD PUSH2 0x1A7E SWAP1 PUSH2 0x4FD6 JUMP JUMPDEST DUP1 ISZERO PUSH2 0x1AC9 JUMPI DUP1 PUSH1 0x1F LT PUSH2 0x1AA0 JUMPI PUSH2 0x100 DUP1 DUP4 SLOAD DIV MUL DUP4 MSTORE SWAP2 PUSH1 0x20 ADD SWAP2 PUSH2 0x1AC9 JUMP JUMPDEST DUP3 ADD SWAP2 SWAP1 PUSH0 MSTORE PUSH1 0x20 PUSH0 KECCAK256 SWAP1 JUMPDEST DUP2 SLOAD DUP2 MSTORE SWAP1 PUSH1 0x1 ADD SWAP1 PUSH1 0x20 ADD DUP1 DUP4 GT PUSH2 0x1AAC JUMPI DUP3 SWAP1 SUB PUSH1 0x1F AND DUP3 ADD SWAP2 JUMPDEST POP POP POP POP POP DUP2 MSTORE PUSH1 0x20 ADD PUSH1 0x3 DUP3 ADD DUP1 SLOAD PUSH2 0x1AE2 SWAP1 PUSH2 0x4FD6 JUMP JUMPDEST DUP1 PUSH1 0x1F ADD PUSH1 0x20 DUP1 SWAP2 DIV MUL PUSH1 0x20 ADD PUSH1 0x40 MLOAD SWAP1 DUP2 ADD PUSH1 0x40 MSTORE DUP1 SWAP3 SWAP2 SWAP1 DUP2 DUP2 MSTORE PUSH1 0x20 ADD DUP3 DUP1 SLOAD PUSH2 0x1B0E SWAP1 PUSH2 0x4FD6 JUMP JUMPDEST DUP1 ISZERO PUSH2 0x1B59 JUMPI DUP1 PUSH1 0x1F LT PUSH2 0x1B30 JUMPI PUSH2 0x100 DUP1 DUP4 SLOAD DIV MUL DUP4 MSTORE SWAP2 PUSH1 0x20 ADD SWAP2 PUSH2 0x1B59 JUMP JUMPDEST DUP3 ADD SWAP2 SWAP1 PUSH0 MSTORE PUSH1 0x20 PUSH0 KECCAK256 SWAP1 JUMPDEST DUP2 SLOAD DUP2 MSTORE SWAP1 PUSH1 0x1 ADD SWAP1 PUSH1 0x20 ADD DUP1 DUP4 GT PUSH2 0x1B3C JUMPI DUP3 SWAP1 SUB PUSH1 0x1F AND DUP3 ADD SWAP2 JUMPDEST POP POP POP POP POP DUP2 MSTORE POP POP SWAP3 POP POP POP SWAP3 SWAP2 POP POP JUMP JUMPDEST PUSH32 0x920994FC3BFE282F3F20CDCCF1B7C5E46C63D963E822D98EFFF90ABD41C12E21 PUSH2 0x1B96 DUP2 PUSH2 0x34CF JUMP JUMPDEST PUSH1 0x4 PUSH0 DUP4 PUSH20 0xFFFFFFFFFFFFFFFFFFFFFFFFFFFFFFFFFFFFFFFF AND PUSH20 0xFFFFFFFFFFFFFFFFFFFFFFFFFFFFFFFFFFFFFFFF AND DUP2 MSTORE PUSH1 0x20 ADD SWAP1 DUP2 MSTORE PUSH1 0x20 ADD PUSH0 KECCAK256 PUSH1 0x5 ADD PUSH0 SWAP1 SLOAD SWAP1 PUSH2 0x100 EXP SWAP1 DIV PUSH1 0xFF AND PUSH2 0x1C22 JUMPI PUSH1 0x40 MLOAD PUSH32 0x8C379A000000000000000000000000000000000000000000000000000000000 DUP2 MSTORE PUSH1 0x4 ADD PUSH2 0x1C19 SWAP1 PUSH2 0x4F23 JUMP JUMPDEST PUSH1 0x40 MLOAD DUP1 SWAP2 SUB SWAP1 REVERT JUMPDEST PUSH2 0x1C4C PUSH32 0xFBE1AC7C192839090E0E8FE24586CBF0E3C232386B46344EE88BA44324DAEE07 DUP5 PUSH2 0x2715 JUMP JUMPDEST DUP1 ISZERO PUSH2 0x1CD9 JUMPI POP PUSH1 0x7 PUSH0 DUP5 PUSH20 0xFFFFFFFFFFFFFFFFFFFFFFFFFFFFFFFFFFFFFFFF AND PUSH20 0xFFFFFFFFFFFFFFFFFFFFFFFFFFFFFFFFFFFFFFFF AND DUP2 MSTORE PUSH1 0x20 ADD SWAP1 DUP2 MSTORE PUSH1 0x20 ADD PUSH0 KECCAK256 PUSH0 DUP4 PUSH20 0xFFFFFFFFFFFFFFFFFFFFFFFFFFFFFFFFFFFFFFFF AND PUSH20 0xFFFFFFFFFFFFFFFFFFFFFFFFFFFFFFFFFFFFFFFF AND DUP2 MSTORE PUSH1 0x20 ADD SWAP1 DUP2 MSTORE PUSH1 0x20 ADD PUSH0 KECCAK256 PUSH0 SWAP1 SLOAD SWAP1 PUSH2 0x100 EXP SWAP1 DIV PUSH1 0xFF AND JUMPDEST PUSH2 0x1D18 JUMPI PUSH1 0x40 MLOAD PUSH32 0x8C379A000000000000000000000000000000000000000000000000000000000 DUP2 MSTORE PUSH1 0x4 ADD PUSH2 0x1D0F SWAP1 PUSH2 0x5076 JUMP JUMPDEST PUSH1 0x40 MLOAD DUP1 SWAP2 SUB SWAP1 REVERT JUMPDEST PUSH1 0x1 PUSH1 0x8 PUSH0 DUP6 PUSH20 0xFFFFFFFFFFFFFFFFFFFFFFFFFFFFFFFFFFFFFFFF AND PUSH20 0xFFFFFFFFFFFFFFFFFFFFFFFFFFFFFFFFFFFFFFFF AND DUP2 MSTORE PUSH1 0x20 ADD SWAP1 DUP2 MSTORE PUSH1 0x20 ADD PUSH0 KECCAK256 PUSH0 PUSH2 0x100 EXP DUP2 SLOAD DUP2 PUSH1 0xFF MUL NOT AND SWAP1 DUP4 ISZERO ISZERO MUL OR SWAP1 SSTORE POP POP POP POP JUMP JUMPDEST PUSH2 0x1D7A PUSH2 0x3E6D JUMP JUMPDEST PUSH32 0x920994FC3BFE282F3F20CDCCF1B7C5E46C63D963E822D98EFFF90ABD41C12E21 PUSH2 0x1DA4 DUP2 PUSH2 0x34CF JUMP JUMPDEST PUSH1 0x40 MLOAD DUP1 PUSH1 0xA0 ADD PUSH1 0x40 MSTORE DUP1 DUP9 PUSH20 0xFFFFFFFFFFFFFFFFFFFFFFFFFFFFFFFFFFFFFFFF AND DUP2 MSTORE PUSH1 0x20 ADD DUP8 PUSH20 0xFFFFFFFFFFFFFFFFFFFFFFFFFFFFFFFFFFFFFFFF AND DUP2 MSTORE PUSH1 0x20 ADD DUP7 DUP2 MSTORE PUSH1 0x20 ADD DUP6 DUP2 MSTORE PUSH1 0x20 ADD DUP5 DUP2 MSTORE POP SWAP2 POP POP SWAP6 SWAP5 POP POP POP POP POP JUMP JUMPDEST PUSH32 0x920994FC3BFE282F3F20CDCCF1B7C5E46C63D963E822D98EFFF90ABD41C12E21 PUSH2 0x1E2D DUP2 PUSH2 0x34CF JUMP JUMPDEST PUSH1 0x4 PUSH0 DUP6 PUSH20 0xFFFFFFFFFFFFFFFFFFFFFFFFFFFFFFFFFFFFFFFF AND PUSH20 0xFFFFFFFFFFFFFFFFFFFFFFFFFFFFFFFFFFFFFFFF AND DUP2 MSTORE PUSH1 0x20 ADD SWAP1 DUP2 MSTORE PUSH1 0x20 ADD PUSH0 KECCAK256 PUSH1 0x5 ADD PUSH0 SWAP1 SLOAD SWAP1 PUSH2 0x100 EXP SWAP1 DIV PUSH1 0xFF AND PUSH2 0x1EB9 JUMPI PUSH1 0x40 MLOAD PUSH32 0x8C379A000000000000000000000000000000000000000000000000000000000 DUP2 MSTORE PUSH1 0x4 ADD PUSH2 0x1EB0 SWAP1 PUSH2 0x51FA JUMP JUMPDEST PUSH1 0x40 MLOAD DUP1 SWAP2 SUB SWAP1 REVERT JUMPDEST DUP3 PUSH1 0x6 PUSH0 DUP7 PUSH20 0xFFFFFFFFFFFFFFFFFFFFFFFFFFFFFFFFFFFFFFFF AND PUSH20 0xFFFFFFFFFFFFFFFFFFFFFFFFFFFFFFFFFFFFFFFF AND DUP2 MSTORE PUSH1 0x20 ADD SWAP1 DUP2 MSTORE PUSH1 0x20 ADD PUSH0 KECCAK256 PUSH0 PUSH1 0x5 PUSH0 DUP9 PUSH20 0xFFFFFFFFFFFFFFFFFFFFFFFFFFFFFFFFFFFFFFFF AND PUSH20 0xFFFFFFFFFFFFFFFFFFFFFFFFFFFFFFFFFFFFFFFF AND DUP2 MSTORE PUSH1 0x20 ADD SWAP1 DUP2 MSTORE PUSH1 0x20 ADD PUSH0 KECCAK256 SLOAD DUP2 MSTORE PUSH1 0x20 ADD SWAP1 DUP2 MSTORE PUSH1 0x20 ADD PUSH0 KECCAK256 PUSH0 ADD PUSH0 DUP3 ADD MLOAD DUP2 PUSH0 ADD SWAP1 DUP2 PUSH2 0x1F58 SWAP2 SWAP1 PUSH2 0x53B5 JUMP JUMPDEST POP PUSH1 0x20 DUP3 ADD MLOAD DUP2 PUSH1 0x1 ADD SWAP1 DUP2 PUSH2 0x1F6E SWAP2 SWAP1 PUSH2 0x53B5 JUMP JUMPDEST POP PUSH1 0x40 DUP3 ADD MLOAD DUP2 PUSH1 0x2 ADD SSTORE PUSH1 0x60 DUP3 ADD MLOAD DUP2 PUSH1 0x3 ADD SSTORE PUSH1 0x80 DUP3 ADD MLOAD DUP2 PUSH1 0x4 ADD SSTORE PUSH1 0xA0 DUP3 ADD MLOAD DUP2 PUSH1 0x5 ADD PUSH0 PUSH2 0x100 EXP DUP2 SLOAD DUP2 PUSH20 0xFFFFFFFFFFFFFFFFFFFFFFFFFFFFFFFFFFFFFFFF MUL NOT AND SWAP1 DUP4 PUSH20 0xFFFFFFFFFFFFFFFFFFFFFFFFFFFFFFFFFFFFFFFF AND MUL OR SWAP1 SSTORE POP SWAP1 POP POP DUP2 PUSH1 0x6 PUSH0 DUP7 PUSH20 0xFFFFFFFFFFFFFFFFFFFFFFFFFFFFFFFFFFFFFFFF AND PUSH20 0xFFFFFFFFFFFFFFFFFFFFFFFFFFFFFFFFFFFFFFFF AND DUP2 MSTORE PUSH1 0x20 ADD SWAP1 DUP2 MSTORE PUSH1 0x20 ADD PUSH0 KECCAK256 PUSH0 PUSH1 0x5 PUSH0 DUP9 PUSH20 0xFFFFFFFFFFFFFFFFFFFFFFFFFFFFFFFFFFFFFFFF AND PUSH20 0xFFFFFFFFFFFFFFFFFFFFFFFFFFFFFFFFFFFFFFFF AND DUP2 MSTORE PUSH1 0x20 ADD SWAP1 DUP2 MSTORE PUSH1 0x20 ADD PUSH0 KECCAK256 SLOAD DUP2 MSTORE PUSH1 0x20 ADD SWAP1 DUP2 MSTORE PUSH1 0x20 ADD PUSH0 KECCAK256 PUSH1 0x6 ADD PUSH0 DUP3 ADD MLOAD DUP2 PUSH0 ADD PUSH0 PUSH2 0x100 EXP DUP2 SLOAD DUP2 PUSH20 0xFFFFFFFFFFFFFFFFFFFFFFFFFFFFFFFFFFFFFFFF MUL NOT AND SWAP1 DUP4 PUSH20 0xFFFFFFFFFFFFFFFFFFFFFFFFFFFFFFFFFFFFFFFF AND MUL OR SWAP1 SSTORE POP PUSH1 0x20 DUP3 ADD MLOAD DUP2 PUSH1 0x1 ADD PUSH0 PUSH2 0x100 EXP DUP2 SLOAD DUP2 PUSH20 0xFFFFFFFFFFFFFFFFFFFFFFFFFFFFFFFFFFFFFFFF MUL NOT AND SWAP1 DUP4 PUSH20 0xFFFFFFFFFFFFFFFFFFFFFFFFFFFFFFFFFFFFFFFF AND MUL OR SWAP1 SSTORE POP PUSH1 0x40 DUP3 ADD MLOAD DUP2 PUSH1 0x2 ADD SSTORE PUSH1 0x60 DUP3 ADD MLOAD DUP2 PUSH1 0x3 ADD SSTORE PUSH1 0x80 DUP3 ADD MLOAD DUP2 PUSH1 0x4 ADD SWAP1 DUP2 PUSH2 0x2116 SWAP2 SWAP1 PUSH2 0x53B5 JUMP JUMPDEST POP SWAP1 POP POP PUSH1 0x5 PUSH0 DUP6 PUSH20 0xFFFFFFFFFFFFFFFFFFFFFFFFFFFFFFFFFFFFFFFF AND PUSH20 0xFFFFFFFFFFFFFFFFFFFFFFFFFFFFFFFFFFFFFFFF AND DUP2 MSTORE PUSH1 0x20 ADD SWAP1 DUP2 MSTORE PUSH1 0x20 ADD PUSH0 KECCAK256 PUSH0 DUP2 SLOAD DUP1 SWAP3 SWAP2 SWAP1 PUSH2 0x2167 SWAP1 PUSH2 0x54B1 JUMP JUMPDEST SWAP2 SWAP1 POP SSTORE POP POP POP POP POP JUMP JUMPDEST PUSH1 0xA PUSH1 0x20 MSTORE DUP2 PUSH0 MSTORE PUSH1 0x40 PUSH0 KECCAK256 PUSH1 0x20 MSTORE DUP1 PUSH0 MSTORE PUSH1 0x40 PUSH0 KECCAK256 PUSH0 SWAP2 POP SWAP2 POP POP DUP1 PUSH0 ADD DUP1 SLOAD PUSH2 0x219C SWAP1 PUSH2 0x4FD6 JUMP JUMPDEST DUP1 PUSH1 0x1F ADD PUSH1 0x20 DUP1 SWAP2 DIV MUL PUSH1 0x20 ADD PUSH1 0x40 MLOAD SWAP1 DUP2 ADD PUSH1 0x40 MSTORE DUP1 SWAP3 SWAP2 SWAP1 DUP2 DUP2 MSTORE PUSH1 0x20 ADD DUP3 DUP1 SLOAD PUSH2 0x21C8 SWAP1 PUSH2 0x4FD6 JUMP JUMPDEST DUP1 ISZERO PUSH2 0x2213 JUMPI DUP1 PUSH1 0x1F LT PUSH2 0x21EA JUMPI PUSH2 0x100 DUP1 DUP4 SLOAD DIV MUL DUP4 MSTORE SWAP2 PUSH1 0x20 ADD SWAP2 PUSH2 0x2213 JUMP JUMPDEST DUP3 ADD SWAP2 SWAP1 PUSH0 MSTORE PUSH1 0x20 PUSH0 KECCAK256 SWAP1 JUMPDEST DUP2 SLOAD DUP2 MSTORE SWAP1 PUSH1 0x1 ADD SWAP1 PUSH1 0x20 ADD DUP1 DUP4 GT PUSH2 0x21F6 JUMPI DUP3 SWAP1 SUB PUSH1 0x1F AND DUP3 ADD SWAP2 JUMPDEST POP POP POP POP POP SWAP1 DUP1 PUSH1 0x1 ADD DUP1 SLOAD PUSH2 0x2228 SWAP1 PUSH2 0x4FD6 JUMP JUMPDEST DUP1 PUSH1 0x1F ADD PUSH1 0x20 DUP1 SWAP2 DIV MUL PUSH1 0x20 ADD PUSH1 0x40 MLOAD SWAP1 DUP2 ADD PUSH1 0x40 MSTORE DUP1 SWAP3 SWAP2 SWAP1 DUP2 DUP2 MSTORE PUSH1 0x20 ADD DUP3 DUP1 SLOAD PUSH2 0x2254 SWAP1 PUSH2 0x4FD6 JUMP JUMPDEST DUP1 ISZERO PUSH2 0x229F JUMPI DUP1 PUSH1 0x1F LT PUSH2 0x2276 JUMPI PUSH2 0x100 DUP1 DUP4 SLOAD DIV MUL DUP4 MSTORE SWAP2 PUSH1 0x20 ADD SWAP2 PUSH2 0x229F JUMP JUMPDEST DUP3 ADD SWAP2 SWAP1 PUSH0 MSTORE PUSH1 0x20 PUSH0 KECCAK256 SWAP1 JUMPDEST DUP2 SLOAD DUP2 MSTORE SWAP1 PUSH1 0x1 ADD SWAP1 PUSH1 0x20 ADD DUP1 DUP4 GT PUSH2 0x2282 JUMPI DUP3 SWAP1 SUB PUSH1 0x1F AND DUP3 ADD SWAP2 JUMPDEST POP POP POP POP POP SWAP1 DUP1 PUSH1 0x2 ADD DUP1 SLOAD PUSH2 0x22B4 SWAP1 PUSH2 0x4FD6 JUMP JUMPDEST DUP1 PUSH1 0x1F ADD PUSH1 0x20 DUP1 SWAP2 DIV MUL PUSH1 0x20 ADD PUSH1 0x40 MLOAD SWAP1 DUP2 ADD PUSH1 0x40 MSTORE DUP1 SWAP3 SWAP2 SWAP1 DUP2 DUP2 MSTORE PUSH1 0x20 ADD DUP3 DUP1 SLOAD PUSH2 0x22E0 SWAP1 PUSH2 0x4FD6 JUMP JUMPDEST DUP1 ISZERO PUSH2 0x232B JUMPI DUP1 PUSH1 0x1F LT PUSH2 0x2302 JUMPI PUSH2 0x100 DUP1 DUP4 SLOAD DIV MUL DUP4 MSTORE SWAP2 PUSH1 0x20 ADD SWAP2 PUSH2 0x232B JUMP JUMPDEST DUP3 ADD SWAP2 SWAP1 PUSH0 MSTORE PUSH1 0x20 PUSH0 KECCAK256 SWAP1 JUMPDEST DUP2 SLOAD DUP2 MSTORE SWAP1 PUSH1 0x1 ADD SWAP1 PUSH1 0x20 ADD DUP1 DUP4 GT PUSH2 0x230E JUMPI DUP3 SWAP1 SUB PUSH1 0x1F AND DUP3 ADD SWAP2 JUMPDEST POP POP POP POP POP SWAP1 DUP1 PUSH1 0x3 ADD DUP1 SLOAD PUSH2 0x2340 SWAP1 PUSH2 0x4FD6 JUMP JUMPDEST DUP1 PUSH1 0x1F ADD PUSH1 0x20 DUP1 SWAP2 DIV MUL PUSH1 0x20 ADD PUSH1 0x40 MLOAD SWAP1 DUP2 ADD PUSH1 0x40 MSTORE DUP1 SWAP3 SWAP2 SWAP1 DUP2 DUP2 MSTORE PUSH1 0x20 ADD DUP3 DUP1 SLOAD PUSH2 0x236C SWAP1 PUSH2 0x4FD6 JUMP JUMPDEST DUP1 ISZERO PUSH2 0x23B7 JUMPI DUP1 PUSH1 0x1F LT PUSH2 0x238E JUMPI PUSH2 0x100 DUP1 DUP4 SLOAD DIV MUL DUP4 MSTORE SWAP2 PUSH1 0x20 ADD SWAP2 PUSH2 0x23B7 JUMP JUMPDEST DUP3 ADD SWAP2 SWAP1 PUSH0 MSTORE PUSH1 0x20 PUSH0 KECCAK256 SWAP1 JUMPDEST DUP2 SLOAD DUP2 MSTORE SWAP1 PUSH1 0x1 ADD SWAP1 PUSH1 0x20 ADD DUP1 DUP4 GT PUSH2 0x239A JUMPI DUP3 SWAP1 SUB PUSH1 0x1F AND DUP3 ADD SWAP2 JUMPDEST POP POP POP POP POP SWAP1 POP DUP5 JUMP JUMPDEST PUSH0 PUSH1 0x2 PUSH0 SWAP1 SLOAD SWAP1 PUSH2 0x100 EXP SWAP1 DIV PUSH20 0xFFFFFFFFFFFFFFFFFFFFFFFFFFFFFFFFFFFFFFFF AND SWAP1 POP SWAP1 JUMP JUMPDEST PUSH1 0x6 PUSH1 0x20 MSTORE DUP2 PUSH0 MSTORE PUSH1 0x40 PUSH0 KECCAK256 PUSH1 0x20 MSTORE DUP1 PUSH0 MSTORE PUSH1 0x40 PUSH0 KECCAK256 PUSH0 SWAP2 POP SWAP2 POP POP DUP1 PUSH0 ADD PUSH1 0x40 MLOAD DUP1 PUSH1 0xC0 ADD PUSH1 0x40 MSTORE SWAP1 DUP2 PUSH0 DUP3 ADD DUP1 SLOAD PUSH2 0x2422 SWAP1 PUSH2 0x4FD6 JUMP JUMPDEST DUP1 PUSH1 0x1F ADD PUSH1 0x20 DUP1 SWAP2 DIV MUL PUSH1 0x20 ADD PUSH1 0x40 MLOAD SWAP1 DUP2 ADD PUSH1 0x40 MSTORE DUP1 SWAP3 SWAP2 SWAP1 DUP2 DUP2 MSTORE PUSH1 0x20 ADD DUP3 DUP1 SLOAD PUSH2 0x244E SWAP1 PUSH2 0x4FD6 JUMP JUMPDEST DUP1 ISZERO PUSH2 0x2499 JUMPI DUP1 PUSH1 0x1F LT PUSH2 0x2470 JUMPI PUSH2 0x100 DUP1 DUP4 SLOAD DIV MUL DUP4 MSTORE SWAP2 PUSH1 0x20 ADD SWAP2 PUSH2 0x2499 JUMP JUMPDEST DUP3 ADD SWAP2 SWAP1 PUSH0 MSTORE PUSH1 0x20 PUSH0 KECCAK256 SWAP1 JUMPDEST DUP2 SLOAD DUP2 MSTORE SWAP1 PUSH1 0x1 ADD SWAP1 PUSH1 0x20 ADD DUP1 DUP4 GT PUSH2 0x247C JUMPI DUP3 SWAP1 SUB PUSH1 0x1F AND DUP3 ADD SWAP2 JUMPDEST POP POP POP POP POP DUP2 MSTORE PUSH1 0x20 ADD PUSH1 0x1 DUP3 ADD DUP1 SLOAD PUSH2 0x24B2 SWAP1 PUSH2 0x4FD6 JUMP JUMPDEST DUP1 PUSH1 0x1F ADD PUSH1 0x20 DUP1 SWAP2 DIV MUL PUSH1 0x20 ADD PUSH1 0x40 MLOAD SWAP1 DUP2 ADD PUSH1 0x40 MSTORE DUP1 SWAP3 SWAP2 SWAP1 DUP2 DUP2 MSTORE PUSH1 0x20 ADD DUP3 DUP1 SLOAD PUSH2 0x24DE SWAP1 PUSH2 0x4FD6 JUMP JUMPDEST DUP1 ISZERO PUSH2 0x2529 JUMPI DUP1 PUSH1 0x1F LT PUSH2 0x2500 JUMPI PUSH2 0x100 DUP1 DUP4 SLOAD DIV MUL DUP4 MSTORE SWAP2 PUSH1 0x20 ADD SWAP2 PUSH2 0x2529 JUMP JUMPDEST DUP3 ADD SWAP2 SWAP1 PUSH0 MSTORE PUSH1 0x20 PUSH0 KECCAK256 SWAP1 JUMPDEST DUP2 SLOAD DUP2 MSTORE SWAP1 PUSH1 0x1 ADD SWAP1 PUSH1 0x20 ADD DUP1 DUP4 GT PUSH2 0x250C JUMPI DUP3 SWAP1 SUB PUSH1 0x1F AND DUP3 ADD SWAP2 JUMPDEST POP POP POP POP POP DUP2 MSTORE PUSH1 0x20 ADD PUSH1 0x2 DUP3 ADD SLOAD DUP2 MSTORE PUSH1 0x20 ADD PUSH1 0x3 DUP3 ADD SLOAD DUP2 MSTORE PUSH1 0x20 ADD PUSH1 0x4 DUP3 ADD SLOAD DUP2 MSTORE PUSH1 0x20 ADD PUSH1 0x5 DUP3 ADD PUSH0 SWAP1 SLOAD SWAP1 PUSH2 0x100 EXP SWAP1 DIV PUSH20 0xFFFFFFFFFFFFFFFFFFFFFFFFFFFFFFFFFFFFFFFF AND PUSH20 0xFFFFFFFFFFFFFFFFFFFFFFFFFFFFFFFFFFFFFFFF AND PUSH20 0xFFFFFFFFFFFFFFFFFFFFFFFFFFFFFFFFFFFFFFFF AND DUP2 MSTORE POP POP SWAP1 DUP1 PUSH1 0x6 ADD PUSH1 0x40 MLOAD DUP1 PUSH1 0xA0 ADD PUSH1 0x40 MSTORE SWAP1 DUP2 PUSH0 DUP3 ADD PUSH0 SWAP1 SLOAD SWAP1 PUSH2 0x100 EXP SWAP1 DIV PUSH20 0xFFFFFFFFFFFFFFFFFFFFFFFFFFFFFFFFFFFFFFFF AND PUSH20 0xFFFFFFFFFFFFFFFFFFFFFFFFFFFFFFFFFFFFFFFF AND PUSH20 0xFFFFFFFFFFFFFFFFFFFFFFFFFFFFFFFFFFFFFFFF AND DUP2 MSTORE PUSH1 0x20 ADD PUSH1 0x1 DUP3 ADD PUSH0 SWAP1 SLOAD SWAP1 PUSH2 0x100 EXP SWAP1 DIV PUSH20 0xFFFFFFFFFFFFFFFFFFFFFFFFFFFFFFFFFFFFFFFF AND PUSH20 0xFFFFFFFFFFFFFFFFFFFFFFFFFFFFFFFFFFFFFFFF AND PUSH20 0xFFFFFFFFFFFFFFFFFFFFFFFFFFFFFFFFFFFFFFFF AND DUP2 MSTORE PUSH1 0x20 ADD PUSH1 0x2 DUP3 ADD SLOAD DUP2 MSTORE PUSH1 0x20 ADD PUSH1 0x3 DUP3 ADD SLOAD DUP2 MSTORE PUSH1 0x20 ADD PUSH1 0x4 DUP3 ADD DUP1 SLOAD PUSH2 0x2682 SWAP1 PUSH2 0x4FD6 JUMP JUMPDEST DUP1 PUSH1 0x1F ADD PUSH1 0x20 DUP1 SWAP2 DIV MUL PUSH1 0x20 ADD PUSH1 0x40 MLOAD SWAP1 DUP2 ADD PUSH1 0x40 MSTORE DUP1 SWAP3 SWAP2 SWAP1 DUP2 DUP2 MSTORE PUSH1 0x20 ADD DUP3 DUP1 SLOAD PUSH2 0x26AE SWAP1 PUSH2 0x4FD6 JUMP JUMPDEST DUP1 ISZERO PUSH2 0x26F9 JUMPI DUP1 PUSH1 0x1F LT PUSH2 0x26D0 JUMPI PUSH2 0x100 DUP1 DUP4 SLOAD DIV MUL DUP4 MSTORE SWAP2 PUSH1 0x20 ADD SWAP2 PUSH2 0x26F9 JUMP JUMPDEST DUP3 ADD SWAP2 SWAP1 PUSH0 MSTORE PUSH1 0x20 PUSH0 KECCAK256 SWAP1 JUMPDEST DUP2 SLOAD DUP2 MSTORE SWAP1 PUSH1 0x1 ADD SWAP1 PUSH1 0x20 ADD DUP1 DUP4 GT PUSH2 0x26DC JUMPI DUP3 SWAP1 SUB PUSH1 0x1F AND DUP3 ADD SWAP2 JUMPDEST POP POP POP POP POP DUP2 MSTORE POP POP SWAP1 POP DUP3 JUMP JUMPDEST PUSH0 PUSH2 0x2710 PUSH2 0x23C1 JUMP JUMPDEST SWAP1 POP SWAP1 JUMP JUMPDEST PUSH0 DUP1 PUSH0 DUP5 DUP2 MSTORE PUSH1 0x20 ADD SWAP1 DUP2 MSTORE PUSH1 0x20 ADD PUSH0 KECCAK256 PUSH0 ADD PUSH0 DUP4 PUSH20 0xFFFFFFFFFFFFFFFFFFFFFFFFFFFFFFFFFFFFFFFF AND PUSH20 0xFFFFFFFFFFFFFFFFFFFFFFFFFFFFFFFFFFFFFFFF AND DUP2 MSTORE PUSH1 0x20 ADD SWAP1 DUP2 MSTORE PUSH1 0x20 ADD PUSH0 KECCAK256 PUSH0 SWAP1 SLOAD SWAP1 PUSH2 0x100 EXP SWAP1 DIV PUSH1 0xFF AND SWAP1 POP SWAP3 SWAP2 POP POP JUMP JUMPDEST PUSH1 0x4 PUSH1 0x20 MSTORE DUP1 PUSH0 MSTORE PUSH1 0x40 PUSH0 KECCAK256 PUSH0 SWAP2 POP SWAP1 POP DUP1 PUSH0 ADD DUP1 SLOAD PUSH2 0x2797 SWAP1 PUSH2 0x4FD6 JUMP JUMPDEST DUP1 PUSH1 0x1F ADD PUSH1 0x20 DUP1 SWAP2 DIV MUL PUSH1 0x20 ADD PUSH1 0x40 MLOAD SWAP1 DUP2 ADD PUSH1 0x40 MSTORE DUP1 SWAP3 SWAP2 SWAP1 DUP2 DUP2 MSTORE PUSH1 0x20 ADD DUP3 DUP1 SLOAD PUSH2 0x27C3 SWAP1 PUSH2 0x4FD6 JUMP JUMPDEST DUP1 ISZERO PUSH2 0x280E JUMPI DUP1 PUSH1 0x1F LT PUSH2 0x27E5 JUMPI PUSH2 0x100 DUP1 DUP4 SLOAD DIV MUL DUP4 MSTORE SWAP2 PUSH1 0x20 ADD SWAP2 PUSH2 0x280E JUMP JUMPDEST DUP3 ADD SWAP2 SWAP1 PUSH0 MSTORE PUSH1 0x20 PUSH0 KECCAK256 SWAP1 JUMPDEST DUP2 SLOAD DUP2 MSTORE SWAP1 PUSH1 0x1 ADD SWAP1 PUSH1 0x20 ADD DUP1 DUP4 GT PUSH2 0x27F1 JUMPI DUP3 SWAP1 SUB PUSH1 0x1F AND DUP3 ADD SWAP2 JUMPDEST POP POP POP POP POP SWAP1 DUP1 PUSH1 0x1 ADD DUP1 SLOAD PUSH2 0x2823 SWAP1 PUSH2 0x4FD6 JUMP JUMPDEST DUP1 PUSH1 0x1F ADD PUSH1 0x20 DUP1 SWAP2 DIV MUL PUSH1 0x20 ADD PUSH1 0x40 MLOAD SWAP1 DUP2 ADD PUSH1 0x40 MSTORE DUP1 SWAP3 SWAP2 SWAP1 DUP2 DUP2 MSTORE PUSH1 0x20 ADD DUP3 DUP1 SLOAD PUSH2 0x284F SWAP1 PUSH2 0x4FD6 JUMP JUMPDEST DUP1 ISZERO PUSH2 0x289A JUMPI DUP1 PUSH1 0x1F LT PUSH2 0x2871 JUMPI PUSH2 0x100 DUP1 DUP4 SLOAD DIV MUL DUP4 MSTORE SWAP2 PUSH1 0x20 ADD SWAP2 PUSH2 0x289A JUMP JUMPDEST DUP3 ADD SWAP2 SWAP1 PUSH0 MSTORE PUSH1 0x20 PUSH0 KECCAK256 SWAP1 JUMPDEST DUP2 SLOAD DUP2 MSTORE SWAP1 PUSH1 0x1 ADD SWAP1 PUSH1 0x20 ADD DUP1 DUP4 GT PUSH2 0x287D JUMPI DUP3 SWAP1 SUB PUSH1 0x1F AND DUP3 ADD SWAP2 JUMPDEST POP POP POP POP POP SWAP1 DUP1 PUSH1 0x2 ADD DUP1 SLOAD PUSH2 0x28AF SWAP1 PUSH2 0x4FD6 JUMP JUMPDEST DUP1 PUSH1 0x1F ADD PUSH1 0x20 DUP1 SWAP2 DIV MUL PUSH1 0x20 ADD PUSH1 0x40 MLOAD SWAP1 DUP2 ADD PUSH1 0x40 MSTORE DUP1 SWAP3 SWAP2 SWAP1 DUP2 DUP2 MSTORE PUSH1 0x20 ADD DUP3 DUP1 SLOAD PUSH2 0x28DB SWAP1 PUSH2 0x4FD6 JUMP JUMPDEST DUP1 ISZERO PUSH2 0x2926 JUMPI DUP1 PUSH1 0x1F LT PUSH2 0x28FD JUMPI PUSH2 0x100 DUP1 DUP4 SLOAD DIV MUL DUP4 MSTORE SWAP2 PUSH1 0x20 ADD SWAP2 PUSH2 0x2926 JUMP JUMPDEST DUP3 ADD SWAP2 SWAP1 PUSH0 MSTORE PUSH1 0x20 PUSH0 KECCAK256 SWAP1 JUMPDEST DUP2 SLOAD DUP2 MSTORE SWAP1 PUSH1 0x1 ADD SWAP1 PUSH1 0x20 ADD DUP1 DUP4 GT PUSH2 0x2909 JUMPI DUP3 SWAP1 SUB PUSH1 0x1F AND DUP3 ADD SWAP2 JUMPDEST POP POP POP POP POP SWAP1 DUP1 PUSH1 0x3 ADD DUP1 SLOAD PUSH2 0x293B SWAP1 PUSH2 0x4FD6 JUMP JUMPDEST DUP1 PUSH1 0x1F ADD PUSH1 0x20 DUP1 SWAP2 DIV MUL PUSH1 0x20 ADD PUSH1 0x40 MLOAD SWAP1 DUP2 ADD PUSH1 0x40 MSTORE DUP1 SWAP3 SWAP2 SWAP1 DUP2 DUP2 MSTORE PUSH1 0x20 ADD DUP3 DUP1 SLOAD PUSH2 0x2967 SWAP1 PUSH2 0x4FD6 JUMP JUMPDEST DUP1 ISZERO PUSH2 0x29B2 JUMPI DUP1 PUSH1 0x1F LT PUSH2 0x2989 JUMPI PUSH2 0x100 DUP1 DUP4 SLOAD DIV MUL DUP4 MSTORE SWAP2 PUSH1 0x20 ADD SWAP2 PUSH2 0x29B2 JUMP JUMPDEST DUP3 ADD SWAP2 SWAP1 PUSH0 MSTORE PUSH1 0x20 PUSH0 KECCAK256 SWAP1 JUMPDEST DUP2 SLOAD DUP2 MSTORE SWAP1 PUSH1 0x1 ADD SWAP1 PUSH1 0x20 ADD DUP1 DUP4 GT PUSH2 0x2995 JUMPI DUP3 SWAP1 SUB PUSH1 0x1F AND DUP3 ADD SWAP2 JUMPDEST POP POP POP POP POP SWAP1 DUP1 PUSH1 0x4 ADD SLOAD SWAP1 DUP1 PUSH1 0x5 ADD PUSH0 SWAP1 SLOAD SWAP1 PUSH2 0x100 EXP SWAP1 DIV PUSH1 0xFF AND SWAP1 POP DUP7 JUMP JUMPDEST PUSH0 DUP1 PUSH1 0x2 PUSH1 0x1A SWAP1 SLOAD SWAP1 PUSH2 0x100 EXP SWAP1 DIV PUSH6 0xFFFFFFFFFFFF AND SWAP1 POP PUSH2 0x29F6 DUP2 PUSH2 0x3511 JUMP JUMPDEST DUP1 ISZERO PUSH2 0x2A08 JUMPI POP PUSH2 0x2A06 DUP2 PUSH2 0x3525 JUMP JUMPDEST ISZERO JUMPDEST PUSH2 0x2A13 JUMPI PUSH0 DUP1 PUSH2 0x2A2A JUMP JUMPDEST PUSH1 0x2 PUSH1 0x14 SWAP1 SLOAD SWAP1 PUSH2 0x100 EXP SWAP1 DIV PUSH6 0xFFFFFFFFFFFF AND DUP2 JUMPDEST SWAP2 POP SWAP2 POP SWAP1 SWAP2 JUMP JUMPDEST PUSH0 DUP1 SHL DUP2 JUMP JUMPDEST PUSH2 0x2A40 PUSH2 0x3E45 JUMP JUMPDEST PUSH32 0xFBE1AC7C192839090E0E8FE24586CBF0E3C232386B46344EE88BA44324DAEE07 PUSH2 0x2A6A DUP2 PUSH2 0x34CF JUMP JUMPDEST PUSH1 0x4 PUSH0 DUP6 PUSH20 0xFFFFFFFFFFFFFFFFFFFFFFFFFFFFFFFFFFFFFFFF AND PUSH20 0xFFFFFFFFFFFFFFFFFFFFFFFFFFFFFFFFFFFFFFFF AND DUP2 MSTORE PUSH1 0x20 ADD SWAP1 DUP2 MSTORE PUSH1 0x20 ADD PUSH0 KECCAK256 PUSH1 0x5 ADD PUSH0 SWAP1 SLOAD SWAP1 PUSH2 0x100 EXP SWAP1 DIV PUSH1 0xFF AND PUSH2 0x2AF6 JUMPI PUSH1 0x40 MLOAD PUSH32 0x8C379A000000000000000000000000000000000000000000000000000000000 DUP2 MSTORE PUSH1 0x4 ADD PUSH2 0x2AED SWAP1 PUSH2 0x4F23 JUMP JUMPDEST PUSH1 0x40 MLOAD DUP1 SWAP2 SUB SWAP1 REVERT JUMPDEST PUSH1 0xB PUSH0 DUP7 PUSH20 0xFFFFFFFFFFFFFFFFFFFFFFFFFFFFFFFFFFFFFFFF AND PUSH20 0xFFFFFFFFFFFFFFFFFFFFFFFFFFFFFFFFFFFFFFFF AND DUP2 MSTORE PUSH1 0x20 ADD SWAP1 DUP2 MSTORE PUSH1 0x20 ADD PUSH0 KECCAK256 PUSH0 SWAP1 SLOAD SWAP1 PUSH2 0x100 EXP SWAP1 DIV PUSH1 0xFF AND PUSH2 0x2B7F JUMPI PUSH1 0x40 MLOAD PUSH32 0x8C379A000000000000000000000000000000000000000000000000000000000 DUP2 MSTORE PUSH1 0x4 ADD PUSH2 0x2B76 SWAP1 PUSH2 0x5568 JUMP JUMPDEST PUSH1 0x40 MLOAD DUP1 SWAP2 SUB SWAP1 REVERT JUMPDEST PUSH0 PUSH1 0x9 PUSH0 DUP7 PUSH20 0xFFFFFFFFFFFFFFFFFFFFFFFFFFFFFFFFFFFFFFFF AND PUSH20 0xFFFFFFFFFFFFFFFFFFFFFFFFFFFFFFFFFFFFFFFF AND DUP2 MSTORE PUSH1 0x20 ADD SWAP1 DUP2 MSTORE PUSH1 0x20 ADD PUSH0 KECCAK256 SLOAD SWAP1 POP DUP1 DUP5 LT PUSH2 0x2C02 JUMPI PUSH1 0x40 MLOAD PUSH32 0x8C379A000000000000000000000000000000000000000000000000000000000 DUP2 MSTORE PUSH1 0x4 ADD PUSH2 0x2BF9 SWAP1 PUSH2 0x516C JUMP JUMPDEST PUSH1 0x40 MLOAD DUP1 SWAP2 SUB SWAP1 REVERT JUMPDEST PUSH1 0xA PUSH0 DUP7 PUSH20 0xFFFFFFFFFFFFFFFFFFFFFFFFFFFFFFFFFFFFFFFF AND PUSH20 0xFFFFFFFFFFFFFFFFFFFFFFFFFFFFFFFFFFFFFFFF AND DUP2 MSTORE PUSH1 0x20 ADD SWAP1 DUP2 MSTORE PUSH1 0x20 ADD PUSH0 KECCAK256 PUSH0 DUP6 DUP2 MSTORE PUSH1 0x20 ADD SWAP1 DUP2 MSTORE PUSH1 0x20 ADD PUSH0 KECCAK256 PUSH1 0x40 MLOAD DUP1 PUSH1 0x80 ADD PUSH1 0x40 MSTORE SWAP1 DUP2 PUSH0 DUP3 ADD DUP1 SLOAD PUSH2 0x2C68 SWAP1 PUSH2 0x4FD6 JUMP JUMPDEST DUP1 PUSH1 0x1F ADD PUSH1 0x20 DUP1 SWAP2 DIV MUL PUSH1 0x20 ADD PUSH1 0x40 MLOAD SWAP1 DUP2 ADD PUSH1 0x40 MSTORE DUP1 SWAP3 SWAP2 SWAP1 DUP2 DUP2 MSTORE PUSH1 0x20 ADD DUP3 DUP1 SLOAD PUSH2 0x2C94 SWAP1 PUSH2 0x4FD6 JUMP JUMPDEST DUP1 ISZERO PUSH2 0x2CDF JUMPI DUP1 PUSH1 0x1F LT PUSH2 0x2CB6 JUMPI PUSH2 0x100 DUP1 DUP4 SLOAD DIV MUL DUP4 MSTORE SWAP2 PUSH1 0x20 ADD SWAP2 PUSH2 0x2CDF JUMP JUMPDEST DUP3 ADD SWAP2 SWAP1 PUSH0 MSTORE PUSH1 0x20 PUSH0 KECCAK256 SWAP1 JUMPDEST DUP2 SLOAD DUP2 MSTORE SWAP1 PUSH1 0x1 ADD SWAP1 PUSH1 0x20 ADD DUP1 DUP4 GT PUSH2 0x2CC2 JUMPI DUP3 SWAP1 SUB PUSH1 0x1F AND DUP3 ADD SWAP2 JUMPDEST POP POP POP POP POP DUP2 MSTORE PUSH1 0x20 ADD PUSH1 0x1 DUP3 ADD DUP1 SLOAD PUSH2 0x2CF8 SWAP1 PUSH2 0x4FD6 JUMP JUMPDEST DUP1 PUSH1 0x1F ADD PUSH1 0x20 DUP1 SWAP2 DIV MUL PUSH1 0x20 ADD PUSH1 0x40 MLOAD SWAP1 DUP2 ADD PUSH1 0x40 MSTORE DUP1 SWAP3 SWAP2 SWAP1 DUP2 DUP2 MSTORE PUSH1 0x20 ADD DUP3 DUP1 SLOAD PUSH2 0x2D24 SWAP1 PUSH2 0x4FD6 JUMP JUMPDEST DUP1 ISZERO PUSH2 0x2D6F JUMPI DUP1 PUSH1 0x1F LT PUSH2 0x2D46 JUMPI PUSH2 0x100 DUP1 DUP4 SLOAD DIV MUL DUP4 MSTORE SWAP2 PUSH1 0x20 ADD SWAP2 PUSH2 0x2D6F JUMP JUMPDEST DUP3 ADD SWAP2 SWAP1 PUSH0 MSTORE PUSH1 0x20 PUSH0 KECCAK256 SWAP1 JUMPDEST DUP2 SLOAD DUP2 MSTORE SWAP1 PUSH1 0x1 ADD SWAP1 PUSH1 0x20 ADD DUP1 DUP4 GT PUSH2 0x2D52 JUMPI DUP3 SWAP1 SUB PUSH1 0x1F AND DUP3 ADD SWAP2 JUMPDEST POP POP POP POP POP DUP2 MSTORE PUSH1 0x20 ADD PUSH1 0x2 DUP3 ADD DUP1 SLOAD PUSH2 0x2D88 SWAP1 PUSH2 0x4FD6 JUMP JUMPDEST DUP1 PUSH1 0x1F ADD PUSH1 0x20 DUP1 SWAP2 DIV MUL PUSH1 0x20 ADD PUSH1 0x40 MLOAD SWAP1 DUP2 ADD PUSH1 0x40 MSTORE DUP1 SWAP3 SWAP2 SWAP1 DUP2 DUP2 MSTORE PUSH1 0x20 ADD DUP3 DUP1 SLOAD PUSH2 0x2DB4 SWAP1 PUSH2 0x4FD6 JUMP JUMPDEST DUP1 ISZERO PUSH2 0x2DFF JUMPI DUP1 PUSH1 0x1F LT PUSH2 0x2DD6 JUMPI PUSH2 0x100 DUP1 DUP4 SLOAD DIV MUL DUP4 MSTORE SWAP2 PUSH1 0x20 ADD SWAP2 PUSH2 0x2DFF JUMP JUMPDEST DUP3 ADD SWAP2 SWAP1 PUSH0 MSTORE PUSH1 0x20 PUSH0 KECCAK256 SWAP1 JUMPDEST DUP2 SLOAD DUP2 MSTORE SWAP1 PUSH1 0x1 ADD SWAP1 PUSH1 0x20 ADD DUP1 DUP4 GT PUSH2 0x2DE2 JUMPI DUP3 SWAP1 SUB PUSH1 0x1F AND DUP3 ADD SWAP2 JUMPDEST POP POP POP POP POP DUP2 MSTORE PUSH1 0x20 ADD PUSH1 0x3 DUP3 ADD DUP1 SLOAD PUSH2 0x2E18 SWAP1 PUSH2 0x4FD6 JUMP JUMPDEST DUP1 PUSH1 0x1F ADD PUSH1 0x20 DUP1 SWAP2 DIV MUL PUSH1 0x20 ADD PUSH1 0x40 MLOAD SWAP1 DUP2 ADD PUSH1 0x40 MSTORE DUP1 SWAP3 SWAP2 SWAP1 DUP2 DUP2 MSTORE PUSH1 0x20 ADD DUP3 DUP1 SLOAD PUSH2 0x2E44 SWAP1 PUSH2 0x4FD6 JUMP JUMPDEST DUP1 ISZERO PUSH2 0x2E8F JUMPI DUP1 PUSH1 0x1F LT PUSH2 0x2E66 JUMPI PUSH2 0x100 DUP1 DUP4 SLOAD DIV MUL DUP4 MSTORE SWAP2 PUSH1 0x20 ADD SWAP2 PUSH2 0x2E8F JUMP JUMPDEST DUP3 ADD SWAP2 SWAP1 PUSH0 MSTORE PUSH1 0x20 PUSH0 KECCAK256 SWAP1 JUMPDEST DUP2 SLOAD DUP2 MSTORE SWAP1 PUSH1 0x1 ADD SWAP1 PUSH1 0x20 ADD DUP1 DUP4 GT PUSH2 0x2E72 JUMPI DUP3 SWAP1 SUB PUSH1 0x1F AND DUP3 ADD SWAP2 JUMPDEST POP POP POP POP POP DUP2 MSTORE POP POP SWAP3 POP POP POP SWAP4 SWAP3 POP POP POP JUMP JUMPDEST PUSH32 0x920994FC3BFE282F3F20CDCCF1B7C5E46C63D963E822D98EFFF90ABD41C12E21 PUSH2 0x2ECD DUP2 PUSH2 0x34CF JUMP JUMPDEST PUSH1 0x4 PUSH0 DUP8 PUSH20 0xFFFFFFFFFFFFFFFFFFFFFFFFFFFFFFFFFFFFFFFF AND PUSH20 0xFFFFFFFFFFFFFFFFFFFFFFFFFFFFFFFFFFFFFFFF AND DUP2 MSTORE PUSH1 0x20 ADD SWAP1 DUP2 MSTORE PUSH1 0x20 ADD PUSH0 KECCAK256 PUSH1 0x5 ADD PUSH0 SWAP1 SLOAD SWAP1 PUSH2 0x100 EXP SWAP1 DIV PUSH1 0xFF AND PUSH2 0x2F59 JUMPI PUSH1 0x40 MLOAD PUSH32 0x8C379A000000000000000000000000000000000000000000000000000000000 DUP2 MSTORE PUSH1 0x4 ADD PUSH2 0x2F50 SWAP1 PUSH2 0x51FA JUMP JUMPDEST PUSH1 0x40 MLOAD DUP1 SWAP2 SUB SWAP1 REVERT JUMPDEST PUSH1 0x40 MLOAD DUP1 PUSH1 0x80 ADD PUSH1 0x40 MSTORE DUP1 DUP7 DUP2 MSTORE PUSH1 0x20 ADD DUP6 DUP2 MSTORE PUSH1 0x20 ADD DUP5 DUP2 MSTORE PUSH1 0x20 ADD DUP4 DUP2 MSTORE POP PUSH1 0xA PUSH0 DUP9 PUSH20 0xFFFFFFFFFFFFFFFFFFFFFFFFFFFFFFFFFFFFFFFF AND PUSH20 0xFFFFFFFFFFFFFFFFFFFFFFFFFFFFFFFFFFFFFFFF AND DUP2 MSTORE PUSH1 0x20 ADD SWAP1 DUP2 MSTORE PUSH1 0x20 ADD PUSH0 KECCAK256 PUSH0 PUSH1 0x9 PUSH0 DUP11 PUSH20 0xFFFFFFFFFFFFFFFFFFFFFFFFFFFFFFFFFFFFFFFF AND PUSH20 0xFFFFFFFFFFFFFFFFFFFFFFFFFFFFFFFFFFFFFFFF AND DUP2 MSTORE PUSH1 0x20 ADD SWAP1 DUP2 MSTORE PUSH1 0x20 ADD PUSH0 KECCAK256 SLOAD DUP2 MSTORE PUSH1 0x20 ADD SWAP1 DUP2 MSTORE PUSH1 0x20 ADD PUSH0 KECCAK256 PUSH0 DUP3 ADD MLOAD DUP2 PUSH0 ADD SWAP1 DUP2 PUSH2 0x3016 SWAP2 SWAP1 PUSH2 0x53B5 JUMP JUMPDEST POP PUSH1 0x20 DUP3 ADD MLOAD DUP2 PUSH1 0x1 ADD SWAP1 DUP2 PUSH2 0x302C SWAP2 SWAP1 PUSH2 0x53B5 JUMP JUMPDEST POP PUSH1 0x40 DUP3 ADD MLOAD DUP2 PUSH1 0x2 ADD SWAP1 DUP2 PUSH2 0x3042 SWAP2 SWAP1 PUSH2 0x53B5 JUMP JUMPDEST POP PUSH1 0x60 DUP3 ADD MLOAD DUP2 PUSH1 0x3 ADD SWAP1 DUP2 PUSH2 0x3058 SWAP2 SWAP1 PUSH2 0x53B5 JUMP JUMPDEST POP SWAP1 POP POP PUSH1 0x9 PUSH0 DUP8 PUSH20 0xFFFFFFFFFFFFFFFFFFFFFFFFFFFFFFFFFFFFFFFF AND PUSH20 0xFFFFFFFFFFFFFFFFFFFFFFFFFFFFFFFFFFFFFFFF AND DUP2 MSTORE PUSH1 0x20 ADD SWAP1 DUP2 MSTORE PUSH1 0x20 ADD PUSH0 KECCAK256 PUSH0 DUP2 SLOAD DUP1 SWAP3 SWAP2 SWAP1 PUSH2 0x30A9 SWAP1 PUSH2 0x54B1 JUMP JUMPDEST SWAP2 SWAP1 POP SSTORE POP POP POP POP POP POP POP JUMP JUMPDEST PUSH1 0xB PUSH1 0x20 MSTORE DUP1 PUSH0 MSTORE PUSH1 0x40 PUSH0 KECCAK256 PUSH0 SWAP2 POP SLOAD SWAP1 PUSH2 0x100 EXP SWAP1 DIV PUSH1 0xFF AND DUP2 JUMP JUMPDEST PUSH0 DUP1 PUSH1 0x2 PUSH1 0x1A SWAP1 SLOAD SWAP1 PUSH2 0x100 EXP SWAP1 DIV PUSH6 0xFFFFFFFFFFFF AND SWAP1 POP PUSH2 0x30F5 DUP2 PUSH2 0x3511 JUMP JUMPDEST DUP1 ISZERO PUSH2 0x3106 JUMPI POP PUSH2 0x3105 DUP2 PUSH2 0x3525 JUMP JUMPDEST JUMPDEST PUSH2 0x3124 JUMPI PUSH1 0x1 PUSH1 0x1A SWAP1 SLOAD SWAP1 PUSH2 0x100 EXP SWAP1 DIV PUSH6 0xFFFFFFFFFFFF AND PUSH2 0x313A JUMP JUMPDEST PUSH1 0x2 PUSH1 0x14 SWAP1 SLOAD SWAP1 PUSH2 0x100 EXP SWAP1 DIV PUSH6 0xFFFFFFFFFFFF AND JUMPDEST SWAP2 POP POP SWAP1 JUMP JUMPDEST PUSH0 PUSH2 0x3149 PUSH2 0x31D5 JUMP JUMPDEST POP SWAP1 POP DUP1 PUSH20 0xFFFFFFFFFFFFFFFFFFFFFFFFFFFFFFFFFFFFFFFF AND PUSH2 0x316B PUSH2 0x3693 JUMP JUMPDEST PUSH20 0xFFFFFFFFFFFFFFFFFFFFFFFFFFFFFFFFFFFFFFFF AND EQ PUSH2 0x31CA JUMPI PUSH2 0x318E PUSH2 0x3693 JUMP JUMPDEST PUSH1 0x40 MLOAD PUSH32 0xC22C802200000000000000000000000000000000000000000000000000000000 DUP2 MSTORE PUSH1 0x4 ADD PUSH2 0x31C1 SWAP2 SWAP1 PUSH2 0x4BE2 JUMP JUMPDEST PUSH1 0x40 MLOAD DUP1 SWAP2 SUB SWAP1 REVERT JUMPDEST PUSH2 0x31D2 PUSH2 0x369A JUMP JUMPDEST POP JUMP JUMPDEST PUSH0 DUP1 PUSH1 0x1 PUSH0 SWAP1 SLOAD SWAP1 PUSH2 0x100 EXP SWAP1 DIV PUSH20 0xFFFFFFFFFFFFFFFFFFFFFFFFFFFFFFFFFFFFFFFF AND PUSH1 0x1 PUSH1 0x14 SWAP1 SLOAD SWAP1 PUSH2 0x100 EXP SWAP1 DIV PUSH6 0xFFFFFFFFFFFF AND SWAP2 POP SWAP2 POP SWAP1 SWAP2 JUMP JUMPDEST PUSH0 DUP1 SHL DUP3 SUB PUSH2 0x3251 JUMPI PUSH1 0x40 MLOAD PUSH32 0x3FC3C27A00000000000000000000000000000000000000000000000000000000 DUP2 MSTORE PUSH1 0x4 ADD PUSH1 0x40 MLOAD DUP1 SWAP2 SUB SWAP1 REVERT JUMPDEST PUSH2 0x325B DUP3 DUP3 PUSH2 0x3765 JUMP JUMPDEST POP POP JUMP JUMPDEST PUSH0 DUP1 SHL PUSH2 0x326B DUP2 PUSH2 0x34CF JUMP JUMPDEST PUSH2 0x3273 PUSH2 0x3787 JUMP JUMPDEST POP JUMP JUMPDEST PUSH0 DUP1 SHL PUSH2 0x3282 DUP2 PUSH2 0x34CF JUMP JUMPDEST PUSH0 ISZERO ISZERO PUSH1 0x4 PUSH0 DUP10 PUSH20 0xFFFFFFFFFFFFFFFFFFFFFFFFFFFFFFFFFFFFFFFF AND PUSH20 0xFFFFFFFFFFFFFFFFFFFFFFFFFFFFFFFFFFFFFFFF AND DUP2 MSTORE PUSH1 0x20 ADD SWAP1 DUP2 MSTORE PUSH1 0x20 ADD PUSH0 KECCAK256 PUSH1 0x5 ADD PUSH0 SWAP1 SLOAD SWAP1 PUSH2 0x100 EXP SWAP1 DIV PUSH1 0xFF AND ISZERO ISZERO EQ PUSH2 0x3314 JUMPI PUSH1 0x40 MLOAD PUSH32 0x8C379A000000000000000000000000000000000000000000000000000000000 DUP2 MSTORE PUSH1 0x4 ADD PUSH2 0x330B SWAP1 PUSH2 0x55F6 JUMP JUMPDEST PUSH1 0x40 MLOAD DUP1 SWAP2 SUB SWAP1 REVERT JUMPDEST PUSH0 PUSH1 0x40 MLOAD DUP1 PUSH1 0xC0 ADD PUSH1 0x40 MSTORE DUP1 DUP9 DUP2 MSTORE PUSH1 0x20 ADD DUP8 DUP2 MSTORE PUSH1 0x20 ADD DUP7 DUP2 MSTORE PUSH1 0x20 ADD DUP6 DUP2 MSTORE PUSH1 0x20 ADD DUP5 DUP2 MSTORE PUSH1 0x20 ADD PUSH1 0x1 ISZERO ISZERO DUP2 MSTORE POP SWAP1 POP DUP1 PUSH1 0x4 PUSH0 DUP11 PUSH20 0xFFFFFFFFFFFFFFFFFFFFFFFFFFFFFFFFFFFFFFFF AND PUSH20 0xFFFFFFFFFFFFFFFFFFFFFFFFFFFFFFFFFFFFFFFF AND DUP2 MSTORE PUSH1 0x20 ADD SWAP1 DUP2 MSTORE PUSH1 0x20 ADD PUSH0 KECCAK256 PUSH0 DUP3 ADD MLOAD DUP2 PUSH0 ADD SWAP1 DUP2 PUSH2 0x3398 SWAP2 SWAP1 PUSH2 0x53B5 JUMP JUMPDEST POP PUSH1 0x20 DUP3 ADD MLOAD DUP2 PUSH1 0x1 ADD SWAP1 DUP2 PUSH2 0x33AE SWAP2 SWAP1 PUSH2 0x53B5 JUMP JUMPDEST POP PUSH1 0x40 DUP3 ADD MLOAD DUP2 PUSH1 0x2 ADD SWAP1 DUP2 PUSH2 0x33C4 SWAP2 SWAP1 PUSH2 0x53B5 JUMP JUMPDEST POP PUSH1 0x60 DUP3 ADD MLOAD DUP2 PUSH1 0x3 ADD SWAP1 DUP2 PUSH2 0x33DA SWAP2 SWAP1 PUSH2 0x53B5 JUMP JUMPDEST POP PUSH1 0x80 DUP3 ADD MLOAD DUP2 PUSH1 0x4 ADD SSTORE PUSH1 0xA0 DUP3 ADD MLOAD DUP2 PUSH1 0x5 ADD PUSH0 PUSH2 0x100 EXP DUP2 SLOAD DUP2 PUSH1 0xFF MUL NOT AND SWAP1 DUP4 ISZERO ISZERO MUL OR SWAP1 SSTORE POP SWAP1 POP POP PUSH2 0x3431 PUSH32 0x920994FC3BFE282F3F20CDCCF1B7C5E46C63D963E822D98EFFF90ABD41C12E21 DUP10 PUSH2 0xDC4 JUMP JUMPDEST POP POP POP POP POP POP POP POP JUMP JUMPDEST PUSH1 0x5 PUSH1 0x20 MSTORE DUP1 PUSH0 MSTORE PUSH1 0x40 PUSH0 KECCAK256 PUSH0 SWAP2 POP SWAP1 POP SLOAD DUP2 JUMP JUMPDEST PUSH1 0x3 SLOAD DUP2 JUMP JUMPDEST PUSH0 PUSH32 0x7965DB0B00000000000000000000000000000000000000000000000000000000 PUSH28 0xFFFFFFFFFFFFFFFFFFFFFFFFFFFFFFFFFFFFFFFFFFFFFFFFFFFFFFFF NOT AND DUP3 PUSH28 0xFFFFFFFFFFFFFFFFFFFFFFFFFFFFFFFFFFFFFFFFFFFFFFFFFFFFFFFF NOT AND EQ DUP1 PUSH2 0x34C8 JUMPI POP PUSH2 0x34C7 DUP3 PUSH2 0x3793 JUMP JUMPDEST JUMPDEST SWAP1 POP SWAP2 SWAP1 POP JUMP JUMPDEST PUSH2 0x34E0 DUP2 PUSH2 0x34DB PUSH2 0x3693 JUMP JUMPDEST PUSH2 0x37FC JUMP JUMPDEST POP JUMP JUMPDEST PUSH2 0x34ED PUSH0 DUP1 PUSH2 0x384D JUMP JUMPDEST JUMP JUMPDEST PUSH2 0x34F8 DUP3 PUSH2 0x8BC JUMP JUMPDEST PUSH2 0x3501 DUP2 PUSH2 0x34CF JUMP JUMPDEST PUSH2 0x350B DUP4 DUP4 PUSH2 0x393C JUMP JUMPDEST POP POP POP POP JUMP JUMPDEST PUSH0 DUP1 DUP3 PUSH6 0xFFFFFFFFFFFF AND EQ ISZERO SWAP1 POP SWAP2 SWAP1 POP JUMP JUMPDEST PUSH0 TIMESTAMP DUP3 PUSH6 0xFFFFFFFFFFFF AND LT SWAP1 POP SWAP2 SWAP1 POP JUMP JUMPDEST PUSH2 0x3540 PUSH2 0x3693 JUMP JUMPDEST PUSH20 0xFFFFFFFFFFFFFFFFFFFFFFFFFFFFFFFFFFFFFFFF AND DUP2 PUSH20 0xFFFFFFFFFFFFFFFFFFFFFFFFFFFFFFFFFFFFFFFF AND EQ PUSH2 0x35A4 JUMPI PUSH1 0x40 MLOAD PUSH32 0x6697B23200000000000000000000000000000000000000000000000000000000 DUP2 MSTORE PUSH1 0x4 ADD PUSH1 0x40 MLOAD DUP1 SWAP2 SUB SWAP1 REVERT JUMPDEST PUSH2 0x35AE DUP3 DUP3 PUSH2 0x3A05 JUMP JUMPDEST POP POP POP JUMP JUMPDEST PUSH0 PUSH2 0x35BC PUSH2 0x30D3 JUMP JUMPDEST PUSH2 0x35C5 TIMESTAMP PUSH2 0x3A85 JUMP JUMPDEST PUSH2 0x35CF SWAP2 SWAP1 PUSH2 0x5614 JUMP JUMPDEST SWAP1 POP PUSH2 0x35DB DUP3 DUP3 PUSH2 0x3ADE JUMP JUMPDEST DUP2 PUSH20 0xFFFFFFFFFFFFFFFFFFFFFFFFFFFFFFFFFFFFFFFF AND PUSH32 0x3377DC44241E779DD06AFAB5B788A35CA5F3B778836E2990BDB26A2A4B2E5ED6 DUP3 PUSH1 0x40 MLOAD PUSH2 0x3621 SWAP2 SWAP1 PUSH2 0x3FA8 JUMP JUMPDEST PUSH1 0x40 MLOAD DUP1 SWAP2 SUB SWAP1 LOG2 POP POP JUMP JUMPDEST PUSH0 PUSH2 0x3637 DUP3 PUSH2 0x3B8F JUMP JUMPDEST PUSH2 0x3640 TIMESTAMP PUSH2 0x3A85 JUMP JUMPDEST PUSH2 0x364A SWAP2 SWAP1 PUSH2 0x5614 JUMP JUMPDEST SWAP1 POP PUSH2 0x3656 DUP3 DUP3 PUSH2 0x384D JUMP JUMPDEST PUSH32 0xF1038C18CF84A56E432FDBFAF746924B7EA511DFE03A6506A0CEBA4888788D9B DUP3 DUP3 PUSH1 0x40 MLOAD PUSH2 0x3687 SWAP3 SWAP2 SWAP1 PUSH2 0x4CAB JUMP JUMPDEST PUSH1 0x40 MLOAD DUP1 SWAP2 SUB SWAP1 LOG1 POP POP JUMP JUMPDEST PUSH0 CALLER SWAP1 POP SWAP1 JUMP JUMPDEST PUSH0 DUP1 PUSH2 0x36A4 PUSH2 0x31D5 JUMP JUMPDEST SWAP2 POP SWAP2 POP PUSH2 0x36B1 DUP2 PUSH2 0x3511 JUMP JUMPDEST ISZERO DUP1 PUSH2 0x36C3 JUMPI POP PUSH2 0x36C1 DUP2 PUSH2 0x3525 JUMP JUMPDEST ISZERO JUMPDEST ISZERO PUSH2 0x3705 JUMPI DUP1 PUSH1 0x40 MLOAD PUSH32 0x19CA5EBB00000000000000000000000000000000000000000000000000000000 DUP2 MSTORE PUSH1 0x4 ADD PUSH2 0x36FC SWAP2 SWAP1 PUSH2 0x3FA8 JUMP JUMPDEST PUSH1 0x40 MLOAD DUP1 SWAP2 SUB SWAP1 REVERT JUMPDEST PUSH2 0x3718 PUSH0 DUP1 SHL PUSH2 0x3713 PUSH2 0x23C1 JUMP JUMPDEST PUSH2 0x3A05 JUMP JUMPDEST POP PUSH2 0x3725 PUSH0 DUP1 SHL DUP4 PUSH2 0x393C JUMP JUMPDEST POP PUSH1 0x1 PUSH0 PUSH2 0x100 EXP DUP2 SLOAD SWAP1 PUSH20 0xFFFFFFFFFFFFFFFFFFFFFFFFFFFFFFFFFFFFFFFF MUL NOT AND SWAP1 SSTORE PUSH1 0x1 PUSH1 0x14 PUSH2 0x100 EXP DUP2 SLOAD SWAP1 PUSH6 0xFFFFFFFFFFFF MUL NOT AND SWAP1 SSTORE POP POP JUMP JUMPDEST PUSH2 0x376E DUP3 PUSH2 0x8BC JUMP JUMPDEST PUSH2 0x3777 DUP2 PUSH2 0x34CF JUMP JUMPDEST PUSH2 0x3781 DUP4 DUP4 PUSH2 0x3A05 JUMP JUMPDEST POP POP POP POP JUMP JUMPDEST PUSH2 0x3791 PUSH0 DUP1 PUSH2 0x3ADE JUMP JUMPDEST JUMP JUMPDEST PUSH0 PUSH32 0x1FFC9A700000000000000000000000000000000000000000000000000000000 PUSH28 0xFFFFFFFFFFFFFFFFFFFFFFFFFFFFFFFFFFFFFFFFFFFFFFFFFFFFFFFF NOT AND DUP3 PUSH28 0xFFFFFFFFFFFFFFFFFFFFFFFFFFFFFFFFFFFFFFFFFFFFFFFFFFFFFFFF NOT AND EQ SWAP1 POP SWAP2 SWAP1 POP JUMP JUMPDEST PUSH2 0x3806 DUP3 DUP3 PUSH2 0x2715 JUMP JUMPDEST PUSH2 0x3849 JUMPI DUP1 DUP3 PUSH1 0x40 MLOAD PUSH32 0xE2517D3F00000000000000000000000000000000000000000000000000000000 DUP2 MSTORE PUSH1 0x4 ADD PUSH2 0x3840 SWAP3 SWAP2 SWAP1 PUSH2 0x564D JUMP JUMPDEST PUSH1 0x40 MLOAD DUP1 SWAP2 SUB SWAP1 REVERT JUMPDEST POP POP JUMP JUMPDEST PUSH0 PUSH1 0x2 PUSH1 0x1A SWAP1 SLOAD SWAP1 PUSH2 0x100 EXP SWAP1 DIV PUSH6 0xFFFFFFFFFFFF AND SWAP1 POP PUSH2 0x386E DUP2 PUSH2 0x3511 JUMP JUMPDEST ISZERO PUSH2 0x38ED JUMPI PUSH2 0x387C DUP2 PUSH2 0x3525 JUMP JUMPDEST ISZERO PUSH2 0x38BF JUMPI PUSH1 0x2 PUSH1 0x14 SWAP1 SLOAD SWAP1 PUSH2 0x100 EXP SWAP1 DIV PUSH6 0xFFFFFFFFFFFF AND PUSH1 0x1 PUSH1 0x1A PUSH2 0x100 EXP DUP2 SLOAD DUP2 PUSH6 0xFFFFFFFFFFFF MUL NOT AND SWAP1 DUP4 PUSH6 0xFFFFFFFFFFFF AND MUL OR SWAP1 SSTORE POP PUSH2 0x38EC JUMP JUMPDEST PUSH32 0x2B1FA2EDAFE6F7B9E97C1A9E0C3660E645BEB2DCAA2D45BDBF9BEAF5472E1EC5 PUSH1 0x40 MLOAD PUSH1 0x40 MLOAD DUP1 SWAP2 SUB SWAP1 LOG1 JUMPDEST JUMPDEST DUP3 PUSH1 0x2 PUSH1 0x14 PUSH2 0x100 EXP DUP2 SLOAD DUP2 PUSH6 0xFFFFFFFFFFFF MUL NOT AND SWAP1 DUP4 PUSH6 0xFFFFFFFFFFFF AND MUL OR SWAP1 SSTORE POP DUP2 PUSH1 0x2 PUSH1 0x1A PUSH2 0x100 EXP DUP2 SLOAD DUP2 PUSH6 0xFFFFFFFFFFFF MUL NOT AND SWAP1 DUP4 PUSH6 0xFFFFFFFFFFFF AND MUL OR SWAP1 SSTORE POP POP POP POP JUMP JUMPDEST PUSH0 DUP1 PUSH0 SHL DUP4 SUB PUSH2 0x39F3 JUMPI PUSH0 PUSH20 0xFFFFFFFFFFFFFFFFFFFFFFFFFFFFFFFFFFFFFFFF AND PUSH2 0x3965 PUSH2 0x23C1 JUMP JUMPDEST PUSH20 0xFFFFFFFFFFFFFFFFFFFFFFFFFFFFFFFFFFFFFFFF AND EQ PUSH2 0x39B2 JUMPI PUSH1 0x40 MLOAD PUSH32 0x3FC3C27A00000000000000000000000000000000000000000000000000000000 DUP2 MSTORE PUSH1 0x4 ADD PUSH1 0x40 MLOAD DUP1 SWAP2 SUB SWAP1 REVERT JUMPDEST DUP2 PUSH1 0x2 PUSH0 PUSH2 0x100 EXP DUP2 SLOAD DUP2 PUSH20 0xFFFFFFFFFFFFFFFFFFFFFFFFFFFFFFFFFFFFFFFF MUL NOT AND SWAP1 DUP4 PUSH20 0xFFFFFFFFFFFFFFFFFFFFFFFFFFFFFFFFFFFFFFFF AND MUL OR SWAP1 SSTORE POP JUMPDEST PUSH2 0x39FD DUP4 DUP4 PUSH2 0x3BED JUMP JUMPDEST SWAP1 POP SWAP3 SWAP2 POP POP JUMP JUMPDEST PUSH0 DUP1 PUSH0 SHL DUP4 EQ DUP1 ISZERO PUSH2 0x3A49 JUMPI POP PUSH2 0x3A1A PUSH2 0x23C1 JUMP JUMPDEST PUSH20 0xFFFFFFFFFFFFFFFFFFFFFFFFFFFFFFFFFFFFFFFF AND DUP3 PUSH20 0xFFFFFFFFFFFFFFFFFFFFFFFFFFFFFFFFFFFFFFFF AND EQ JUMPDEST ISZERO PUSH2 0x3A73 JUMPI PUSH1 0x2 PUSH0 PUSH2 0x100 EXP DUP2 SLOAD SWAP1 PUSH20 0xFFFFFFFFFFFFFFFFFFFFFFFFFFFFFFFFFFFFFFFF MUL NOT AND SWAP1 SSTORE JUMPDEST PUSH2 0x3A7D DUP4 DUP4 PUSH2 0x3CD6 JUMP JUMPDEST SWAP1 POP SWAP3 SWAP2 POP POP JUMP JUMPDEST PUSH0 PUSH6 0xFFFFFFFFFFFF DUP1 AND DUP3 GT ISZERO PUSH2 0x3AD6 JUMPI PUSH1 0x30 DUP3 PUSH1 0x40 MLOAD PUSH32 0x6DFCC65000000000000000000000000000000000000000000000000000000000 DUP2 MSTORE PUSH1 0x4 ADD PUSH2 0x3ACD SWAP3 SWAP2 SWAP1 PUSH2 0x56B9 JUMP JUMPDEST PUSH1 0x40 MLOAD DUP1 SWAP2 SUB SWAP1 REVERT JUMPDEST DUP2 SWAP1 POP SWAP2 SWAP1 POP JUMP JUMPDEST PUSH0 PUSH2 0x3AE7 PUSH2 0x31D5 JUMP JUMPDEST SWAP2 POP POP DUP3 PUSH1 0x1 PUSH0 PUSH2 0x100 EXP DUP2 SLOAD DUP2 PUSH20 0xFFFFFFFFFFFFFFFFFFFFFFFFFFFFFFFFFFFFFFFF MUL NOT AND SWAP1 DUP4 PUSH20 0xFFFFFFFFFFFFFFFFFFFFFFFFFFFFFFFFFFFFFFFF AND MUL OR SWAP1 SSTORE POP DUP2 PUSH1 0x1 PUSH1 0x14 PUSH2 0x100 EXP DUP2 SLOAD DUP2 PUSH6 0xFFFFFFFFFFFF MUL NOT AND SWAP1 DUP4 PUSH6 0xFFFFFFFFFFFF AND MUL OR SWAP1 SSTORE POP PUSH2 0x3B58 DUP2 PUSH2 0x3511 JUMP JUMPDEST ISZERO PUSH2 0x3B8A JUMPI PUSH32 0x8886EBFC4259ABDBC16601DD8FB5678E54878F47B3C34836CFC51154A9605109 PUSH1 0x40 MLOAD PUSH1 0x40 MLOAD DUP1 SWAP2 SUB SWAP1 LOG1 JUMPDEST POP POP POP JUMP JUMPDEST PUSH0 DUP1 PUSH2 0x3B99 PUSH2 0x30D3 JUMP JUMPDEST SWAP1 POP DUP1 PUSH6 0xFFFFFFFFFFFF AND DUP4 PUSH6 0xFFFFFFFFFFFF AND GT PUSH2 0x3BC3 JUMPI DUP3 DUP2 PUSH2 0x3BBE SWAP2 SWAP1 PUSH2 0x56E0 JUMP JUMPDEST PUSH2 0x3BE5 JUMP JUMPDEST PUSH2 0x3BE4 DUP4 PUSH6 0xFFFFFFFFFFFF AND PUSH2 0x3BD7 PUSH2 0x89B JUMP JUMPDEST PUSH6 0xFFFFFFFFFFFF AND PUSH2 0x3DBF JUMP JUMPDEST JUMPDEST SWAP2 POP POP SWAP2 SWAP1 POP JUMP JUMPDEST PUSH0 PUSH2 0x3BF8 DUP4 DUP4 PUSH2 0x2715 JUMP JUMPDEST PUSH2 0x3CCC JUMPI PUSH1 0x1 PUSH0 DUP1 DUP6 DUP2 MSTORE PUSH1 0x20 ADD SWAP1 DUP2 MSTORE PUSH1 0x20 ADD PUSH0 KECCAK256 PUSH0 ADD PUSH0 DUP5 PUSH20 0xFFFFFFFFFFFFFFFFFFFFFFFFFFFFFFFFFFFFFFFF AND PUSH20 0xFFFFFFFFFFFFFFFFFFFFFFFFFFFFFFFFFFFFFFFF AND DUP2 MSTORE PUSH1 0x20 ADD SWAP1 DUP2 MSTORE PUSH1 0x20 ADD PUSH0 KECCAK256 PUSH0 PUSH2 0x100 EXP DUP2 SLOAD DUP2 PUSH1 0xFF MUL NOT AND SWAP1 DUP4 ISZERO ISZERO MUL OR SWAP1 SSTORE POP PUSH2 0x3C69 PUSH2 0x3693 JUMP JUMPDEST PUSH20 0xFFFFFFFFFFFFFFFFFFFFFFFFFFFFFFFFFFFFFFFF AND DUP3 PUSH20 0xFFFFFFFFFFFFFFFFFFFFFFFFFFFFFFFFFFFFFFFF AND DUP5 PUSH32 0x2F8788117E7EFF1D82E926EC794901D17C78024A50270940304540A733656F0D PUSH1 0x40 MLOAD PUSH1 0x40 MLOAD DUP1 SWAP2 SUB SWAP1 LOG4 PUSH1 0x1 SWAP1 POP PUSH2 0x3CD0 JUMP JUMPDEST PUSH0 SWAP1 POP JUMPDEST SWAP3 SWAP2 POP POP JUMP JUMPDEST PUSH0 PUSH2 0x3CE1 DUP4 DUP4 PUSH2 0x2715 JUMP JUMPDEST ISZERO PUSH2 0x3DB5 JUMPI PUSH0 DUP1 PUSH0 DUP6 DUP2 MSTORE PUSH1 0x20 ADD SWAP1 DUP2 MSTORE PUSH1 0x20 ADD PUSH0 KECCAK256 PUSH0 ADD PUSH0 DUP5 PUSH20 0xFFFFFFFFFFFFFFFFFFFFFFFFFFFFFFFFFFFFFFFF AND PUSH20 0xFFFFFFFFFFFFFFFFFFFFFFFFFFFFFFFFFFFFFFFF AND DUP2 MSTORE PUSH1 0x20 ADD SWAP1 DUP2 MSTORE PUSH1 0x20 ADD PUSH0 KECCAK256 PUSH0 PUSH2 0x100 EXP DUP2 SLOAD DUP2 PUSH1 0xFF MUL NOT AND SWAP1 DUP4 ISZERO ISZERO MUL OR SWAP1 SSTORE POP PUSH2 0x3D52 PUSH2 0x3693 JUMP JUMPDEST PUSH20 0xFFFFFFFFFFFFFFFFFFFFFFFFFFFFFFFFFFFFFFFF AND DUP3 PUSH20 0xFFFFFFFFFFFFFFFFFFFFFFFFFFFFFFFFFFFFFFFF AND DUP5 PUSH32 0xF6391F5C32D9C69D2A47EA670B442974B53935D1EDC7FD64EB21E047A839171B PUSH1 0x40 MLOAD PUSH1 0x40 MLOAD DUP1 SWAP2 SUB SWAP1 LOG4 PUSH1 0x1 SWAP1 POP PUSH2 0x3DB9 JUMP JUMPDEST PUSH0 SWAP1 POP JUMPDEST SWAP3 SWAP2 POP POP JUMP JUMPDEST PUSH0 DUP2 DUP4 LT PUSH2 0x3DCD JUMPI DUP2 PUSH2 0x3DCF JUMP JUMPDEST DUP3 JUMPDEST SWAP1 POP SWAP3 SWAP2 POP POP JUMP JUMPDEST PUSH1 0x40 MLOAD DUP1 PUSH1 0x40 ADD PUSH1 0x40 MSTORE DUP1 PUSH2 0x3DEA PUSH2 0x3DFD JUMP JUMPDEST DUP2 MSTORE PUSH1 0x20 ADD PUSH2 0x3DF7 PUSH2 0x3E6D JUMP JUMPDEST DUP2 MSTORE POP SWAP1 JUMP JUMPDEST PUSH1 0x40 MLOAD DUP1 PUSH1 0xC0 ADD PUSH1 0x40 MSTORE DUP1 PUSH1 0x60 DUP2 MSTORE PUSH1 0x20 ADD PUSH1 0x60 DUP2 MSTORE PUSH1 0x20 ADD PUSH0 DUP2 MSTORE PUSH1 0x20 ADD PUSH0 DUP2 MSTORE PUSH1 0x20 ADD PUSH0 DUP2 MSTORE PUSH1 0x20 ADD PUSH0 PUSH20 0xFFFFFFFFFFFFFFFFFFFFFFFFFFFFFFFFFFFFFFFF AND DUP2 MSTORE POP SWAP1 JUMP JUMPDEST PUSH1 0x40 MLOAD DUP1 PUSH1 0x80 ADD PUSH1 0x40 MSTORE DUP1 PUSH1 0x60 DUP2 MSTORE PUSH1 0x20 ADD PUSH1 0x60 DUP2 MSTORE PUSH1 0x20 ADD PUSH1 0x60 DUP2 MSTORE PUSH1 0x20 ADD PUSH1 0x60 DUP2 MSTORE POP SWAP1 JUMP JUMPDEST PUSH1 0x40 MLOAD DUP1 PUSH1 0xA0 ADD PUSH1 0x40 MSTORE DUP1 PUSH0 PUSH20 0xFFFFFFFFFFFFFFFFFFFFFFFFFFFFFFFFFFFFFFFF AND DUP2 MSTORE PUSH1 0x20 ADD PUSH0 PUSH20 0xFFFFFFFFFFFFFFFFFFFFFFFFFFFFFFFFFFFFFFFF AND DUP2 MSTORE PUSH1 0x20 ADD PUSH0 DUP2 MSTORE PUSH1 0x20 ADD PUSH0 DUP2 MSTORE PUSH1 0x20 ADD PUSH1 0x60 DUP2 MSTORE POP SWAP1 JUMP JUMPDEST PUSH0 PUSH1 0x40 MLOAD SWAP1 POP SWAP1 JUMP JUMPDEST PUSH0 DUP1 REVERT JUMPDEST PUSH0 DUP1 REVERT JUMPDEST PUSH0 PUSH32 0xFFFFFFFF00000000000000000000000000000000000000000000000000000000 DUP3 AND SWAP1 POP SWAP2 SWAP1 POP JUMP JUMPDEST PUSH2 0x3F09 DUP2 PUSH2 0x3ED5 JUMP JUMPDEST DUP2 EQ PUSH2 0x3F13 JUMPI PUSH0 DUP1 REVERT JUMPDEST POP JUMP JUMPDEST PUSH0 DUP2 CALLDATALOAD SWAP1 POP PUSH2 0x3F24 DUP2 PUSH2 0x3F00 JUMP JUMPDEST SWAP3 SWAP2 POP POP JUMP JUMPDEST PUSH0 PUSH1 0x20 DUP3 DUP5 SUB SLT ISZERO PUSH2 0x3F3F JUMPI PUSH2 0x3F3E PUSH2 0x3ECD JUMP JUMPDEST JUMPDEST PUSH0 PUSH2 0x3F4C DUP5 DUP3 DUP6 ADD PUSH2 0x3F16 JUMP JUMPDEST SWAP2 POP POP SWAP3 SWAP2 POP POP JUMP JUMPDEST PUSH0 DUP2 ISZERO ISZERO SWAP1 POP SWAP2 SWAP1 POP JUMP JUMPDEST PUSH2 0x3F69 DUP2 PUSH2 0x3F55 JUMP JUMPDEST DUP3 MSTORE POP POP JUMP JUMPDEST PUSH0 PUSH1 0x20 DUP3 ADD SWAP1 POP PUSH2 0x3F82 PUSH0 DUP4 ADD DUP5 PUSH2 0x3F60 JUMP JUMPDEST SWAP3 SWAP2 POP POP JUMP JUMPDEST PUSH0 PUSH6 0xFFFFFFFFFFFF DUP3 AND SWAP1 POP SWAP2 SWAP1 POP JUMP JUMPDEST PUSH2 0x3FA2 DUP2 PUSH2 0x3F88 JUMP JUMPDEST DUP3 MSTORE POP POP JUMP JUMPDEST PUSH0 PUSH1 0x20 DUP3 ADD SWAP1 POP PUSH2 0x3FBB PUSH0 DUP4 ADD DUP5 PUSH2 0x3F99 JUMP JUMPDEST SWAP3 SWAP2 POP POP JUMP JUMPDEST PUSH0 DUP2 SWAP1 POP SWAP2 SWAP1 POP JUMP JUMPDEST PUSH2 0x3FD3 DUP2 PUSH2 0x3FC1 JUMP JUMPDEST DUP2 EQ PUSH2 0x3FDD JUMPI PUSH0 DUP1 REVERT JUMPDEST POP JUMP JUMPDEST PUSH0 DUP2 CALLDATALOAD SWAP1 POP PUSH2 0x3FEE DUP2 PUSH2 0x3FCA JUMP JUMPDEST SWAP3 SWAP2 POP POP JUMP JUMPDEST PUSH0 PUSH1 0x20 DUP3 DUP5 SUB SLT ISZERO PUSH2 0x4009 JUMPI PUSH2 0x4008 PUSH2 0x3ECD JUMP JUMPDEST JUMPDEST PUSH0 PUSH2 0x4016 DUP5 DUP3 DUP6 ADD PUSH2 0x3FE0 JUMP JUMPDEST SWAP2 POP POP SWAP3 SWAP2 POP POP JUMP JUMPDEST PUSH2 0x4028 DUP2 PUSH2 0x3FC1 JUMP JUMPDEST DUP3 MSTORE POP POP JUMP JUMPDEST PUSH0 PUSH1 0x20 DUP3 ADD SWAP1 POP PUSH2 0x4041 PUSH0 DUP4 ADD DUP5 PUSH2 0x401F JUMP JUMPDEST SWAP3 SWAP2 POP POP JUMP JUMPDEST PUSH0 PUSH20 0xFFFFFFFFFFFFFFFFFFFFFFFFFFFFFFFFFFFFFFFF DUP3 AND SWAP1 POP SWAP2 SWAP1 POP JUMP JUMPDEST PUSH0 PUSH2 0x4070 DUP3 PUSH2 0x4047 JUMP JUMPDEST SWAP1 POP SWAP2 SWAP1 POP JUMP JUMPDEST PUSH2 0x4080 DUP2 PUSH2 0x4066 JUMP JUMPDEST DUP2 EQ PUSH2 0x408A JUMPI PUSH0 DUP1 REVERT JUMPDEST POP JUMP JUMPDEST PUSH0 DUP2 CALLDATALOAD SWAP1 POP PUSH2 0x409B DUP2 PUSH2 0x4077 JUMP JUMPDEST SWAP3 SWAP2 POP POP JUMP JUMPDEST PUSH0 DUP1 PUSH1 0x40 DUP4 DUP6 SUB SLT ISZERO PUSH2 0x40B7 JUMPI PUSH2 0x40B6 PUSH2 0x3ECD JUMP JUMPDEST JUMPDEST PUSH0 PUSH2 0x40C4 DUP6 DUP3 DUP7 ADD PUSH2 0x408D JUMP JUMPDEST SWAP3 POP POP PUSH1 0x20 PUSH2 0x40D5 DUP6 DUP3 DUP7 ADD PUSH2 0x3FE0 JUMP JUMPDEST SWAP2 POP POP SWAP3 POP SWAP3 SWAP1 POP JUMP JUMPDEST PUSH0 DUP2 SWAP1 POP SWAP2 SWAP1 POP JUMP JUMPDEST PUSH2 0x40F1 DUP2 PUSH2 0x40DF JUMP JUMPDEST DUP2 EQ PUSH2 0x40FB JUMPI PUSH0 DUP1 REVERT JUMPDEST POP JUMP JUMPDEST PUSH0 DUP2 CALLDATALOAD SWAP1 POP PUSH2 0x410C DUP2 PUSH2 0x40E8 JUMP JUMPDEST SWAP3 SWAP2 POP POP JUMP JUMPDEST PUSH0 DUP1 PUSH1 0x40 DUP4 DUP6 SUB SLT ISZERO PUSH2 0x4128 JUMPI PUSH2 0x4127 PUSH2 0x3ECD JUMP JUMPDEST JUMPDEST PUSH0 PUSH2 0x4135 DUP6 DUP3 DUP7 ADD PUSH2 0x408D JUMP JUMPDEST SWAP3 POP POP PUSH1 0x20 PUSH2 0x4146 DUP6 DUP3 DUP7 ADD PUSH2 0x40FE JUMP JUMPDEST SWAP2 POP POP SWAP3 POP SWAP3 SWAP1 POP JUMP JUMPDEST PUSH0 DUP2 MLOAD SWAP1 POP SWAP2 SWAP1 POP JUMP JUMPDEST PUSH0 DUP3 DUP3 MSTORE PUSH1 0x20 DUP3 ADD SWAP1 POP SWAP3 SWAP2 POP POP JUMP JUMPDEST PUSH0 JUMPDEST DUP4 DUP2 LT ISZERO PUSH2 0x4187 JUMPI DUP1 DUP3 ADD MLOAD DUP2 DUP5 ADD MSTORE PUSH1 0x20 DUP2 ADD SWAP1 POP PUSH2 0x416C JUMP JUMPDEST PUSH0 DUP5 DUP5 ADD MSTORE POP POP POP POP JUMP JUMPDEST PUSH0 PUSH1 0x1F NOT PUSH1 0x1F DUP4 ADD AND SWAP1 POP SWAP2 SWAP1 POP JUMP JUMPDEST PUSH0 PUSH2 0x41AC DUP3 PUSH2 0x4150 JUMP JUMPDEST PUSH2 0x41B6 DUP2 DUP6 PUSH2 0x415A JUMP JUMPDEST SWAP4 POP PUSH2 0x41C6 DUP2 DUP6 PUSH1 0x20 DUP7 ADD PUSH2 0x416A JUMP JUMPDEST PUSH2 0x41CF DUP2 PUSH2 0x4192 JUMP JUMPDEST DUP5 ADD SWAP2 POP POP SWAP3 SWAP2 POP POP JUMP JUMPDEST PUSH2 0x41E3 DUP2 PUSH2 0x40DF JUMP JUMPDEST DUP3 MSTORE POP POP JUMP JUMPDEST PUSH2 0x41F2 DUP2 PUSH2 0x4066 JUMP JUMPDEST DUP3 MSTORE POP POP JUMP JUMPDEST PUSH0 PUSH1 0xC0 DUP4 ADD PUSH0 DUP4 ADD MLOAD DUP5 DUP3 SUB PUSH0 DUP7 ADD MSTORE PUSH2 0x4212 DUP3 DUP3 PUSH2 0x41A2 JUMP JUMPDEST SWAP2 POP POP PUSH1 0x20 DUP4 ADD MLOAD DUP5 DUP3 SUB PUSH1 0x20 DUP7 ADD MSTORE PUSH2 0x422C DUP3 DUP3 PUSH2 0x41A2 JUMP JUMPDEST SWAP2 POP POP PUSH1 0x40 DUP4 ADD MLOAD PUSH2 0x4241 PUSH1 0x40 DUP7 ADD DUP3 PUSH2 0x41DA JUMP JUMPDEST POP PUSH1 0x60 DUP4 ADD MLOAD PUSH2 0x4254 PUSH1 0x60 DUP7 ADD DUP3 PUSH2 0x41DA JUMP JUMPDEST POP PUSH1 0x80 DUP4 ADD MLOAD PUSH2 0x4267 PUSH1 0x80 DUP7 ADD DUP3 PUSH2 0x41DA JUMP JUMPDEST POP PUSH1 0xA0 DUP4 ADD MLOAD PUSH2 0x427A PUSH1 0xA0 DUP7 ADD DUP3 PUSH2 0x41E9 JUMP JUMPDEST POP DUP1 SWAP2 POP POP SWAP3 SWAP2 POP POP JUMP JUMPDEST PUSH0 PUSH1 0xA0 DUP4 ADD PUSH0 DUP4 ADD MLOAD PUSH2 0x429A PUSH0 DUP7 ADD DUP3 PUSH2 0x41E9 JUMP JUMPDEST POP PUSH1 0x20 DUP4 ADD MLOAD PUSH2 0x42AD PUSH1 0x20 DUP7 ADD DUP3 PUSH2 0x41E9 JUMP JUMPDEST POP PUSH1 0x40 DUP4 ADD MLOAD PUSH2 0x42C0 PUSH1 0x40 DUP7 ADD DUP3 PUSH2 0x41DA JUMP JUMPDEST POP PUSH1 0x60 DUP4 ADD MLOAD PUSH2 0x42D3 PUSH1 0x60 DUP7 ADD DUP3 PUSH2 0x41DA JUMP JUMPDEST POP PUSH1 0x80 DUP4 ADD MLOAD DUP5 DUP3 SUB PUSH1 0x80 DUP7 ADD MSTORE PUSH2 0x42EB DUP3 DUP3 PUSH2 0x41A2 JUMP JUMPDEST SWAP2 POP POP DUP1 SWAP2 POP POP SWAP3 SWAP2 POP POP JUMP JUMPDEST PUSH0 PUSH1 0x40 DUP4 ADD PUSH0 DUP4 ADD MLOAD DUP5 DUP3 SUB PUSH0 DUP7 ADD MSTORE PUSH2 0x4312 DUP3 DUP3 PUSH2 0x41F8 JUMP JUMPDEST SWAP2 POP POP PUSH1 0x20 DUP4 ADD MLOAD DUP5 DUP3 SUB PUSH1 0x20 DUP7 ADD MSTORE PUSH2 0x432C DUP3 DUP3 PUSH2 0x4285 JUMP JUMPDEST SWAP2 POP POP DUP1 SWAP2 POP POP SWAP3 SWAP2 POP POP JUMP JUMPDEST PUSH0 PUSH1 0x20 DUP3 ADD SWAP1 POP DUP2 DUP2 SUB PUSH0 DUP4 ADD MSTORE PUSH2 0x4351 DUP2 DUP5 PUSH2 0x42F8 JUMP JUMPDEST SWAP1 POP SWAP3 SWAP2 POP POP JUMP JUMPDEST PUSH0 DUP1 PUSH1 0x40 DUP4 DUP6 SUB SLT ISZERO PUSH2 0x436F JUMPI PUSH2 0x436E PUSH2 0x3ECD JUMP JUMPDEST JUMPDEST PUSH0 PUSH2 0x437C DUP6 DUP3 DUP7 ADD PUSH2 0x3FE0 JUMP JUMPDEST SWAP3 POP POP PUSH1 0x20 PUSH2 0x438D DUP6 DUP3 DUP7 ADD PUSH2 0x408D JUMP JUMPDEST SWAP2 POP POP SWAP3 POP SWAP3 SWAP1 POP JUMP JUMPDEST PUSH0 PUSH1 0x20 DUP3 DUP5 SUB SLT ISZERO PUSH2 0x43AC JUMPI PUSH2 0x43AB PUSH2 0x3ECD JUMP JUMPDEST JUMPDEST PUSH0 PUSH2 0x43B9 DUP5 DUP3 DUP6 ADD PUSH2 0x408D JUMP JUMPDEST SWAP2 POP POP SWAP3 SWAP2 POP POP JUMP JUMPDEST PUSH0 DUP1 PUSH1 0x40 DUP4 DUP6 SUB SLT ISZERO PUSH2 0x43D8 JUMPI PUSH2 0x43D7 PUSH2 0x3ECD JUMP JUMPDEST JUMPDEST PUSH0 PUSH2 0x43E5 DUP6 DUP3 DUP7 ADD PUSH2 0x408D JUMP JUMPDEST SWAP3 POP POP PUSH1 0x20 PUSH2 0x43F6 DUP6 DUP3 DUP7 ADD PUSH2 0x408D JUMP JUMPDEST SWAP2 POP POP SWAP3 POP SWAP3 SWAP1 POP JUMP JUMPDEST PUSH0 DUP1 REVERT JUMPDEST PUSH0 DUP1 REVERT JUMPDEST PUSH32 0x4E487B7100000000000000000000000000000000000000000000000000000000 PUSH0 MSTORE PUSH1 0x41 PUSH1 0x4 MSTORE PUSH1 0x24 PUSH0 REVERT JUMPDEST PUSH2 0x443E DUP3 PUSH2 0x4192 JUMP JUMPDEST DUP2 ADD DUP2 DUP2 LT PUSH8 0xFFFFFFFFFFFFFFFF DUP3 GT OR ISZERO PUSH2 0x445D JUMPI PUSH2 0x445C PUSH2 0x4408 JUMP JUMPDEST JUMPDEST DUP1 PUSH1 0x40 MSTORE POP POP POP JUMP JUMPDEST PUSH0 PUSH2 0x446F PUSH2 0x3EC4 JUMP JUMPDEST SWAP1 POP PUSH2 0x447B DUP3 DUP3 PUSH2 0x4435 JUMP JUMPDEST SWAP2 SWAP1 POP JUMP JUMPDEST PUSH0 PUSH8 0xFFFFFFFFFFFFFFFF DUP3 GT ISZERO PUSH2 0x449A JUMPI PUSH2 0x4499 PUSH2 0x4408 JUMP JUMPDEST JUMPDEST PUSH2 0x44A3 DUP3 PUSH2 0x4192 JUMP JUMPDEST SWAP1 POP PUSH1 0x20 DUP2 ADD SWAP1 POP SWAP2 SWAP1 POP JUMP JUMPDEST DUP3 DUP2 DUP4 CALLDATACOPY PUSH0 DUP4 DUP4 ADD MSTORE POP POP POP JUMP JUMPDEST PUSH0 PUSH2 0x44D0 PUSH2 0x44CB DUP5 PUSH2 0x4480 JUMP JUMPDEST PUSH2 0x4466 JUMP JUMPDEST SWAP1 POP DUP3 DUP2 MSTORE PUSH1 0x20 DUP2 ADD DUP5 DUP5 DUP5 ADD GT ISZERO PUSH2 0x44EC JUMPI PUSH2 0x44EB PUSH2 0x4404 JUMP JUMPDEST JUMPDEST PUSH2 0x44F7 DUP5 DUP3 DUP6 PUSH2 0x44B0 JUMP JUMPDEST POP SWAP4 SWAP3 POP POP POP JUMP JUMPDEST PUSH0 DUP3 PUSH1 0x1F DUP4 ADD SLT PUSH2 0x4513 JUMPI PUSH2 0x4512 PUSH2 0x4400 JUMP JUMPDEST JUMPDEST DUP2 CALLDATALOAD PUSH2 0x4523 DUP5 DUP3 PUSH1 0x20 DUP7 ADD PUSH2 0x44BE JUMP JUMPDEST SWAP2 POP POP SWAP3 SWAP2 POP POP JUMP JUMPDEST PUSH0 DUP1 PUSH0 DUP1 PUSH0 DUP1 PUSH1 0xC0 DUP8 DUP10 SUB SLT ISZERO PUSH2 0x4546 JUMPI PUSH2 0x4545 PUSH2 0x3ECD JUMP JUMPDEST JUMPDEST PUSH0 DUP8 ADD CALLDATALOAD PUSH8 0xFFFFFFFFFFFFFFFF DUP2 GT ISZERO PUSH2 0x4563 JUMPI PUSH2 0x4562 PUSH2 0x3ED1 JUMP JUMPDEST JUMPDEST PUSH2 0x456F DUP10 DUP3 DUP11 ADD PUSH2 0x44FF JUMP JUMPDEST SWAP7 POP POP PUSH1 0x20 DUP8 ADD CALLDATALOAD PUSH8 0xFFFFFFFFFFFFFFFF DUP2 GT ISZERO PUSH2 0x4590 JUMPI PUSH2 0x458F PUSH2 0x3ED1 JUMP JUMPDEST JUMPDEST PUSH2 0x459C DUP10 DUP3 DUP11 ADD PUSH2 0x44FF JUMP JUMPDEST SWAP6 POP POP PUSH1 0x40 PUSH2 0x45AD DUP10 DUP3 DUP11 ADD PUSH2 0x40FE JUMP JUMPDEST SWAP5 POP POP PUSH1 0x60 PUSH2 0x45BE DUP10 DUP3 DUP11 ADD PUSH2 0x40FE JUMP JUMPDEST SWAP4 POP POP PUSH1 0x80 PUSH2 0x45CF DUP10 DUP3 DUP11 ADD PUSH2 0x40FE JUMP JUMPDEST SWAP3 POP POP PUSH1 0xA0 PUSH2 0x45E0 DUP10 DUP3 DUP11 ADD PUSH2 0x408D JUMP JUMPDEST SWAP2 POP POP SWAP3 SWAP6 POP SWAP3 SWAP6 POP SWAP3 SWAP6 JUMP JUMPDEST PUSH0 PUSH1 0xC0 DUP4 ADD PUSH0 DUP4 ADD MLOAD DUP5 DUP3 SUB PUSH0 DUP7 ADD MSTORE PUSH2 0x4607 DUP3 DUP3 PUSH2 0x41A2 JUMP JUMPDEST SWAP2 POP POP PUSH1 0x20 DUP4 ADD MLOAD DUP5 DUP3 SUB PUSH1 0x20 DUP7 ADD MSTORE PUSH2 0x4621 DUP3 DUP3 PUSH2 0x41A2 JUMP JUMPDEST SWAP2 POP POP PUSH1 0x40 DUP4 ADD MLOAD PUSH2 0x4636 PUSH1 0x40 DUP7 ADD DUP3 PUSH2 0x41DA JUMP JUMPDEST POP PUSH1 0x60 DUP4 ADD MLOAD PUSH2 0x4649 PUSH1 0x60 DUP7 ADD DUP3 PUSH2 0x41DA JUMP JUMPDEST POP PUSH1 0x80 DUP4 ADD MLOAD PUSH2 0x465C PUSH1 0x80 DUP7 ADD DUP3 PUSH2 0x41DA JUMP JUMPDEST POP PUSH1 0xA0 DUP4 ADD MLOAD PUSH2 0x466F PUSH1 0xA0 DUP7 ADD DUP3 PUSH2 0x41E9 JUMP JUMPDEST POP DUP1 SWAP2 POP POP SWAP3 SWAP2 POP POP JUMP JUMPDEST PUSH0 PUSH1 0x20 DUP3 ADD SWAP1 POP DUP2 DUP2 SUB PUSH0 DUP4 ADD MSTORE PUSH2 0x4692 DUP2 DUP5 PUSH2 0x45ED JUMP JUMPDEST SWAP1 POP SWAP3 SWAP2 POP POP JUMP JUMPDEST PUSH2 0x46A3 DUP2 PUSH2 0x40DF JUMP JUMPDEST DUP3 MSTORE POP POP JUMP JUMPDEST PUSH0 PUSH1 0x20 DUP3 ADD SWAP1 POP PUSH2 0x46BC PUSH0 DUP4 ADD DUP5 PUSH2 0x469A JUMP JUMPDEST SWAP3 SWAP2 POP POP JUMP JUMPDEST PUSH0 DUP1 PUSH0 PUSH1 0x60 DUP5 DUP7 SUB SLT ISZERO PUSH2 0x46D9 JUMPI PUSH2 0x46D8 PUSH2 0x3ECD JUMP JUMPDEST JUMPDEST PUSH0 PUSH2 0x46E6 DUP7 DUP3 DUP8 ADD PUSH2 0x408D JUMP JUMPDEST SWAP4 POP POP PUSH1 0x20 PUSH2 0x46F7 DUP7 DUP3 DUP8 ADD PUSH2 0x408D JUMP JUMPDEST SWAP3 POP POP PUSH1 0x40 PUSH2 0x4708 DUP7 DUP3 DUP8 ADD PUSH2 0x40FE JUMP JUMPDEST SWAP2 POP POP SWAP3 POP SWAP3 POP SWAP3 JUMP JUMPDEST PUSH2 0x471B DUP2 PUSH2 0x3F88 JUMP JUMPDEST DUP2 EQ PUSH2 0x4725 JUMPI PUSH0 DUP1 REVERT JUMPDEST POP JUMP JUMPDEST PUSH0 DUP2 CALLDATALOAD SWAP1 POP PUSH2 0x4736 DUP2 PUSH2 0x4712 JUMP JUMPDEST SWAP3 SWAP2 POP POP JUMP JUMPDEST PUSH0 PUSH1 0x20 DUP3 DUP5 SUB SLT ISZERO PUSH2 0x4751 JUMPI PUSH2 0x4750 PUSH2 0x3ECD JUMP JUMPDEST JUMPDEST PUSH0 PUSH2 0x475E DUP5 DUP3 DUP6 ADD PUSH2 0x4728 JUMP JUMPDEST SWAP2 POP POP SWAP3 SWAP2 POP POP JUMP JUMPDEST PUSH0 PUSH1 0x80 DUP4 ADD PUSH0 DUP4 ADD MLOAD DUP5 DUP3 SUB PUSH0 DUP7 ADD MSTORE PUSH2 0x4781 DUP3 DUP3 PUSH2 0x41A2 JUMP JUMPDEST SWAP2 POP POP PUSH1 0x20 DUP4 ADD MLOAD DUP5 DUP3 SUB PUSH1 0x20 DUP7 ADD MSTORE PUSH2 0x479B DUP3 DUP3 PUSH2 0x41A2 JUMP JUMPDEST SWAP2 POP POP PUSH1 0x40 DUP4 ADD MLOAD DUP5 DUP3 SUB PUSH1 0x40 DUP7 ADD MSTORE PUSH2 0x47B5 DUP3 DUP3 PUSH2 0x41A2 JUMP JUMPDEST SWAP2 POP POP PUSH1 0x60 DUP4 ADD MLOAD DUP5 DUP3 SUB PUSH1 0x60 DUP7 ADD MSTORE PUSH2 0x47CF DUP3 DUP3 PUSH2 0x41A2 JUMP JUMPDEST SWAP2 POP POP DUP1 SWAP2 POP POP SWAP3 SWAP2 POP POP JUMP JUMPDEST PUSH0 PUSH1 0x20 DUP3 ADD SWAP1 POP DUP2 DUP2 SUB PUSH0 DUP4 ADD MSTORE PUSH2 0x47F4 DUP2 DUP5 PUSH2 0x4767 JUMP JUMPDEST SWAP1 POP SWAP3 SWAP2 POP POP JUMP JUMPDEST PUSH0 DUP1 PUSH0 DUP1 PUSH0 PUSH1 0xA0 DUP7 DUP9 SUB SLT ISZERO PUSH2 0x4815 JUMPI PUSH2 0x4814 PUSH2 0x3ECD JUMP JUMPDEST JUMPDEST PUSH0 PUSH2 0x4822 DUP9 DUP3 DUP10 ADD PUSH2 0x408D JUMP JUMPDEST SWAP6 POP POP PUSH1 0x20 PUSH2 0x4833 DUP9 DUP3 DUP10 ADD PUSH2 0x408D JUMP JUMPDEST SWAP5 POP POP PUSH1 0x40 PUSH2 0x4844 DUP9 DUP3 DUP10 ADD PUSH2 0x40FE JUMP JUMPDEST SWAP4 POP POP PUSH1 0x60 PUSH2 0x4855 DUP9 DUP3 DUP10 ADD PUSH2 0x40FE JUMP JUMPDEST SWAP3 POP POP PUSH1 0x80 DUP7 ADD CALLDATALOAD PUSH8 0xFFFFFFFFFFFFFFFF DUP2 GT ISZERO PUSH2 0x4876 JUMPI PUSH2 0x4875 PUSH2 0x3ED1 JUMP JUMPDEST JUMPDEST PUSH2 0x4882 DUP9 DUP3 DUP10 ADD PUSH2 0x44FF JUMP JUMPDEST SWAP2 POP POP SWAP3 SWAP6 POP SWAP3 SWAP6 SWAP1 SWAP4 POP JUMP JUMPDEST PUSH0 PUSH1 0xA0 DUP4 ADD PUSH0 DUP4 ADD MLOAD PUSH2 0x48A4 PUSH0 DUP7 ADD DUP3 PUSH2 0x41E9 JUMP JUMPDEST POP PUSH1 0x20 DUP4 ADD MLOAD PUSH2 0x48B7 PUSH1 0x20 DUP7 ADD DUP3 PUSH2 0x41E9 JUMP JUMPDEST POP PUSH1 0x40 DUP4 ADD MLOAD PUSH2 0x48CA PUSH1 0x40 DUP7 ADD DUP3 PUSH2 0x41DA JUMP JUMPDEST POP PUSH1 0x60 DUP4 ADD MLOAD PUSH2 0x48DD PUSH1 0x60 DUP7 ADD DUP3 PUSH2 0x41DA JUMP JUMPDEST POP PUSH1 0x80 DUP4 ADD MLOAD DUP5 DUP3 SUB PUSH1 0x80 DUP7 ADD MSTORE PUSH2 0x48F5 DUP3 DUP3 PUSH2 0x41A2 JUMP JUMPDEST SWAP2 POP POP DUP1 SWAP2 POP POP SWAP3 SWAP2 POP POP JUMP JUMPDEST PUSH0 PUSH1 0x20 DUP3 ADD SWAP1 POP DUP2 DUP2 SUB PUSH0 DUP4 ADD MSTORE PUSH2 0x491A DUP2 DUP5 PUSH2 0x488F JUMP JUMPDEST SWAP1 POP SWAP3 SWAP2 POP POP JUMP JUMPDEST PUSH0 DUP1 REVERT JUMPDEST PUSH0 DUP1 REVERT JUMPDEST PUSH0 PUSH1 0xC0 DUP3 DUP5 SUB SLT ISZERO PUSH2 0x493F JUMPI PUSH2 0x493E PUSH2 0x4922 JUMP JUMPDEST JUMPDEST PUSH2 0x4949 PUSH1 0xC0 PUSH2 0x4466 JUMP JUMPDEST SWAP1 POP PUSH0 DUP3 ADD CALLDATALOAD PUSH8 0xFFFFFFFFFFFFFFFF DUP2 GT ISZERO PUSH2 0x4968 JUMPI PUSH2 0x4967 PUSH2 0x4926 JUMP JUMPDEST JUMPDEST PUSH2 0x4974 DUP5 DUP3 DUP6 ADD PUSH2 0x44FF JUMP JUMPDEST PUSH0 DUP4 ADD MSTORE POP PUSH1 0x20 DUP3 ADD CALLDATALOAD PUSH8 0xFFFFFFFFFFFFFFFF DUP2 GT ISZERO PUSH2 0x4997 JUMPI PUSH2 0x4996 PUSH2 0x4926 JUMP JUMPDEST JUMPDEST PUSH2 0x49A3 DUP5 DUP3 DUP6 ADD PUSH2 0x44FF JUMP JUMPDEST PUSH1 0x20 DUP4 ADD MSTORE POP PUSH1 0x40 PUSH2 0x49B7 DUP5 DUP3 DUP6 ADD PUSH2 0x40FE JUMP JUMPDEST PUSH1 0x40 DUP4 ADD MSTORE POP PUSH1 0x60 PUSH2 0x49CB DUP5 DUP3 DUP6 ADD PUSH2 0x40FE JUMP JUMPDEST PUSH1 0x60 DUP4 ADD MSTORE POP PUSH1 0x80 PUSH2 0x49DF DUP5 DUP3 DUP6 ADD PUSH2 0x40FE JUMP JUMPDEST PUSH1 0x80 DUP4 ADD MSTORE POP PUSH1 0xA0 PUSH2 0x49F3 DUP5 DUP3 DUP6 ADD PUSH2 0x408D JUMP JUMPDEST PUSH1 0xA0 DUP4 ADD MSTORE POP SWAP3 SWAP2 POP POP JUMP JUMPDEST PUSH0 PUSH1 0xA0 DUP3 DUP5 SUB SLT ISZERO PUSH2 0x4A14 JUMPI PUSH2 0x4A13 PUSH2 0x4922 JUMP JUMPDEST JUMPDEST PUSH2 0x4A1E PUSH1 0xA0 PUSH2 0x4466 JUMP JUMPDEST SWAP1 POP PUSH0 PUSH2 0x4A2D DUP5 DUP3 DUP6 ADD PUSH2 0x408D JUMP JUMPDEST PUSH0 DUP4 ADD MSTORE POP PUSH1 0x20 PUSH2 0x4A40 DUP5 DUP3 DUP6 ADD PUSH2 0x408D JUMP JUMPDEST PUSH1 0x20 DUP4 ADD MSTORE POP PUSH1 0x40 PUSH2 0x4A54 DUP5 DUP3 DUP6 ADD PUSH2 0x40FE JUMP JUMPDEST PUSH1 0x40 DUP4 ADD MSTORE POP PUSH1 0x60 PUSH2 0x4A68 DUP5 DUP3 DUP6 ADD PUSH2 0x40FE JUMP JUMPDEST PUSH1 0x60 DUP4 ADD MSTORE POP PUSH1 0x80 DUP3 ADD CALLDATALOAD PUSH8 0xFFFFFFFFFFFFFFFF DUP2 GT ISZERO PUSH2 0x4A8C JUMPI PUSH2 0x4A8B PUSH2 0x4926 JUMP JUMPDEST JUMPDEST PUSH2 0x4A98 DUP5 DUP3 DUP6 ADD PUSH2 0x44FF JUMP JUMPDEST PUSH1 0x80 DUP4 ADD MSTORE POP SWAP3 SWAP2 POP POP JUMP JUMPDEST PUSH0 DUP1 PUSH0 PUSH1 0x60 DUP5 DUP7 SUB SLT ISZERO PUSH2 0x4ABB JUMPI PUSH2 0x4ABA PUSH2 0x3ECD JUMP JUMPDEST JUMPDEST PUSH0 PUSH2 0x4AC8 DUP7 DUP3 DUP8 ADD PUSH2 0x408D JUMP JUMPDEST SWAP4 POP POP PUSH1 0x20 DUP5 ADD CALLDATALOAD PUSH8 0xFFFFFFFFFFFFFFFF DUP2 GT ISZERO PUSH2 0x4AE9 JUMPI PUSH2 0x4AE8 PUSH2 0x3ED1 JUMP JUMPDEST JUMPDEST PUSH2 0x4AF5 DUP7 DUP3 DUP8 ADD PUSH2 0x492A JUMP JUMPDEST SWAP3 POP POP PUSH1 0x40 DUP5 ADD CALLDATALOAD PUSH8 0xFFFFFFFFFFFFFFFF DUP2 GT ISZERO PUSH2 0x4B16 JUMPI PUSH2 0x4B15 PUSH2 0x3ED1 JUMP JUMPDEST JUMPDEST PUSH2 0x4B22 DUP7 DUP3 DUP8 ADD PUSH2 0x49FF JUMP JUMPDEST SWAP2 POP POP SWAP3 POP SWAP3 POP SWAP3 JUMP JUMPDEST PUSH0 DUP3 DUP3 MSTORE PUSH1 0x20 DUP3 ADD SWAP1 POP SWAP3 SWAP2 POP POP JUMP JUMPDEST PUSH0 PUSH2 0x4B46 DUP3 PUSH2 0x4150 JUMP JUMPDEST PUSH2 0x4B50 DUP2 DUP6 PUSH2 0x4B2C JUMP JUMPDEST SWAP4 POP PUSH2 0x4B60 DUP2 DUP6 PUSH1 0x20 DUP7 ADD PUSH2 0x416A JUMP JUMPDEST PUSH2 0x4B69 DUP2 PUSH2 0x4192 JUMP JUMPDEST DUP5 ADD SWAP2 POP POP SWAP3 SWAP2 POP POP JUMP JUMPDEST PUSH0 PUSH1 0x80 DUP3 ADD SWAP1 POP DUP2 DUP2 SUB PUSH0 DUP4 ADD MSTORE PUSH2 0x4B8C DUP2 DUP8 PUSH2 0x4B3C JUMP JUMPDEST SWAP1 POP DUP2 DUP2 SUB PUSH1 0x20 DUP4 ADD MSTORE PUSH2 0x4BA0 DUP2 DUP7 PUSH2 0x4B3C JUMP JUMPDEST SWAP1 POP DUP2 DUP2 SUB PUSH1 0x40 DUP4 ADD MSTORE PUSH2 0x4BB4 DUP2 DUP6 PUSH2 0x4B3C JUMP JUMPDEST SWAP1 POP DUP2 DUP2 SUB PUSH1 0x60 DUP4 ADD MSTORE PUSH2 0x4BC8 DUP2 DUP5 PUSH2 0x4B3C JUMP JUMPDEST SWAP1 POP SWAP6 SWAP5 POP POP POP POP POP JUMP JUMPDEST PUSH2 0x4BDC DUP2 PUSH2 0x4066 JUMP JUMPDEST DUP3 MSTORE POP POP JUMP JUMPDEST PUSH0 PUSH1 0x20 DUP3 ADD SWAP1 POP PUSH2 0x4BF5 PUSH0 DUP4 ADD DUP5 PUSH2 0x4BD3 JUMP JUMPDEST SWAP3 SWAP2 POP POP JUMP JUMPDEST PUSH0 PUSH1 0x40 DUP3 ADD SWAP1 POP DUP2 DUP2 SUB PUSH0 DUP4 ADD MSTORE PUSH2 0x4C13 DUP2 DUP6 PUSH2 0x45ED JUMP JUMPDEST SWAP1 POP DUP2 DUP2 SUB PUSH1 0x20 DUP4 ADD MSTORE PUSH2 0x4C27 DUP2 DUP5 PUSH2 0x488F JUMP JUMPDEST SWAP1 POP SWAP4 SWAP3 POP POP POP JUMP JUMPDEST PUSH0 PUSH1 0xC0 DUP3 ADD SWAP1 POP DUP2 DUP2 SUB PUSH0 DUP4 ADD MSTORE PUSH2 0x4C48 DUP2 DUP10 PUSH2 0x4B3C JUMP JUMPDEST SWAP1 POP DUP2 DUP2 SUB PUSH1 0x20 DUP4 ADD MSTORE PUSH2 0x4C5C DUP2 DUP9 PUSH2 0x4B3C JUMP JUMPDEST SWAP1 POP DUP2 DUP2 SUB PUSH1 0x40 DUP4 ADD MSTORE PUSH2 0x4C70 DUP2 DUP8 PUSH2 0x4B3C JUMP JUMPDEST SWAP1 POP DUP2 DUP2 SUB PUSH1 0x60 DUP4 ADD MSTORE PUSH2 0x4C84 DUP2 DUP7 PUSH2 0x4B3C JUMP JUMPDEST SWAP1 POP PUSH2 0x4C93 PUSH1 0x80 DUP4 ADD DUP6 PUSH2 0x469A JUMP JUMPDEST PUSH2 0x4CA0 PUSH1 0xA0 DUP4 ADD DUP5 PUSH2 0x3F60 JUMP JUMPDEST SWAP8 SWAP7 POP POP POP POP POP POP POP JUMP JUMPDEST PUSH0 PUSH1 0x40 DUP3 ADD SWAP1 POP PUSH2 0x4CBE PUSH0 DUP4 ADD DUP6 PUSH2 0x3F99 JUMP JUMPDEST PUSH2 0x4CCB PUSH1 0x20 DUP4 ADD DUP5 PUSH2 0x3F99 JUMP JUMPDEST SWAP4 SWAP3 POP POP POP JUMP JUMPDEST PUSH0 DUP1 PUSH0 DUP1 PUSH0 PUSH1 0xA0 DUP7 DUP9 SUB SLT ISZERO PUSH2 0x4CEB JUMPI PUSH2 0x4CEA PUSH2 0x3ECD JUMP JUMPDEST JUMPDEST PUSH0 PUSH2 0x4CF8 DUP9 DUP3 DUP10 ADD PUSH2 0x408D JUMP JUMPDEST SWAP6 POP POP PUSH1 0x20 DUP7 ADD CALLDATALOAD PUSH8 0xFFFFFFFFFFFFFFFF DUP2 GT ISZERO PUSH2 0x4D19 JUMPI PUSH2 0x4D18 PUSH2 0x3ED1 JUMP JUMPDEST JUMPDEST PUSH2 0x4D25 DUP9 DUP3 DUP10 ADD PUSH2 0x44FF JUMP JUMPDEST SWAP5 POP POP PUSH1 0x40 DUP7 ADD CALLDATALOAD PUSH8 0xFFFFFFFFFFFFFFFF DUP2 GT ISZERO PUSH2 0x4D46 JUMPI PUSH2 0x4D45 PUSH2 0x3ED1 JUMP JUMPDEST JUMPDEST PUSH2 0x4D52 DUP9 DUP3 DUP10 ADD PUSH2 0x44FF JUMP JUMPDEST SWAP4 POP POP PUSH1 0x60 DUP7 ADD CALLDATALOAD PUSH8 0xFFFFFFFFFFFFFFFF DUP2 GT ISZERO PUSH2 0x4D73 JUMPI PUSH2 0x4D72 PUSH2 0x3ED1 JUMP JUMPDEST JUMPDEST PUSH2 0x4D7F DUP9 DUP3 DUP10 ADD PUSH2 0x44FF JUMP JUMPDEST SWAP3 POP POP PUSH1 0x80 DUP7 ADD CALLDATALOAD PUSH8 0xFFFFFFFFFFFFFFFF DUP2 GT ISZERO PUSH2 0x4DA0 JUMPI PUSH2 0x4D9F PUSH2 0x3ED1 JUMP JUMPDEST JUMPDEST PUSH2 0x4DAC DUP9 DUP3 DUP10 ADD PUSH2 0x44FF JUMP JUMPDEST SWAP2 POP POP SWAP3 SWAP6 POP SWAP3 SWAP6 SWAP1 SWAP4 POP JUMP JUMPDEST PUSH0 PUSH1 0x40 DUP3 ADD SWAP1 POP PUSH2 0x4DCC PUSH0 DUP4 ADD DUP6 PUSH2 0x4BD3 JUMP JUMPDEST PUSH2 0x4DD9 PUSH1 0x20 DUP4 ADD DUP5 PUSH2 0x3F99 JUMP JUMPDEST SWAP4 SWAP3 POP POP POP JUMP JUMPDEST PUSH0 DUP1 PUSH0 DUP1 PUSH0 DUP1 PUSH1 0xC0 DUP8 DUP10 SUB SLT ISZERO PUSH2 0x4DFA JUMPI PUSH2 0x4DF9 PUSH2 0x3ECD JUMP JUMPDEST JUMPDEST PUSH0 PUSH2 0x4E07 DUP10 DUP3 DUP11 ADD PUSH2 0x408D JUMP JUMPDEST SWAP7 POP POP PUSH1 0x20 DUP8 ADD CALLDATALOAD PUSH8 0xFFFFFFFFFFFFFFFF DUP2 GT ISZERO PUSH2 0x4E28 JUMPI PUSH2 0x4E27 PUSH2 0x3ED1 JUMP JUMPDEST JUMPDEST PUSH2 0x4E34 DUP10 DUP3 DUP11 ADD PUSH2 0x44FF JUMP JUMPDEST SWAP6 POP POP PUSH1 0x40 DUP8 ADD CALLDATALOAD PUSH8 0xFFFFFFFFFFFFFFFF DUP2 GT ISZERO PUSH2 0x4E55 JUMPI PUSH2 0x4E54 PUSH2 0x3ED1 JUMP JUMPDEST JUMPDEST PUSH2 0x4E61 DUP10 DUP3 DUP11 ADD PUSH2 0x44FF JUMP JUMPDEST SWAP5 POP POP PUSH1 0x60 DUP8 ADD CALLDATALOAD PUSH8 0xFFFFFFFFFFFFFFFF DUP2 GT ISZERO PUSH2 0x4E82 JUMPI PUSH2 0x4E81 PUSH2 0x3ED1 JUMP JUMPDEST JUMPDEST PUSH2 0x4E8E DUP10 DUP3 DUP11 ADD PUSH2 0x44FF JUMP JUMPDEST SWAP4 POP POP PUSH1 0x80 DUP8 ADD CALLDATALOAD PUSH8 0xFFFFFFFFFFFFFFFF DUP2 GT ISZERO PUSH2 0x4EAF JUMPI PUSH2 0x4EAE PUSH2 0x3ED1 JUMP JUMPDEST JUMPDEST PUSH2 0x4EBB DUP10 DUP3 DUP11 ADD PUSH2 0x44FF JUMP JUMPDEST SWAP3 POP POP PUSH1 0xA0 PUSH2 0x4ECC DUP10 DUP3 DUP11 ADD PUSH2 0x40FE JUMP JUMPDEST SWAP2 POP POP SWAP3 SWAP6 POP SWAP3 SWAP6 POP SWAP3 SWAP6 JUMP JUMPDEST PUSH32 0x4572726F723A20456E7465727072697365206E6F742072656769737465726564 PUSH0 DUP3 ADD MSTORE POP JUMP JUMPDEST PUSH0 PUSH2 0x4F0D PUSH1 0x20 DUP4 PUSH2 0x4B2C JUMP JUMPDEST SWAP2 POP PUSH2 0x4F18 DUP3 PUSH2 0x4ED9 JUMP JUMPDEST PUSH1 0x20 DUP3 ADD SWAP1 POP SWAP2 SWAP1 POP JUMP JUMPDEST PUSH0 PUSH1 0x20 DUP3 ADD SWAP1 POP DUP2 DUP2 SUB PUSH0 DUP4 ADD MSTORE PUSH2 0x4F3A DUP2 PUSH2 0x4F01 JUMP JUMPDEST SWAP1 POP SWAP2 SWAP1 POP JUMP JUMPDEST PUSH32 0x4572726F723A20496E76616C6964207472616465496400000000000000000000 PUSH0 DUP3 ADD MSTORE POP JUMP JUMPDEST PUSH0 PUSH2 0x4F75 PUSH1 0x16 DUP4 PUSH2 0x4B2C JUMP JUMPDEST SWAP2 POP PUSH2 0x4F80 DUP3 PUSH2 0x4F41 JUMP JUMPDEST PUSH1 0x20 DUP3 ADD SWAP1 POP SWAP2 SWAP1 POP JUMP JUMPDEST PUSH0 PUSH1 0x20 DUP3 ADD SWAP1 POP DUP2 DUP2 SUB PUSH0 DUP4 ADD MSTORE PUSH2 0x4FA2 DUP2 PUSH2 0x4F69 JUMP JUMPDEST SWAP1 POP SWAP2 SWAP1 POP JUMP JUMPDEST PUSH32 0x4E487B7100000000000000000000000000000000000000000000000000000000 PUSH0 MSTORE PUSH1 0x22 PUSH1 0x4 MSTORE PUSH1 0x24 PUSH0 REVERT JUMPDEST PUSH0 PUSH1 0x2 DUP3 DIV SWAP1 POP PUSH1 0x1 DUP3 AND DUP1 PUSH2 0x4FED JUMPI PUSH1 0x7F DUP3 AND SWAP2 POP JUMPDEST PUSH1 0x20 DUP3 LT DUP2 SUB PUSH2 0x5000 JUMPI PUSH2 0x4FFF PUSH2 0x4FA9 JUMP JUMPDEST JUMPDEST POP SWAP2 SWAP1 POP JUMP JUMPDEST PUSH32 0x4572726F723A205F66756E64696E67506172747941646472206E6F742046554E PUSH0 DUP3 ADD MSTORE PUSH32 0x44494E475F50415254595F524F4C450000000000000000000000000000000000 PUSH1 0x20 DUP3 ADD MSTORE POP JUMP JUMPDEST PUSH0 PUSH2 0x5060 PUSH1 0x2F DUP4 PUSH2 0x4B2C JUMP JUMPDEST SWAP2 POP PUSH2 0x506B DUP3 PUSH2 0x5006 JUMP JUMPDEST PUSH1 0x40 DUP3 ADD SWAP1 POP SWAP2 SWAP1 POP JUMP JUMPDEST PUSH0 PUSH1 0x20 DUP3 ADD SWAP1 POP DUP2 DUP2 SUB PUSH0 DUP4 ADD MSTORE PUSH2 0x508D DUP2 PUSH2 0x5054 JUMP JUMPDEST SWAP1 POP SWAP2 SWAP1 POP JUMP JUMPDEST PUSH32 0x5468652046756E64696E6720506172747920686173206E6F2054726164652044 PUSH0 DUP3 ADD MSTORE PUSH32 0x6174612061636365737300000000000000000000000000000000000000000000 PUSH1 0x20 DUP3 ADD MSTORE POP JUMP JUMPDEST PUSH0 PUSH2 0x50EE PUSH1 0x2A DUP4 PUSH2 0x4B2C JUMP JUMPDEST SWAP2 POP PUSH2 0x50F9 DUP3 PUSH2 0x5094 JUMP JUMPDEST PUSH1 0x40 DUP3 ADD SWAP1 POP SWAP2 SWAP1 POP JUMP JUMPDEST PUSH0 PUSH1 0x20 DUP3 ADD SWAP1 POP DUP2 DUP2 SUB PUSH0 DUP4 ADD MSTORE PUSH2 0x511B DUP2 PUSH2 0x50E2 JUMP JUMPDEST SWAP1 POP SWAP2 SWAP1 POP JUMP JUMPDEST PUSH32 0x4572726F723A20496E76616C6964206C6F676973746963734964000000000000 PUSH0 DUP3 ADD MSTORE POP JUMP JUMPDEST PUSH0 PUSH2 0x5156 PUSH1 0x1A DUP4 PUSH2 0x4B2C JUMP JUMPDEST SWAP2 POP PUSH2 0x5161 DUP3 PUSH2 0x5122 JUMP JUMPDEST PUSH1 0x20 DUP3 ADD SWAP1 POP SWAP2 SWAP1 POP JUMP JUMPDEST PUSH0 PUSH1 0x20 DUP3 ADD SWAP1 POP DUP2 DUP2 SUB PUSH0 DUP4 ADD MSTORE PUSH2 0x5183 DUP2 PUSH2 0x514A JUMP JUMPDEST SWAP1 POP SWAP2 SWAP1 POP JUMP JUMPDEST PUSH32 0x4572726F723A20456E7465727072697365206E6F742072656769737465726564 PUSH0 DUP3 ADD MSTORE PUSH32 0x2E00000000000000000000000000000000000000000000000000000000000000 PUSH1 0x20 DUP3 ADD MSTORE POP JUMP JUMPDEST PUSH0 PUSH2 0x51E4 PUSH1 0x21 DUP4 PUSH2 0x4B2C JUMP JUMPDEST SWAP2 POP PUSH2 0x51EF DUP3 PUSH2 0x518A JUMP JUMPDEST PUSH1 0x40 DUP3 ADD SWAP1 POP SWAP2 SWAP1 POP JUMP JUMPDEST PUSH0 PUSH1 0x20 DUP3 ADD SWAP1 POP DUP2 DUP2 SUB PUSH0 DUP4 ADD MSTORE PUSH2 0x5211 DUP2 PUSH2 0x51D8 JUMP JUMPDEST SWAP1 POP SWAP2 SWAP1 POP JUMP JUMPDEST PUSH0 DUP2 SWAP1 POP DUP2 PUSH0 MSTORE PUSH1 0x20 PUSH0 KECCAK256 SWAP1 POP SWAP2 SWAP1 POP JUMP JUMPDEST PUSH0 PUSH1 0x20 PUSH1 0x1F DUP4 ADD DIV SWAP1 POP SWAP2 SWAP1 POP JUMP JUMPDEST PUSH0 DUP3 DUP3 SHL SWAP1 POP SWAP3 SWAP2 POP POP JUMP JUMPDEST PUSH0 PUSH1 0x8 DUP4 MUL PUSH2 0x5274 PUSH32 0xFFFFFFFFFFFFFFFFFFFFFFFFFFFFFFFFFFFFFFFFFFFFFFFFFFFFFFFFFFFFFFFF DUP3 PUSH2 0x5239 JUMP JUMPDEST PUSH2 0x527E DUP7 DUP4 PUSH2 0x5239 JUMP JUMPDEST SWAP6 POP DUP1 NOT DUP5 AND SWAP4 POP DUP1 DUP7 AND DUP5 OR SWAP3 POP POP POP SWAP4 SWAP3 POP POP POP JUMP JUMPDEST PUSH0 DUP2 SWAP1 POP SWAP2 SWAP1 POP JUMP JUMPDEST PUSH0 PUSH2 0x52B9 PUSH2 0x52B4 PUSH2 0x52AF DUP5 PUSH2 0x40DF JUMP JUMPDEST PUSH2 0x5296 JUMP JUMPDEST PUSH2 0x40DF JUMP JUMPDEST SWAP1 POP SWAP2 SWAP1 POP JUMP JUMPDEST PUSH0 DUP2 SWAP1 POP SWAP2 SWAP1 POP JUMP JUMPDEST PUSH2 0x52D2 DUP4 PUSH2 0x529F JUMP JUMPDEST PUSH2 0x52E6 PUSH2 0x52DE DUP3 PUSH2 0x52C0 JUMP JUMPDEST DUP5 DUP5 SLOAD PUSH2 0x5245 JUMP JUMPDEST DUP3 SSTORE POP POP POP POP JUMP JUMPDEST PUSH0 SWAP1 JUMP JUMPDEST PUSH2 0x52FA PUSH2 0x52EE JUMP JUMPDEST PUSH2 0x5305 DUP2 DUP5 DUP5 PUSH2 0x52C9 JUMP JUMPDEST POP POP POP JUMP JUMPDEST JUMPDEST DUP2 DUP2 LT ISZERO PUSH2 0x5328 JUMPI PUSH2 0x531D PUSH0 DUP3 PUSH2 0x52F2 JUMP JUMPDEST PUSH1 0x1 DUP2 ADD SWAP1 POP PUSH2 0x530B JUMP JUMPDEST POP POP JUMP JUMPDEST PUSH1 0x1F DUP3 GT ISZERO PUSH2 0x536D JUMPI PUSH2 0x533E DUP2 PUSH2 0x5218 JUMP JUMPDEST PUSH2 0x5347 DUP5 PUSH2 0x522A JUMP JUMPDEST DUP2 ADD PUSH1 0x20 DUP6 LT ISZERO PUSH2 0x5356 JUMPI DUP2 SWAP1 POP JUMPDEST PUSH2 0x536A PUSH2 0x5362 DUP6 PUSH2 0x522A JUMP JUMPDEST DUP4 ADD DUP3 PUSH2 0x530A JUMP JUMPDEST POP POP JUMPDEST POP POP POP JUMP JUMPDEST PUSH0 DUP3 DUP3 SHR SWAP1 POP SWAP3 SWAP2 POP POP JUMP JUMPDEST PUSH0 PUSH2 0x538D PUSH0 NOT DUP5 PUSH1 0x8 MUL PUSH2 0x5372 JUMP JUMPDEST NOT DUP1 DUP4 AND SWAP2 POP POP SWAP3 SWAP2 POP POP JUMP JUMPDEST PUSH0 PUSH2 0x53A5 DUP4 DUP4 PUSH2 0x537E JUMP JUMPDEST SWAP2 POP DUP3 PUSH1 0x2 MUL DUP3 OR SWAP1 POP SWAP3 SWAP2 POP POP JUMP JUMPDEST PUSH2 0x53BE DUP3 PUSH2 0x4150 JUMP JUMPDEST PUSH8 0xFFFFFFFFFFFFFFFF DUP2 GT ISZERO PUSH2 0x53D7 JUMPI PUSH2 0x53D6 PUSH2 0x4408 JUMP JUMPDEST JUMPDEST PUSH2 0x53E1 DUP3 SLOAD PUSH2 0x4FD6 JUMP JUMPDEST PUSH2 0x53EC DUP3 DUP3 DUP6 PUSH2 0x532C JUMP JUMPDEST PUSH0 PUSH1 0x20 SWAP1 POP PUSH1 0x1F DUP4 GT PUSH1 0x1 DUP2 EQ PUSH2 0x541D JUMPI PUSH0 DUP5 ISZERO PUSH2 0x540B JUMPI DUP3 DUP8 ADD MLOAD SWAP1 POP JUMPDEST PUSH2 0x5415 DUP6 DUP3 PUSH2 0x539A JUMP JUMPDEST DUP7 SSTORE POP PUSH2 0x547C JUMP JUMPDEST PUSH1 0x1F NOT DUP5 AND PUSH2 0x542B DUP7 PUSH2 0x5218 JUMP JUMPDEST PUSH0 JUMPDEST DUP3 DUP2 LT ISZERO PUSH2 0x5452 JUMPI DUP5 DUP10 ADD MLOAD DUP3 SSTORE PUSH1 0x1 DUP3 ADD SWAP2 POP PUSH1 0x20 DUP6 ADD SWAP5 POP PUSH1 0x20 DUP2 ADD SWAP1 POP PUSH2 0x542D JUMP JUMPDEST DUP7 DUP4 LT ISZERO PUSH2 0x546F JUMPI DUP5 DUP10 ADD MLOAD PUSH2 0x546B PUSH1 0x1F DUP10 AND DUP3 PUSH2 0x537E JUMP JUMPDEST DUP4 SSTORE POP JUMPDEST PUSH1 0x1 PUSH1 0x2 DUP9 MUL ADD DUP9 SSTORE POP POP POP JUMPDEST POP POP POP POP POP POP JUMP JUMPDEST PUSH32 0x4E487B7100000000000000000000000000000000000000000000000000000000 PUSH0 MSTORE PUSH1 0x11 PUSH1 0x4 MSTORE PUSH1 0x24 PUSH0 REVERT JUMPDEST PUSH0 PUSH2 0x54BB DUP3 PUSH2 0x40DF JUMP JUMPDEST SWAP2 POP PUSH32 0xFFFFFFFFFFFFFFFFFFFFFFFFFFFFFFFFFFFFFFFFFFFFFFFFFFFFFFFFFFFFFFFF DUP3 SUB PUSH2 0x54ED JUMPI PUSH2 0x54EC PUSH2 0x5484 JUMP JUMPDEST JUMPDEST PUSH1 0x1 DUP3 ADD SWAP1 POP SWAP2 SWAP1 POP JUMP JUMPDEST PUSH32 0x5468652046756E64696E6720506172747920686173206E6F204C6F6769737469 PUSH0 DUP3 ADD MSTORE PUSH32 0x6373206163636573730000000000000000000000000000000000000000000000 PUSH1 0x20 DUP3 ADD MSTORE POP JUMP JUMPDEST PUSH0 PUSH2 0x5552 PUSH1 0x29 DUP4 PUSH2 0x4B2C JUMP JUMPDEST SWAP2 POP PUSH2 0x555D DUP3 PUSH2 0x54F8 JUMP JUMPDEST PUSH1 0x40 DUP3 ADD SWAP1 POP SWAP2 SWAP1 POP JUMP JUMPDEST PUSH0 PUSH1 0x20 DUP3 ADD SWAP1 POP DUP2 DUP2 SUB PUSH0 DUP4 ADD MSTORE PUSH2 0x557F DUP2 PUSH2 0x5546 JUMP JUMPDEST SWAP1 POP SWAP2 SWAP1 POP JUMP JUMPDEST PUSH32 0x4572726F72203A205468697320616464726573732068617320616C7265616479 PUSH0 DUP3 ADD MSTORE PUSH32 0x206265656E206164646564206173206120656E74657270726973652E00000000 PUSH1 0x20 DUP3 ADD MSTORE POP JUMP JUMPDEST PUSH0 PUSH2 0x55E0 PUSH1 0x3C DUP4 PUSH2 0x4B2C JUMP JUMPDEST SWAP2 POP PUSH2 0x55EB DUP3 PUSH2 0x5586 JUMP JUMPDEST PUSH1 0x40 DUP3 ADD SWAP1 POP SWAP2 SWAP1 POP JUMP JUMPDEST PUSH0 PUSH1 0x20 DUP3 ADD SWAP1 POP DUP2 DUP2 SUB PUSH0 DUP4 ADD MSTORE PUSH2 0x560D DUP2 PUSH2 0x55D4 JUMP JUMPDEST SWAP1 POP SWAP2 SWAP1 POP JUMP JUMPDEST PUSH0 PUSH2 0x561E DUP3 PUSH2 0x3F88 JUMP JUMPDEST SWAP2 POP PUSH2 0x5629 DUP4 PUSH2 0x3F88 JUMP JUMPDEST SWAP3 POP DUP3 DUP3 ADD SWAP1 POP PUSH6 0xFFFFFFFFFFFF DUP2 GT ISZERO PUSH2 0x5647 JUMPI PUSH2 0x5646 PUSH2 0x5484 JUMP JUMPDEST JUMPDEST SWAP3 SWAP2 POP POP JUMP JUMPDEST PUSH0 PUSH1 0x40 DUP3 ADD SWAP1 POP PUSH2 0x5660 PUSH0 DUP4 ADD DUP6 PUSH2 0x4BD3 JUMP JUMPDEST PUSH2 0x566D PUSH1 0x20 DUP4 ADD DUP5 PUSH2 0x401F JUMP JUMPDEST SWAP4 SWAP3 POP POP POP JUMP JUMPDEST PUSH0 DUP2 SWAP1 POP SWAP2 SWAP1 POP JUMP JUMPDEST PUSH0 PUSH1 0xFF DUP3 AND SWAP1 POP SWAP2 SWAP1 POP JUMP JUMPDEST PUSH0 PUSH2 0x56A3 PUSH2 0x569E PUSH2 0x5699 DUP5 PUSH2 0x5674 JUMP JUMPDEST PUSH2 0x5296 JUMP JUMPDEST PUSH2 0x567D JUMP JUMPDEST SWAP1 POP SWAP2 SWAP1 POP JUMP JUMPDEST PUSH2 0x56B3 DUP2 PUSH2 0x5689 JUMP JUMPDEST DUP3 MSTORE POP POP JUMP JUMPDEST PUSH0 PUSH1 0x40 DUP3 ADD SWAP1 POP PUSH2 0x56CC PUSH0 DUP4 ADD DUP6 PUSH2 0x56AA JUMP JUMPDEST PUSH2 0x56D9 PUSH1 0x20 DUP4 ADD DUP5 PUSH2 0x469A JUMP JUMPDEST SWAP4 SWAP3 POP POP POP JUMP JUMPDEST PUSH0 PUSH2 0x56EA DUP3 PUSH2 0x3F88 JUMP JUMPDEST SWAP2 POP PUSH2 0x56F5 DUP4 PUSH2 0x3F88 JUMP JUMPDEST SWAP3 POP DUP3 DUP3 SUB SWAP1 POP PUSH6 0xFFFFFFFFFFFF DUP2 GT ISZERO PUSH2 0x5713 JUMPI PUSH2 0x5712 PUSH2 0x5484 JUMP JUMPDEST JUMPDEST SWAP3 SWAP2 POP POP JUMP INVALID LOG2 PUSH5 0x6970667358 0x22 SLT KECCAK256 SWAP9 BYTE 0xE 0xD3 SHL SWAP10 SWAP6 0xB2 0x1F 0xCB ADD SWAP10 0xDF 0xF6 EXP 0xE8 0x5D 0xAC LOG1 0xCA SMOD CALLER 0xE6 0xC4 LOG2 0xE 0xEA 0xCF 0xC7 SWAP12 0x21 PUSH3 0x64736F PUSH13 0x63430008160033000000000000 "
		},
		"gasEstimates": {
			"creation": {
				"codeDepositCost": "4470200",
				"executionCost": "infinite",
				"totalCost": "infinite"
			},
			"external": {
				"DEFAULT_ADMIN_ROLE()": "463",
				"ENTERPRISE_ROLE()": "414",
				"EnterpriseLogisticsDataNum(address)": "2892",
				"EnterpriseLogisticsDataSet(address,uint256)": "infinite",
				"EnterpriseTradeDataNum(address)": "2934",
				"EnterpriseTradeDataSet(address,uint256)": "infinite",
				"FPLogisticsInquiryAccess(address)": "2922",
				"FPTradeInquiryAccess(address)": "2945",
				"FUNDING_PARTY_ROLE()": "460",
				"acceptDefaultAdminTransfer()": "infinite",
				"beginDefaultAdminTransfer(address)": "infinite",
				"cancelDefaultAdminTransfer()": "56582",
				"changeDefaultAdminDelay(uint48)": "infinite",
				"checkRole(address,bytes32)": "infinite",
				"createNewBillOfExchange(address,address,uint256,uint256,string)": "infinite",
				"createNewWarehouseReceipt(string,string,uint256,uint256,uint256,address)": "infinite",
				"defaultAdmin()": "2627",
				"defaultAdminDelay()": "4997",
				"defaultAdminDelayIncreaseWait()": "407",
				"enterpriseDataSet(address)": "infinite",
				"getLogisticsInfoForEnterprise(address,uint256)": "infinite",
				"getLogisticsInfoForFundingParty(address,address,uint256)": "infinite",
				"getRoleAdmin(bytes32)": "infinite",
				"getTradeData(address,uint256)": "infinite",
				"getTradeDataForFundingParty(address,address,uint256)": "infinite",
				"grantLogisticsAccess(address,address)": "infinite",
				"grantRole(bytes32,address)": "infinite",
				"grantTradeDataAccess(address,address)": "infinite",
				"hasRole(bytes32,address)": "3189",
				"isFundingParty(address,address)": "infinite",
				"nextRoleId()": "2579",
				"owner()": "2594",
				"pendingDefaultAdmin()": "4864",
				"pendingDefaultAdminDelay()": "infinite",
				"registerEnterprise(address,string,string,string,string,uint256)": "infinite",
				"renounceRole(bytes32,address)": "infinite",
				"revokeRole(bytes32,address)": "infinite",
				"rollbackDefaultAdminDelay()": "80261",
				"supportsInterface(bytes4)": "852",
				"uploadLogisticsInfo(address,string,string,string,string)": "infinite",
				"uploadTradeData(address,(string,string,uint256,uint256,uint256,address),(address,address,uint256,uint256,string))": "infinite"
			}
		},
		"methodIdentifiers": {
			"DEFAULT_ADMIN_ROLE()": "a217fddf",
			"ENTERPRISE_ROLE()": "68dd17a5",
			"EnterpriseLogisticsDataNum(address)": "54f8a622",
			"EnterpriseLogisticsDataSet(address,uint256)": "83913aee",
			"EnterpriseTradeDataNum(address)": "fa7e6bf5",
			"EnterpriseTradeDataSet(address,uint256)": "88560f91",
			"FPLogisticsInquiryAccess(address)": "c8c4a0f2",
			"FPTradeInquiryAccess(address)": "354c2bf8",
			"FUNDING_PARTY_ROLE()": "279185a0",
			"acceptDefaultAdminTransfer()": "cefc1429",
			"beginDefaultAdminTransfer(address)": "634e93da",
			"cancelDefaultAdminTransfer()": "d602b9fd",
			"changeDefaultAdminDelay(uint48)": "649a5ec7",
			"checkRole(address,bytes32)": "2ae8a7e3",
			"createNewBillOfExchange(address,address,uint256,uint256,string)": "6f476034",
			"createNewWarehouseReceipt(string,string,uint256,uint256,uint256,address)": "5263fb1d",
			"defaultAdmin()": "84ef8ffc",
			"defaultAdminDelay()": "cc8463c8",
			"defaultAdminDelayIncreaseWait()": "022d63fb",
			"enterpriseDataSet(address)": "a10fd6d8",
			"getLogisticsInfoForEnterprise(address,uint256)": "69d1369b",
			"getLogisticsInfoForFundingParty(address,address,uint256)": "a2c6393b",
			"getRoleAdmin(bytes32)": "248a9ca3",
			"getTradeData(address,uint256)": "2bcd799e",
			"getTradeDataForFundingParty(address,address,uint256)": "59945ae7",
			"grantLogisticsAccess(address,address)": "3e0a60db",
			"grantRole(bytes32,address)": "2f2ff15d",
			"grantTradeDataAccess(address,address)": "6c8c51e4",
			"hasRole(bytes32,address)": "91d14854",
			"isFundingParty(address,address)": "59cf7c4f",
			"nextRoleId()": "fc04f4ba",
			"owner()": "8da5cb5b",
			"pendingDefaultAdmin()": "cf6eefb7",
			"pendingDefaultAdminDelay()": "a1eda53c",
			"registerEnterprise(address,string,string,string,string,uint256)": "f98b5998",
			"renounceRole(bytes32,address)": "36568abe",
			"revokeRole(bytes32,address)": "d547741f",
			"rollbackDefaultAdminDelay()": "0aa6220b",
			"supportsInterface(bytes4)": "01ffc9a7",
			"uploadLogisticsInfo(address,string,string,string,string)": "a3ff907b",
			"uploadTradeData(address,(string,string,uint256,uint256,uint256,address),(address,address,uint256,uint256,string))": "78aee5aa"
		}
	},
	"abi": [
		{
			"inputs": [],
			"stateMutability": "nonpayable",
			"type": "constructor"
		},
		{
			"inputs": [],
			"name": "AccessControlBadConfirmation",
			"type": "error"
		},
		{
			"inputs": [
				{
					"internalType": "uint48",
					"name": "schedule",
					"type": "uint48"
				}
			],
			"name": "AccessControlEnforcedDefaultAdminDelay",
			"type": "error"
		},
		{
			"inputs": [],
			"name": "AccessControlEnforcedDefaultAdminRules",
			"type": "error"
		},
		{
			"inputs": [
				{
					"internalType": "address",
					"name": "defaultAdmin",
					"type": "address"
				}
			],
			"name": "AccessControlInvalidDefaultAdmin",
			"type": "error"
		},
		{
			"inputs": [
				{
					"internalType": "address",
					"name": "account",
					"type": "address"
				},
				{
					"internalType": "bytes32",
					"name": "neededRole",
					"type": "bytes32"
				}
			],
			"name": "AccessControlUnauthorizedAccount",
			"type": "error"
		},
		{
			"inputs": [
				{
					"internalType": "uint8",
					"name": "bits",
					"type": "uint8"
				},
				{
					"internalType": "uint256",
					"name": "value",
					"type": "uint256"
				}
			],
			"name": "SafeCastOverflowedUintDowncast",
			"type": "error"
		},
		{
			"anonymous": false,
			"inputs": [],
			"name": "DefaultAdminDelayChangeCanceled",
			"type": "event"
		},
		{
			"anonymous": false,
			"inputs": [
				{
					"indexed": false,
					"internalType": "uint48",
					"name": "newDelay",
					"type": "uint48"
				},
				{
					"indexed": false,
					"internalType": "uint48",
					"name": "effectSchedule",
					"type": "uint48"
				}
			],
			"name": "DefaultAdminDelayChangeScheduled",
			"type": "event"
		},
		{
			"anonymous": false,
			"inputs": [],
			"name": "DefaultAdminTransferCanceled",
			"type": "event"
		},
		{
			"anonymous": false,
			"inputs": [
				{
					"indexed": true,
					"internalType": "address",
					"name": "newAdmin",
					"type": "address"
				},
				{
					"indexed": false,
					"internalType": "uint48",
					"name": "acceptSchedule",
					"type": "uint48"
				}
			],
			"name": "DefaultAdminTransferScheduled",
			"type": "event"
		},
		{
			"anonymous": false,
			"inputs": [
				{
					"indexed": true,
					"internalType": "bytes32",
					"name": "role",
					"type": "bytes32"
				},
				{
					"indexed": true,
					"internalType": "bytes32",
					"name": "previousAdminRole",
					"type": "bytes32"
				},
				{
					"indexed": true,
					"internalType": "bytes32",
					"name": "newAdminRole",
					"type": "bytes32"
				}
			],
			"name": "RoleAdminChanged",
			"type": "event"
		},
		{
			"anonymous": false,
			"inputs": [
				{
					"indexed": true,
					"internalType": "bytes32",
					"name": "role",
					"type": "bytes32"
				},
				{
					"indexed": true,
					"internalType": "address",
					"name": "account",
					"type": "address"
				},
				{
					"indexed": true,
					"internalType": "address",
					"name": "sender",
					"type": "address"
				}
			],
			"name": "RoleGranted",
			"type": "event"
		},
		{
			"anonymous": false,
			"inputs": [
				{
					"indexed": true,
					"internalType": "bytes32",
					"name": "role",
					"type": "bytes32"
				},
				{
					"indexed": true,
					"internalType": "address",
					"name": "account",
					"type": "address"
				},
				{
					"indexed": true,
					"internalType": "address",
					"name": "sender",
					"type": "address"
				}
			],
			"name": "RoleRevoked",
			"type": "event"
		},
		{
			"inputs": [],
			"name": "DEFAULT_ADMIN_ROLE",
			"outputs": [
				{
					"internalType": "bytes32",
					"name": "",
					"type": "bytes32"
				}
			],
			"stateMutability": "view",
			"type": "function"
		},
		{
			"inputs": [],
			"name": "ENTERPRISE_ROLE",
			"outputs": [
				{
					"internalType": "bytes32",
					"name": "",
					"type": "bytes32"
				}
			],
			"stateMutability": "view",
			"type": "function"
		},
		{
			"inputs": [
				{
					"internalType": "address",
					"name": "",
					"type": "address"
				}
			],
			"name": "EnterpriseLogisticsDataNum",
			"outputs": [
				{
					"internalType": "uint256",
					"name": "",
					"type": "uint256"
				}
			],
			"stateMutability": "view",
			"type": "function"
		},
		{
			"inputs": [
				{
					"internalType": "address",
					"name": "",
					"type": "address"
				},
				{
					"internalType": "uint256",
					"name": "",
					"type": "uint256"
				}
			],
			"name": "EnterpriseLogisticsDataSet",
			"outputs": [
				{
					"internalType": "string",
					"name": "startPoint",
					"type": "string"
				},
				{
					"internalType": "string",
					"name": "destination",
					"type": "string"
				},
				{
					"internalType": "string",
					"name": "transportation",
					"type": "string"
				},
				{
					"internalType": "string",
					"name": "cargoStatus",
					"type": "string"
				}
			],
			"stateMutability": "view",
			"type": "function"
		},
		{
			"inputs": [
				{
					"internalType": "address",
					"name": "",
					"type": "address"
				}
			],
			"name": "EnterpriseTradeDataNum",
			"outputs": [
				{
					"internalType": "uint256",
					"name": "",
					"type": "uint256"
				}
			],
			"stateMutability": "view",
			"type": "function"
		},
		{
			"inputs": [
				{
					"internalType": "address",
					"name": "",
					"type": "address"
				},
				{
					"internalType": "uint256",
					"name": "",
					"type": "uint256"
				}
			],
			"name": "EnterpriseTradeDataSet",
			"outputs": [
				{
					"components": [
						{
							"internalType": "string",
							"name": "description",
							"type": "string"
						},
						{
							"internalType": "string",
							"name": "warehouseName",
							"type": "string"
						},
						{
							"internalType": "uint256",
							"name": "quantity",
							"type": "uint256"
						},
						{
							"internalType": "uint256",
							"name": "storageDate",
							"type": "uint256"
						},
						{
							"internalType": "uint256",
							"name": "expiryDate",
							"type": "uint256"
						},
						{
							"internalType": "address",
							"name": "owner",
							"type": "address"
						}
					],
					"internalType": "struct FinancialTemplate.WarehouseReceipt",
					"name": "warehouseReceipt",
					"type": "tuple"
				},
				{
					"components": [
						{
							"internalType": "address",
							"name": "drawer",
							"type": "address"
						},
						{
							"internalType": "address",
							"name": "payee",
							"type": "address"
						},
						{
							"internalType": "uint256",
							"name": "amount",
							"type": "uint256"
						},
						{
							"internalType": "uint256",
							"name": "paymentDate",
							"type": "uint256"
						},
						{
							"internalType": "string",
							"name": "goodsDescription",
							"type": "string"
						}
					],
					"internalType": "struct FinancialTemplate.BillOfExchange",
					"name": "billOfExchange",
					"type": "tuple"
				}
			],
			"stateMutability": "view",
			"type": "function"
		},
		{
			"inputs": [
				{
					"internalType": "address",
					"name": "",
					"type": "address"
				}
			],
			"name": "FPLogisticsInquiryAccess",
			"outputs": [
				{
					"internalType": "bool",
					"name": "",
					"type": "bool"
				}
			],
			"stateMutability": "view",
			"type": "function"
		},
		{
			"inputs": [
				{
					"internalType": "address",
					"name": "",
					"type": "address"
				}
			],
			"name": "FPTradeInquiryAccess",
			"outputs": [
				{
					"internalType": "bool",
					"name": "",
					"type": "bool"
				}
			],
			"stateMutability": "view",
			"type": "function"
		},
		{
			"inputs": [],
			"name": "FUNDING_PARTY_ROLE",
			"outputs": [
				{
					"internalType": "bytes32",
					"name": "",
					"type": "bytes32"
				}
			],
			"stateMutability": "view",
			"type": "function"
		},
		{
			"inputs": [],
			"name": "acceptDefaultAdminTransfer",
			"outputs": [],
			"stateMutability": "nonpayable",
			"type": "function"
		},
		{
			"inputs": [
				{
					"internalType": "address",
					"name": "newAdmin",
					"type": "address"
				}
			],
			"name": "beginDefaultAdminTransfer",
			"outputs": [],
			"stateMutability": "nonpayable",
			"type": "function"
		},
		{
			"inputs": [],
			"name": "cancelDefaultAdminTransfer",
			"outputs": [],
			"stateMutability": "nonpayable",
			"type": "function"
		},
		{
			"inputs": [
				{
					"internalType": "uint48",
					"name": "newDelay",
					"type": "uint48"
				}
			],
			"name": "changeDefaultAdminDelay",
			"outputs": [],
			"stateMutability": "nonpayable",
			"type": "function"
		},
		{
			"inputs": [
				{
					"internalType": "address",
					"name": "_checkAddr",
					"type": "address"
				},
				{
					"internalType": "bytes32",
					"name": "_role",
					"type": "bytes32"
				}
			],
			"name": "checkRole",
			"outputs": [
				{
					"internalType": "bool",
					"name": "",
					"type": "bool"
				}
			],
			"stateMutability": "view",
			"type": "function"
		},
		{
			"inputs": [
				{
					"internalType": "address",
					"name": "_drawer",
					"type": "address"
				},
				{
					"internalType": "address",
					"name": "_payee",
					"type": "address"
				},
				{
					"internalType": "uint256",
					"name": "_amount",
					"type": "uint256"
				},
				{
					"internalType": "uint256",
					"name": "_paymentDate",
					"type": "uint256"
				},
				{
					"internalType": "string",
					"name": "_goodsDescription",
					"type": "string"
				}
			],
			"name": "createNewBillOfExchange",
			"outputs": [
				{
					"components": [
						{
							"internalType": "address",
							"name": "drawer",
							"type": "address"
						},
						{
							"internalType": "address",
							"name": "payee",
							"type": "address"
						},
						{
							"internalType": "uint256",
							"name": "amount",
							"type": "uint256"
						},
						{
							"internalType": "uint256",
							"name": "paymentDate",
							"type": "uint256"
						},
						{
							"internalType": "string",
							"name": "goodsDescription",
							"type": "string"
						}
					],
					"internalType": "struct FinancialTemplate.BillOfExchange",
					"name": "",
					"type": "tuple"
				}
			],
			"stateMutability": "view",
			"type": "function"
		},
		{
			"inputs": [
				{
					"internalType": "string",
					"name": "_description",
					"type": "string"
				},
				{
					"internalType": "string",
					"name": "_warehouseName",
					"type": "string"
				},
				{
					"internalType": "uint256",
					"name": "_quantity",
					"type": "uint256"
				},
				{
					"internalType": "uint256",
					"name": "_storageDate",
					"type": "uint256"
				},
				{
					"internalType": "uint256",
					"name": "_expiryDate",
					"type": "uint256"
				},
				{
					"internalType": "address",
					"name": "_owner",
					"type": "address"
				}
			],
			"name": "createNewWarehouseReceipt",
			"outputs": [
				{
					"components": [
						{
							"internalType": "string",
							"name": "description",
							"type": "string"
						},
						{
							"internalType": "string",
							"name": "warehouseName",
							"type": "string"
						},
						{
							"internalType": "uint256",
							"name": "quantity",
							"type": "uint256"
						},
						{
							"internalType": "uint256",
							"name": "storageDate",
							"type": "uint256"
						},
						{
							"internalType": "uint256",
							"name": "expiryDate",
							"type": "uint256"
						},
						{
							"internalType": "address",
							"name": "owner",
							"type": "address"
						}
					],
					"internalType": "struct FinancialTemplate.WarehouseReceipt",
					"name": "",
					"type": "tuple"
				}
			],
			"stateMutability": "view",
			"type": "function"
		},
		{
			"inputs": [],
			"name": "defaultAdmin",
			"outputs": [
				{
					"internalType": "address",
					"name": "",
					"type": "address"
				}
			],
			"stateMutability": "view",
			"type": "function"
		},
		{
			"inputs": [],
			"name": "defaultAdminDelay",
			"outputs": [
				{
					"internalType": "uint48",
					"name": "",
					"type": "uint48"
				}
			],
			"stateMutability": "view",
			"type": "function"
		},
		{
			"inputs": [],
			"name": "defaultAdminDelayIncreaseWait",
			"outputs": [
				{
					"internalType": "uint48",
					"name": "",
					"type": "uint48"
				}
			],
			"stateMutability": "view",
			"type": "function"
		},
		{
			"inputs": [
				{
					"internalType": "address",
					"name": "",
					"type": "address"
				}
			],
			"name": "enterpriseDataSet",
			"outputs": [
				{
					"internalType": "string",
					"name": "registrationNumber",
					"type": "string"
				},
				{
					"internalType": "string",
					"name": "legalRepresentative",
					"type": "string"
				},
				{
					"internalType": "string",
					"name": "companyName",
					"type": "string"
				},
				{
					"internalType": "string",
					"name": "registrationAddress",
					"type": "string"
				},
				{
					"internalType": "uint256",
					"name": "establishmentDate",
					"type": "uint256"
				},
				{
					"internalType": "bool",
					"name": "isValid",
					"type": "bool"
				}
			],
			"stateMutability": "view",
			"type": "function"
		},
		{
			"inputs": [
				{
					"internalType": "address",
					"name": "_enterpriseAddr",
					"type": "address"
				},
				{
					"internalType": "uint256",
					"name": "_logisticsId",
					"type": "uint256"
				}
			],
			"name": "getLogisticsInfoForEnterprise",
			"outputs": [
				{
					"components": [
						{
							"internalType": "string",
							"name": "startPoint",
							"type": "string"
						},
						{
							"internalType": "string",
							"name": "destination",
							"type": "string"
						},
						{
							"internalType": "string",
							"name": "transportation",
							"type": "string"
						},
						{
							"internalType": "string",
							"name": "cargoStatus",
							"type": "string"
						}
					],
					"internalType": "struct FinancialTemplate.LogisticsInfo",
					"name": "",
					"type": "tuple"
				}
			],
			"stateMutability": "view",
			"type": "function"
		},
		{
			"inputs": [
				{
					"internalType": "address",
					"name": "_fundingPartyAddr",
					"type": "address"
				},
				{
					"internalType": "address",
					"name": "_enterpriseAddr",
					"type": "address"
				},
				{
					"internalType": "uint256",
					"name": "_logisticsId",
					"type": "uint256"
				}
			],
			"name": "getLogisticsInfoForFundingParty",
			"outputs": [
				{
					"components": [
						{
							"internalType": "string",
							"name": "startPoint",
							"type": "string"
						},
						{
							"internalType": "string",
							"name": "destination",
							"type": "string"
						},
						{
							"internalType": "string",
							"name": "transportation",
							"type": "string"
						},
						{
							"internalType": "string",
							"name": "cargoStatus",
							"type": "string"
						}
					],
					"internalType": "struct FinancialTemplate.LogisticsInfo",
					"name": "",
					"type": "tuple"
				}
			],
			"stateMutability": "view",
			"type": "function"
		},
		{
			"inputs": [
				{
					"internalType": "bytes32",
					"name": "role",
					"type": "bytes32"
				}
			],
			"name": "getRoleAdmin",
			"outputs": [
				{
					"internalType": "bytes32",
					"name": "",
					"type": "bytes32"
				}
			],
			"stateMutability": "view",
			"type": "function"
		},
		{
			"inputs": [
				{
					"internalType": "address",
					"name": "_enterpriseAddr",
					"type": "address"
				},
				{
					"internalType": "uint256",
					"name": "_tradeId",
					"type": "uint256"
				}
			],
			"name": "getTradeData",
			"outputs": [
				{
					"components": [
						{
							"components": [
								{
									"internalType": "string",
									"name": "description",
									"type": "string"
								},
								{
									"internalType": "string",
									"name": "warehouseName",
									"type": "string"
								},
								{
									"internalType": "uint256",
									"name": "quantity",
									"type": "uint256"
								},
								{
									"internalType": "uint256",
									"name": "storageDate",
									"type": "uint256"
								},
								{
									"internalType": "uint256",
									"name": "expiryDate",
									"type": "uint256"
								},
								{
									"internalType": "address",
									"name": "owner",
									"type": "address"
								}
							],
							"internalType": "struct FinancialTemplate.WarehouseReceipt",
							"name": "warehouseReceipt",
							"type": "tuple"
						},
						{
							"components": [
								{
									"internalType": "address",
									"name": "drawer",
									"type": "address"
								},
								{
									"internalType": "address",
									"name": "payee",
									"type": "address"
								},
								{
									"internalType": "uint256",
									"name": "amount",
									"type": "uint256"
								},
								{
									"internalType": "uint256",
									"name": "paymentDate",
									"type": "uint256"
								},
								{
									"internalType": "string",
									"name": "goodsDescription",
									"type": "string"
								}
							],
							"internalType": "struct FinancialTemplate.BillOfExchange",
							"name": "billOfExchange",
							"type": "tuple"
						}
					],
					"internalType": "struct FinancialTemplate.TradeData",
					"name": "",
					"type": "tuple"
				}
			],
			"stateMutability": "view",
			"type": "function"
		},
		{
			"inputs": [
				{
					"internalType": "address",
					"name": "_fundingPartyAddr",
					"type": "address"
				},
				{
					"internalType": "address",
					"name": "_enterpriseAddr",
					"type": "address"
				},
				{
					"internalType": "uint256",
					"name": "_tradeId",
					"type": "uint256"
				}
			],
			"name": "getTradeDataForFundingParty",
			"outputs": [
				{
					"components": [
						{
							"components": [
								{
									"internalType": "string",
									"name": "description",
									"type": "string"
								},
								{
									"internalType": "string",
									"name": "warehouseName",
									"type": "string"
								},
								{
									"internalType": "uint256",
									"name": "quantity",
									"type": "uint256"
								},
								{
									"internalType": "uint256",
									"name": "storageDate",
									"type": "uint256"
								},
								{
									"internalType": "uint256",
									"name": "expiryDate",
									"type": "uint256"
								},
								{
									"internalType": "address",
									"name": "owner",
									"type": "address"
								}
							],
							"internalType": "struct FinancialTemplate.WarehouseReceipt",
							"name": "warehouseReceipt",
							"type": "tuple"
						},
						{
							"components": [
								{
									"internalType": "address",
									"name": "drawer",
									"type": "address"
								},
								{
									"internalType": "address",
									"name": "payee",
									"type": "address"
								},
								{
									"internalType": "uint256",
									"name": "amount",
									"type": "uint256"
								},
								{
									"internalType": "uint256",
									"name": "paymentDate",
									"type": "uint256"
								},
								{
									"internalType": "string",
									"name": "goodsDescription",
									"type": "string"
								}
							],
							"internalType": "struct FinancialTemplate.BillOfExchange",
							"name": "billOfExchange",
							"type": "tuple"
						}
					],
					"internalType": "struct FinancialTemplate.TradeData",
					"name": "",
					"type": "tuple"
				}
			],
			"stateMutability": "view",
			"type": "function"
		},
		{
			"inputs": [
				{
					"internalType": "address",
					"name": "_fundingPartyAddr",
					"type": "address"
				},
				{
					"internalType": "address",
					"name": "_enterpriseAddr",
					"type": "address"
				}
			],
			"name": "grantLogisticsAccess",
			"outputs": [],
			"stateMutability": "nonpayable",
			"type": "function"
		},
		{
			"inputs": [
				{
					"internalType": "bytes32",
					"name": "role",
					"type": "bytes32"
				},
				{
					"internalType": "address",
					"name": "account",
					"type": "address"
				}
			],
			"name": "grantRole",
			"outputs": [],
			"stateMutability": "nonpayable",
			"type": "function"
		},
		{
			"inputs": [
				{
					"internalType": "address",
					"name": "_fundingPartyAddr",
					"type": "address"
				},
				{
					"internalType": "address",
					"name": "_enterpriseAddr",
					"type": "address"
				}
			],
			"name": "grantTradeDataAccess",
			"outputs": [],
			"stateMutability": "nonpayable",
			"type": "function"
		},
		{
			"inputs": [
				{
					"internalType": "bytes32",
					"name": "role",
					"type": "bytes32"
				},
				{
					"internalType": "address",
					"name": "account",
					"type": "address"
				}
			],
			"name": "hasRole",
			"outputs": [
				{
					"internalType": "bool",
					"name": "",
					"type": "bool"
				}
			],
			"stateMutability": "view",
			"type": "function"
		},
		{
			"inputs": [
				{
					"internalType": "address",
					"name": "",
					"type": "address"
				},
				{
					"internalType": "address",
					"name": "",
					"type": "address"
				}
			],
			"name": "isFundingParty",
			"outputs": [
				{
					"internalType": "bool",
					"name": "",
					"type": "bool"
				}
			],
			"stateMutability": "view",
			"type": "function"
		},
		{
			"inputs": [],
			"name": "nextRoleId",
			"outputs": [
				{
					"internalType": "uint256",
					"name": "",
					"type": "uint256"
				}
			],
			"stateMutability": "view",
			"type": "function"
		},
		{
			"inputs": [],
			"name": "owner",
			"outputs": [
				{
					"internalType": "address",
					"name": "",
					"type": "address"
				}
			],
			"stateMutability": "view",
			"type": "function"
		},
		{
			"inputs": [],
			"name": "pendingDefaultAdmin",
			"outputs": [
				{
					"internalType": "address",
					"name": "newAdmin",
					"type": "address"
				},
				{
					"internalType": "uint48",
					"name": "schedule",
					"type": "uint48"
				}
			],
			"stateMutability": "view",
			"type": "function"
		},
		{
			"inputs": [],
			"name": "pendingDefaultAdminDelay",
			"outputs": [
				{
					"internalType": "uint48",
					"name": "newDelay",
					"type": "uint48"
				},
				{
					"internalType": "uint48",
					"name": "schedule",
					"type": "uint48"
				}
			],
			"stateMutability": "view",
			"type": "function"
		},
		{
			"inputs": [
				{
					"internalType": "address",
					"name": "_enterpriseAddr",
					"type": "address"
				},
				{
					"internalType": "string",
					"name": "regNumber",
					"type": "string"
				},
				{
					"internalType": "string",
					"name": "legalRep",
					"type": "string"
				},
				{
					"internalType": "string",
					"name": "name",
					"type": "string"
				},
				{
					"internalType": "string",
					"name": "regAddress",
					"type": "string"
				},
				{
					"internalType": "uint256",
					"name": "establishmentDate",
					"type": "uint256"
				}
			],
			"name": "registerEnterprise",
			"outputs": [],
			"stateMutability": "nonpayable",
			"type": "function"
		},
		{
			"inputs": [
				{
					"internalType": "bytes32",
					"name": "role",
					"type": "bytes32"
				},
				{
					"internalType": "address",
					"name": "account",
					"type": "address"
				}
			],
			"name": "renounceRole",
			"outputs": [],
			"stateMutability": "nonpayable",
			"type": "function"
		},
		{
			"inputs": [
				{
					"internalType": "bytes32",
					"name": "role",
					"type": "bytes32"
				},
				{
					"internalType": "address",
					"name": "account",
					"type": "address"
				}
			],
			"name": "revokeRole",
			"outputs": [],
			"stateMutability": "nonpayable",
			"type": "function"
		},
		{
			"inputs": [],
			"name": "rollbackDefaultAdminDelay",
			"outputs": [],
			"stateMutability": "nonpayable",
			"type": "function"
		},
		{
			"inputs": [
				{
					"internalType": "bytes4",
					"name": "interfaceId",
					"type": "bytes4"
				}
			],
			"name": "supportsInterface",
			"outputs": [
				{
					"internalType": "bool",
					"name": "",
					"type": "bool"
				}
			],
			"stateMutability": "view",
			"type": "function"
		},
		{
			"inputs": [
				{
					"internalType": "address",
					"name": "_enterpriseAddr",
					"type": "address"
				},
				{
					"internalType": "string",
					"name": "_startPoint",
					"type": "string"
				},
				{
					"internalType": "string",
					"name": "_destination",
					"type": "string"
				},
				{
					"internalType": "string",
					"name": "_transportation",
					"type": "string"
				},
				{
					"internalType": "string",
					"name": "_cargoStatus",
					"type": "string"
				}
			],
			"name": "uploadLogisticsInfo",
			"outputs": [],
			"stateMutability": "nonpayable",
			"type": "function"
		},
		{
			"inputs": [
				{
					"internalType": "address",
					"name": "_enterpriseAddr",
					"type": "address"
				},
				{
					"components": [
						{
							"internalType": "string",
							"name": "description",
							"type": "string"
						},
						{
							"internalType": "string",
							"name": "warehouseName",
							"type": "string"
						},
						{
							"internalType": "uint256",
							"name": "quantity",
							"type": "uint256"
						},
						{
							"internalType": "uint256",
							"name": "storageDate",
							"type": "uint256"
						},
						{
							"internalType": "uint256",
							"name": "expiryDate",
							"type": "uint256"
						},
						{
							"internalType": "address",
							"name": "owner",
							"type": "address"
						}
					],
					"internalType": "struct FinancialTemplate.WarehouseReceipt",
					"name": "_warehouseReceipt",
					"type": "tuple"
				},
				{
					"components": [
						{
							"internalType": "address",
							"name": "drawer",
							"type": "address"
						},
						{
							"internalType": "address",
							"name": "payee",
							"type": "address"
						},
						{
							"internalType": "uint256",
							"name": "amount",
							"type": "uint256"
						},
						{
							"internalType": "uint256",
							"name": "paymentDate",
							"type": "uint256"
						},
						{
							"internalType": "string",
							"name": "goodsDescription",
							"type": "string"
						}
					],
					"internalType": "struct FinancialTemplate.BillOfExchange",
					"name": "_billOfExchange",
					"type": "tuple"
				}
			],
			"name": "uploadTradeData",
			"outputs": [],
			"stateMutability": "nonpayable",
			"type": "function"
		}
	]
}