{
	"data": {
		"bytecode": {
			"linkReferences": {},
			"object": "608060405234801562000010575f80fd5b506203f480335f73ffffffffffffffffffffffffffffffffffffffff168173ffffffffffffffffffffffffffffffffffffffff160362000089575f6040517fc22c802200000000000000000000000000000000000000000000000000000000815260040162000080919062000459565b60405180910390fd5b816001601a6101000a81548165ffffffffffff021916908365ffffffffffff160217905550620000c25f801b82620001ae60201b60201c565b5050507f920994fc3bfe282f3f20cdccf1b7c5e46c63d963e822d98efff90abd41c12e2160095f8081526020019081526020015f20819055507ffbe1ac7c192839090e0e8fe24586cbf0e3c232386b46344ee88ba44324daee0760095f600181526020019081526020015f20819055507fa9c97ba19a72e0dc76a63e7a2b58ccbe7f35241f6273bfc5067dfd03bf950c3060095f600281526020019081526020015f20819055507f80f9b792196f21120f021903634877a78a3dd5e8ef643701b99dae7bb938062d60095f600381526020019081526020015f2081905550600460038190555062000474565b5f805f1b83036200026f575f73ffffffffffffffffffffffffffffffffffffffff16620001e06200028960201b60201c565b73ffffffffffffffffffffffffffffffffffffffff16146200022e576040517f3fc3c27a00000000000000000000000000000000000000000000000000000000815260040160405180910390fd5b8160025f6101000a81548173ffffffffffffffffffffffffffffffffffffffff021916908373ffffffffffffffffffffffffffffffffffffffff1602179055505b620002818383620002b160201b60201c565b905092915050565b5f60025f9054906101000a900473ffffffffffffffffffffffffffffffffffffffff16905090565b5f620002c48383620003ac60201b60201c565b620003a25760015f808581526020019081526020015f205f015f8473ffffffffffffffffffffffffffffffffffffffff1673ffffffffffffffffffffffffffffffffffffffff1681526020019081526020015f205f6101000a81548160ff0219169083151502179055506200033e6200040f60201b60201c565b73ffffffffffffffffffffffffffffffffffffffff168273ffffffffffffffffffffffffffffffffffffffff16847f2f8788117e7eff1d82e926ec794901d17c78024a50270940304540a733656f0d60405160405180910390a460019050620003a6565b5f90505b92915050565b5f805f8481526020019081526020015f205f015f8373ffffffffffffffffffffffffffffffffffffffff1673ffffffffffffffffffffffffffffffffffffffff1681526020019081526020015f205f9054906101000a900460ff16905092915050565b5f33905090565b5f73ffffffffffffffffffffffffffffffffffffffff82169050919050565b5f620004418262000416565b9050919050565b620004538162000435565b82525050565b5f6020820190506200046e5f83018462000448565b92915050565b6142a680620004825f395ff3fe608060405234801561000f575f80fd5b506004361061021a575f3560e01c806384ef8ffc11610123578063cc8463c8116100ab578063d602b9fd1161007a578063d602b9fd14610658578063f98b599814610662578063fa7e6bf51461067e578063fc04f4ba146106ae578063fc528482146106cc5761021a565b8063cc8463c8146105f5578063cefc142914610613578063cf6eefb71461061d578063d547741f1461063c5761021a565b8063a10fd6d8116100f2578063a10fd6d814610535578063a1eda53c1461056a578063a217fddf14610589578063b64a873c146105a7578063bb618760146105d75761021a565b806384ef8ffc1461049857806388560f91146104b65780638da5cb5b146104e757806391d14854146105055761021a565b80632f2ff15d116101a6578063634e93da11610175578063634e93da146103f6578063649a5ec71461041257806368dd17a51461042e5780636c8c51e41461044c5780636f476034146104685761021a565b80632f2ff15d1461035e578063354c2bf81461037a57806336568abe146103aa57806359945ae7146103c65761021a565b80631940767f116101ed5780631940767f14610294578063248a9ca3146102b0578063279185a0146102e05780632ae8a7e3146102fe5780632bcd799e1461032e5761021a565b806301ffc9a71461021e578063022d63fb1461024e5780630aa6220b1461026c5780630ce526d114610276575b5f80fd5b61023860048036038101906102339190612ea0565b6106ea565b6040516102459190612ee5565b60405180910390f35b610256610763565b6040516102639190612f1e565b60405180910390f35b61027461076d565b005b61027e610784565b60405161028b9190612f4f565b60405180910390f35b6102ae60048036038101906102a99190613131565b6107a8565b005b6102ca60048036038101906102c59190613288565b610b92565b6040516102d79190612f4f565b60405180910390f35b6102e8610bae565b6040516102f59190612f4f565b60405180910390f35b610318600480360381019061031391906132b3565b610bd2565b6040516103259190612ee5565b60405180910390f35b610348600480360381019061034391906132f1565b610bf2565b60405161035591906134e2565b60405180910390f35b61037860048036038101906103739190613502565b611086565b005b610394600480360381019061038f9190613540565b6110cf565b6040516103a19190612ee5565b60405180910390f35b6103c460048036038101906103bf9190613502565b6110ec565b005b6103e060048036038101906103db919061356b565b6111fe565b6040516103ed91906134e2565b60405180910390f35b610410600480360381019061040b9190613540565b61171c565b005b61042c600480360381019061042791906135e5565b611735565b005b61043661174e565b6040516104439190612f4f565b60405180910390f35b61046660048036038101906104619190613610565b611772565b005b610482600480360381019061047d919061364e565b6118eb565b60405161048f9190613754565b60405180910390f35b6104a061197c565b6040516104ad9190613783565b60405180910390f35b6104d060048036038101906104cb91906132f1565b6119a4565b6040516104de929190613803565b60405180910390f35b6104ef611cae565b6040516104fc9190613783565b60405180910390f35b61051f600480360381019061051a9190613502565b611cbc565b60405161052c9190612ee5565b60405180910390f35b61054f600480360381019061054a9190613540565b611d1f565b6040516105619695949392919061388f565b60405180910390f35b610572611f7b565b60405161058092919061390a565b60405180910390f35b610591611fd9565b60405161059e9190612f4f565b60405180910390f35b6105c160048036038101906105bc9190613931565b611fdf565b6040516105ce91906139cd565b60405180910390f35b6105df612053565b6040516105ec9190612f4f565b60405180910390f35b6105fd612077565b60405161060a9190612f1e565b60405180910390f35b61061b6120e4565b005b610625612179565b6040516106339291906139ed565b60405180910390f35b61065660048036038101906106519190613502565b6121ba565b005b610660612203565b005b61067c60048036038101906106779190613a14565b61221a565b005b61069860048036038101906106939190613540565b6123df565b6040516106a59190613b0d565b60405180910390f35b6106b66123f4565b6040516106c39190613b0d565b60405180910390f35b6106d46123fa565b6040516106e19190613b0d565b60405180910390f35b5f7f31498786000000000000000000000000000000000000000000000000000000007bffffffffffffffffffffffffffffffffffffffffffffffffffffffff1916827bffffffffffffffffffffffffffffffffffffffffffffffffffffffff1916148061075c575061075b82612400565b5b9050919050565b5f62069780905090565b5f801b61077981612479565b61078161248d565b50565b7f80f9b792196f21120f021903634877a78a3dd5e8ef643701b99dae7bb938062d81565b7f920994fc3bfe282f3f20cdccf1b7c5e46c63d963e822d98efff90abd41c12e216107d281612479565b60055f8c73ffffffffffffffffffffffffffffffffffffffff1673ffffffffffffffffffffffffffffffffffffffff1681526020019081526020015f206005015f9054906101000a900460ff1661085e576040517f08c379a000000000000000000000000000000000000000000000000000000000815260040161085590613b96565b60405180910390fd5b60405180608001604052808b81526020018a81526020018981526020018873ffffffffffffffffffffffffffffffffffffffff1681525060075f8d73ffffffffffffffffffffffffffffffffffffffff1673ffffffffffffffffffffffffffffffffffffffff1681526020019081526020015f205f60065f8f73ffffffffffffffffffffffffffffffffffffffff1673ffffffffffffffffffffffffffffffffffffffff1681526020019081526020015f205481526020019081526020015f205f015f820151815f0190816109339190613dae565b5060208201518160010190816109499190613dae565b50604082015181600201556060820151816003015f6101000a81548173ffffffffffffffffffffffffffffffffffffffff021916908373ffffffffffffffffffffffffffffffffffffffff1602179055509050506040518060a001604052808773ffffffffffffffffffffffffffffffffffffffff1681526020018673ffffffffffffffffffffffffffffffffffffffff1681526020018581526020018481526020018381525060075f8d73ffffffffffffffffffffffffffffffffffffffff1673ffffffffffffffffffffffffffffffffffffffff1681526020019081526020015f205f60065f8f73ffffffffffffffffffffffffffffffffffffffff1673ffffffffffffffffffffffffffffffffffffffff1681526020019081526020015f205481526020019081526020015f206004015f820151815f015f6101000a81548173ffffffffffffffffffffffffffffffffffffffff021916908373ffffffffffffffffffffffffffffffffffffffff1602179055506020820151816001015f6101000a81548173ffffffffffffffffffffffffffffffffffffffff021916908373ffffffffffffffffffffffffffffffffffffffff16021790555060408201518160020155606082015181600301556080820151816004019081610b2f9190613dae565b5090505060065f8c73ffffffffffffffffffffffffffffffffffffffff1673ffffffffffffffffffffffffffffffffffffffff1681526020019081526020015f205f815480929190610b8090613eaa565b91905055505050505050505050505050565b5f805f8381526020019081526020015f20600101549050919050565b7ffbe1ac7c192839090e0e8fe24586cbf0e3c232386b46344ee88ba44324daee0781565b5f805f1b610bdf81612479565b610be98385611cbc565b91505092915050565b610bfa612d81565b7f920994fc3bfe282f3f20cdccf1b7c5e46c63d963e822d98efff90abd41c12e21610c2481612479565b60055f8573ffffffffffffffffffffffffffffffffffffffff1673ffffffffffffffffffffffffffffffffffffffff1681526020019081526020015f206005015f9054906101000a900460ff16610cb0576040517f08c379a0000000000000000000000000000000000000000000000000000000008152600401610ca790613f3b565b60405180910390fd5b5f60065f8673ffffffffffffffffffffffffffffffffffffffff1673ffffffffffffffffffffffffffffffffffffffff1681526020019081526020015f20549050808410610d33576040517f08c379a0000000000000000000000000000000000000000000000000000000008152600401610d2a90613fa3565b60405180910390fd5b60075f8673ffffffffffffffffffffffffffffffffffffffff1673ffffffffffffffffffffffffffffffffffffffff1681526020019081526020015f205f8581526020019081526020015f206040518060400160405290815f82016040518060800160405290815f82018054610da890613be1565b80601f0160208091040260200160405190810160405280929190818152602001828054610dd490613be1565b8015610e1f5780601f10610df657610100808354040283529160200191610e1f565b820191905f5260205f20905b815481529060010190602001808311610e0257829003601f168201915b50505050508152602001600182018054610e3890613be1565b80601f0160208091040260200160405190810160405280929190818152602001828054610e6490613be1565b8015610eaf5780601f10610e8657610100808354040283529160200191610eaf565b820191905f5260205f20905b815481529060010190602001808311610e9257829003601f168201915b5050505050815260200160028201548152602001600382015f9054906101000a900473ffffffffffffffffffffffffffffffffffffffff1673ffffffffffffffffffffffffffffffffffffffff1673ffffffffffffffffffffffffffffffffffffffff16815250508152602001600482016040518060a00160405290815f82015f9054906101000a900473ffffffffffffffffffffffffffffffffffffffff1673ffffffffffffffffffffffffffffffffffffffff1673ffffffffffffffffffffffffffffffffffffffff168152602001600182015f9054906101000a900473ffffffffffffffffffffffffffffffffffffffff1673ffffffffffffffffffffffffffffffffffffffff1673ffffffffffffffffffffffffffffffffffffffff1681526020016002820154815260200160038201548152602001600482018054610ff890613be1565b80601f016020809104026020016040519081016040528092919081815260200182805461102490613be1565b801561106f5780601f106110465761010080835404028352916020019161106f565b820191905f5260205f20905b81548152906001019060200180831161105257829003601f168201915b505050505081525050815250509250505092915050565b5f801b82036110c1576040517f3fc3c27a00000000000000000000000000000000000000000000000000000000815260040160405180910390fd5b6110cb8282612499565b5050565b6008602052805f5260405f205f915054906101000a900460ff1681565b5f801b8214801561112f575061110061197c565b73ffffffffffffffffffffffffffffffffffffffff168173ffffffffffffffffffffffffffffffffffffffff16145b156111f0575f8061113e612179565b915091505f73ffffffffffffffffffffffffffffffffffffffff168273ffffffffffffffffffffffffffffffffffffffff161415806111835750611181816124bb565b155b806111945750611192816124cf565b155b156111d657806040517f19ca5ebb0000000000000000000000000000000000000000000000000000000081526004016111cd9190612f1e565b60405180910390fd5b600160146101000a81549065ffffffffffff021916905550505b6111fa82826124e2565b5050565b611206612d81565b7ffbe1ac7c192839090e0e8fe24586cbf0e3c232386b46344ee88ba44324daee0761123081612479565b60055f8573ffffffffffffffffffffffffffffffffffffffff1673ffffffffffffffffffffffffffffffffffffffff1681526020019081526020015f206005015f9054906101000a900460ff166112bc576040517f08c379a00000000000000000000000000000000000000000000000000000000081526004016112b390613f3b565b60405180910390fd5b60085f8673ffffffffffffffffffffffffffffffffffffffff1673ffffffffffffffffffffffffffffffffffffffff1681526020019081526020015f205f9054906101000a900460ff16611345576040517f08c379a000000000000000000000000000000000000000000000000000000000815260040161133c90614031565b60405180910390fd5b5f60065f8673ffffffffffffffffffffffffffffffffffffffff1673ffffffffffffffffffffffffffffffffffffffff1681526020019081526020015f205490508084106113c8576040517f08c379a00000000000000000000000000000000000000000000000000000000081526004016113bf90613fa3565b60405180910390fd5b60075f8673ffffffffffffffffffffffffffffffffffffffff1673ffffffffffffffffffffffffffffffffffffffff1681526020019081526020015f205f8581526020019081526020015f206040518060400160405290815f82016040518060800160405290815f8201805461143d90613be1565b80601f016020809104026020016040519081016040528092919081815260200182805461146990613be1565b80156114b45780601f1061148b576101008083540402835291602001916114b4565b820191905f5260205f20905b81548152906001019060200180831161149757829003601f168201915b505050505081526020016001820180546114cd90613be1565b80601f01602080910402602001604051908101604052809291908181526020018280546114f990613be1565b80156115445780601f1061151b57610100808354040283529160200191611544565b820191905f5260205f20905b81548152906001019060200180831161152757829003601f168201915b5050505050815260200160028201548152602001600382015f9054906101000a900473ffffffffffffffffffffffffffffffffffffffff1673ffffffffffffffffffffffffffffffffffffffff1673ffffffffffffffffffffffffffffffffffffffff16815250508152602001600482016040518060a00160405290815f82015f9054906101000a900473ffffffffffffffffffffffffffffffffffffffff1673ffffffffffffffffffffffffffffffffffffffff1673ffffffffffffffffffffffffffffffffffffffff168152602001600182015f9054906101000a900473ffffffffffffffffffffffffffffffffffffffff1673ffffffffffffffffffffffffffffffffffffffff1673ffffffffffffffffffffffffffffffffffffffff168152602001600282015481526020016003820154815260200160048201805461168d90613be1565b80601f01602080910402602001604051908101604052809291908181526020018280546116b990613be1565b80156117045780601f106116db57610100808354040283529160200191611704565b820191905f5260205f20905b8154815290600101906020018083116116e757829003601f168201915b50505050508152505081525050925050509392505050565b5f801b61172881612479565b6117318261255d565b5050565b5f801b61174181612479565b61174a826125d7565b5050565b7f920994fc3bfe282f3f20cdccf1b7c5e46c63d963e822d98efff90abd41c12e2181565b7f920994fc3bfe282f3f20cdccf1b7c5e46c63d963e822d98efff90abd41c12e2161179c81612479565b60055f8373ffffffffffffffffffffffffffffffffffffffff1673ffffffffffffffffffffffffffffffffffffffff1681526020019081526020015f206005015f9054906101000a900460ff16611828576040517f08c379a000000000000000000000000000000000000000000000000000000000815260040161181f90613f3b565b60405180910390fd5b6118527ffbe1ac7c192839090e0e8fe24586cbf0e3c232386b46344ee88ba44324daee0784611cbc565b611891576040517f08c379a0000000000000000000000000000000000000000000000000000000008152600401611888906140bf565b60405180910390fd5b600160085f8573ffffffffffffffffffffffffffffffffffffffff1673ffffffffffffffffffffffffffffffffffffffff1681526020019081526020015f205f6101000a81548160ff021916908315150217905550505050565b6118f3612da7565b7f920994fc3bfe282f3f20cdccf1b7c5e46c63d963e822d98efff90abd41c12e2161191d81612479565b6040518060a001604052808873ffffffffffffffffffffffffffffffffffffffff1681526020018773ffffffffffffffffffffffffffffffffffffffff1681526020018681526020018581526020018481525091505095945050505050565b5f60025f9054906101000a900473ffffffffffffffffffffffffffffffffffffffff16905090565b6007602052815f5260405f20602052805f5260405f205f9150915050805f016040518060800160405290815f820180546119dd90613be1565b80601f0160208091040260200160405190810160405280929190818152602001828054611a0990613be1565b8015611a545780601f10611a2b57610100808354040283529160200191611a54565b820191905f5260205f20905b815481529060010190602001808311611a3757829003601f168201915b50505050508152602001600182018054611a6d90613be1565b80601f0160208091040260200160405190810160405280929190818152602001828054611a9990613be1565b8015611ae45780601f10611abb57610100808354040283529160200191611ae4565b820191905f5260205f20905b815481529060010190602001808311611ac757829003601f168201915b5050505050815260200160028201548152602001600382015f9054906101000a900473ffffffffffffffffffffffffffffffffffffffff1673ffffffffffffffffffffffffffffffffffffffff1673ffffffffffffffffffffffffffffffffffffffff168152505090806004016040518060a00160405290815f82015f9054906101000a900473ffffffffffffffffffffffffffffffffffffffff1673ffffffffffffffffffffffffffffffffffffffff1673ffffffffffffffffffffffffffffffffffffffff168152602001600182015f9054906101000a900473ffffffffffffffffffffffffffffffffffffffff1673ffffffffffffffffffffffffffffffffffffffff1673ffffffffffffffffffffffffffffffffffffffff1681526020016002820154815260200160038201548152602001600482018054611c2990613be1565b80601f0160208091040260200160405190810160405280929190818152602001828054611c5590613be1565b8015611ca05780601f10611c7757610100808354040283529160200191611ca0565b820191905f5260205f20905b815481529060010190602001808311611c8357829003601f168201915b505050505081525050905082565b5f611cb761197c565b905090565b5f805f8481526020019081526020015f205f015f8373ffffffffffffffffffffffffffffffffffffffff1673ffffffffffffffffffffffffffffffffffffffff1681526020019081526020015f205f9054906101000a900460ff16905092915050565b6005602052805f5260405f205f91509050805f018054611d3e90613be1565b80601f0160208091040260200160405190810160405280929190818152602001828054611d6a90613be1565b8015611db55780601f10611d8c57610100808354040283529160200191611db5565b820191905f5260205f20905b815481529060010190602001808311611d9857829003601f168201915b505050505090806001018054611dca90613be1565b80601f0160208091040260200160405190810160405280929190818152602001828054611df690613be1565b8015611e415780601f10611e1857610100808354040283529160200191611e41565b820191905f5260205f20905b815481529060010190602001808311611e2457829003601f168201915b505050505090806002018054611e5690613be1565b80601f0160208091040260200160405190810160405280929190818152602001828054611e8290613be1565b8015611ecd5780601f10611ea457610100808354040283529160200191611ecd565b820191905f5260205f20905b815481529060010190602001808311611eb057829003601f168201915b505050505090806003018054611ee290613be1565b80601f0160208091040260200160405190810160405280929190818152602001828054611f0e90613be1565b8015611f595780601f10611f3057610100808354040283529160200191611f59565b820191905f5260205f20905b815481529060010190602001808311611f3c57829003601f168201915b505050505090806004015490806005015f9054906101000a900460ff16905086565b5f806002601a9054906101000a900465ffffffffffff169050611f9d816124bb565b8015611faf5750611fad816124cf565b155b611fba575f80611fd1565b600260149054906101000a900465ffffffffffff16815b915091509091565b5f801b81565b611fe7612dfe565b7f920994fc3bfe282f3f20cdccf1b7c5e46c63d963e822d98efff90abd41c12e2161201181612479565b60405180608001604052808781526020018681526020018581526020018473ffffffffffffffffffffffffffffffffffffffff16815250915050949350505050565b7fa9c97ba19a72e0dc76a63e7a2b58ccbe7f35241f6273bfc5067dfd03bf950c3081565b5f806002601a9054906101000a900465ffffffffffff169050612099816124bb565b80156120aa57506120a9816124cf565b5b6120c8576001601a9054906101000a900465ffffffffffff166120de565b600260149054906101000a900465ffffffffffff165b91505090565b5f6120ed612179565b5090508073ffffffffffffffffffffffffffffffffffffffff1661210f61263d565b73ffffffffffffffffffffffffffffffffffffffff161461216e5761213261263d565b6040517fc22c80220000000000000000000000000000000000000000000000000000000081526004016121659190613783565b60405180910390fd5b612176612644565b50565b5f8060015f9054906101000a900473ffffffffffffffffffffffffffffffffffffffff16600160149054906101000a900465ffffffffffff16915091509091565b5f801b82036121f5576040517f3fc3c27a00000000000000000000000000000000000000000000000000000000815260040160405180910390fd5b6121ff828261270f565b5050565b5f801b61220f81612479565b612217612731565b50565b5f801b61222681612479565b5f151560055f8973ffffffffffffffffffffffffffffffffffffffff1673ffffffffffffffffffffffffffffffffffffffff1681526020019081526020015f206005015f9054906101000a900460ff161515146122b8576040517f08c379a00000000000000000000000000000000000000000000000000000000081526004016122af9061414d565b60405180910390fd5b5f6040518060c001604052808881526020018781526020018681526020018581526020018481526020016001151581525090508060055f8a73ffffffffffffffffffffffffffffffffffffffff1673ffffffffffffffffffffffffffffffffffffffff1681526020019081526020015f205f820151815f01908161233c9190613dae565b5060208201518160010190816123529190613dae565b5060408201518160020190816123689190613dae565b50606082015181600301908161237e9190613dae565b506080820151816004015560a0820151816005015f6101000a81548160ff0219169083151502179055509050506123d57f920994fc3bfe282f3f20cdccf1b7c5e46c63d963e822d98efff90abd41c12e2189611086565b5050505050505050565b6006602052805f5260405f205f915090505481565b60035481565b60045481565b5f7f7965db0b000000000000000000000000000000000000000000000000000000007bffffffffffffffffffffffffffffffffffffffffffffffffffffffff1916827bffffffffffffffffffffffffffffffffffffffffffffffffffffffff1916148061247257506124718261273d565b5b9050919050565b61248a8161248561263d565b6127a6565b50565b6124975f806127f7565b565b6124a282610b92565b6124ab81612479565b6124b583836128e6565b50505050565b5f808265ffffffffffff1614159050919050565b5f428265ffffffffffff16109050919050565b6124ea61263d565b73ffffffffffffffffffffffffffffffffffffffff168173ffffffffffffffffffffffffffffffffffffffff161461254e576040517f6697b23200000000000000000000000000000000000000000000000000000000815260040160405180910390fd5b61255882826129af565b505050565b5f612566612077565b61256f42612a2f565b612579919061416b565b90506125858282612a88565b8173ffffffffffffffffffffffffffffffffffffffff167f3377dc44241e779dd06afab5b788a35ca5f3b778836e2990bdb26a2a4b2e5ed6826040516125cb9190612f1e565b60405180910390a25050565b5f6125e182612b39565b6125ea42612a2f565b6125f4919061416b565b905061260082826127f7565b7ff1038c18cf84a56e432fdbfaf746924b7ea511dfe03a6506a0ceba4888788d9b828260405161263192919061390a565b60405180910390a15050565b5f33905090565b5f8061264e612179565b9150915061265b816124bb565b158061266d575061266b816124cf565b155b156126af57806040517f19ca5ebb0000000000000000000000000000000000000000000000000000000081526004016126a69190612f1e565b60405180910390fd5b6126c25f801b6126bd61197c565b6129af565b506126cf5f801b836128e6565b5060015f6101000a81549073ffffffffffffffffffffffffffffffffffffffff0219169055600160146101000a81549065ffffffffffff02191690555050565b61271882610b92565b61272181612479565b61272b83836129af565b50505050565b61273b5f80612a88565b565b5f7f01ffc9a7000000000000000000000000000000000000000000000000000000007bffffffffffffffffffffffffffffffffffffffffffffffffffffffff1916827bffffffffffffffffffffffffffffffffffffffffffffffffffffffff1916149050919050565b6127b08282611cbc565b6127f35780826040517fe2517d3f0000000000000000000000000000000000000000000000000000000081526004016127ea9291906141a4565b60405180910390fd5b5050565b5f6002601a9054906101000a900465ffffffffffff169050612818816124bb565b1561289757612826816124cf565b1561286957600260149054906101000a900465ffffffffffff166001601a6101000a81548165ffffffffffff021916908365ffffffffffff160217905550612896565b7f2b1fa2edafe6f7b9e97c1a9e0c3660e645beb2dcaa2d45bdbf9beaf5472e1ec560405160405180910390a15b5b82600260146101000a81548165ffffffffffff021916908365ffffffffffff160217905550816002601a6101000a81548165ffffffffffff021916908365ffffffffffff160217905550505050565b5f805f1b830361299d575f73ffffffffffffffffffffffffffffffffffffffff1661290f61197c565b73ffffffffffffffffffffffffffffffffffffffff161461295c576040517f3fc3c27a00000000000000000000000000000000000000000000000000000000815260040160405180910390fd5b8160025f6101000a81548173ffffffffffffffffffffffffffffffffffffffff021916908373ffffffffffffffffffffffffffffffffffffffff1602179055505b6129a78383612b97565b905092915050565b5f805f1b831480156129f357506129c461197c565b73ffffffffffffffffffffffffffffffffffffffff168273ffffffffffffffffffffffffffffffffffffffff16145b15612a1d5760025f6101000a81549073ffffffffffffffffffffffffffffffffffffffff02191690555b612a278383612c80565b905092915050565b5f65ffffffffffff8016821115612a80576030826040517f6dfcc650000000000000000000000000000000000000000000000000000000008152600401612a77929190614210565b60405180910390fd5b819050919050565b5f612a91612179565b9150508260015f6101000a81548173ffffffffffffffffffffffffffffffffffffffff021916908373ffffffffffffffffffffffffffffffffffffffff16021790555081600160146101000a81548165ffffffffffff021916908365ffffffffffff160217905550612b02816124bb565b15612b34577f8886ebfc4259abdbc16601dd8fb5678e54878f47b3c34836cfc51154a960510960405160405180910390a15b505050565b5f80612b43612077565b90508065ffffffffffff168365ffffffffffff1611612b6d578281612b689190614237565b612b8f565b612b8e8365ffffffffffff16612b81610763565b65ffffffffffff16612d69565b5b915050919050565b5f612ba28383611cbc565b612c765760015f808581526020019081526020015f205f015f8473ffffffffffffffffffffffffffffffffffffffff1673ffffffffffffffffffffffffffffffffffffffff1681526020019081526020015f205f6101000a81548160ff021916908315150217905550612c1361263d565b73ffffffffffffffffffffffffffffffffffffffff168273ffffffffffffffffffffffffffffffffffffffff16847f2f8788117e7eff1d82e926ec794901d17c78024a50270940304540a733656f0d60405160405180910390a460019050612c7a565b5f90505b92915050565b5f612c8b8383611cbc565b15612d5f575f805f8581526020019081526020015f205f015f8473ffffffffffffffffffffffffffffffffffffffff1673ffffffffffffffffffffffffffffffffffffffff1681526020019081526020015f205f6101000a81548160ff021916908315150217905550612cfc61263d565b73ffffffffffffffffffffffffffffffffffffffff168273ffffffffffffffffffffffffffffffffffffffff16847ff6391f5c32d9c69d2a47ea670b442974b53935d1edc7fd64eb21e047a839171b60405160405180910390a460019050612d63565b5f90505b92915050565b5f818310612d775781612d79565b825b905092915050565b6040518060400160405280612d94612dfe565b8152602001612da1612da7565b81525090565b6040518060a001604052805f73ffffffffffffffffffffffffffffffffffffffff1681526020015f73ffffffffffffffffffffffffffffffffffffffff1681526020015f81526020015f8152602001606081525090565b604051806080016040528060608152602001606081526020015f81526020015f73ffffffffffffffffffffffffffffffffffffffff1681525090565b5f604051905090565b5f80fd5b5f80fd5b5f7fffffffff0000000000000000000000000000000000000000000000000000000082169050919050565b612e7f81612e4b565b8114612e89575f80fd5b50565b5f81359050612e9a81612e76565b92915050565b5f60208284031215612eb557612eb4612e43565b5b5f612ec284828501612e8c565b91505092915050565b5f8115159050919050565b612edf81612ecb565b82525050565b5f602082019050612ef85f830184612ed6565b92915050565b5f65ffffffffffff82169050919050565b612f1881612efe565b82525050565b5f602082019050612f315f830184612f0f565b92915050565b5f819050919050565b612f4981612f37565b82525050565b5f602082019050612f625f830184612f40565b92915050565b5f73ffffffffffffffffffffffffffffffffffffffff82169050919050565b5f612f9182612f68565b9050919050565b612fa181612f87565b8114612fab575f80fd5b50565b5f81359050612fbc81612f98565b92915050565b5f80fd5b5f80fd5b5f601f19601f8301169050919050565b7f4e487b71000000000000000000000000000000000000000000000000000000005f52604160045260245ffd5b61301082612fca565b810181811067ffffffffffffffff8211171561302f5761302e612fda565b5b80604052505050565b5f613041612e3a565b905061304d8282613007565b919050565b5f67ffffffffffffffff82111561306c5761306b612fda565b5b61307582612fca565b9050602081019050919050565b828183375f83830152505050565b5f6130a261309d84613052565b613038565b9050828152602081018484840111156130be576130bd612fc6565b5b6130c9848285613082565b509392505050565b5f82601f8301126130e5576130e4612fc2565b5b81356130f5848260208601613090565b91505092915050565b5f819050919050565b613110816130fe565b811461311a575f80fd5b50565b5f8135905061312b81613107565b92915050565b5f805f805f805f805f806101408b8d0312156131505761314f612e43565b5b5f61315d8d828e01612fae565b9a505060208b013567ffffffffffffffff81111561317e5761317d612e47565b5b61318a8d828e016130d1565b99505060408b013567ffffffffffffffff8111156131ab576131aa612e47565b5b6131b78d828e016130d1565b98505060606131c88d828e0161311d565b97505060806131d98d828e01612fae565b96505060a06131ea8d828e01612fae565b95505060c06131fb8d828e01612fae565b94505060e061320c8d828e0161311d565b93505061010061321e8d828e0161311d565b9250506101208b013567ffffffffffffffff8111156132405761323f612e47565b5b61324c8d828e016130d1565b9150509295989b9194979a5092959850565b61326781612f37565b8114613271575f80fd5b50565b5f813590506132828161325e565b92915050565b5f6020828403121561329d5761329c612e43565b5b5f6132aa84828501613274565b91505092915050565b5f80604083850312156132c9576132c8612e43565b5b5f6132d685828601612fae565b92505060206132e785828601613274565b9150509250929050565b5f806040838503121561330757613306612e43565b5b5f61331485828601612fae565b92505060206133258582860161311d565b9150509250929050565b5f81519050919050565b5f82825260208201905092915050565b5f5b8381101561336657808201518184015260208101905061334b565b5f8484015250505050565b5f61337b8261332f565b6133858185613339565b9350613395818560208601613349565b61339e81612fca565b840191505092915050565b6133b2816130fe565b82525050565b6133c181612f87565b82525050565b5f608083015f8301518482035f8601526133e18282613371565b915050602083015184820360208601526133fb8282613371565b915050604083015161341060408601826133a9565b50606083015161342360608601826133b8565b508091505092915050565b5f60a083015f8301516134435f8601826133b8565b50602083015161345660208601826133b8565b50604083015161346960408601826133a9565b50606083015161347c60608601826133a9565b50608083015184820360808601526134948282613371565b9150508091505092915050565b5f604083015f8301518482035f8601526134bb82826133c7565b915050602083015184820360208601526134d5828261342e565b9150508091505092915050565b5f6020820190508181035f8301526134fa81846134a1565b905092915050565b5f806040838503121561351857613517612e43565b5b5f61352585828601613274565b925050602061353685828601612fae565b9150509250929050565b5f6020828403121561355557613554612e43565b5b5f61356284828501612fae565b91505092915050565b5f805f6060848603121561358257613581612e43565b5b5f61358f86828701612fae565b93505060206135a086828701612fae565b92505060406135b18682870161311d565b9150509250925092565b6135c481612efe565b81146135ce575f80fd5b50565b5f813590506135df816135bb565b92915050565b5f602082840312156135fa576135f9612e43565b5b5f613607848285016135d1565b91505092915050565b5f806040838503121561362657613625612e43565b5b5f61363385828601612fae565b925050602061364485828601612fae565b9150509250929050565b5f805f805f60a0868803121561366757613666612e43565b5b5f61367488828901612fae565b955050602061368588828901612fae565b94505060406136968882890161311d565b93505060606136a78882890161311d565b925050608086013567ffffffffffffffff8111156136c8576136c7612e47565b5b6136d4888289016130d1565b9150509295509295909350565b5f60a083015f8301516136f65f8601826133b8565b50602083015161370960208601826133b8565b50604083015161371c60408601826133a9565b50606083015161372f60608601826133a9565b50608083015184820360808601526137478282613371565b9150508091505092915050565b5f6020820190508181035f83015261376c81846136e1565b905092915050565b61377d81612f87565b82525050565b5f6020820190506137965f830184613774565b92915050565b5f608083015f8301518482035f8601526137b68282613371565b915050602083015184820360208601526137d08282613371565b91505060408301516137e560408601826133a9565b5060608301516137f860608601826133b8565b508091505092915050565b5f6040820190508181035f83015261381b818561379c565b9050818103602083015261382f81846136e1565b90509392505050565b5f82825260208201905092915050565b5f6138528261332f565b61385c8185613838565b935061386c818560208601613349565b61387581612fca565b840191505092915050565b613889816130fe565b82525050565b5f60c0820190508181035f8301526138a78189613848565b905081810360208301526138bb8188613848565b905081810360408301526138cf8187613848565b905081810360608301526138e38186613848565b90506138f26080830185613880565b6138ff60a0830184612ed6565b979650505050505050565b5f60408201905061391d5f830185612f0f565b61392a6020830184612f0f565b9392505050565b5f805f806080858703121561394957613948612e43565b5b5f85013567ffffffffffffffff81111561396657613965612e47565b5b613972878288016130d1565b945050602085013567ffffffffffffffff81111561399357613992612e47565b5b61399f878288016130d1565b93505060406139b08782880161311d565b92505060606139c187828801612fae565b91505092959194509250565b5f6020820190508181035f8301526139e5818461379c565b905092915050565b5f604082019050613a005f830185613774565b613a0d6020830184612f0f565b9392505050565b5f805f805f8060c08789031215613a2e57613a2d612e43565b5b5f613a3b89828a01612fae565b965050602087013567ffffffffffffffff811115613a5c57613a5b612e47565b5b613a6889828a016130d1565b955050604087013567ffffffffffffffff811115613a8957613a88612e47565b5b613a9589828a016130d1565b945050606087013567ffffffffffffffff811115613ab657613ab5612e47565b5b613ac289828a016130d1565b935050608087013567ffffffffffffffff811115613ae357613ae2612e47565b5b613aef89828a016130d1565b92505060a0613b0089828a0161311d565b9150509295509295509295565b5f602082019050613b205f830184613880565b92915050565b7f4572726f723a20456e7465727072697365206e6f7420726567697374657265645f8201527f2e00000000000000000000000000000000000000000000000000000000000000602082015250565b5f613b80602183613838565b9150613b8b82613b26565b604082019050919050565b5f6020820190508181035f830152613bad81613b74565b9050919050565b7f4e487b71000000000000000000000000000000000000000000000000000000005f52602260045260245ffd5b5f6002820490506001821680613bf857607f821691505b602082108103613c0b57613c0a613bb4565b5b50919050565b5f819050815f5260205f209050919050565b5f6020601f8301049050919050565b5f82821b905092915050565b5f60088302613c6d7fffffffffffffffffffffffffffffffffffffffffffffffffffffffffffffffff82613c32565b613c778683613c32565b95508019841693508086168417925050509392505050565b5f819050919050565b5f613cb2613cad613ca8846130fe565b613c8f565b6130fe565b9050919050565b5f819050919050565b613ccb83613c98565b613cdf613cd782613cb9565b848454613c3e565b825550505050565b5f90565b613cf3613ce7565b613cfe818484613cc2565b505050565b5b81811015613d2157613d165f82613ceb565b600181019050613d04565b5050565b601f821115613d6657613d3781613c11565b613d4084613c23565b81016020851015613d4f578190505b613d63613d5b85613c23565b830182613d03565b50505b505050565b5f82821c905092915050565b5f613d865f1984600802613d6b565b1980831691505092915050565b5f613d9e8383613d77565b9150826002028217905092915050565b613db78261332f565b67ffffffffffffffff811115613dd057613dcf612fda565b5b613dda8254613be1565b613de5828285613d25565b5f60209050601f831160018114613e16575f8415613e04578287015190505b613e0e8582613d93565b865550613e75565b601f198416613e2486613c11565b5f5b82811015613e4b57848901518255600182019150602085019450602081019050613e26565b86831015613e685784890151613e64601f891682613d77565b8355505b6001600288020188555050505b505050505050565b7f4e487b71000000000000000000000000000000000000000000000000000000005f52601160045260245ffd5b5f613eb4826130fe565b91507fffffffffffffffffffffffffffffffffffffffffffffffffffffffffffffffff8203613ee657613ee5613e7d565b5b600182019050919050565b7f4572726f723a20456e7465727072697365206e6f7420726567697374657265645f82015250565b5f613f25602083613838565b9150613f3082613ef1565b602082019050919050565b5f6020820190508181035f830152613f5281613f19565b9050919050565b7f4572726f723a20496e76616c69642074726164654964000000000000000000005f82015250565b5f613f8d601683613838565b9150613f9882613f59565b602082019050919050565b5f6020820190508181035f830152613fba81613f81565b9050919050565b7f5468652046756e64696e6720506172747920686173206e6f20547261646520445f8201527f6174612061636365737300000000000000000000000000000000000000000000602082015250565b5f61401b602a83613838565b915061402682613fc1565b604082019050919050565b5f6020820190508181035f8301526140488161400f565b9050919050565b7f4572726f723a205f66756e64696e67506172747941646472206e6f742046554e5f8201527f44494e475f50415254595f524f4c450000000000000000000000000000000000602082015250565b5f6140a9602f83613838565b91506140b48261404f565b604082019050919050565b5f6020820190508181035f8301526140d68161409d565b9050919050565b7f4572726f72203a205468697320616464726573732068617320616c72656164795f8201527f206265656e206164646564206173206120656e74657270726973652e00000000602082015250565b5f614137603c83613838565b9150614142826140dd565b604082019050919050565b5f6020820190508181035f8301526141648161412b565b9050919050565b5f61417582612efe565b915061418083612efe565b9250828201905065ffffffffffff81111561419e5761419d613e7d565b5b92915050565b5f6040820190506141b75f830185613774565b6141c46020830184612f40565b9392505050565b5f819050919050565b5f60ff82169050919050565b5f6141fa6141f56141f0846141cb565b613c8f565b6141d4565b9050919050565b61420a816141e0565b82525050565b5f6040820190506142235f830185614201565b6142306020830184613880565b9392505050565b5f61424182612efe565b915061424c83612efe565b9250828203905065ffffffffffff81111561426a57614269613e7d565b5b9291505056fea264697066735822122011a46ca20c6df0865b0c142c1915f416a7054428ae70383a2238bffcb036734c64736f6c63430008180033",
			"opcodes": "PUSH1 0x80 PUSH1 0x40 MSTORE CALLVALUE DUP1 ISZERO PUSH3 0x10 JUMPI PUSH0 DUP1 REVERT JUMPDEST POP PUSH3 0x3F480 CALLER PUSH0 PUSH20 0xFFFFFFFFFFFFFFFFFFFFFFFFFFFFFFFFFFFFFFFF AND DUP2 PUSH20 0xFFFFFFFFFFFFFFFFFFFFFFFFFFFFFFFFFFFFFFFF AND SUB PUSH3 0x89 JUMPI PUSH0 PUSH1 0x40 MLOAD PUSH32 0xC22C802200000000000000000000000000000000000000000000000000000000 DUP2 MSTORE PUSH1 0x4 ADD PUSH3 0x80 SWAP2 SWAP1 PUSH3 0x459 JUMP JUMPDEST PUSH1 0x40 MLOAD DUP1 SWAP2 SUB SWAP1 REVERT JUMPDEST DUP2 PUSH1 0x1 PUSH1 0x1A PUSH2 0x100 EXP DUP2 SLOAD DUP2 PUSH6 0xFFFFFFFFFFFF MUL NOT AND SWAP1 DUP4 PUSH6 0xFFFFFFFFFFFF AND MUL OR SWAP1 SSTORE POP PUSH3 0xC2 PUSH0 DUP1 SHL DUP3 PUSH3 0x1AE PUSH1 0x20 SHL PUSH1 0x20 SHR JUMP JUMPDEST POP POP POP PUSH32 0x920994FC3BFE282F3F20CDCCF1B7C5E46C63D963E822D98EFFF90ABD41C12E21 PUSH1 0x9 PUSH0 DUP1 DUP2 MSTORE PUSH1 0x20 ADD SWAP1 DUP2 MSTORE PUSH1 0x20 ADD PUSH0 KECCAK256 DUP2 SWAP1 SSTORE POP PUSH32 0xFBE1AC7C192839090E0E8FE24586CBF0E3C232386B46344EE88BA44324DAEE07 PUSH1 0x9 PUSH0 PUSH1 0x1 DUP2 MSTORE PUSH1 0x20 ADD SWAP1 DUP2 MSTORE PUSH1 0x20 ADD PUSH0 KECCAK256 DUP2 SWAP1 SSTORE POP PUSH32 0xA9C97BA19A72E0DC76A63E7A2B58CCBE7F35241F6273BFC5067DFD03BF950C30 PUSH1 0x9 PUSH0 PUSH1 0x2 DUP2 MSTORE PUSH1 0x20 ADD SWAP1 DUP2 MSTORE PUSH1 0x20 ADD PUSH0 KECCAK256 DUP2 SWAP1 SSTORE POP PUSH32 0x80F9B792196F21120F021903634877A78A3DD5E8EF643701B99DAE7BB938062D PUSH1 0x9 PUSH0 PUSH1 0x3 DUP2 MSTORE PUSH1 0x20 ADD SWAP1 DUP2 MSTORE PUSH1 0x20 ADD PUSH0 KECCAK256 DUP2 SWAP1 SSTORE POP PUSH1 0x4 PUSH1 0x3 DUP2 SWAP1 SSTORE POP PUSH3 0x474 JUMP JUMPDEST PUSH0 DUP1 PUSH0 SHL DUP4 SUB PUSH3 0x26F JUMPI PUSH0 PUSH20 0xFFFFFFFFFFFFFFFFFFFFFFFFFFFFFFFFFFFFFFFF AND PUSH3 0x1E0 PUSH3 0x289 PUSH1 0x20 SHL PUSH1 0x20 SHR JUMP JUMPDEST PUSH20 0xFFFFFFFFFFFFFFFFFFFFFFFFFFFFFFFFFFFFFFFF AND EQ PUSH3 0x22E JUMPI PUSH1 0x40 MLOAD PUSH32 0x3FC3C27A00000000000000000000000000000000000000000000000000000000 DUP2 MSTORE PUSH1 0x4 ADD PUSH1 0x40 MLOAD DUP1 SWAP2 SUB SWAP1 REVERT JUMPDEST DUP2 PUSH1 0x2 PUSH0 PUSH2 0x100 EXP DUP2 SLOAD DUP2 PUSH20 0xFFFFFFFFFFFFFFFFFFFFFFFFFFFFFFFFFFFFFFFF MUL NOT AND SWAP1 DUP4 PUSH20 0xFFFFFFFFFFFFFFFFFFFFFFFFFFFFFFFFFFFFFFFF AND MUL OR SWAP1 SSTORE POP JUMPDEST PUSH3 0x281 DUP4 DUP4 PUSH3 0x2B1 PUSH1 0x20 SHL PUSH1 0x20 SHR JUMP JUMPDEST SWAP1 POP SWAP3 SWAP2 POP POP JUMP JUMPDEST PUSH0 PUSH1 0x2 PUSH0 SWAP1 SLOAD SWAP1 PUSH2 0x100 EXP SWAP1 DIV PUSH20 0xFFFFFFFFFFFFFFFFFFFFFFFFFFFFFFFFFFFFFFFF AND SWAP1 POP SWAP1 JUMP JUMPDEST PUSH0 PUSH3 0x2C4 DUP4 DUP4 PUSH3 0x3AC PUSH1 0x20 SHL PUSH1 0x20 SHR JUMP JUMPDEST PUSH3 0x3A2 JUMPI PUSH1 0x1 PUSH0 DUP1 DUP6 DUP2 MSTORE PUSH1 0x20 ADD SWAP1 DUP2 MSTORE PUSH1 0x20 ADD PUSH0 KECCAK256 PUSH0 ADD PUSH0 DUP5 PUSH20 0xFFFFFFFFFFFFFFFFFFFFFFFFFFFFFFFFFFFFFFFF AND PUSH20 0xFFFFFFFFFFFFFFFFFFFFFFFFFFFFFFFFFFFFFFFF AND DUP2 MSTORE PUSH1 0x20 ADD SWAP1 DUP2 MSTORE PUSH1 0x20 ADD PUSH0 KECCAK256 PUSH0 PUSH2 0x100 EXP DUP2 SLOAD DUP2 PUSH1 0xFF MUL NOT AND SWAP1 DUP4 ISZERO ISZERO MUL OR SWAP1 SSTORE POP PUSH3 0x33E PUSH3 0x40F PUSH1 0x20 SHL PUSH1 0x20 SHR JUMP JUMPDEST PUSH20 0xFFFFFFFFFFFFFFFFFFFFFFFFFFFFFFFFFFFFFFFF AND DUP3 PUSH20 0xFFFFFFFFFFFFFFFFFFFFFFFFFFFFFFFFFFFFFFFF AND DUP5 PUSH32 0x2F8788117E7EFF1D82E926EC794901D17C78024A50270940304540A733656F0D PUSH1 0x40 MLOAD PUSH1 0x40 MLOAD DUP1 SWAP2 SUB SWAP1 LOG4 PUSH1 0x1 SWAP1 POP PUSH3 0x3A6 JUMP JUMPDEST PUSH0 SWAP1 POP JUMPDEST SWAP3 SWAP2 POP POP JUMP JUMPDEST PUSH0 DUP1 PUSH0 DUP5 DUP2 MSTORE PUSH1 0x20 ADD SWAP1 DUP2 MSTORE PUSH1 0x20 ADD PUSH0 KECCAK256 PUSH0 ADD PUSH0 DUP4 PUSH20 0xFFFFFFFFFFFFFFFFFFFFFFFFFFFFFFFFFFFFFFFF AND PUSH20 0xFFFFFFFFFFFFFFFFFFFFFFFFFFFFFFFFFFFFFFFF AND DUP2 MSTORE PUSH1 0x20 ADD SWAP1 DUP2 MSTORE PUSH1 0x20 ADD PUSH0 KECCAK256 PUSH0 SWAP1 SLOAD SWAP1 PUSH2 0x100 EXP SWAP1 DIV PUSH1 0xFF AND SWAP1 POP SWAP3 SWAP2 POP POP JUMP JUMPDEST PUSH0 CALLER SWAP1 POP SWAP1 JUMP JUMPDEST PUSH0 PUSH20 0xFFFFFFFFFFFFFFFFFFFFFFFFFFFFFFFFFFFFFFFF DUP3 AND SWAP1 POP SWAP2 SWAP1 POP JUMP JUMPDEST PUSH0 PUSH3 0x441 DUP3 PUSH3 0x416 JUMP JUMPDEST SWAP1 POP SWAP2 SWAP1 POP JUMP JUMPDEST PUSH3 0x453 DUP2 PUSH3 0x435 JUMP JUMPDEST DUP3 MSTORE POP POP JUMP JUMPDEST PUSH0 PUSH1 0x20 DUP3 ADD SWAP1 POP PUSH3 0x46E PUSH0 DUP4 ADD DUP5 PUSH3 0x448 JUMP JUMPDEST SWAP3 SWAP2 POP POP JUMP JUMPDEST PUSH2 0x42A6 DUP1 PUSH3 0x482 PUSH0 CODECOPY PUSH0 RETURN INVALID PUSH1 0x80 PUSH1 0x40 MSTORE CALLVALUE DUP1 ISZERO PUSH2 0xF JUMPI PUSH0 DUP1 REVERT JUMPDEST POP PUSH1 0x4 CALLDATASIZE LT PUSH2 0x21A JUMPI PUSH0 CALLDATALOAD PUSH1 0xE0 SHR DUP1 PUSH4 0x84EF8FFC GT PUSH2 0x123 JUMPI DUP1 PUSH4 0xCC8463C8 GT PUSH2 0xAB JUMPI DUP1 PUSH4 0xD602B9FD GT PUSH2 0x7A JUMPI DUP1 PUSH4 0xD602B9FD EQ PUSH2 0x658 JUMPI DUP1 PUSH4 0xF98B5998 EQ PUSH2 0x662 JUMPI DUP1 PUSH4 0xFA7E6BF5 EQ PUSH2 0x67E JUMPI DUP1 PUSH4 0xFC04F4BA EQ PUSH2 0x6AE JUMPI DUP1 PUSH4 0xFC528482 EQ PUSH2 0x6CC JUMPI PUSH2 0x21A JUMP JUMPDEST DUP1 PUSH4 0xCC8463C8 EQ PUSH2 0x5F5 JUMPI DUP1 PUSH4 0xCEFC1429 EQ PUSH2 0x613 JUMPI DUP1 PUSH4 0xCF6EEFB7 EQ PUSH2 0x61D JUMPI DUP1 PUSH4 0xD547741F EQ PUSH2 0x63C JUMPI PUSH2 0x21A JUMP JUMPDEST DUP1 PUSH4 0xA10FD6D8 GT PUSH2 0xF2 JUMPI DUP1 PUSH4 0xA10FD6D8 EQ PUSH2 0x535 JUMPI DUP1 PUSH4 0xA1EDA53C EQ PUSH2 0x56A JUMPI DUP1 PUSH4 0xA217FDDF EQ PUSH2 0x589 JUMPI DUP1 PUSH4 0xB64A873C EQ PUSH2 0x5A7 JUMPI DUP1 PUSH4 0xBB618760 EQ PUSH2 0x5D7 JUMPI PUSH2 0x21A JUMP JUMPDEST DUP1 PUSH4 0x84EF8FFC EQ PUSH2 0x498 JUMPI DUP1 PUSH4 0x88560F91 EQ PUSH2 0x4B6 JUMPI DUP1 PUSH4 0x8DA5CB5B EQ PUSH2 0x4E7 JUMPI DUP1 PUSH4 0x91D14854 EQ PUSH2 0x505 JUMPI PUSH2 0x21A JUMP JUMPDEST DUP1 PUSH4 0x2F2FF15D GT PUSH2 0x1A6 JUMPI DUP1 PUSH4 0x634E93DA GT PUSH2 0x175 JUMPI DUP1 PUSH4 0x634E93DA EQ PUSH2 0x3F6 JUMPI DUP1 PUSH4 0x649A5EC7 EQ PUSH2 0x412 JUMPI DUP1 PUSH4 0x68DD17A5 EQ PUSH2 0x42E JUMPI DUP1 PUSH4 0x6C8C51E4 EQ PUSH2 0x44C JUMPI DUP1 PUSH4 0x6F476034 EQ PUSH2 0x468 JUMPI PUSH2 0x21A JUMP JUMPDEST DUP1 PUSH4 0x2F2FF15D EQ PUSH2 0x35E JUMPI DUP1 PUSH4 0x354C2BF8 EQ PUSH2 0x37A JUMPI DUP1 PUSH4 0x36568ABE EQ PUSH2 0x3AA JUMPI DUP1 PUSH4 0x59945AE7 EQ PUSH2 0x3C6 JUMPI PUSH2 0x21A JUMP JUMPDEST DUP1 PUSH4 0x1940767F GT PUSH2 0x1ED JUMPI DUP1 PUSH4 0x1940767F EQ PUSH2 0x294 JUMPI DUP1 PUSH4 0x248A9CA3 EQ PUSH2 0x2B0 JUMPI DUP1 PUSH4 0x279185A0 EQ PUSH2 0x2E0 JUMPI DUP1 PUSH4 0x2AE8A7E3 EQ PUSH2 0x2FE JUMPI DUP1 PUSH4 0x2BCD799E EQ PUSH2 0x32E JUMPI PUSH2 0x21A JUMP JUMPDEST DUP1 PUSH4 0x1FFC9A7 EQ PUSH2 0x21E JUMPI DUP1 PUSH4 0x22D63FB EQ PUSH2 0x24E JUMPI DUP1 PUSH4 0xAA6220B EQ PUSH2 0x26C JUMPI DUP1 PUSH4 0xCE526D1 EQ PUSH2 0x276 JUMPI JUMPDEST PUSH0 DUP1 REVERT JUMPDEST PUSH2 0x238 PUSH1 0x4 DUP1 CALLDATASIZE SUB DUP2 ADD SWAP1 PUSH2 0x233 SWAP2 SWAP1 PUSH2 0x2EA0 JUMP JUMPDEST PUSH2 0x6EA JUMP JUMPDEST PUSH1 0x40 MLOAD PUSH2 0x245 SWAP2 SWAP1 PUSH2 0x2EE5 JUMP JUMPDEST PUSH1 0x40 MLOAD DUP1 SWAP2 SUB SWAP1 RETURN JUMPDEST PUSH2 0x256 PUSH2 0x763 JUMP JUMPDEST PUSH1 0x40 MLOAD PUSH2 0x263 SWAP2 SWAP1 PUSH2 0x2F1E JUMP JUMPDEST PUSH1 0x40 MLOAD DUP1 SWAP2 SUB SWAP1 RETURN JUMPDEST PUSH2 0x274 PUSH2 0x76D JUMP JUMPDEST STOP JUMPDEST PUSH2 0x27E PUSH2 0x784 JUMP JUMPDEST PUSH1 0x40 MLOAD PUSH2 0x28B SWAP2 SWAP1 PUSH2 0x2F4F JUMP JUMPDEST PUSH1 0x40 MLOAD DUP1 SWAP2 SUB SWAP1 RETURN JUMPDEST PUSH2 0x2AE PUSH1 0x4 DUP1 CALLDATASIZE SUB DUP2 ADD SWAP1 PUSH2 0x2A9 SWAP2 SWAP1 PUSH2 0x3131 JUMP JUMPDEST PUSH2 0x7A8 JUMP JUMPDEST STOP JUMPDEST PUSH2 0x2CA PUSH1 0x4 DUP1 CALLDATASIZE SUB DUP2 ADD SWAP1 PUSH2 0x2C5 SWAP2 SWAP1 PUSH2 0x3288 JUMP JUMPDEST PUSH2 0xB92 JUMP JUMPDEST PUSH1 0x40 MLOAD PUSH2 0x2D7 SWAP2 SWAP1 PUSH2 0x2F4F JUMP JUMPDEST PUSH1 0x40 MLOAD DUP1 SWAP2 SUB SWAP1 RETURN JUMPDEST PUSH2 0x2E8 PUSH2 0xBAE JUMP JUMPDEST PUSH1 0x40 MLOAD PUSH2 0x2F5 SWAP2 SWAP1 PUSH2 0x2F4F JUMP JUMPDEST PUSH1 0x40 MLOAD DUP1 SWAP2 SUB SWAP1 RETURN JUMPDEST PUSH2 0x318 PUSH1 0x4 DUP1 CALLDATASIZE SUB DUP2 ADD SWAP1 PUSH2 0x313 SWAP2 SWAP1 PUSH2 0x32B3 JUMP JUMPDEST PUSH2 0xBD2 JUMP JUMPDEST PUSH1 0x40 MLOAD PUSH2 0x325 SWAP2 SWAP1 PUSH2 0x2EE5 JUMP JUMPDEST PUSH1 0x40 MLOAD DUP1 SWAP2 SUB SWAP1 RETURN JUMPDEST PUSH2 0x348 PUSH1 0x4 DUP1 CALLDATASIZE SUB DUP2 ADD SWAP1 PUSH2 0x343 SWAP2 SWAP1 PUSH2 0x32F1 JUMP JUMPDEST PUSH2 0xBF2 JUMP JUMPDEST PUSH1 0x40 MLOAD PUSH2 0x355 SWAP2 SWAP1 PUSH2 0x34E2 JUMP JUMPDEST PUSH1 0x40 MLOAD DUP1 SWAP2 SUB SWAP1 RETURN JUMPDEST PUSH2 0x378 PUSH1 0x4 DUP1 CALLDATASIZE SUB DUP2 ADD SWAP1 PUSH2 0x373 SWAP2 SWAP1 PUSH2 0x3502 JUMP JUMPDEST PUSH2 0x1086 JUMP JUMPDEST STOP JUMPDEST PUSH2 0x394 PUSH1 0x4 DUP1 CALLDATASIZE SUB DUP2 ADD SWAP1 PUSH2 0x38F SWAP2 SWAP1 PUSH2 0x3540 JUMP JUMPDEST PUSH2 0x10CF JUMP JUMPDEST PUSH1 0x40 MLOAD PUSH2 0x3A1 SWAP2 SWAP1 PUSH2 0x2EE5 JUMP JUMPDEST PUSH1 0x40 MLOAD DUP1 SWAP2 SUB SWAP1 RETURN JUMPDEST PUSH2 0x3C4 PUSH1 0x4 DUP1 CALLDATASIZE SUB DUP2 ADD SWAP1 PUSH2 0x3BF SWAP2 SWAP1 PUSH2 0x3502 JUMP JUMPDEST PUSH2 0x10EC JUMP JUMPDEST STOP JUMPDEST PUSH2 0x3E0 PUSH1 0x4 DUP1 CALLDATASIZE SUB DUP2 ADD SWAP1 PUSH2 0x3DB SWAP2 SWAP1 PUSH2 0x356B JUMP JUMPDEST PUSH2 0x11FE JUMP JUMPDEST PUSH1 0x40 MLOAD PUSH2 0x3ED SWAP2 SWAP1 PUSH2 0x34E2 JUMP JUMPDEST PUSH1 0x40 MLOAD DUP1 SWAP2 SUB SWAP1 RETURN JUMPDEST PUSH2 0x410 PUSH1 0x4 DUP1 CALLDATASIZE SUB DUP2 ADD SWAP1 PUSH2 0x40B SWAP2 SWAP1 PUSH2 0x3540 JUMP JUMPDEST PUSH2 0x171C JUMP JUMPDEST STOP JUMPDEST PUSH2 0x42C PUSH1 0x4 DUP1 CALLDATASIZE SUB DUP2 ADD SWAP1 PUSH2 0x427 SWAP2 SWAP1 PUSH2 0x35E5 JUMP JUMPDEST PUSH2 0x1735 JUMP JUMPDEST STOP JUMPDEST PUSH2 0x436 PUSH2 0x174E JUMP JUMPDEST PUSH1 0x40 MLOAD PUSH2 0x443 SWAP2 SWAP1 PUSH2 0x2F4F JUMP JUMPDEST PUSH1 0x40 MLOAD DUP1 SWAP2 SUB SWAP1 RETURN JUMPDEST PUSH2 0x466 PUSH1 0x4 DUP1 CALLDATASIZE SUB DUP2 ADD SWAP1 PUSH2 0x461 SWAP2 SWAP1 PUSH2 0x3610 JUMP JUMPDEST PUSH2 0x1772 JUMP JUMPDEST STOP JUMPDEST PUSH2 0x482 PUSH1 0x4 DUP1 CALLDATASIZE SUB DUP2 ADD SWAP1 PUSH2 0x47D SWAP2 SWAP1 PUSH2 0x364E JUMP JUMPDEST PUSH2 0x18EB JUMP JUMPDEST PUSH1 0x40 MLOAD PUSH2 0x48F SWAP2 SWAP1 PUSH2 0x3754 JUMP JUMPDEST PUSH1 0x40 MLOAD DUP1 SWAP2 SUB SWAP1 RETURN JUMPDEST PUSH2 0x4A0 PUSH2 0x197C JUMP JUMPDEST PUSH1 0x40 MLOAD PUSH2 0x4AD SWAP2 SWAP1 PUSH2 0x3783 JUMP JUMPDEST PUSH1 0x40 MLOAD DUP1 SWAP2 SUB SWAP1 RETURN JUMPDEST PUSH2 0x4D0 PUSH1 0x4 DUP1 CALLDATASIZE SUB DUP2 ADD SWAP1 PUSH2 0x4CB SWAP2 SWAP1 PUSH2 0x32F1 JUMP JUMPDEST PUSH2 0x19A4 JUMP JUMPDEST PUSH1 0x40 MLOAD PUSH2 0x4DE SWAP3 SWAP2 SWAP1 PUSH2 0x3803 JUMP JUMPDEST PUSH1 0x40 MLOAD DUP1 SWAP2 SUB SWAP1 RETURN JUMPDEST PUSH2 0x4EF PUSH2 0x1CAE JUMP JUMPDEST PUSH1 0x40 MLOAD PUSH2 0x4FC SWAP2 SWAP1 PUSH2 0x3783 JUMP JUMPDEST PUSH1 0x40 MLOAD DUP1 SWAP2 SUB SWAP1 RETURN JUMPDEST PUSH2 0x51F PUSH1 0x4 DUP1 CALLDATASIZE SUB DUP2 ADD SWAP1 PUSH2 0x51A SWAP2 SWAP1 PUSH2 0x3502 JUMP JUMPDEST PUSH2 0x1CBC JUMP JUMPDEST PUSH1 0x40 MLOAD PUSH2 0x52C SWAP2 SWAP1 PUSH2 0x2EE5 JUMP JUMPDEST PUSH1 0x40 MLOAD DUP1 SWAP2 SUB SWAP1 RETURN JUMPDEST PUSH2 0x54F PUSH1 0x4 DUP1 CALLDATASIZE SUB DUP2 ADD SWAP1 PUSH2 0x54A SWAP2 SWAP1 PUSH2 0x3540 JUMP JUMPDEST PUSH2 0x1D1F JUMP JUMPDEST PUSH1 0x40 MLOAD PUSH2 0x561 SWAP7 SWAP6 SWAP5 SWAP4 SWAP3 SWAP2 SWAP1 PUSH2 0x388F JUMP JUMPDEST PUSH1 0x40 MLOAD DUP1 SWAP2 SUB SWAP1 RETURN JUMPDEST PUSH2 0x572 PUSH2 0x1F7B JUMP JUMPDEST PUSH1 0x40 MLOAD PUSH2 0x580 SWAP3 SWAP2 SWAP1 PUSH2 0x390A JUMP JUMPDEST PUSH1 0x40 MLOAD DUP1 SWAP2 SUB SWAP1 RETURN JUMPDEST PUSH2 0x591 PUSH2 0x1FD9 JUMP JUMPDEST PUSH1 0x40 MLOAD PUSH2 0x59E SWAP2 SWAP1 PUSH2 0x2F4F JUMP JUMPDEST PUSH1 0x40 MLOAD DUP1 SWAP2 SUB SWAP1 RETURN JUMPDEST PUSH2 0x5C1 PUSH1 0x4 DUP1 CALLDATASIZE SUB DUP2 ADD SWAP1 PUSH2 0x5BC SWAP2 SWAP1 PUSH2 0x3931 JUMP JUMPDEST PUSH2 0x1FDF JUMP JUMPDEST PUSH1 0x40 MLOAD PUSH2 0x5CE SWAP2 SWAP1 PUSH2 0x39CD JUMP JUMPDEST PUSH1 0x40 MLOAD DUP1 SWAP2 SUB SWAP1 RETURN JUMPDEST PUSH2 0x5DF PUSH2 0x2053 JUMP JUMPDEST PUSH1 0x40 MLOAD PUSH2 0x5EC SWAP2 SWAP1 PUSH2 0x2F4F JUMP JUMPDEST PUSH1 0x40 MLOAD DUP1 SWAP2 SUB SWAP1 RETURN JUMPDEST PUSH2 0x5FD PUSH2 0x2077 JUMP JUMPDEST PUSH1 0x40 MLOAD PUSH2 0x60A SWAP2 SWAP1 PUSH2 0x2F1E JUMP JUMPDEST PUSH1 0x40 MLOAD DUP1 SWAP2 SUB SWAP1 RETURN JUMPDEST PUSH2 0x61B PUSH2 0x20E4 JUMP JUMPDEST STOP JUMPDEST PUSH2 0x625 PUSH2 0x2179 JUMP JUMPDEST PUSH1 0x40 MLOAD PUSH2 0x633 SWAP3 SWAP2 SWAP1 PUSH2 0x39ED JUMP JUMPDEST PUSH1 0x40 MLOAD DUP1 SWAP2 SUB SWAP1 RETURN JUMPDEST PUSH2 0x656 PUSH1 0x4 DUP1 CALLDATASIZE SUB DUP2 ADD SWAP1 PUSH2 0x651 SWAP2 SWAP1 PUSH2 0x3502 JUMP JUMPDEST PUSH2 0x21BA JUMP JUMPDEST STOP JUMPDEST PUSH2 0x660 PUSH2 0x2203 JUMP JUMPDEST STOP JUMPDEST PUSH2 0x67C PUSH1 0x4 DUP1 CALLDATASIZE SUB DUP2 ADD SWAP1 PUSH2 0x677 SWAP2 SWAP1 PUSH2 0x3A14 JUMP JUMPDEST PUSH2 0x221A JUMP JUMPDEST STOP JUMPDEST PUSH2 0x698 PUSH1 0x4 DUP1 CALLDATASIZE SUB DUP2 ADD SWAP1 PUSH2 0x693 SWAP2 SWAP1 PUSH2 0x3540 JUMP JUMPDEST PUSH2 0x23DF JUMP JUMPDEST PUSH1 0x40 MLOAD PUSH2 0x6A5 SWAP2 SWAP1 PUSH2 0x3B0D JUMP JUMPDEST PUSH1 0x40 MLOAD DUP1 SWAP2 SUB SWAP1 RETURN JUMPDEST PUSH2 0x6B6 PUSH2 0x23F4 JUMP JUMPDEST PUSH1 0x40 MLOAD PUSH2 0x6C3 SWAP2 SWAP1 PUSH2 0x3B0D JUMP JUMPDEST PUSH1 0x40 MLOAD DUP1 SWAP2 SUB SWAP1 RETURN JUMPDEST PUSH2 0x6D4 PUSH2 0x23FA JUMP JUMPDEST PUSH1 0x40 MLOAD PUSH2 0x6E1 SWAP2 SWAP1 PUSH2 0x3B0D JUMP JUMPDEST PUSH1 0x40 MLOAD DUP1 SWAP2 SUB SWAP1 RETURN JUMPDEST PUSH0 PUSH32 0x3149878600000000000000000000000000000000000000000000000000000000 PUSH28 0xFFFFFFFFFFFFFFFFFFFFFFFFFFFFFFFFFFFFFFFFFFFFFFFFFFFFFFFF NOT AND DUP3 PUSH28 0xFFFFFFFFFFFFFFFFFFFFFFFFFFFFFFFFFFFFFFFFFFFFFFFFFFFFFFFF NOT AND EQ DUP1 PUSH2 0x75C JUMPI POP PUSH2 0x75B DUP3 PUSH2 0x2400 JUMP JUMPDEST JUMPDEST SWAP1 POP SWAP2 SWAP1 POP JUMP JUMPDEST PUSH0 PUSH3 0x69780 SWAP1 POP SWAP1 JUMP JUMPDEST PUSH0 DUP1 SHL PUSH2 0x779 DUP2 PUSH2 0x2479 JUMP JUMPDEST PUSH2 0x781 PUSH2 0x248D JUMP JUMPDEST POP JUMP JUMPDEST PUSH32 0x80F9B792196F21120F021903634877A78A3DD5E8EF643701B99DAE7BB938062D DUP2 JUMP JUMPDEST PUSH32 0x920994FC3BFE282F3F20CDCCF1B7C5E46C63D963E822D98EFFF90ABD41C12E21 PUSH2 0x7D2 DUP2 PUSH2 0x2479 JUMP JUMPDEST PUSH1 0x5 PUSH0 DUP13 PUSH20 0xFFFFFFFFFFFFFFFFFFFFFFFFFFFFFFFFFFFFFFFF AND PUSH20 0xFFFFFFFFFFFFFFFFFFFFFFFFFFFFFFFFFFFFFFFF AND DUP2 MSTORE PUSH1 0x20 ADD SWAP1 DUP2 MSTORE PUSH1 0x20 ADD PUSH0 KECCAK256 PUSH1 0x5 ADD PUSH0 SWAP1 SLOAD SWAP1 PUSH2 0x100 EXP SWAP1 DIV PUSH1 0xFF AND PUSH2 0x85E JUMPI PUSH1 0x40 MLOAD PUSH32 0x8C379A000000000000000000000000000000000000000000000000000000000 DUP2 MSTORE PUSH1 0x4 ADD PUSH2 0x855 SWAP1 PUSH2 0x3B96 JUMP JUMPDEST PUSH1 0x40 MLOAD DUP1 SWAP2 SUB SWAP1 REVERT JUMPDEST PUSH1 0x40 MLOAD DUP1 PUSH1 0x80 ADD PUSH1 0x40 MSTORE DUP1 DUP12 DUP2 MSTORE PUSH1 0x20 ADD DUP11 DUP2 MSTORE PUSH1 0x20 ADD DUP10 DUP2 MSTORE PUSH1 0x20 ADD DUP9 PUSH20 0xFFFFFFFFFFFFFFFFFFFFFFFFFFFFFFFFFFFFFFFF AND DUP2 MSTORE POP PUSH1 0x7 PUSH0 DUP14 PUSH20 0xFFFFFFFFFFFFFFFFFFFFFFFFFFFFFFFFFFFFFFFF AND PUSH20 0xFFFFFFFFFFFFFFFFFFFFFFFFFFFFFFFFFFFFFFFF AND DUP2 MSTORE PUSH1 0x20 ADD SWAP1 DUP2 MSTORE PUSH1 0x20 ADD PUSH0 KECCAK256 PUSH0 PUSH1 0x6 PUSH0 DUP16 PUSH20 0xFFFFFFFFFFFFFFFFFFFFFFFFFFFFFFFFFFFFFFFF AND PUSH20 0xFFFFFFFFFFFFFFFFFFFFFFFFFFFFFFFFFFFFFFFF AND DUP2 MSTORE PUSH1 0x20 ADD SWAP1 DUP2 MSTORE PUSH1 0x20 ADD PUSH0 KECCAK256 SLOAD DUP2 MSTORE PUSH1 0x20 ADD SWAP1 DUP2 MSTORE PUSH1 0x20 ADD PUSH0 KECCAK256 PUSH0 ADD PUSH0 DUP3 ADD MLOAD DUP2 PUSH0 ADD SWAP1 DUP2 PUSH2 0x933 SWAP2 SWAP1 PUSH2 0x3DAE JUMP JUMPDEST POP PUSH1 0x20 DUP3 ADD MLOAD DUP2 PUSH1 0x1 ADD SWAP1 DUP2 PUSH2 0x949 SWAP2 SWAP1 PUSH2 0x3DAE JUMP JUMPDEST POP PUSH1 0x40 DUP3 ADD MLOAD DUP2 PUSH1 0x2 ADD SSTORE PUSH1 0x60 DUP3 ADD MLOAD DUP2 PUSH1 0x3 ADD PUSH0 PUSH2 0x100 EXP DUP2 SLOAD DUP2 PUSH20 0xFFFFFFFFFFFFFFFFFFFFFFFFFFFFFFFFFFFFFFFF MUL NOT AND SWAP1 DUP4 PUSH20 0xFFFFFFFFFFFFFFFFFFFFFFFFFFFFFFFFFFFFFFFF AND MUL OR SWAP1 SSTORE POP SWAP1 POP POP PUSH1 0x40 MLOAD DUP1 PUSH1 0xA0 ADD PUSH1 0x40 MSTORE DUP1 DUP8 PUSH20 0xFFFFFFFFFFFFFFFFFFFFFFFFFFFFFFFFFFFFFFFF AND DUP2 MSTORE PUSH1 0x20 ADD DUP7 PUSH20 0xFFFFFFFFFFFFFFFFFFFFFFFFFFFFFFFFFFFFFFFF AND DUP2 MSTORE PUSH1 0x20 ADD DUP6 DUP2 MSTORE PUSH1 0x20 ADD DUP5 DUP2 MSTORE PUSH1 0x20 ADD DUP4 DUP2 MSTORE POP PUSH1 0x7 PUSH0 DUP14 PUSH20 0xFFFFFFFFFFFFFFFFFFFFFFFFFFFFFFFFFFFFFFFF AND PUSH20 0xFFFFFFFFFFFFFFFFFFFFFFFFFFFFFFFFFFFFFFFF AND DUP2 MSTORE PUSH1 0x20 ADD SWAP1 DUP2 MSTORE PUSH1 0x20 ADD PUSH0 KECCAK256 PUSH0 PUSH1 0x6 PUSH0 DUP16 PUSH20 0xFFFFFFFFFFFFFFFFFFFFFFFFFFFFFFFFFFFFFFFF AND PUSH20 0xFFFFFFFFFFFFFFFFFFFFFFFFFFFFFFFFFFFFFFFF AND DUP2 MSTORE PUSH1 0x20 ADD SWAP1 DUP2 MSTORE PUSH1 0x20 ADD PUSH0 KECCAK256 SLOAD DUP2 MSTORE PUSH1 0x20 ADD SWAP1 DUP2 MSTORE PUSH1 0x20 ADD PUSH0 KECCAK256 PUSH1 0x4 ADD PUSH0 DUP3 ADD MLOAD DUP2 PUSH0 ADD PUSH0 PUSH2 0x100 EXP DUP2 SLOAD DUP2 PUSH20 0xFFFFFFFFFFFFFFFFFFFFFFFFFFFFFFFFFFFFFFFF MUL NOT AND SWAP1 DUP4 PUSH20 0xFFFFFFFFFFFFFFFFFFFFFFFFFFFFFFFFFFFFFFFF AND MUL OR SWAP1 SSTORE POP PUSH1 0x20 DUP3 ADD MLOAD DUP2 PUSH1 0x1 ADD PUSH0 PUSH2 0x100 EXP DUP2 SLOAD DUP2 PUSH20 0xFFFFFFFFFFFFFFFFFFFFFFFFFFFFFFFFFFFFFFFF MUL NOT AND SWAP1 DUP4 PUSH20 0xFFFFFFFFFFFFFFFFFFFFFFFFFFFFFFFFFFFFFFFF AND MUL OR SWAP1 SSTORE POP PUSH1 0x40 DUP3 ADD MLOAD DUP2 PUSH1 0x2 ADD SSTORE PUSH1 0x60 DUP3 ADD MLOAD DUP2 PUSH1 0x3 ADD SSTORE PUSH1 0x80 DUP3 ADD MLOAD DUP2 PUSH1 0x4 ADD SWAP1 DUP2 PUSH2 0xB2F SWAP2 SWAP1 PUSH2 0x3DAE JUMP JUMPDEST POP SWAP1 POP POP PUSH1 0x6 PUSH0 DUP13 PUSH20 0xFFFFFFFFFFFFFFFFFFFFFFFFFFFFFFFFFFFFFFFF AND PUSH20 0xFFFFFFFFFFFFFFFFFFFFFFFFFFFFFFFFFFFFFFFF AND DUP2 MSTORE PUSH1 0x20 ADD SWAP1 DUP2 MSTORE PUSH1 0x20 ADD PUSH0 KECCAK256 PUSH0 DUP2 SLOAD DUP1 SWAP3 SWAP2 SWAP1 PUSH2 0xB80 SWAP1 PUSH2 0x3EAA JUMP JUMPDEST SWAP2 SWAP1 POP SSTORE POP POP POP POP POP POP POP POP POP POP POP POP JUMP JUMPDEST PUSH0 DUP1 PUSH0 DUP4 DUP2 MSTORE PUSH1 0x20 ADD SWAP1 DUP2 MSTORE PUSH1 0x20 ADD PUSH0 KECCAK256 PUSH1 0x1 ADD SLOAD SWAP1 POP SWAP2 SWAP1 POP JUMP JUMPDEST PUSH32 0xFBE1AC7C192839090E0E8FE24586CBF0E3C232386B46344EE88BA44324DAEE07 DUP2 JUMP JUMPDEST PUSH0 DUP1 PUSH0 SHL PUSH2 0xBDF DUP2 PUSH2 0x2479 JUMP JUMPDEST PUSH2 0xBE9 DUP4 DUP6 PUSH2 0x1CBC JUMP JUMPDEST SWAP2 POP POP SWAP3 SWAP2 POP POP JUMP JUMPDEST PUSH2 0xBFA PUSH2 0x2D81 JUMP JUMPDEST PUSH32 0x920994FC3BFE282F3F20CDCCF1B7C5E46C63D963E822D98EFFF90ABD41C12E21 PUSH2 0xC24 DUP2 PUSH2 0x2479 JUMP JUMPDEST PUSH1 0x5 PUSH0 DUP6 PUSH20 0xFFFFFFFFFFFFFFFFFFFFFFFFFFFFFFFFFFFFFFFF AND PUSH20 0xFFFFFFFFFFFFFFFFFFFFFFFFFFFFFFFFFFFFFFFF AND DUP2 MSTORE PUSH1 0x20 ADD SWAP1 DUP2 MSTORE PUSH1 0x20 ADD PUSH0 KECCAK256 PUSH1 0x5 ADD PUSH0 SWAP1 SLOAD SWAP1 PUSH2 0x100 EXP SWAP1 DIV PUSH1 0xFF AND PUSH2 0xCB0 JUMPI PUSH1 0x40 MLOAD PUSH32 0x8C379A000000000000000000000000000000000000000000000000000000000 DUP2 MSTORE PUSH1 0x4 ADD PUSH2 0xCA7 SWAP1 PUSH2 0x3F3B JUMP JUMPDEST PUSH1 0x40 MLOAD DUP1 SWAP2 SUB SWAP1 REVERT JUMPDEST PUSH0 PUSH1 0x6 PUSH0 DUP7 PUSH20 0xFFFFFFFFFFFFFFFFFFFFFFFFFFFFFFFFFFFFFFFF AND PUSH20 0xFFFFFFFFFFFFFFFFFFFFFFFFFFFFFFFFFFFFFFFF AND DUP2 MSTORE PUSH1 0x20 ADD SWAP1 DUP2 MSTORE PUSH1 0x20 ADD PUSH0 KECCAK256 SLOAD SWAP1 POP DUP1 DUP5 LT PUSH2 0xD33 JUMPI PUSH1 0x40 MLOAD PUSH32 0x8C379A000000000000000000000000000000000000000000000000000000000 DUP2 MSTORE PUSH1 0x4 ADD PUSH2 0xD2A SWAP1 PUSH2 0x3FA3 JUMP JUMPDEST PUSH1 0x40 MLOAD DUP1 SWAP2 SUB SWAP1 REVERT JUMPDEST PUSH1 0x7 PUSH0 DUP7 PUSH20 0xFFFFFFFFFFFFFFFFFFFFFFFFFFFFFFFFFFFFFFFF AND PUSH20 0xFFFFFFFFFFFFFFFFFFFFFFFFFFFFFFFFFFFFFFFF AND DUP2 MSTORE PUSH1 0x20 ADD SWAP1 DUP2 MSTORE PUSH1 0x20 ADD PUSH0 KECCAK256 PUSH0 DUP6 DUP2 MSTORE PUSH1 0x20 ADD SWAP1 DUP2 MSTORE PUSH1 0x20 ADD PUSH0 KECCAK256 PUSH1 0x40 MLOAD DUP1 PUSH1 0x40 ADD PUSH1 0x40 MSTORE SWAP1 DUP2 PUSH0 DUP3 ADD PUSH1 0x40 MLOAD DUP1 PUSH1 0x80 ADD PUSH1 0x40 MSTORE SWAP1 DUP2 PUSH0 DUP3 ADD DUP1 SLOAD PUSH2 0xDA8 SWAP1 PUSH2 0x3BE1 JUMP JUMPDEST DUP1 PUSH1 0x1F ADD PUSH1 0x20 DUP1 SWAP2 DIV MUL PUSH1 0x20 ADD PUSH1 0x40 MLOAD SWAP1 DUP2 ADD PUSH1 0x40 MSTORE DUP1 SWAP3 SWAP2 SWAP1 DUP2 DUP2 MSTORE PUSH1 0x20 ADD DUP3 DUP1 SLOAD PUSH2 0xDD4 SWAP1 PUSH2 0x3BE1 JUMP JUMPDEST DUP1 ISZERO PUSH2 0xE1F JUMPI DUP1 PUSH1 0x1F LT PUSH2 0xDF6 JUMPI PUSH2 0x100 DUP1 DUP4 SLOAD DIV MUL DUP4 MSTORE SWAP2 PUSH1 0x20 ADD SWAP2 PUSH2 0xE1F JUMP JUMPDEST DUP3 ADD SWAP2 SWAP1 PUSH0 MSTORE PUSH1 0x20 PUSH0 KECCAK256 SWAP1 JUMPDEST DUP2 SLOAD DUP2 MSTORE SWAP1 PUSH1 0x1 ADD SWAP1 PUSH1 0x20 ADD DUP1 DUP4 GT PUSH2 0xE02 JUMPI DUP3 SWAP1 SUB PUSH1 0x1F AND DUP3 ADD SWAP2 JUMPDEST POP POP POP POP POP DUP2 MSTORE PUSH1 0x20 ADD PUSH1 0x1 DUP3 ADD DUP1 SLOAD PUSH2 0xE38 SWAP1 PUSH2 0x3BE1 JUMP JUMPDEST DUP1 PUSH1 0x1F ADD PUSH1 0x20 DUP1 SWAP2 DIV MUL PUSH1 0x20 ADD PUSH1 0x40 MLOAD SWAP1 DUP2 ADD PUSH1 0x40 MSTORE DUP1 SWAP3 SWAP2 SWAP1 DUP2 DUP2 MSTORE PUSH1 0x20 ADD DUP3 DUP1 SLOAD PUSH2 0xE64 SWAP1 PUSH2 0x3BE1 JUMP JUMPDEST DUP1 ISZERO PUSH2 0xEAF JUMPI DUP1 PUSH1 0x1F LT PUSH2 0xE86 JUMPI PUSH2 0x100 DUP1 DUP4 SLOAD DIV MUL DUP4 MSTORE SWAP2 PUSH1 0x20 ADD SWAP2 PUSH2 0xEAF JUMP JUMPDEST DUP3 ADD SWAP2 SWAP1 PUSH0 MSTORE PUSH1 0x20 PUSH0 KECCAK256 SWAP1 JUMPDEST DUP2 SLOAD DUP2 MSTORE SWAP1 PUSH1 0x1 ADD SWAP1 PUSH1 0x20 ADD DUP1 DUP4 GT PUSH2 0xE92 JUMPI DUP3 SWAP1 SUB PUSH1 0x1F AND DUP3 ADD SWAP2 JUMPDEST POP POP POP POP POP DUP2 MSTORE PUSH1 0x20 ADD PUSH1 0x2 DUP3 ADD SLOAD DUP2 MSTORE PUSH1 0x20 ADD PUSH1 0x3 DUP3 ADD PUSH0 SWAP1 SLOAD SWAP1 PUSH2 0x100 EXP SWAP1 DIV PUSH20 0xFFFFFFFFFFFFFFFFFFFFFFFFFFFFFFFFFFFFFFFF AND PUSH20 0xFFFFFFFFFFFFFFFFFFFFFFFFFFFFFFFFFFFFFFFF AND PUSH20 0xFFFFFFFFFFFFFFFFFFFFFFFFFFFFFFFFFFFFFFFF AND DUP2 MSTORE POP POP DUP2 MSTORE PUSH1 0x20 ADD PUSH1 0x4 DUP3 ADD PUSH1 0x40 MLOAD DUP1 PUSH1 0xA0 ADD PUSH1 0x40 MSTORE SWAP1 DUP2 PUSH0 DUP3 ADD PUSH0 SWAP1 SLOAD SWAP1 PUSH2 0x100 EXP SWAP1 DIV PUSH20 0xFFFFFFFFFFFFFFFFFFFFFFFFFFFFFFFFFFFFFFFF AND PUSH20 0xFFFFFFFFFFFFFFFFFFFFFFFFFFFFFFFFFFFFFFFF AND PUSH20 0xFFFFFFFFFFFFFFFFFFFFFFFFFFFFFFFFFFFFFFFF AND DUP2 MSTORE PUSH1 0x20 ADD PUSH1 0x1 DUP3 ADD PUSH0 SWAP1 SLOAD SWAP1 PUSH2 0x100 EXP SWAP1 DIV PUSH20 0xFFFFFFFFFFFFFFFFFFFFFFFFFFFFFFFFFFFFFFFF AND PUSH20 0xFFFFFFFFFFFFFFFFFFFFFFFFFFFFFFFFFFFFFFFF AND PUSH20 0xFFFFFFFFFFFFFFFFFFFFFFFFFFFFFFFFFFFFFFFF AND DUP2 MSTORE PUSH1 0x20 ADD PUSH1 0x2 DUP3 ADD SLOAD DUP2 MSTORE PUSH1 0x20 ADD PUSH1 0x3 DUP3 ADD SLOAD DUP2 MSTORE PUSH1 0x20 ADD PUSH1 0x4 DUP3 ADD DUP1 SLOAD PUSH2 0xFF8 SWAP1 PUSH2 0x3BE1 JUMP JUMPDEST DUP1 PUSH1 0x1F ADD PUSH1 0x20 DUP1 SWAP2 DIV MUL PUSH1 0x20 ADD PUSH1 0x40 MLOAD SWAP1 DUP2 ADD PUSH1 0x40 MSTORE DUP1 SWAP3 SWAP2 SWAP1 DUP2 DUP2 MSTORE PUSH1 0x20 ADD DUP3 DUP1 SLOAD PUSH2 0x1024 SWAP1 PUSH2 0x3BE1 JUMP JUMPDEST DUP1 ISZERO PUSH2 0x106F JUMPI DUP1 PUSH1 0x1F LT PUSH2 0x1046 JUMPI PUSH2 0x100 DUP1 DUP4 SLOAD DIV MUL DUP4 MSTORE SWAP2 PUSH1 0x20 ADD SWAP2 PUSH2 0x106F JUMP JUMPDEST DUP3 ADD SWAP2 SWAP1 PUSH0 MSTORE PUSH1 0x20 PUSH0 KECCAK256 SWAP1 JUMPDEST DUP2 SLOAD DUP2 MSTORE SWAP1 PUSH1 0x1 ADD SWAP1 PUSH1 0x20 ADD DUP1 DUP4 GT PUSH2 0x1052 JUMPI DUP3 SWAP1 SUB PUSH1 0x1F AND DUP3 ADD SWAP2 JUMPDEST POP POP POP POP POP DUP2 MSTORE POP POP DUP2 MSTORE POP POP SWAP3 POP POP POP SWAP3 SWAP2 POP POP JUMP JUMPDEST PUSH0 DUP1 SHL DUP3 SUB PUSH2 0x10C1 JUMPI PUSH1 0x40 MLOAD PUSH32 0x3FC3C27A00000000000000000000000000000000000000000000000000000000 DUP2 MSTORE PUSH1 0x4 ADD PUSH1 0x40 MLOAD DUP1 SWAP2 SUB SWAP1 REVERT JUMPDEST PUSH2 0x10CB DUP3 DUP3 PUSH2 0x2499 JUMP JUMPDEST POP POP JUMP JUMPDEST PUSH1 0x8 PUSH1 0x20 MSTORE DUP1 PUSH0 MSTORE PUSH1 0x40 PUSH0 KECCAK256 PUSH0 SWAP2 POP SLOAD SWAP1 PUSH2 0x100 EXP SWAP1 DIV PUSH1 0xFF AND DUP2 JUMP JUMPDEST PUSH0 DUP1 SHL DUP3 EQ DUP1 ISZERO PUSH2 0x112F JUMPI POP PUSH2 0x1100 PUSH2 0x197C JUMP JUMPDEST PUSH20 0xFFFFFFFFFFFFFFFFFFFFFFFFFFFFFFFFFFFFFFFF AND DUP2 PUSH20 0xFFFFFFFFFFFFFFFFFFFFFFFFFFFFFFFFFFFFFFFF AND EQ JUMPDEST ISZERO PUSH2 0x11F0 JUMPI PUSH0 DUP1 PUSH2 0x113E PUSH2 0x2179 JUMP JUMPDEST SWAP2 POP SWAP2 POP PUSH0 PUSH20 0xFFFFFFFFFFFFFFFFFFFFFFFFFFFFFFFFFFFFFFFF AND DUP3 PUSH20 0xFFFFFFFFFFFFFFFFFFFFFFFFFFFFFFFFFFFFFFFF AND EQ ISZERO DUP1 PUSH2 0x1183 JUMPI POP PUSH2 0x1181 DUP2 PUSH2 0x24BB JUMP JUMPDEST ISZERO JUMPDEST DUP1 PUSH2 0x1194 JUMPI POP PUSH2 0x1192 DUP2 PUSH2 0x24CF JUMP JUMPDEST ISZERO JUMPDEST ISZERO PUSH2 0x11D6 JUMPI DUP1 PUSH1 0x40 MLOAD PUSH32 0x19CA5EBB00000000000000000000000000000000000000000000000000000000 DUP2 MSTORE PUSH1 0x4 ADD PUSH2 0x11CD SWAP2 SWAP1 PUSH2 0x2F1E JUMP JUMPDEST PUSH1 0x40 MLOAD DUP1 SWAP2 SUB SWAP1 REVERT JUMPDEST PUSH1 0x1 PUSH1 0x14 PUSH2 0x100 EXP DUP2 SLOAD SWAP1 PUSH6 0xFFFFFFFFFFFF MUL NOT AND SWAP1 SSTORE POP POP JUMPDEST PUSH2 0x11FA DUP3 DUP3 PUSH2 0x24E2 JUMP JUMPDEST POP POP JUMP JUMPDEST PUSH2 0x1206 PUSH2 0x2D81 JUMP JUMPDEST PUSH32 0xFBE1AC7C192839090E0E8FE24586CBF0E3C232386B46344EE88BA44324DAEE07 PUSH2 0x1230 DUP2 PUSH2 0x2479 JUMP JUMPDEST PUSH1 0x5 PUSH0 DUP6 PUSH20 0xFFFFFFFFFFFFFFFFFFFFFFFFFFFFFFFFFFFFFFFF AND PUSH20 0xFFFFFFFFFFFFFFFFFFFFFFFFFFFFFFFFFFFFFFFF AND DUP2 MSTORE PUSH1 0x20 ADD SWAP1 DUP2 MSTORE PUSH1 0x20 ADD PUSH0 KECCAK256 PUSH1 0x5 ADD PUSH0 SWAP1 SLOAD SWAP1 PUSH2 0x100 EXP SWAP1 DIV PUSH1 0xFF AND PUSH2 0x12BC JUMPI PUSH1 0x40 MLOAD PUSH32 0x8C379A000000000000000000000000000000000000000000000000000000000 DUP2 MSTORE PUSH1 0x4 ADD PUSH2 0x12B3 SWAP1 PUSH2 0x3F3B JUMP JUMPDEST PUSH1 0x40 MLOAD DUP1 SWAP2 SUB SWAP1 REVERT JUMPDEST PUSH1 0x8 PUSH0 DUP7 PUSH20 0xFFFFFFFFFFFFFFFFFFFFFFFFFFFFFFFFFFFFFFFF AND PUSH20 0xFFFFFFFFFFFFFFFFFFFFFFFFFFFFFFFFFFFFFFFF AND DUP2 MSTORE PUSH1 0x20 ADD SWAP1 DUP2 MSTORE PUSH1 0x20 ADD PUSH0 KECCAK256 PUSH0 SWAP1 SLOAD SWAP1 PUSH2 0x100 EXP SWAP1 DIV PUSH1 0xFF AND PUSH2 0x1345 JUMPI PUSH1 0x40 MLOAD PUSH32 0x8C379A000000000000000000000000000000000000000000000000000000000 DUP2 MSTORE PUSH1 0x4 ADD PUSH2 0x133C SWAP1 PUSH2 0x4031 JUMP JUMPDEST PUSH1 0x40 MLOAD DUP1 SWAP2 SUB SWAP1 REVERT JUMPDEST PUSH0 PUSH1 0x6 PUSH0 DUP7 PUSH20 0xFFFFFFFFFFFFFFFFFFFFFFFFFFFFFFFFFFFFFFFF AND PUSH20 0xFFFFFFFFFFFFFFFFFFFFFFFFFFFFFFFFFFFFFFFF AND DUP2 MSTORE PUSH1 0x20 ADD SWAP1 DUP2 MSTORE PUSH1 0x20 ADD PUSH0 KECCAK256 SLOAD SWAP1 POP DUP1 DUP5 LT PUSH2 0x13C8 JUMPI PUSH1 0x40 MLOAD PUSH32 0x8C379A000000000000000000000000000000000000000000000000000000000 DUP2 MSTORE PUSH1 0x4 ADD PUSH2 0x13BF SWAP1 PUSH2 0x3FA3 JUMP JUMPDEST PUSH1 0x40 MLOAD DUP1 SWAP2 SUB SWAP1 REVERT JUMPDEST PUSH1 0x7 PUSH0 DUP7 PUSH20 0xFFFFFFFFFFFFFFFFFFFFFFFFFFFFFFFFFFFFFFFF AND PUSH20 0xFFFFFFFFFFFFFFFFFFFFFFFFFFFFFFFFFFFFFFFF AND DUP2 MSTORE PUSH1 0x20 ADD SWAP1 DUP2 MSTORE PUSH1 0x20 ADD PUSH0 KECCAK256 PUSH0 DUP6 DUP2 MSTORE PUSH1 0x20 ADD SWAP1 DUP2 MSTORE PUSH1 0x20 ADD PUSH0 KECCAK256 PUSH1 0x40 MLOAD DUP1 PUSH1 0x40 ADD PUSH1 0x40 MSTORE SWAP1 DUP2 PUSH0 DUP3 ADD PUSH1 0x40 MLOAD DUP1 PUSH1 0x80 ADD PUSH1 0x40 MSTORE SWAP1 DUP2 PUSH0 DUP3 ADD DUP1 SLOAD PUSH2 0x143D SWAP1 PUSH2 0x3BE1 JUMP JUMPDEST DUP1 PUSH1 0x1F ADD PUSH1 0x20 DUP1 SWAP2 DIV MUL PUSH1 0x20 ADD PUSH1 0x40 MLOAD SWAP1 DUP2 ADD PUSH1 0x40 MSTORE DUP1 SWAP3 SWAP2 SWAP1 DUP2 DUP2 MSTORE PUSH1 0x20 ADD DUP3 DUP1 SLOAD PUSH2 0x1469 SWAP1 PUSH2 0x3BE1 JUMP JUMPDEST DUP1 ISZERO PUSH2 0x14B4 JUMPI DUP1 PUSH1 0x1F LT PUSH2 0x148B JUMPI PUSH2 0x100 DUP1 DUP4 SLOAD DIV MUL DUP4 MSTORE SWAP2 PUSH1 0x20 ADD SWAP2 PUSH2 0x14B4 JUMP JUMPDEST DUP3 ADD SWAP2 SWAP1 PUSH0 MSTORE PUSH1 0x20 PUSH0 KECCAK256 SWAP1 JUMPDEST DUP2 SLOAD DUP2 MSTORE SWAP1 PUSH1 0x1 ADD SWAP1 PUSH1 0x20 ADD DUP1 DUP4 GT PUSH2 0x1497 JUMPI DUP3 SWAP1 SUB PUSH1 0x1F AND DUP3 ADD SWAP2 JUMPDEST POP POP POP POP POP DUP2 MSTORE PUSH1 0x20 ADD PUSH1 0x1 DUP3 ADD DUP1 SLOAD PUSH2 0x14CD SWAP1 PUSH2 0x3BE1 JUMP JUMPDEST DUP1 PUSH1 0x1F ADD PUSH1 0x20 DUP1 SWAP2 DIV MUL PUSH1 0x20 ADD PUSH1 0x40 MLOAD SWAP1 DUP2 ADD PUSH1 0x40 MSTORE DUP1 SWAP3 SWAP2 SWAP1 DUP2 DUP2 MSTORE PUSH1 0x20 ADD DUP3 DUP1 SLOAD PUSH2 0x14F9 SWAP1 PUSH2 0x3BE1 JUMP JUMPDEST DUP1 ISZERO PUSH2 0x1544 JUMPI DUP1 PUSH1 0x1F LT PUSH2 0x151B JUMPI PUSH2 0x100 DUP1 DUP4 SLOAD DIV MUL DUP4 MSTORE SWAP2 PUSH1 0x20 ADD SWAP2 PUSH2 0x1544 JUMP JUMPDEST DUP3 ADD SWAP2 SWAP1 PUSH0 MSTORE PUSH1 0x20 PUSH0 KECCAK256 SWAP1 JUMPDEST DUP2 SLOAD DUP2 MSTORE SWAP1 PUSH1 0x1 ADD SWAP1 PUSH1 0x20 ADD DUP1 DUP4 GT PUSH2 0x1527 JUMPI DUP3 SWAP1 SUB PUSH1 0x1F AND DUP3 ADD SWAP2 JUMPDEST POP POP POP POP POP DUP2 MSTORE PUSH1 0x20 ADD PUSH1 0x2 DUP3 ADD SLOAD DUP2 MSTORE PUSH1 0x20 ADD PUSH1 0x3 DUP3 ADD PUSH0 SWAP1 SLOAD SWAP1 PUSH2 0x100 EXP SWAP1 DIV PUSH20 0xFFFFFFFFFFFFFFFFFFFFFFFFFFFFFFFFFFFFFFFF AND PUSH20 0xFFFFFFFFFFFFFFFFFFFFFFFFFFFFFFFFFFFFFFFF AND PUSH20 0xFFFFFFFFFFFFFFFFFFFFFFFFFFFFFFFFFFFFFFFF AND DUP2 MSTORE POP POP DUP2 MSTORE PUSH1 0x20 ADD PUSH1 0x4 DUP3 ADD PUSH1 0x40 MLOAD DUP1 PUSH1 0xA0 ADD PUSH1 0x40 MSTORE SWAP1 DUP2 PUSH0 DUP3 ADD PUSH0 SWAP1 SLOAD SWAP1 PUSH2 0x100 EXP SWAP1 DIV PUSH20 0xFFFFFFFFFFFFFFFFFFFFFFFFFFFFFFFFFFFFFFFF AND PUSH20 0xFFFFFFFFFFFFFFFFFFFFFFFFFFFFFFFFFFFFFFFF AND PUSH20 0xFFFFFFFFFFFFFFFFFFFFFFFFFFFFFFFFFFFFFFFF AND DUP2 MSTORE PUSH1 0x20 ADD PUSH1 0x1 DUP3 ADD PUSH0 SWAP1 SLOAD SWAP1 PUSH2 0x100 EXP SWAP1 DIV PUSH20 0xFFFFFFFFFFFFFFFFFFFFFFFFFFFFFFFFFFFFFFFF AND PUSH20 0xFFFFFFFFFFFFFFFFFFFFFFFFFFFFFFFFFFFFFFFF AND PUSH20 0xFFFFFFFFFFFFFFFFFFFFFFFFFFFFFFFFFFFFFFFF AND DUP2 MSTORE PUSH1 0x20 ADD PUSH1 0x2 DUP3 ADD SLOAD DUP2 MSTORE PUSH1 0x20 ADD PUSH1 0x3 DUP3 ADD SLOAD DUP2 MSTORE PUSH1 0x20 ADD PUSH1 0x4 DUP3 ADD DUP1 SLOAD PUSH2 0x168D SWAP1 PUSH2 0x3BE1 JUMP JUMPDEST DUP1 PUSH1 0x1F ADD PUSH1 0x20 DUP1 SWAP2 DIV MUL PUSH1 0x20 ADD PUSH1 0x40 MLOAD SWAP1 DUP2 ADD PUSH1 0x40 MSTORE DUP1 SWAP3 SWAP2 SWAP1 DUP2 DUP2 MSTORE PUSH1 0x20 ADD DUP3 DUP1 SLOAD PUSH2 0x16B9 SWAP1 PUSH2 0x3BE1 JUMP JUMPDEST DUP1 ISZERO PUSH2 0x1704 JUMPI DUP1 PUSH1 0x1F LT PUSH2 0x16DB JUMPI PUSH2 0x100 DUP1 DUP4 SLOAD DIV MUL DUP4 MSTORE SWAP2 PUSH1 0x20 ADD SWAP2 PUSH2 0x1704 JUMP JUMPDEST DUP3 ADD SWAP2 SWAP1 PUSH0 MSTORE PUSH1 0x20 PUSH0 KECCAK256 SWAP1 JUMPDEST DUP2 SLOAD DUP2 MSTORE SWAP1 PUSH1 0x1 ADD SWAP1 PUSH1 0x20 ADD DUP1 DUP4 GT PUSH2 0x16E7 JUMPI DUP3 SWAP1 SUB PUSH1 0x1F AND DUP3 ADD SWAP2 JUMPDEST POP POP POP POP POP DUP2 MSTORE POP POP DUP2 MSTORE POP POP SWAP3 POP POP POP SWAP4 SWAP3 POP POP POP JUMP JUMPDEST PUSH0 DUP1 SHL PUSH2 0x1728 DUP2 PUSH2 0x2479 JUMP JUMPDEST PUSH2 0x1731 DUP3 PUSH2 0x255D JUMP JUMPDEST POP POP JUMP JUMPDEST PUSH0 DUP1 SHL PUSH2 0x1741 DUP2 PUSH2 0x2479 JUMP JUMPDEST PUSH2 0x174A DUP3 PUSH2 0x25D7 JUMP JUMPDEST POP POP JUMP JUMPDEST PUSH32 0x920994FC3BFE282F3F20CDCCF1B7C5E46C63D963E822D98EFFF90ABD41C12E21 DUP2 JUMP JUMPDEST PUSH32 0x920994FC3BFE282F3F20CDCCF1B7C5E46C63D963E822D98EFFF90ABD41C12E21 PUSH2 0x179C DUP2 PUSH2 0x2479 JUMP JUMPDEST PUSH1 0x5 PUSH0 DUP4 PUSH20 0xFFFFFFFFFFFFFFFFFFFFFFFFFFFFFFFFFFFFFFFF AND PUSH20 0xFFFFFFFFFFFFFFFFFFFFFFFFFFFFFFFFFFFFFFFF AND DUP2 MSTORE PUSH1 0x20 ADD SWAP1 DUP2 MSTORE PUSH1 0x20 ADD PUSH0 KECCAK256 PUSH1 0x5 ADD PUSH0 SWAP1 SLOAD SWAP1 PUSH2 0x100 EXP SWAP1 DIV PUSH1 0xFF AND PUSH2 0x1828 JUMPI PUSH1 0x40 MLOAD PUSH32 0x8C379A000000000000000000000000000000000000000000000000000000000 DUP2 MSTORE PUSH1 0x4 ADD PUSH2 0x181F SWAP1 PUSH2 0x3F3B JUMP JUMPDEST PUSH1 0x40 MLOAD DUP1 SWAP2 SUB SWAP1 REVERT JUMPDEST PUSH2 0x1852 PUSH32 0xFBE1AC7C192839090E0E8FE24586CBF0E3C232386B46344EE88BA44324DAEE07 DUP5 PUSH2 0x1CBC JUMP JUMPDEST PUSH2 0x1891 JUMPI PUSH1 0x40 MLOAD PUSH32 0x8C379A000000000000000000000000000000000000000000000000000000000 DUP2 MSTORE PUSH1 0x4 ADD PUSH2 0x1888 SWAP1 PUSH2 0x40BF JUMP JUMPDEST PUSH1 0x40 MLOAD DUP1 SWAP2 SUB SWAP1 REVERT JUMPDEST PUSH1 0x1 PUSH1 0x8 PUSH0 DUP6 PUSH20 0xFFFFFFFFFFFFFFFFFFFFFFFFFFFFFFFFFFFFFFFF AND PUSH20 0xFFFFFFFFFFFFFFFFFFFFFFFFFFFFFFFFFFFFFFFF AND DUP2 MSTORE PUSH1 0x20 ADD SWAP1 DUP2 MSTORE PUSH1 0x20 ADD PUSH0 KECCAK256 PUSH0 PUSH2 0x100 EXP DUP2 SLOAD DUP2 PUSH1 0xFF MUL NOT AND SWAP1 DUP4 ISZERO ISZERO MUL OR SWAP1 SSTORE POP POP POP POP JUMP JUMPDEST PUSH2 0x18F3 PUSH2 0x2DA7 JUMP JUMPDEST PUSH32 0x920994FC3BFE282F3F20CDCCF1B7C5E46C63D963E822D98EFFF90ABD41C12E21 PUSH2 0x191D DUP2 PUSH2 0x2479 JUMP JUMPDEST PUSH1 0x40 MLOAD DUP1 PUSH1 0xA0 ADD PUSH1 0x40 MSTORE DUP1 DUP9 PUSH20 0xFFFFFFFFFFFFFFFFFFFFFFFFFFFFFFFFFFFFFFFF AND DUP2 MSTORE PUSH1 0x20 ADD DUP8 PUSH20 0xFFFFFFFFFFFFFFFFFFFFFFFFFFFFFFFFFFFFFFFF AND DUP2 MSTORE PUSH1 0x20 ADD DUP7 DUP2 MSTORE PUSH1 0x20 ADD DUP6 DUP2 MSTORE PUSH1 0x20 ADD DUP5 DUP2 MSTORE POP SWAP2 POP POP SWAP6 SWAP5 POP POP POP POP POP JUMP JUMPDEST PUSH0 PUSH1 0x2 PUSH0 SWAP1 SLOAD SWAP1 PUSH2 0x100 EXP SWAP1 DIV PUSH20 0xFFFFFFFFFFFFFFFFFFFFFFFFFFFFFFFFFFFFFFFF AND SWAP1 POP SWAP1 JUMP JUMPDEST PUSH1 0x7 PUSH1 0x20 MSTORE DUP2 PUSH0 MSTORE PUSH1 0x40 PUSH0 KECCAK256 PUSH1 0x20 MSTORE DUP1 PUSH0 MSTORE PUSH1 0x40 PUSH0 KECCAK256 PUSH0 SWAP2 POP SWAP2 POP POP DUP1 PUSH0 ADD PUSH1 0x40 MLOAD DUP1 PUSH1 0x80 ADD PUSH1 0x40 MSTORE SWAP1 DUP2 PUSH0 DUP3 ADD DUP1 SLOAD PUSH2 0x19DD SWAP1 PUSH2 0x3BE1 JUMP JUMPDEST DUP1 PUSH1 0x1F ADD PUSH1 0x20 DUP1 SWAP2 DIV MUL PUSH1 0x20 ADD PUSH1 0x40 MLOAD SWAP1 DUP2 ADD PUSH1 0x40 MSTORE DUP1 SWAP3 SWAP2 SWAP1 DUP2 DUP2 MSTORE PUSH1 0x20 ADD DUP3 DUP1 SLOAD PUSH2 0x1A09 SWAP1 PUSH2 0x3BE1 JUMP JUMPDEST DUP1 ISZERO PUSH2 0x1A54 JUMPI DUP1 PUSH1 0x1F LT PUSH2 0x1A2B JUMPI PUSH2 0x100 DUP1 DUP4 SLOAD DIV MUL DUP4 MSTORE SWAP2 PUSH1 0x20 ADD SWAP2 PUSH2 0x1A54 JUMP JUMPDEST DUP3 ADD SWAP2 SWAP1 PUSH0 MSTORE PUSH1 0x20 PUSH0 KECCAK256 SWAP1 JUMPDEST DUP2 SLOAD DUP2 MSTORE SWAP1 PUSH1 0x1 ADD SWAP1 PUSH1 0x20 ADD DUP1 DUP4 GT PUSH2 0x1A37 JUMPI DUP3 SWAP1 SUB PUSH1 0x1F AND DUP3 ADD SWAP2 JUMPDEST POP POP POP POP POP DUP2 MSTORE PUSH1 0x20 ADD PUSH1 0x1 DUP3 ADD DUP1 SLOAD PUSH2 0x1A6D SWAP1 PUSH2 0x3BE1 JUMP JUMPDEST DUP1 PUSH1 0x1F ADD PUSH1 0x20 DUP1 SWAP2 DIV MUL PUSH1 0x20 ADD PUSH1 0x40 MLOAD SWAP1 DUP2 ADD PUSH1 0x40 MSTORE DUP1 SWAP3 SWAP2 SWAP1 DUP2 DUP2 MSTORE PUSH1 0x20 ADD DUP3 DUP1 SLOAD PUSH2 0x1A99 SWAP1 PUSH2 0x3BE1 JUMP JUMPDEST DUP1 ISZERO PUSH2 0x1AE4 JUMPI DUP1 PUSH1 0x1F LT PUSH2 0x1ABB JUMPI PUSH2 0x100 DUP1 DUP4 SLOAD DIV MUL DUP4 MSTORE SWAP2 PUSH1 0x20 ADD SWAP2 PUSH2 0x1AE4 JUMP JUMPDEST DUP3 ADD SWAP2 SWAP1 PUSH0 MSTORE PUSH1 0x20 PUSH0 KECCAK256 SWAP1 JUMPDEST DUP2 SLOAD DUP2 MSTORE SWAP1 PUSH1 0x1 ADD SWAP1 PUSH1 0x20 ADD DUP1 DUP4 GT PUSH2 0x1AC7 JUMPI DUP3 SWAP1 SUB PUSH1 0x1F AND DUP3 ADD SWAP2 JUMPDEST POP POP POP POP POP DUP2 MSTORE PUSH1 0x20 ADD PUSH1 0x2 DUP3 ADD SLOAD DUP2 MSTORE PUSH1 0x20 ADD PUSH1 0x3 DUP3 ADD PUSH0 SWAP1 SLOAD SWAP1 PUSH2 0x100 EXP SWAP1 DIV PUSH20 0xFFFFFFFFFFFFFFFFFFFFFFFFFFFFFFFFFFFFFFFF AND PUSH20 0xFFFFFFFFFFFFFFFFFFFFFFFFFFFFFFFFFFFFFFFF AND PUSH20 0xFFFFFFFFFFFFFFFFFFFFFFFFFFFFFFFFFFFFFFFF AND DUP2 MSTORE POP POP SWAP1 DUP1 PUSH1 0x4 ADD PUSH1 0x40 MLOAD DUP1 PUSH1 0xA0 ADD PUSH1 0x40 MSTORE SWAP1 DUP2 PUSH0 DUP3 ADD PUSH0 SWAP1 SLOAD SWAP1 PUSH2 0x100 EXP SWAP1 DIV PUSH20 0xFFFFFFFFFFFFFFFFFFFFFFFFFFFFFFFFFFFFFFFF AND PUSH20 0xFFFFFFFFFFFFFFFFFFFFFFFFFFFFFFFFFFFFFFFF AND PUSH20 0xFFFFFFFFFFFFFFFFFFFFFFFFFFFFFFFFFFFFFFFF AND DUP2 MSTORE PUSH1 0x20 ADD PUSH1 0x1 DUP3 ADD PUSH0 SWAP1 SLOAD SWAP1 PUSH2 0x100 EXP SWAP1 DIV PUSH20 0xFFFFFFFFFFFFFFFFFFFFFFFFFFFFFFFFFFFFFFFF AND PUSH20 0xFFFFFFFFFFFFFFFFFFFFFFFFFFFFFFFFFFFFFFFF AND PUSH20 0xFFFFFFFFFFFFFFFFFFFFFFFFFFFFFFFFFFFFFFFF AND DUP2 MSTORE PUSH1 0x20 ADD PUSH1 0x2 DUP3 ADD SLOAD DUP2 MSTORE PUSH1 0x20 ADD PUSH1 0x3 DUP3 ADD SLOAD DUP2 MSTORE PUSH1 0x20 ADD PUSH1 0x4 DUP3 ADD DUP1 SLOAD PUSH2 0x1C29 SWAP1 PUSH2 0x3BE1 JUMP JUMPDEST DUP1 PUSH1 0x1F ADD PUSH1 0x20 DUP1 SWAP2 DIV MUL PUSH1 0x20 ADD PUSH1 0x40 MLOAD SWAP1 DUP2 ADD PUSH1 0x40 MSTORE DUP1 SWAP3 SWAP2 SWAP1 DUP2 DUP2 MSTORE PUSH1 0x20 ADD DUP3 DUP1 SLOAD PUSH2 0x1C55 SWAP1 PUSH2 0x3BE1 JUMP JUMPDEST DUP1 ISZERO PUSH2 0x1CA0 JUMPI DUP1 PUSH1 0x1F LT PUSH2 0x1C77 JUMPI PUSH2 0x100 DUP1 DUP4 SLOAD DIV MUL DUP4 MSTORE SWAP2 PUSH1 0x20 ADD SWAP2 PUSH2 0x1CA0 JUMP JUMPDEST DUP3 ADD SWAP2 SWAP1 PUSH0 MSTORE PUSH1 0x20 PUSH0 KECCAK256 SWAP1 JUMPDEST DUP2 SLOAD DUP2 MSTORE SWAP1 PUSH1 0x1 ADD SWAP1 PUSH1 0x20 ADD DUP1 DUP4 GT PUSH2 0x1C83 JUMPI DUP3 SWAP1 SUB PUSH1 0x1F AND DUP3 ADD SWAP2 JUMPDEST POP POP POP POP POP DUP2 MSTORE POP POP SWAP1 POP DUP3 JUMP JUMPDEST PUSH0 PUSH2 0x1CB7 PUSH2 0x197C JUMP JUMPDEST SWAP1 POP SWAP1 JUMP JUMPDEST PUSH0 DUP1 PUSH0 DUP5 DUP2 MSTORE PUSH1 0x20 ADD SWAP1 DUP2 MSTORE PUSH1 0x20 ADD PUSH0 KECCAK256 PUSH0 ADD PUSH0 DUP4 PUSH20 0xFFFFFFFFFFFFFFFFFFFFFFFFFFFFFFFFFFFFFFFF AND PUSH20 0xFFFFFFFFFFFFFFFFFFFFFFFFFFFFFFFFFFFFFFFF AND DUP2 MSTORE PUSH1 0x20 ADD SWAP1 DUP2 MSTORE PUSH1 0x20 ADD PUSH0 KECCAK256 PUSH0 SWAP1 SLOAD SWAP1 PUSH2 0x100 EXP SWAP1 DIV PUSH1 0xFF AND SWAP1 POP SWAP3 SWAP2 POP POP JUMP JUMPDEST PUSH1 0x5 PUSH1 0x20 MSTORE DUP1 PUSH0 MSTORE PUSH1 0x40 PUSH0 KECCAK256 PUSH0 SWAP2 POP SWAP1 POP DUP1 PUSH0 ADD DUP1 SLOAD PUSH2 0x1D3E SWAP1 PUSH2 0x3BE1 JUMP JUMPDEST DUP1 PUSH1 0x1F ADD PUSH1 0x20 DUP1 SWAP2 DIV MUL PUSH1 0x20 ADD PUSH1 0x40 MLOAD SWAP1 DUP2 ADD PUSH1 0x40 MSTORE DUP1 SWAP3 SWAP2 SWAP1 DUP2 DUP2 MSTORE PUSH1 0x20 ADD DUP3 DUP1 SLOAD PUSH2 0x1D6A SWAP1 PUSH2 0x3BE1 JUMP JUMPDEST DUP1 ISZERO PUSH2 0x1DB5 JUMPI DUP1 PUSH1 0x1F LT PUSH2 0x1D8C JUMPI PUSH2 0x100 DUP1 DUP4 SLOAD DIV MUL DUP4 MSTORE SWAP2 PUSH1 0x20 ADD SWAP2 PUSH2 0x1DB5 JUMP JUMPDEST DUP3 ADD SWAP2 SWAP1 PUSH0 MSTORE PUSH1 0x20 PUSH0 KECCAK256 SWAP1 JUMPDEST DUP2 SLOAD DUP2 MSTORE SWAP1 PUSH1 0x1 ADD SWAP1 PUSH1 0x20 ADD DUP1 DUP4 GT PUSH2 0x1D98 JUMPI DUP3 SWAP1 SUB PUSH1 0x1F AND DUP3 ADD SWAP2 JUMPDEST POP POP POP POP POP SWAP1 DUP1 PUSH1 0x1 ADD DUP1 SLOAD PUSH2 0x1DCA SWAP1 PUSH2 0x3BE1 JUMP JUMPDEST DUP1 PUSH1 0x1F ADD PUSH1 0x20 DUP1 SWAP2 DIV MUL PUSH1 0x20 ADD PUSH1 0x40 MLOAD SWAP1 DUP2 ADD PUSH1 0x40 MSTORE DUP1 SWAP3 SWAP2 SWAP1 DUP2 DUP2 MSTORE PUSH1 0x20 ADD DUP3 DUP1 SLOAD PUSH2 0x1DF6 SWAP1 PUSH2 0x3BE1 JUMP JUMPDEST DUP1 ISZERO PUSH2 0x1E41 JUMPI DUP1 PUSH1 0x1F LT PUSH2 0x1E18 JUMPI PUSH2 0x100 DUP1 DUP4 SLOAD DIV MUL DUP4 MSTORE SWAP2 PUSH1 0x20 ADD SWAP2 PUSH2 0x1E41 JUMP JUMPDEST DUP3 ADD SWAP2 SWAP1 PUSH0 MSTORE PUSH1 0x20 PUSH0 KECCAK256 SWAP1 JUMPDEST DUP2 SLOAD DUP2 MSTORE SWAP1 PUSH1 0x1 ADD SWAP1 PUSH1 0x20 ADD DUP1 DUP4 GT PUSH2 0x1E24 JUMPI DUP3 SWAP1 SUB PUSH1 0x1F AND DUP3 ADD SWAP2 JUMPDEST POP POP POP POP POP SWAP1 DUP1 PUSH1 0x2 ADD DUP1 SLOAD PUSH2 0x1E56 SWAP1 PUSH2 0x3BE1 JUMP JUMPDEST DUP1 PUSH1 0x1F ADD PUSH1 0x20 DUP1 SWAP2 DIV MUL PUSH1 0x20 ADD PUSH1 0x40 MLOAD SWAP1 DUP2 ADD PUSH1 0x40 MSTORE DUP1 SWAP3 SWAP2 SWAP1 DUP2 DUP2 MSTORE PUSH1 0x20 ADD DUP3 DUP1 SLOAD PUSH2 0x1E82 SWAP1 PUSH2 0x3BE1 JUMP JUMPDEST DUP1 ISZERO PUSH2 0x1ECD JUMPI DUP1 PUSH1 0x1F LT PUSH2 0x1EA4 JUMPI PUSH2 0x100 DUP1 DUP4 SLOAD DIV MUL DUP4 MSTORE SWAP2 PUSH1 0x20 ADD SWAP2 PUSH2 0x1ECD JUMP JUMPDEST DUP3 ADD SWAP2 SWAP1 PUSH0 MSTORE PUSH1 0x20 PUSH0 KECCAK256 SWAP1 JUMPDEST DUP2 SLOAD DUP2 MSTORE SWAP1 PUSH1 0x1 ADD SWAP1 PUSH1 0x20 ADD DUP1 DUP4 GT PUSH2 0x1EB0 JUMPI DUP3 SWAP1 SUB PUSH1 0x1F AND DUP3 ADD SWAP2 JUMPDEST POP POP POP POP POP SWAP1 DUP1 PUSH1 0x3 ADD DUP1 SLOAD PUSH2 0x1EE2 SWAP1 PUSH2 0x3BE1 JUMP JUMPDEST DUP1 PUSH1 0x1F ADD PUSH1 0x20 DUP1 SWAP2 DIV MUL PUSH1 0x20 ADD PUSH1 0x40 MLOAD SWAP1 DUP2 ADD PUSH1 0x40 MSTORE DUP1 SWAP3 SWAP2 SWAP1 DUP2 DUP2 MSTORE PUSH1 0x20 ADD DUP3 DUP1 SLOAD PUSH2 0x1F0E SWAP1 PUSH2 0x3BE1 JUMP JUMPDEST DUP1 ISZERO PUSH2 0x1F59 JUMPI DUP1 PUSH1 0x1F LT PUSH2 0x1F30 JUMPI PUSH2 0x100 DUP1 DUP4 SLOAD DIV MUL DUP4 MSTORE SWAP2 PUSH1 0x20 ADD SWAP2 PUSH2 0x1F59 JUMP JUMPDEST DUP3 ADD SWAP2 SWAP1 PUSH0 MSTORE PUSH1 0x20 PUSH0 KECCAK256 SWAP1 JUMPDEST DUP2 SLOAD DUP2 MSTORE SWAP1 PUSH1 0x1 ADD SWAP1 PUSH1 0x20 ADD DUP1 DUP4 GT PUSH2 0x1F3C JUMPI DUP3 SWAP1 SUB PUSH1 0x1F AND DUP3 ADD SWAP2 JUMPDEST POP POP POP POP POP SWAP1 DUP1 PUSH1 0x4 ADD SLOAD SWAP1 DUP1 PUSH1 0x5 ADD PUSH0 SWAP1 SLOAD SWAP1 PUSH2 0x100 EXP SWAP1 DIV PUSH1 0xFF AND SWAP1 POP DUP7 JUMP JUMPDEST PUSH0 DUP1 PUSH1 0x2 PUSH1 0x1A SWAP1 SLOAD SWAP1 PUSH2 0x100 EXP SWAP1 DIV PUSH6 0xFFFFFFFFFFFF AND SWAP1 POP PUSH2 0x1F9D DUP2 PUSH2 0x24BB JUMP JUMPDEST DUP1 ISZERO PUSH2 0x1FAF JUMPI POP PUSH2 0x1FAD DUP2 PUSH2 0x24CF JUMP JUMPDEST ISZERO JUMPDEST PUSH2 0x1FBA JUMPI PUSH0 DUP1 PUSH2 0x1FD1 JUMP JUMPDEST PUSH1 0x2 PUSH1 0x14 SWAP1 SLOAD SWAP1 PUSH2 0x100 EXP SWAP1 DIV PUSH6 0xFFFFFFFFFFFF AND DUP2 JUMPDEST SWAP2 POP SWAP2 POP SWAP1 SWAP2 JUMP JUMPDEST PUSH0 DUP1 SHL DUP2 JUMP JUMPDEST PUSH2 0x1FE7 PUSH2 0x2DFE JUMP JUMPDEST PUSH32 0x920994FC3BFE282F3F20CDCCF1B7C5E46C63D963E822D98EFFF90ABD41C12E21 PUSH2 0x2011 DUP2 PUSH2 0x2479 JUMP JUMPDEST PUSH1 0x40 MLOAD DUP1 PUSH1 0x80 ADD PUSH1 0x40 MSTORE DUP1 DUP8 DUP2 MSTORE PUSH1 0x20 ADD DUP7 DUP2 MSTORE PUSH1 0x20 ADD DUP6 DUP2 MSTORE PUSH1 0x20 ADD DUP5 PUSH20 0xFFFFFFFFFFFFFFFFFFFFFFFFFFFFFFFFFFFFFFFF AND DUP2 MSTORE POP SWAP2 POP POP SWAP5 SWAP4 POP POP POP POP JUMP JUMPDEST PUSH32 0xA9C97BA19A72E0DC76A63E7A2B58CCBE7F35241F6273BFC5067DFD03BF950C30 DUP2 JUMP JUMPDEST PUSH0 DUP1 PUSH1 0x2 PUSH1 0x1A SWAP1 SLOAD SWAP1 PUSH2 0x100 EXP SWAP1 DIV PUSH6 0xFFFFFFFFFFFF AND SWAP1 POP PUSH2 0x2099 DUP2 PUSH2 0x24BB JUMP JUMPDEST DUP1 ISZERO PUSH2 0x20AA JUMPI POP PUSH2 0x20A9 DUP2 PUSH2 0x24CF JUMP JUMPDEST JUMPDEST PUSH2 0x20C8 JUMPI PUSH1 0x1 PUSH1 0x1A SWAP1 SLOAD SWAP1 PUSH2 0x100 EXP SWAP1 DIV PUSH6 0xFFFFFFFFFFFF AND PUSH2 0x20DE JUMP JUMPDEST PUSH1 0x2 PUSH1 0x14 SWAP1 SLOAD SWAP1 PUSH2 0x100 EXP SWAP1 DIV PUSH6 0xFFFFFFFFFFFF AND JUMPDEST SWAP2 POP POP SWAP1 JUMP JUMPDEST PUSH0 PUSH2 0x20ED PUSH2 0x2179 JUMP JUMPDEST POP SWAP1 POP DUP1 PUSH20 0xFFFFFFFFFFFFFFFFFFFFFFFFFFFFFFFFFFFFFFFF AND PUSH2 0x210F PUSH2 0x263D JUMP JUMPDEST PUSH20 0xFFFFFFFFFFFFFFFFFFFFFFFFFFFFFFFFFFFFFFFF AND EQ PUSH2 0x216E JUMPI PUSH2 0x2132 PUSH2 0x263D JUMP JUMPDEST PUSH1 0x40 MLOAD PUSH32 0xC22C802200000000000000000000000000000000000000000000000000000000 DUP2 MSTORE PUSH1 0x4 ADD PUSH2 0x2165 SWAP2 SWAP1 PUSH2 0x3783 JUMP JUMPDEST PUSH1 0x40 MLOAD DUP1 SWAP2 SUB SWAP1 REVERT JUMPDEST PUSH2 0x2176 PUSH2 0x2644 JUMP JUMPDEST POP JUMP JUMPDEST PUSH0 DUP1 PUSH1 0x1 PUSH0 SWAP1 SLOAD SWAP1 PUSH2 0x100 EXP SWAP1 DIV PUSH20 0xFFFFFFFFFFFFFFFFFFFFFFFFFFFFFFFFFFFFFFFF AND PUSH1 0x1 PUSH1 0x14 SWAP1 SLOAD SWAP1 PUSH2 0x100 EXP SWAP1 DIV PUSH6 0xFFFFFFFFFFFF AND SWAP2 POP SWAP2 POP SWAP1 SWAP2 JUMP JUMPDEST PUSH0 DUP1 SHL DUP3 SUB PUSH2 0x21F5 JUMPI PUSH1 0x40 MLOAD PUSH32 0x3FC3C27A00000000000000000000000000000000000000000000000000000000 DUP2 MSTORE PUSH1 0x4 ADD PUSH1 0x40 MLOAD DUP1 SWAP2 SUB SWAP1 REVERT JUMPDEST PUSH2 0x21FF DUP3 DUP3 PUSH2 0x270F JUMP JUMPDEST POP POP JUMP JUMPDEST PUSH0 DUP1 SHL PUSH2 0x220F DUP2 PUSH2 0x2479 JUMP JUMPDEST PUSH2 0x2217 PUSH2 0x2731 JUMP JUMPDEST POP JUMP JUMPDEST PUSH0 DUP1 SHL PUSH2 0x2226 DUP2 PUSH2 0x2479 JUMP JUMPDEST PUSH0 ISZERO ISZERO PUSH1 0x5 PUSH0 DUP10 PUSH20 0xFFFFFFFFFFFFFFFFFFFFFFFFFFFFFFFFFFFFFFFF AND PUSH20 0xFFFFFFFFFFFFFFFFFFFFFFFFFFFFFFFFFFFFFFFF AND DUP2 MSTORE PUSH1 0x20 ADD SWAP1 DUP2 MSTORE PUSH1 0x20 ADD PUSH0 KECCAK256 PUSH1 0x5 ADD PUSH0 SWAP1 SLOAD SWAP1 PUSH2 0x100 EXP SWAP1 DIV PUSH1 0xFF AND ISZERO ISZERO EQ PUSH2 0x22B8 JUMPI PUSH1 0x40 MLOAD PUSH32 0x8C379A000000000000000000000000000000000000000000000000000000000 DUP2 MSTORE PUSH1 0x4 ADD PUSH2 0x22AF SWAP1 PUSH2 0x414D JUMP JUMPDEST PUSH1 0x40 MLOAD DUP1 SWAP2 SUB SWAP1 REVERT JUMPDEST PUSH0 PUSH1 0x40 MLOAD DUP1 PUSH1 0xC0 ADD PUSH1 0x40 MSTORE DUP1 DUP9 DUP2 MSTORE PUSH1 0x20 ADD DUP8 DUP2 MSTORE PUSH1 0x20 ADD DUP7 DUP2 MSTORE PUSH1 0x20 ADD DUP6 DUP2 MSTORE PUSH1 0x20 ADD DUP5 DUP2 MSTORE PUSH1 0x20 ADD PUSH1 0x1 ISZERO ISZERO DUP2 MSTORE POP SWAP1 POP DUP1 PUSH1 0x5 PUSH0 DUP11 PUSH20 0xFFFFFFFFFFFFFFFFFFFFFFFFFFFFFFFFFFFFFFFF AND PUSH20 0xFFFFFFFFFFFFFFFFFFFFFFFFFFFFFFFFFFFFFFFF AND DUP2 MSTORE PUSH1 0x20 ADD SWAP1 DUP2 MSTORE PUSH1 0x20 ADD PUSH0 KECCAK256 PUSH0 DUP3 ADD MLOAD DUP2 PUSH0 ADD SWAP1 DUP2 PUSH2 0x233C SWAP2 SWAP1 PUSH2 0x3DAE JUMP JUMPDEST POP PUSH1 0x20 DUP3 ADD MLOAD DUP2 PUSH1 0x1 ADD SWAP1 DUP2 PUSH2 0x2352 SWAP2 SWAP1 PUSH2 0x3DAE JUMP JUMPDEST POP PUSH1 0x40 DUP3 ADD MLOAD DUP2 PUSH1 0x2 ADD SWAP1 DUP2 PUSH2 0x2368 SWAP2 SWAP1 PUSH2 0x3DAE JUMP JUMPDEST POP PUSH1 0x60 DUP3 ADD MLOAD DUP2 PUSH1 0x3 ADD SWAP1 DUP2 PUSH2 0x237E SWAP2 SWAP1 PUSH2 0x3DAE JUMP JUMPDEST POP PUSH1 0x80 DUP3 ADD MLOAD DUP2 PUSH1 0x4 ADD SSTORE PUSH1 0xA0 DUP3 ADD MLOAD DUP2 PUSH1 0x5 ADD PUSH0 PUSH2 0x100 EXP DUP2 SLOAD DUP2 PUSH1 0xFF MUL NOT AND SWAP1 DUP4 ISZERO ISZERO MUL OR SWAP1 SSTORE POP SWAP1 POP POP PUSH2 0x23D5 PUSH32 0x920994FC3BFE282F3F20CDCCF1B7C5E46C63D963E822D98EFFF90ABD41C12E21 DUP10 PUSH2 0x1086 JUMP JUMPDEST POP POP POP POP POP POP POP POP JUMP JUMPDEST PUSH1 0x6 PUSH1 0x20 MSTORE DUP1 PUSH0 MSTORE PUSH1 0x40 PUSH0 KECCAK256 PUSH0 SWAP2 POP SWAP1 POP SLOAD DUP2 JUMP JUMPDEST PUSH1 0x3 SLOAD DUP2 JUMP JUMPDEST PUSH1 0x4 SLOAD DUP2 JUMP JUMPDEST PUSH0 PUSH32 0x7965DB0B00000000000000000000000000000000000000000000000000000000 PUSH28 0xFFFFFFFFFFFFFFFFFFFFFFFFFFFFFFFFFFFFFFFFFFFFFFFFFFFFFFFF NOT AND DUP3 PUSH28 0xFFFFFFFFFFFFFFFFFFFFFFFFFFFFFFFFFFFFFFFFFFFFFFFFFFFFFFFF NOT AND EQ DUP1 PUSH2 0x2472 JUMPI POP PUSH2 0x2471 DUP3 PUSH2 0x273D JUMP JUMPDEST JUMPDEST SWAP1 POP SWAP2 SWAP1 POP JUMP JUMPDEST PUSH2 0x248A DUP2 PUSH2 0x2485 PUSH2 0x263D JUMP JUMPDEST PUSH2 0x27A6 JUMP JUMPDEST POP JUMP JUMPDEST PUSH2 0x2497 PUSH0 DUP1 PUSH2 0x27F7 JUMP JUMPDEST JUMP JUMPDEST PUSH2 0x24A2 DUP3 PUSH2 0xB92 JUMP JUMPDEST PUSH2 0x24AB DUP2 PUSH2 0x2479 JUMP JUMPDEST PUSH2 0x24B5 DUP4 DUP4 PUSH2 0x28E6 JUMP JUMPDEST POP POP POP POP JUMP JUMPDEST PUSH0 DUP1 DUP3 PUSH6 0xFFFFFFFFFFFF AND EQ ISZERO SWAP1 POP SWAP2 SWAP1 POP JUMP JUMPDEST PUSH0 TIMESTAMP DUP3 PUSH6 0xFFFFFFFFFFFF AND LT SWAP1 POP SWAP2 SWAP1 POP JUMP JUMPDEST PUSH2 0x24EA PUSH2 0x263D JUMP JUMPDEST PUSH20 0xFFFFFFFFFFFFFFFFFFFFFFFFFFFFFFFFFFFFFFFF AND DUP2 PUSH20 0xFFFFFFFFFFFFFFFFFFFFFFFFFFFFFFFFFFFFFFFF AND EQ PUSH2 0x254E JUMPI PUSH1 0x40 MLOAD PUSH32 0x6697B23200000000000000000000000000000000000000000000000000000000 DUP2 MSTORE PUSH1 0x4 ADD PUSH1 0x40 MLOAD DUP1 SWAP2 SUB SWAP1 REVERT JUMPDEST PUSH2 0x2558 DUP3 DUP3 PUSH2 0x29AF JUMP JUMPDEST POP POP POP JUMP JUMPDEST PUSH0 PUSH2 0x2566 PUSH2 0x2077 JUMP JUMPDEST PUSH2 0x256F TIMESTAMP PUSH2 0x2A2F JUMP JUMPDEST PUSH2 0x2579 SWAP2 SWAP1 PUSH2 0x416B JUMP JUMPDEST SWAP1 POP PUSH2 0x2585 DUP3 DUP3 PUSH2 0x2A88 JUMP JUMPDEST DUP2 PUSH20 0xFFFFFFFFFFFFFFFFFFFFFFFFFFFFFFFFFFFFFFFF AND PUSH32 0x3377DC44241E779DD06AFAB5B788A35CA5F3B778836E2990BDB26A2A4B2E5ED6 DUP3 PUSH1 0x40 MLOAD PUSH2 0x25CB SWAP2 SWAP1 PUSH2 0x2F1E JUMP JUMPDEST PUSH1 0x40 MLOAD DUP1 SWAP2 SUB SWAP1 LOG2 POP POP JUMP JUMPDEST PUSH0 PUSH2 0x25E1 DUP3 PUSH2 0x2B39 JUMP JUMPDEST PUSH2 0x25EA TIMESTAMP PUSH2 0x2A2F JUMP JUMPDEST PUSH2 0x25F4 SWAP2 SWAP1 PUSH2 0x416B JUMP JUMPDEST SWAP1 POP PUSH2 0x2600 DUP3 DUP3 PUSH2 0x27F7 JUMP JUMPDEST PUSH32 0xF1038C18CF84A56E432FDBFAF746924B7EA511DFE03A6506A0CEBA4888788D9B DUP3 DUP3 PUSH1 0x40 MLOAD PUSH2 0x2631 SWAP3 SWAP2 SWAP1 PUSH2 0x390A JUMP JUMPDEST PUSH1 0x40 MLOAD DUP1 SWAP2 SUB SWAP1 LOG1 POP POP JUMP JUMPDEST PUSH0 CALLER SWAP1 POP SWAP1 JUMP JUMPDEST PUSH0 DUP1 PUSH2 0x264E PUSH2 0x2179 JUMP JUMPDEST SWAP2 POP SWAP2 POP PUSH2 0x265B DUP2 PUSH2 0x24BB JUMP JUMPDEST ISZERO DUP1 PUSH2 0x266D JUMPI POP PUSH2 0x266B DUP2 PUSH2 0x24CF JUMP JUMPDEST ISZERO JUMPDEST ISZERO PUSH2 0x26AF JUMPI DUP1 PUSH1 0x40 MLOAD PUSH32 0x19CA5EBB00000000000000000000000000000000000000000000000000000000 DUP2 MSTORE PUSH1 0x4 ADD PUSH2 0x26A6 SWAP2 SWAP1 PUSH2 0x2F1E JUMP JUMPDEST PUSH1 0x40 MLOAD DUP1 SWAP2 SUB SWAP1 REVERT JUMPDEST PUSH2 0x26C2 PUSH0 DUP1 SHL PUSH2 0x26BD PUSH2 0x197C JUMP JUMPDEST PUSH2 0x29AF JUMP JUMPDEST POP PUSH2 0x26CF PUSH0 DUP1 SHL DUP4 PUSH2 0x28E6 JUMP JUMPDEST POP PUSH1 0x1 PUSH0 PUSH2 0x100 EXP DUP2 SLOAD SWAP1 PUSH20 0xFFFFFFFFFFFFFFFFFFFFFFFFFFFFFFFFFFFFFFFF MUL NOT AND SWAP1 SSTORE PUSH1 0x1 PUSH1 0x14 PUSH2 0x100 EXP DUP2 SLOAD SWAP1 PUSH6 0xFFFFFFFFFFFF MUL NOT AND SWAP1 SSTORE POP POP JUMP JUMPDEST PUSH2 0x2718 DUP3 PUSH2 0xB92 JUMP JUMPDEST PUSH2 0x2721 DUP2 PUSH2 0x2479 JUMP JUMPDEST PUSH2 0x272B DUP4 DUP4 PUSH2 0x29AF JUMP JUMPDEST POP POP POP POP JUMP JUMPDEST PUSH2 0x273B PUSH0 DUP1 PUSH2 0x2A88 JUMP JUMPDEST JUMP JUMPDEST PUSH0 PUSH32 0x1FFC9A700000000000000000000000000000000000000000000000000000000 PUSH28 0xFFFFFFFFFFFFFFFFFFFFFFFFFFFFFFFFFFFFFFFFFFFFFFFFFFFFFFFF NOT AND DUP3 PUSH28 0xFFFFFFFFFFFFFFFFFFFFFFFFFFFFFFFFFFFFFFFFFFFFFFFFFFFFFFFF NOT AND EQ SWAP1 POP SWAP2 SWAP1 POP JUMP JUMPDEST PUSH2 0x27B0 DUP3 DUP3 PUSH2 0x1CBC JUMP JUMPDEST PUSH2 0x27F3 JUMPI DUP1 DUP3 PUSH1 0x40 MLOAD PUSH32 0xE2517D3F00000000000000000000000000000000000000000000000000000000 DUP2 MSTORE PUSH1 0x4 ADD PUSH2 0x27EA SWAP3 SWAP2 SWAP1 PUSH2 0x41A4 JUMP JUMPDEST PUSH1 0x40 MLOAD DUP1 SWAP2 SUB SWAP1 REVERT JUMPDEST POP POP JUMP JUMPDEST PUSH0 PUSH1 0x2 PUSH1 0x1A SWAP1 SLOAD SWAP1 PUSH2 0x100 EXP SWAP1 DIV PUSH6 0xFFFFFFFFFFFF AND SWAP1 POP PUSH2 0x2818 DUP2 PUSH2 0x24BB JUMP JUMPDEST ISZERO PUSH2 0x2897 JUMPI PUSH2 0x2826 DUP2 PUSH2 0x24CF JUMP JUMPDEST ISZERO PUSH2 0x2869 JUMPI PUSH1 0x2 PUSH1 0x14 SWAP1 SLOAD SWAP1 PUSH2 0x100 EXP SWAP1 DIV PUSH6 0xFFFFFFFFFFFF AND PUSH1 0x1 PUSH1 0x1A PUSH2 0x100 EXP DUP2 SLOAD DUP2 PUSH6 0xFFFFFFFFFFFF MUL NOT AND SWAP1 DUP4 PUSH6 0xFFFFFFFFFFFF AND MUL OR SWAP1 SSTORE POP PUSH2 0x2896 JUMP JUMPDEST PUSH32 0x2B1FA2EDAFE6F7B9E97C1A9E0C3660E645BEB2DCAA2D45BDBF9BEAF5472E1EC5 PUSH1 0x40 MLOAD PUSH1 0x40 MLOAD DUP1 SWAP2 SUB SWAP1 LOG1 JUMPDEST JUMPDEST DUP3 PUSH1 0x2 PUSH1 0x14 PUSH2 0x100 EXP DUP2 SLOAD DUP2 PUSH6 0xFFFFFFFFFFFF MUL NOT AND SWAP1 DUP4 PUSH6 0xFFFFFFFFFFFF AND MUL OR SWAP1 SSTORE POP DUP2 PUSH1 0x2 PUSH1 0x1A PUSH2 0x100 EXP DUP2 SLOAD DUP2 PUSH6 0xFFFFFFFFFFFF MUL NOT AND SWAP1 DUP4 PUSH6 0xFFFFFFFFFFFF AND MUL OR SWAP1 SSTORE POP POP POP POP JUMP JUMPDEST PUSH0 DUP1 PUSH0 SHL DUP4 SUB PUSH2 0x299D JUMPI PUSH0 PUSH20 0xFFFFFFFFFFFFFFFFFFFFFFFFFFFFFFFFFFFFFFFF AND PUSH2 0x290F PUSH2 0x197C JUMP JUMPDEST PUSH20 0xFFFFFFFFFFFFFFFFFFFFFFFFFFFFFFFFFFFFFFFF AND EQ PUSH2 0x295C JUMPI PUSH1 0x40 MLOAD PUSH32 0x3FC3C27A00000000000000000000000000000000000000000000000000000000 DUP2 MSTORE PUSH1 0x4 ADD PUSH1 0x40 MLOAD DUP1 SWAP2 SUB SWAP1 REVERT JUMPDEST DUP2 PUSH1 0x2 PUSH0 PUSH2 0x100 EXP DUP2 SLOAD DUP2 PUSH20 0xFFFFFFFFFFFFFFFFFFFFFFFFFFFFFFFFFFFFFFFF MUL NOT AND SWAP1 DUP4 PUSH20 0xFFFFFFFFFFFFFFFFFFFFFFFFFFFFFFFFFFFFFFFF AND MUL OR SWAP1 SSTORE POP JUMPDEST PUSH2 0x29A7 DUP4 DUP4 PUSH2 0x2B97 JUMP JUMPDEST SWAP1 POP SWAP3 SWAP2 POP POP JUMP JUMPDEST PUSH0 DUP1 PUSH0 SHL DUP4 EQ DUP1 ISZERO PUSH2 0x29F3 JUMPI POP PUSH2 0x29C4 PUSH2 0x197C JUMP JUMPDEST PUSH20 0xFFFFFFFFFFFFFFFFFFFFFFFFFFFFFFFFFFFFFFFF AND DUP3 PUSH20 0xFFFFFFFFFFFFFFFFFFFFFFFFFFFFFFFFFFFFFFFF AND EQ JUMPDEST ISZERO PUSH2 0x2A1D JUMPI PUSH1 0x2 PUSH0 PUSH2 0x100 EXP DUP2 SLOAD SWAP1 PUSH20 0xFFFFFFFFFFFFFFFFFFFFFFFFFFFFFFFFFFFFFFFF MUL NOT AND SWAP1 SSTORE JUMPDEST PUSH2 0x2A27 DUP4 DUP4 PUSH2 0x2C80 JUMP JUMPDEST SWAP1 POP SWAP3 SWAP2 POP POP JUMP JUMPDEST PUSH0 PUSH6 0xFFFFFFFFFFFF DUP1 AND DUP3 GT ISZERO PUSH2 0x2A80 JUMPI PUSH1 0x30 DUP3 PUSH1 0x40 MLOAD PUSH32 0x6DFCC65000000000000000000000000000000000000000000000000000000000 DUP2 MSTORE PUSH1 0x4 ADD PUSH2 0x2A77 SWAP3 SWAP2 SWAP1 PUSH2 0x4210 JUMP JUMPDEST PUSH1 0x40 MLOAD DUP1 SWAP2 SUB SWAP1 REVERT JUMPDEST DUP2 SWAP1 POP SWAP2 SWAP1 POP JUMP JUMPDEST PUSH0 PUSH2 0x2A91 PUSH2 0x2179 JUMP JUMPDEST SWAP2 POP POP DUP3 PUSH1 0x1 PUSH0 PUSH2 0x100 EXP DUP2 SLOAD DUP2 PUSH20 0xFFFFFFFFFFFFFFFFFFFFFFFFFFFFFFFFFFFFFFFF MUL NOT AND SWAP1 DUP4 PUSH20 0xFFFFFFFFFFFFFFFFFFFFFFFFFFFFFFFFFFFFFFFF AND MUL OR SWAP1 SSTORE POP DUP2 PUSH1 0x1 PUSH1 0x14 PUSH2 0x100 EXP DUP2 SLOAD DUP2 PUSH6 0xFFFFFFFFFFFF MUL NOT AND SWAP1 DUP4 PUSH6 0xFFFFFFFFFFFF AND MUL OR SWAP1 SSTORE POP PUSH2 0x2B02 DUP2 PUSH2 0x24BB JUMP JUMPDEST ISZERO PUSH2 0x2B34 JUMPI PUSH32 0x8886EBFC4259ABDBC16601DD8FB5678E54878F47B3C34836CFC51154A9605109 PUSH1 0x40 MLOAD PUSH1 0x40 MLOAD DUP1 SWAP2 SUB SWAP1 LOG1 JUMPDEST POP POP POP JUMP JUMPDEST PUSH0 DUP1 PUSH2 0x2B43 PUSH2 0x2077 JUMP JUMPDEST SWAP1 POP DUP1 PUSH6 0xFFFFFFFFFFFF AND DUP4 PUSH6 0xFFFFFFFFFFFF AND GT PUSH2 0x2B6D JUMPI DUP3 DUP2 PUSH2 0x2B68 SWAP2 SWAP1 PUSH2 0x4237 JUMP JUMPDEST PUSH2 0x2B8F JUMP JUMPDEST PUSH2 0x2B8E DUP4 PUSH6 0xFFFFFFFFFFFF AND PUSH2 0x2B81 PUSH2 0x763 JUMP JUMPDEST PUSH6 0xFFFFFFFFFFFF AND PUSH2 0x2D69 JUMP JUMPDEST JUMPDEST SWAP2 POP POP SWAP2 SWAP1 POP JUMP JUMPDEST PUSH0 PUSH2 0x2BA2 DUP4 DUP4 PUSH2 0x1CBC JUMP JUMPDEST PUSH2 0x2C76 JUMPI PUSH1 0x1 PUSH0 DUP1 DUP6 DUP2 MSTORE PUSH1 0x20 ADD SWAP1 DUP2 MSTORE PUSH1 0x20 ADD PUSH0 KECCAK256 PUSH0 ADD PUSH0 DUP5 PUSH20 0xFFFFFFFFFFFFFFFFFFFFFFFFFFFFFFFFFFFFFFFF AND PUSH20 0xFFFFFFFFFFFFFFFFFFFFFFFFFFFFFFFFFFFFFFFF AND DUP2 MSTORE PUSH1 0x20 ADD SWAP1 DUP2 MSTORE PUSH1 0x20 ADD PUSH0 KECCAK256 PUSH0 PUSH2 0x100 EXP DUP2 SLOAD DUP2 PUSH1 0xFF MUL NOT AND SWAP1 DUP4 ISZERO ISZERO MUL OR SWAP1 SSTORE POP PUSH2 0x2C13 PUSH2 0x263D JUMP JUMPDEST PUSH20 0xFFFFFFFFFFFFFFFFFFFFFFFFFFFFFFFFFFFFFFFF AND DUP3 PUSH20 0xFFFFFFFFFFFFFFFFFFFFFFFFFFFFFFFFFFFFFFFF AND DUP5 PUSH32 0x2F8788117E7EFF1D82E926EC794901D17C78024A50270940304540A733656F0D PUSH1 0x40 MLOAD PUSH1 0x40 MLOAD DUP1 SWAP2 SUB SWAP1 LOG4 PUSH1 0x1 SWAP1 POP PUSH2 0x2C7A JUMP JUMPDEST PUSH0 SWAP1 POP JUMPDEST SWAP3 SWAP2 POP POP JUMP JUMPDEST PUSH0 PUSH2 0x2C8B DUP4 DUP4 PUSH2 0x1CBC JUMP JUMPDEST ISZERO PUSH2 0x2D5F JUMPI PUSH0 DUP1 PUSH0 DUP6 DUP2 MSTORE PUSH1 0x20 ADD SWAP1 DUP2 MSTORE PUSH1 0x20 ADD PUSH0 KECCAK256 PUSH0 ADD PUSH0 DUP5 PUSH20 0xFFFFFFFFFFFFFFFFFFFFFFFFFFFFFFFFFFFFFFFF AND PUSH20 0xFFFFFFFFFFFFFFFFFFFFFFFFFFFFFFFFFFFFFFFF AND DUP2 MSTORE PUSH1 0x20 ADD SWAP1 DUP2 MSTORE PUSH1 0x20 ADD PUSH0 KECCAK256 PUSH0 PUSH2 0x100 EXP DUP2 SLOAD DUP2 PUSH1 0xFF MUL NOT AND SWAP1 DUP4 ISZERO ISZERO MUL OR SWAP1 SSTORE POP PUSH2 0x2CFC PUSH2 0x263D JUMP JUMPDEST PUSH20 0xFFFFFFFFFFFFFFFFFFFFFFFFFFFFFFFFFFFFFFFF AND DUP3 PUSH20 0xFFFFFFFFFFFFFFFFFFFFFFFFFFFFFFFFFFFFFFFF AND DUP5 PUSH32 0xF6391F5C32D9C69D2A47EA670B442974B53935D1EDC7FD64EB21E047A839171B PUSH1 0x40 MLOAD PUSH1 0x40 MLOAD DUP1 SWAP2 SUB SWAP1 LOG4 PUSH1 0x1 SWAP1 POP PUSH2 0x2D63 JUMP JUMPDEST PUSH0 SWAP1 POP JUMPDEST SWAP3 SWAP2 POP POP JUMP JUMPDEST PUSH0 DUP2 DUP4 LT PUSH2 0x2D77 JUMPI DUP2 PUSH2 0x2D79 JUMP JUMPDEST DUP3 JUMPDEST SWAP1 POP SWAP3 SWAP2 POP POP JUMP JUMPDEST PUSH1 0x40 MLOAD DUP1 PUSH1 0x40 ADD PUSH1 0x40 MSTORE DUP1 PUSH2 0x2D94 PUSH2 0x2DFE JUMP JUMPDEST DUP2 MSTORE PUSH1 0x20 ADD PUSH2 0x2DA1 PUSH2 0x2DA7 JUMP JUMPDEST DUP2 MSTORE POP SWAP1 JUMP JUMPDEST PUSH1 0x40 MLOAD DUP1 PUSH1 0xA0 ADD PUSH1 0x40 MSTORE DUP1 PUSH0 PUSH20 0xFFFFFFFFFFFFFFFFFFFFFFFFFFFFFFFFFFFFFFFF AND DUP2 MSTORE PUSH1 0x20 ADD PUSH0 PUSH20 0xFFFFFFFFFFFFFFFFFFFFFFFFFFFFFFFFFFFFFFFF AND DUP2 MSTORE PUSH1 0x20 ADD PUSH0 DUP2 MSTORE PUSH1 0x20 ADD PUSH0 DUP2 MSTORE PUSH1 0x20 ADD PUSH1 0x60 DUP2 MSTORE POP SWAP1 JUMP JUMPDEST PUSH1 0x40 MLOAD DUP1 PUSH1 0x80 ADD PUSH1 0x40 MSTORE DUP1 PUSH1 0x60 DUP2 MSTORE PUSH1 0x20 ADD PUSH1 0x60 DUP2 MSTORE PUSH1 0x20 ADD PUSH0 DUP2 MSTORE PUSH1 0x20 ADD PUSH0 PUSH20 0xFFFFFFFFFFFFFFFFFFFFFFFFFFFFFFFFFFFFFFFF AND DUP2 MSTORE POP SWAP1 JUMP JUMPDEST PUSH0 PUSH1 0x40 MLOAD SWAP1 POP SWAP1 JUMP JUMPDEST PUSH0 DUP1 REVERT JUMPDEST PUSH0 DUP1 REVERT JUMPDEST PUSH0 PUSH32 0xFFFFFFFF00000000000000000000000000000000000000000000000000000000 DUP3 AND SWAP1 POP SWAP2 SWAP1 POP JUMP JUMPDEST PUSH2 0x2E7F DUP2 PUSH2 0x2E4B JUMP JUMPDEST DUP2 EQ PUSH2 0x2E89 JUMPI PUSH0 DUP1 REVERT JUMPDEST POP JUMP JUMPDEST PUSH0 DUP2 CALLDATALOAD SWAP1 POP PUSH2 0x2E9A DUP2 PUSH2 0x2E76 JUMP JUMPDEST SWAP3 SWAP2 POP POP JUMP JUMPDEST PUSH0 PUSH1 0x20 DUP3 DUP5 SUB SLT ISZERO PUSH2 0x2EB5 JUMPI PUSH2 0x2EB4 PUSH2 0x2E43 JUMP JUMPDEST JUMPDEST PUSH0 PUSH2 0x2EC2 DUP5 DUP3 DUP6 ADD PUSH2 0x2E8C JUMP JUMPDEST SWAP2 POP POP SWAP3 SWAP2 POP POP JUMP JUMPDEST PUSH0 DUP2 ISZERO ISZERO SWAP1 POP SWAP2 SWAP1 POP JUMP JUMPDEST PUSH2 0x2EDF DUP2 PUSH2 0x2ECB JUMP JUMPDEST DUP3 MSTORE POP POP JUMP JUMPDEST PUSH0 PUSH1 0x20 DUP3 ADD SWAP1 POP PUSH2 0x2EF8 PUSH0 DUP4 ADD DUP5 PUSH2 0x2ED6 JUMP JUMPDEST SWAP3 SWAP2 POP POP JUMP JUMPDEST PUSH0 PUSH6 0xFFFFFFFFFFFF DUP3 AND SWAP1 POP SWAP2 SWAP1 POP JUMP JUMPDEST PUSH2 0x2F18 DUP2 PUSH2 0x2EFE JUMP JUMPDEST DUP3 MSTORE POP POP JUMP JUMPDEST PUSH0 PUSH1 0x20 DUP3 ADD SWAP1 POP PUSH2 0x2F31 PUSH0 DUP4 ADD DUP5 PUSH2 0x2F0F JUMP JUMPDEST SWAP3 SWAP2 POP POP JUMP JUMPDEST PUSH0 DUP2 SWAP1 POP SWAP2 SWAP1 POP JUMP JUMPDEST PUSH2 0x2F49 DUP2 PUSH2 0x2F37 JUMP JUMPDEST DUP3 MSTORE POP POP JUMP JUMPDEST PUSH0 PUSH1 0x20 DUP3 ADD SWAP1 POP PUSH2 0x2F62 PUSH0 DUP4 ADD DUP5 PUSH2 0x2F40 JUMP JUMPDEST SWAP3 SWAP2 POP POP JUMP JUMPDEST PUSH0 PUSH20 0xFFFFFFFFFFFFFFFFFFFFFFFFFFFFFFFFFFFFFFFF DUP3 AND SWAP1 POP SWAP2 SWAP1 POP JUMP JUMPDEST PUSH0 PUSH2 0x2F91 DUP3 PUSH2 0x2F68 JUMP JUMPDEST SWAP1 POP SWAP2 SWAP1 POP JUMP JUMPDEST PUSH2 0x2FA1 DUP2 PUSH2 0x2F87 JUMP JUMPDEST DUP2 EQ PUSH2 0x2FAB JUMPI PUSH0 DUP1 REVERT JUMPDEST POP JUMP JUMPDEST PUSH0 DUP2 CALLDATALOAD SWAP1 POP PUSH2 0x2FBC DUP2 PUSH2 0x2F98 JUMP JUMPDEST SWAP3 SWAP2 POP POP JUMP JUMPDEST PUSH0 DUP1 REVERT JUMPDEST PUSH0 DUP1 REVERT JUMPDEST PUSH0 PUSH1 0x1F NOT PUSH1 0x1F DUP4 ADD AND SWAP1 POP SWAP2 SWAP1 POP JUMP JUMPDEST PUSH32 0x4E487B7100000000000000000000000000000000000000000000000000000000 PUSH0 MSTORE PUSH1 0x41 PUSH1 0x4 MSTORE PUSH1 0x24 PUSH0 REVERT JUMPDEST PUSH2 0x3010 DUP3 PUSH2 0x2FCA JUMP JUMPDEST DUP2 ADD DUP2 DUP2 LT PUSH8 0xFFFFFFFFFFFFFFFF DUP3 GT OR ISZERO PUSH2 0x302F JUMPI PUSH2 0x302E PUSH2 0x2FDA JUMP JUMPDEST JUMPDEST DUP1 PUSH1 0x40 MSTORE POP POP POP JUMP JUMPDEST PUSH0 PUSH2 0x3041 PUSH2 0x2E3A JUMP JUMPDEST SWAP1 POP PUSH2 0x304D DUP3 DUP3 PUSH2 0x3007 JUMP JUMPDEST SWAP2 SWAP1 POP JUMP JUMPDEST PUSH0 PUSH8 0xFFFFFFFFFFFFFFFF DUP3 GT ISZERO PUSH2 0x306C JUMPI PUSH2 0x306B PUSH2 0x2FDA JUMP JUMPDEST JUMPDEST PUSH2 0x3075 DUP3 PUSH2 0x2FCA JUMP JUMPDEST SWAP1 POP PUSH1 0x20 DUP2 ADD SWAP1 POP SWAP2 SWAP1 POP JUMP JUMPDEST DUP3 DUP2 DUP4 CALLDATACOPY PUSH0 DUP4 DUP4 ADD MSTORE POP POP POP JUMP JUMPDEST PUSH0 PUSH2 0x30A2 PUSH2 0x309D DUP5 PUSH2 0x3052 JUMP JUMPDEST PUSH2 0x3038 JUMP JUMPDEST SWAP1 POP DUP3 DUP2 MSTORE PUSH1 0x20 DUP2 ADD DUP5 DUP5 DUP5 ADD GT ISZERO PUSH2 0x30BE JUMPI PUSH2 0x30BD PUSH2 0x2FC6 JUMP JUMPDEST JUMPDEST PUSH2 0x30C9 DUP5 DUP3 DUP6 PUSH2 0x3082 JUMP JUMPDEST POP SWAP4 SWAP3 POP POP POP JUMP JUMPDEST PUSH0 DUP3 PUSH1 0x1F DUP4 ADD SLT PUSH2 0x30E5 JUMPI PUSH2 0x30E4 PUSH2 0x2FC2 JUMP JUMPDEST JUMPDEST DUP2 CALLDATALOAD PUSH2 0x30F5 DUP5 DUP3 PUSH1 0x20 DUP7 ADD PUSH2 0x3090 JUMP JUMPDEST SWAP2 POP POP SWAP3 SWAP2 POP POP JUMP JUMPDEST PUSH0 DUP2 SWAP1 POP SWAP2 SWAP1 POP JUMP JUMPDEST PUSH2 0x3110 DUP2 PUSH2 0x30FE JUMP JUMPDEST DUP2 EQ PUSH2 0x311A JUMPI PUSH0 DUP1 REVERT JUMPDEST POP JUMP JUMPDEST PUSH0 DUP2 CALLDATALOAD SWAP1 POP PUSH2 0x312B DUP2 PUSH2 0x3107 JUMP JUMPDEST SWAP3 SWAP2 POP POP JUMP JUMPDEST PUSH0 DUP1 PUSH0 DUP1 PUSH0 DUP1 PUSH0 DUP1 PUSH0 DUP1 PUSH2 0x140 DUP12 DUP14 SUB SLT ISZERO PUSH2 0x3150 JUMPI PUSH2 0x314F PUSH2 0x2E43 JUMP JUMPDEST JUMPDEST PUSH0 PUSH2 0x315D DUP14 DUP3 DUP15 ADD PUSH2 0x2FAE JUMP JUMPDEST SWAP11 POP POP PUSH1 0x20 DUP12 ADD CALLDATALOAD PUSH8 0xFFFFFFFFFFFFFFFF DUP2 GT ISZERO PUSH2 0x317E JUMPI PUSH2 0x317D PUSH2 0x2E47 JUMP JUMPDEST JUMPDEST PUSH2 0x318A DUP14 DUP3 DUP15 ADD PUSH2 0x30D1 JUMP JUMPDEST SWAP10 POP POP PUSH1 0x40 DUP12 ADD CALLDATALOAD PUSH8 0xFFFFFFFFFFFFFFFF DUP2 GT ISZERO PUSH2 0x31AB JUMPI PUSH2 0x31AA PUSH2 0x2E47 JUMP JUMPDEST JUMPDEST PUSH2 0x31B7 DUP14 DUP3 DUP15 ADD PUSH2 0x30D1 JUMP JUMPDEST SWAP9 POP POP PUSH1 0x60 PUSH2 0x31C8 DUP14 DUP3 DUP15 ADD PUSH2 0x311D JUMP JUMPDEST SWAP8 POP POP PUSH1 0x80 PUSH2 0x31D9 DUP14 DUP3 DUP15 ADD PUSH2 0x2FAE JUMP JUMPDEST SWAP7 POP POP PUSH1 0xA0 PUSH2 0x31EA DUP14 DUP3 DUP15 ADD PUSH2 0x2FAE JUMP JUMPDEST SWAP6 POP POP PUSH1 0xC0 PUSH2 0x31FB DUP14 DUP3 DUP15 ADD PUSH2 0x2FAE JUMP JUMPDEST SWAP5 POP POP PUSH1 0xE0 PUSH2 0x320C DUP14 DUP3 DUP15 ADD PUSH2 0x311D JUMP JUMPDEST SWAP4 POP POP PUSH2 0x100 PUSH2 0x321E DUP14 DUP3 DUP15 ADD PUSH2 0x311D JUMP JUMPDEST SWAP3 POP POP PUSH2 0x120 DUP12 ADD CALLDATALOAD PUSH8 0xFFFFFFFFFFFFFFFF DUP2 GT ISZERO PUSH2 0x3240 JUMPI PUSH2 0x323F PUSH2 0x2E47 JUMP JUMPDEST JUMPDEST PUSH2 0x324C DUP14 DUP3 DUP15 ADD PUSH2 0x30D1 JUMP JUMPDEST SWAP2 POP POP SWAP3 SWAP6 SWAP9 SWAP12 SWAP2 SWAP5 SWAP8 SWAP11 POP SWAP3 SWAP6 SWAP9 POP JUMP JUMPDEST PUSH2 0x3267 DUP2 PUSH2 0x2F37 JUMP JUMPDEST DUP2 EQ PUSH2 0x3271 JUMPI PUSH0 DUP1 REVERT JUMPDEST POP JUMP JUMPDEST PUSH0 DUP2 CALLDATALOAD SWAP1 POP PUSH2 0x3282 DUP2 PUSH2 0x325E JUMP JUMPDEST SWAP3 SWAP2 POP POP JUMP JUMPDEST PUSH0 PUSH1 0x20 DUP3 DUP5 SUB SLT ISZERO PUSH2 0x329D JUMPI PUSH2 0x329C PUSH2 0x2E43 JUMP JUMPDEST JUMPDEST PUSH0 PUSH2 0x32AA DUP5 DUP3 DUP6 ADD PUSH2 0x3274 JUMP JUMPDEST SWAP2 POP POP SWAP3 SWAP2 POP POP JUMP JUMPDEST PUSH0 DUP1 PUSH1 0x40 DUP4 DUP6 SUB SLT ISZERO PUSH2 0x32C9 JUMPI PUSH2 0x32C8 PUSH2 0x2E43 JUMP JUMPDEST JUMPDEST PUSH0 PUSH2 0x32D6 DUP6 DUP3 DUP7 ADD PUSH2 0x2FAE JUMP JUMPDEST SWAP3 POP POP PUSH1 0x20 PUSH2 0x32E7 DUP6 DUP3 DUP7 ADD PUSH2 0x3274 JUMP JUMPDEST SWAP2 POP POP SWAP3 POP SWAP3 SWAP1 POP JUMP JUMPDEST PUSH0 DUP1 PUSH1 0x40 DUP4 DUP6 SUB SLT ISZERO PUSH2 0x3307 JUMPI PUSH2 0x3306 PUSH2 0x2E43 JUMP JUMPDEST JUMPDEST PUSH0 PUSH2 0x3314 DUP6 DUP3 DUP7 ADD PUSH2 0x2FAE JUMP JUMPDEST SWAP3 POP POP PUSH1 0x20 PUSH2 0x3325 DUP6 DUP3 DUP7 ADD PUSH2 0x311D JUMP JUMPDEST SWAP2 POP POP SWAP3 POP SWAP3 SWAP1 POP JUMP JUMPDEST PUSH0 DUP2 MLOAD SWAP1 POP SWAP2 SWAP1 POP JUMP JUMPDEST PUSH0 DUP3 DUP3 MSTORE PUSH1 0x20 DUP3 ADD SWAP1 POP SWAP3 SWAP2 POP POP JUMP JUMPDEST PUSH0 JUMPDEST DUP4 DUP2 LT ISZERO PUSH2 0x3366 JUMPI DUP1 DUP3 ADD MLOAD DUP2 DUP5 ADD MSTORE PUSH1 0x20 DUP2 ADD SWAP1 POP PUSH2 0x334B JUMP JUMPDEST PUSH0 DUP5 DUP5 ADD MSTORE POP POP POP POP JUMP JUMPDEST PUSH0 PUSH2 0x337B DUP3 PUSH2 0x332F JUMP JUMPDEST PUSH2 0x3385 DUP2 DUP6 PUSH2 0x3339 JUMP JUMPDEST SWAP4 POP PUSH2 0x3395 DUP2 DUP6 PUSH1 0x20 DUP7 ADD PUSH2 0x3349 JUMP JUMPDEST PUSH2 0x339E DUP2 PUSH2 0x2FCA JUMP JUMPDEST DUP5 ADD SWAP2 POP POP SWAP3 SWAP2 POP POP JUMP JUMPDEST PUSH2 0x33B2 DUP2 PUSH2 0x30FE JUMP JUMPDEST DUP3 MSTORE POP POP JUMP JUMPDEST PUSH2 0x33C1 DUP2 PUSH2 0x2F87 JUMP JUMPDEST DUP3 MSTORE POP POP JUMP JUMPDEST PUSH0 PUSH1 0x80 DUP4 ADD PUSH0 DUP4 ADD MLOAD DUP5 DUP3 SUB PUSH0 DUP7 ADD MSTORE PUSH2 0x33E1 DUP3 DUP3 PUSH2 0x3371 JUMP JUMPDEST SWAP2 POP POP PUSH1 0x20 DUP4 ADD MLOAD DUP5 DUP3 SUB PUSH1 0x20 DUP7 ADD MSTORE PUSH2 0x33FB DUP3 DUP3 PUSH2 0x3371 JUMP JUMPDEST SWAP2 POP POP PUSH1 0x40 DUP4 ADD MLOAD PUSH2 0x3410 PUSH1 0x40 DUP7 ADD DUP3 PUSH2 0x33A9 JUMP JUMPDEST POP PUSH1 0x60 DUP4 ADD MLOAD PUSH2 0x3423 PUSH1 0x60 DUP7 ADD DUP3 PUSH2 0x33B8 JUMP JUMPDEST POP DUP1 SWAP2 POP POP SWAP3 SWAP2 POP POP JUMP JUMPDEST PUSH0 PUSH1 0xA0 DUP4 ADD PUSH0 DUP4 ADD MLOAD PUSH2 0x3443 PUSH0 DUP7 ADD DUP3 PUSH2 0x33B8 JUMP JUMPDEST POP PUSH1 0x20 DUP4 ADD MLOAD PUSH2 0x3456 PUSH1 0x20 DUP7 ADD DUP3 PUSH2 0x33B8 JUMP JUMPDEST POP PUSH1 0x40 DUP4 ADD MLOAD PUSH2 0x3469 PUSH1 0x40 DUP7 ADD DUP3 PUSH2 0x33A9 JUMP JUMPDEST POP PUSH1 0x60 DUP4 ADD MLOAD PUSH2 0x347C PUSH1 0x60 DUP7 ADD DUP3 PUSH2 0x33A9 JUMP JUMPDEST POP PUSH1 0x80 DUP4 ADD MLOAD DUP5 DUP3 SUB PUSH1 0x80 DUP7 ADD MSTORE PUSH2 0x3494 DUP3 DUP3 PUSH2 0x3371 JUMP JUMPDEST SWAP2 POP POP DUP1 SWAP2 POP POP SWAP3 SWAP2 POP POP JUMP JUMPDEST PUSH0 PUSH1 0x40 DUP4 ADD PUSH0 DUP4 ADD MLOAD DUP5 DUP3 SUB PUSH0 DUP7 ADD MSTORE PUSH2 0x34BB DUP3 DUP3 PUSH2 0x33C7 JUMP JUMPDEST SWAP2 POP POP PUSH1 0x20 DUP4 ADD MLOAD DUP5 DUP3 SUB PUSH1 0x20 DUP7 ADD MSTORE PUSH2 0x34D5 DUP3 DUP3 PUSH2 0x342E JUMP JUMPDEST SWAP2 POP POP DUP1 SWAP2 POP POP SWAP3 SWAP2 POP POP JUMP JUMPDEST PUSH0 PUSH1 0x20 DUP3 ADD SWAP1 POP DUP2 DUP2 SUB PUSH0 DUP4 ADD MSTORE PUSH2 0x34FA DUP2 DUP5 PUSH2 0x34A1 JUMP JUMPDEST SWAP1 POP SWAP3 SWAP2 POP POP JUMP JUMPDEST PUSH0 DUP1 PUSH1 0x40 DUP4 DUP6 SUB SLT ISZERO PUSH2 0x3518 JUMPI PUSH2 0x3517 PUSH2 0x2E43 JUMP JUMPDEST JUMPDEST PUSH0 PUSH2 0x3525 DUP6 DUP3 DUP7 ADD PUSH2 0x3274 JUMP JUMPDEST SWAP3 POP POP PUSH1 0x20 PUSH2 0x3536 DUP6 DUP3 DUP7 ADD PUSH2 0x2FAE JUMP JUMPDEST SWAP2 POP POP SWAP3 POP SWAP3 SWAP1 POP JUMP JUMPDEST PUSH0 PUSH1 0x20 DUP3 DUP5 SUB SLT ISZERO PUSH2 0x3555 JUMPI PUSH2 0x3554 PUSH2 0x2E43 JUMP JUMPDEST JUMPDEST PUSH0 PUSH2 0x3562 DUP5 DUP3 DUP6 ADD PUSH2 0x2FAE JUMP JUMPDEST SWAP2 POP POP SWAP3 SWAP2 POP POP JUMP JUMPDEST PUSH0 DUP1 PUSH0 PUSH1 0x60 DUP5 DUP7 SUB SLT ISZERO PUSH2 0x3582 JUMPI PUSH2 0x3581 PUSH2 0x2E43 JUMP JUMPDEST JUMPDEST PUSH0 PUSH2 0x358F DUP7 DUP3 DUP8 ADD PUSH2 0x2FAE JUMP JUMPDEST SWAP4 POP POP PUSH1 0x20 PUSH2 0x35A0 DUP7 DUP3 DUP8 ADD PUSH2 0x2FAE JUMP JUMPDEST SWAP3 POP POP PUSH1 0x40 PUSH2 0x35B1 DUP7 DUP3 DUP8 ADD PUSH2 0x311D JUMP JUMPDEST SWAP2 POP POP SWAP3 POP SWAP3 POP SWAP3 JUMP JUMPDEST PUSH2 0x35C4 DUP2 PUSH2 0x2EFE JUMP JUMPDEST DUP2 EQ PUSH2 0x35CE JUMPI PUSH0 DUP1 REVERT JUMPDEST POP JUMP JUMPDEST PUSH0 DUP2 CALLDATALOAD SWAP1 POP PUSH2 0x35DF DUP2 PUSH2 0x35BB JUMP JUMPDEST SWAP3 SWAP2 POP POP JUMP JUMPDEST PUSH0 PUSH1 0x20 DUP3 DUP5 SUB SLT ISZERO PUSH2 0x35FA JUMPI PUSH2 0x35F9 PUSH2 0x2E43 JUMP JUMPDEST JUMPDEST PUSH0 PUSH2 0x3607 DUP5 DUP3 DUP6 ADD PUSH2 0x35D1 JUMP JUMPDEST SWAP2 POP POP SWAP3 SWAP2 POP POP JUMP JUMPDEST PUSH0 DUP1 PUSH1 0x40 DUP4 DUP6 SUB SLT ISZERO PUSH2 0x3626 JUMPI PUSH2 0x3625 PUSH2 0x2E43 JUMP JUMPDEST JUMPDEST PUSH0 PUSH2 0x3633 DUP6 DUP3 DUP7 ADD PUSH2 0x2FAE JUMP JUMPDEST SWAP3 POP POP PUSH1 0x20 PUSH2 0x3644 DUP6 DUP3 DUP7 ADD PUSH2 0x2FAE JUMP JUMPDEST SWAP2 POP POP SWAP3 POP SWAP3 SWAP1 POP JUMP JUMPDEST PUSH0 DUP1 PUSH0 DUP1 PUSH0 PUSH1 0xA0 DUP7 DUP9 SUB SLT ISZERO PUSH2 0x3667 JUMPI PUSH2 0x3666 PUSH2 0x2E43 JUMP JUMPDEST JUMPDEST PUSH0 PUSH2 0x3674 DUP9 DUP3 DUP10 ADD PUSH2 0x2FAE JUMP JUMPDEST SWAP6 POP POP PUSH1 0x20 PUSH2 0x3685 DUP9 DUP3 DUP10 ADD PUSH2 0x2FAE JUMP JUMPDEST SWAP5 POP POP PUSH1 0x40 PUSH2 0x3696 DUP9 DUP3 DUP10 ADD PUSH2 0x311D JUMP JUMPDEST SWAP4 POP POP PUSH1 0x60 PUSH2 0x36A7 DUP9 DUP3 DUP10 ADD PUSH2 0x311D JUMP JUMPDEST SWAP3 POP POP PUSH1 0x80 DUP7 ADD CALLDATALOAD PUSH8 0xFFFFFFFFFFFFFFFF DUP2 GT ISZERO PUSH2 0x36C8 JUMPI PUSH2 0x36C7 PUSH2 0x2E47 JUMP JUMPDEST JUMPDEST PUSH2 0x36D4 DUP9 DUP3 DUP10 ADD PUSH2 0x30D1 JUMP JUMPDEST SWAP2 POP POP SWAP3 SWAP6 POP SWAP3 SWAP6 SWAP1 SWAP4 POP JUMP JUMPDEST PUSH0 PUSH1 0xA0 DUP4 ADD PUSH0 DUP4 ADD MLOAD PUSH2 0x36F6 PUSH0 DUP7 ADD DUP3 PUSH2 0x33B8 JUMP JUMPDEST POP PUSH1 0x20 DUP4 ADD MLOAD PUSH2 0x3709 PUSH1 0x20 DUP7 ADD DUP3 PUSH2 0x33B8 JUMP JUMPDEST POP PUSH1 0x40 DUP4 ADD MLOAD PUSH2 0x371C PUSH1 0x40 DUP7 ADD DUP3 PUSH2 0x33A9 JUMP JUMPDEST POP PUSH1 0x60 DUP4 ADD MLOAD PUSH2 0x372F PUSH1 0x60 DUP7 ADD DUP3 PUSH2 0x33A9 JUMP JUMPDEST POP PUSH1 0x80 DUP4 ADD MLOAD DUP5 DUP3 SUB PUSH1 0x80 DUP7 ADD MSTORE PUSH2 0x3747 DUP3 DUP3 PUSH2 0x3371 JUMP JUMPDEST SWAP2 POP POP DUP1 SWAP2 POP POP SWAP3 SWAP2 POP POP JUMP JUMPDEST PUSH0 PUSH1 0x20 DUP3 ADD SWAP1 POP DUP2 DUP2 SUB PUSH0 DUP4 ADD MSTORE PUSH2 0x376C DUP2 DUP5 PUSH2 0x36E1 JUMP JUMPDEST SWAP1 POP SWAP3 SWAP2 POP POP JUMP JUMPDEST PUSH2 0x377D DUP2 PUSH2 0x2F87 JUMP JUMPDEST DUP3 MSTORE POP POP JUMP JUMPDEST PUSH0 PUSH1 0x20 DUP3 ADD SWAP1 POP PUSH2 0x3796 PUSH0 DUP4 ADD DUP5 PUSH2 0x3774 JUMP JUMPDEST SWAP3 SWAP2 POP POP JUMP JUMPDEST PUSH0 PUSH1 0x80 DUP4 ADD PUSH0 DUP4 ADD MLOAD DUP5 DUP3 SUB PUSH0 DUP7 ADD MSTORE PUSH2 0x37B6 DUP3 DUP3 PUSH2 0x3371 JUMP JUMPDEST SWAP2 POP POP PUSH1 0x20 DUP4 ADD MLOAD DUP5 DUP3 SUB PUSH1 0x20 DUP7 ADD MSTORE PUSH2 0x37D0 DUP3 DUP3 PUSH2 0x3371 JUMP JUMPDEST SWAP2 POP POP PUSH1 0x40 DUP4 ADD MLOAD PUSH2 0x37E5 PUSH1 0x40 DUP7 ADD DUP3 PUSH2 0x33A9 JUMP JUMPDEST POP PUSH1 0x60 DUP4 ADD MLOAD PUSH2 0x37F8 PUSH1 0x60 DUP7 ADD DUP3 PUSH2 0x33B8 JUMP JUMPDEST POP DUP1 SWAP2 POP POP SWAP3 SWAP2 POP POP JUMP JUMPDEST PUSH0 PUSH1 0x40 DUP3 ADD SWAP1 POP DUP2 DUP2 SUB PUSH0 DUP4 ADD MSTORE PUSH2 0x381B DUP2 DUP6 PUSH2 0x379C JUMP JUMPDEST SWAP1 POP DUP2 DUP2 SUB PUSH1 0x20 DUP4 ADD MSTORE PUSH2 0x382F DUP2 DUP5 PUSH2 0x36E1 JUMP JUMPDEST SWAP1 POP SWAP4 SWAP3 POP POP POP JUMP JUMPDEST PUSH0 DUP3 DUP3 MSTORE PUSH1 0x20 DUP3 ADD SWAP1 POP SWAP3 SWAP2 POP POP JUMP JUMPDEST PUSH0 PUSH2 0x3852 DUP3 PUSH2 0x332F JUMP JUMPDEST PUSH2 0x385C DUP2 DUP6 PUSH2 0x3838 JUMP JUMPDEST SWAP4 POP PUSH2 0x386C DUP2 DUP6 PUSH1 0x20 DUP7 ADD PUSH2 0x3349 JUMP JUMPDEST PUSH2 0x3875 DUP2 PUSH2 0x2FCA JUMP JUMPDEST DUP5 ADD SWAP2 POP POP SWAP3 SWAP2 POP POP JUMP JUMPDEST PUSH2 0x3889 DUP2 PUSH2 0x30FE JUMP JUMPDEST DUP3 MSTORE POP POP JUMP JUMPDEST PUSH0 PUSH1 0xC0 DUP3 ADD SWAP1 POP DUP2 DUP2 SUB PUSH0 DUP4 ADD MSTORE PUSH2 0x38A7 DUP2 DUP10 PUSH2 0x3848 JUMP JUMPDEST SWAP1 POP DUP2 DUP2 SUB PUSH1 0x20 DUP4 ADD MSTORE PUSH2 0x38BB DUP2 DUP9 PUSH2 0x3848 JUMP JUMPDEST SWAP1 POP DUP2 DUP2 SUB PUSH1 0x40 DUP4 ADD MSTORE PUSH2 0x38CF DUP2 DUP8 PUSH2 0x3848 JUMP JUMPDEST SWAP1 POP DUP2 DUP2 SUB PUSH1 0x60 DUP4 ADD MSTORE PUSH2 0x38E3 DUP2 DUP7 PUSH2 0x3848 JUMP JUMPDEST SWAP1 POP PUSH2 0x38F2 PUSH1 0x80 DUP4 ADD DUP6 PUSH2 0x3880 JUMP JUMPDEST PUSH2 0x38FF PUSH1 0xA0 DUP4 ADD DUP5 PUSH2 0x2ED6 JUMP JUMPDEST SWAP8 SWAP7 POP POP POP POP POP POP POP JUMP JUMPDEST PUSH0 PUSH1 0x40 DUP3 ADD SWAP1 POP PUSH2 0x391D PUSH0 DUP4 ADD DUP6 PUSH2 0x2F0F JUMP JUMPDEST PUSH2 0x392A PUSH1 0x20 DUP4 ADD DUP5 PUSH2 0x2F0F JUMP JUMPDEST SWAP4 SWAP3 POP POP POP JUMP JUMPDEST PUSH0 DUP1 PUSH0 DUP1 PUSH1 0x80 DUP6 DUP8 SUB SLT ISZERO PUSH2 0x3949 JUMPI PUSH2 0x3948 PUSH2 0x2E43 JUMP JUMPDEST JUMPDEST PUSH0 DUP6 ADD CALLDATALOAD PUSH8 0xFFFFFFFFFFFFFFFF DUP2 GT ISZERO PUSH2 0x3966 JUMPI PUSH2 0x3965 PUSH2 0x2E47 JUMP JUMPDEST JUMPDEST PUSH2 0x3972 DUP8 DUP3 DUP9 ADD PUSH2 0x30D1 JUMP JUMPDEST SWAP5 POP POP PUSH1 0x20 DUP6 ADD CALLDATALOAD PUSH8 0xFFFFFFFFFFFFFFFF DUP2 GT ISZERO PUSH2 0x3993 JUMPI PUSH2 0x3992 PUSH2 0x2E47 JUMP JUMPDEST JUMPDEST PUSH2 0x399F DUP8 DUP3 DUP9 ADD PUSH2 0x30D1 JUMP JUMPDEST SWAP4 POP POP PUSH1 0x40 PUSH2 0x39B0 DUP8 DUP3 DUP9 ADD PUSH2 0x311D JUMP JUMPDEST SWAP3 POP POP PUSH1 0x60 PUSH2 0x39C1 DUP8 DUP3 DUP9 ADD PUSH2 0x2FAE JUMP JUMPDEST SWAP2 POP POP SWAP3 SWAP6 SWAP2 SWAP5 POP SWAP3 POP JUMP JUMPDEST PUSH0 PUSH1 0x20 DUP3 ADD SWAP1 POP DUP2 DUP2 SUB PUSH0 DUP4 ADD MSTORE PUSH2 0x39E5 DUP2 DUP5 PUSH2 0x379C JUMP JUMPDEST SWAP1 POP SWAP3 SWAP2 POP POP JUMP JUMPDEST PUSH0 PUSH1 0x40 DUP3 ADD SWAP1 POP PUSH2 0x3A00 PUSH0 DUP4 ADD DUP6 PUSH2 0x3774 JUMP JUMPDEST PUSH2 0x3A0D PUSH1 0x20 DUP4 ADD DUP5 PUSH2 0x2F0F JUMP JUMPDEST SWAP4 SWAP3 POP POP POP JUMP JUMPDEST PUSH0 DUP1 PUSH0 DUP1 PUSH0 DUP1 PUSH1 0xC0 DUP8 DUP10 SUB SLT ISZERO PUSH2 0x3A2E JUMPI PUSH2 0x3A2D PUSH2 0x2E43 JUMP JUMPDEST JUMPDEST PUSH0 PUSH2 0x3A3B DUP10 DUP3 DUP11 ADD PUSH2 0x2FAE JUMP JUMPDEST SWAP7 POP POP PUSH1 0x20 DUP8 ADD CALLDATALOAD PUSH8 0xFFFFFFFFFFFFFFFF DUP2 GT ISZERO PUSH2 0x3A5C JUMPI PUSH2 0x3A5B PUSH2 0x2E47 JUMP JUMPDEST JUMPDEST PUSH2 0x3A68 DUP10 DUP3 DUP11 ADD PUSH2 0x30D1 JUMP JUMPDEST SWAP6 POP POP PUSH1 0x40 DUP8 ADD CALLDATALOAD PUSH8 0xFFFFFFFFFFFFFFFF DUP2 GT ISZERO PUSH2 0x3A89 JUMPI PUSH2 0x3A88 PUSH2 0x2E47 JUMP JUMPDEST JUMPDEST PUSH2 0x3A95 DUP10 DUP3 DUP11 ADD PUSH2 0x30D1 JUMP JUMPDEST SWAP5 POP POP PUSH1 0x60 DUP8 ADD CALLDATALOAD PUSH8 0xFFFFFFFFFFFFFFFF DUP2 GT ISZERO PUSH2 0x3AB6 JUMPI PUSH2 0x3AB5 PUSH2 0x2E47 JUMP JUMPDEST JUMPDEST PUSH2 0x3AC2 DUP10 DUP3 DUP11 ADD PUSH2 0x30D1 JUMP JUMPDEST SWAP4 POP POP PUSH1 0x80 DUP8 ADD CALLDATALOAD PUSH8 0xFFFFFFFFFFFFFFFF DUP2 GT ISZERO PUSH2 0x3AE3 JUMPI PUSH2 0x3AE2 PUSH2 0x2E47 JUMP JUMPDEST JUMPDEST PUSH2 0x3AEF DUP10 DUP3 DUP11 ADD PUSH2 0x30D1 JUMP JUMPDEST SWAP3 POP POP PUSH1 0xA0 PUSH2 0x3B00 DUP10 DUP3 DUP11 ADD PUSH2 0x311D JUMP JUMPDEST SWAP2 POP POP SWAP3 SWAP6 POP SWAP3 SWAP6 POP SWAP3 SWAP6 JUMP JUMPDEST PUSH0 PUSH1 0x20 DUP3 ADD SWAP1 POP PUSH2 0x3B20 PUSH0 DUP4 ADD DUP5 PUSH2 0x3880 JUMP JUMPDEST SWAP3 SWAP2 POP POP JUMP JUMPDEST PUSH32 0x4572726F723A20456E7465727072697365206E6F742072656769737465726564 PUSH0 DUP3 ADD MSTORE PUSH32 0x2E00000000000000000000000000000000000000000000000000000000000000 PUSH1 0x20 DUP3 ADD MSTORE POP JUMP JUMPDEST PUSH0 PUSH2 0x3B80 PUSH1 0x21 DUP4 PUSH2 0x3838 JUMP JUMPDEST SWAP2 POP PUSH2 0x3B8B DUP3 PUSH2 0x3B26 JUMP JUMPDEST PUSH1 0x40 DUP3 ADD SWAP1 POP SWAP2 SWAP1 POP JUMP JUMPDEST PUSH0 PUSH1 0x20 DUP3 ADD SWAP1 POP DUP2 DUP2 SUB PUSH0 DUP4 ADD MSTORE PUSH2 0x3BAD DUP2 PUSH2 0x3B74 JUMP JUMPDEST SWAP1 POP SWAP2 SWAP1 POP JUMP JUMPDEST PUSH32 0x4E487B7100000000000000000000000000000000000000000000000000000000 PUSH0 MSTORE PUSH1 0x22 PUSH1 0x4 MSTORE PUSH1 0x24 PUSH0 REVERT JUMPDEST PUSH0 PUSH1 0x2 DUP3 DIV SWAP1 POP PUSH1 0x1 DUP3 AND DUP1 PUSH2 0x3BF8 JUMPI PUSH1 0x7F DUP3 AND SWAP2 POP JUMPDEST PUSH1 0x20 DUP3 LT DUP2 SUB PUSH2 0x3C0B JUMPI PUSH2 0x3C0A PUSH2 0x3BB4 JUMP JUMPDEST JUMPDEST POP SWAP2 SWAP1 POP JUMP JUMPDEST PUSH0 DUP2 SWAP1 POP DUP2 PUSH0 MSTORE PUSH1 0x20 PUSH0 KECCAK256 SWAP1 POP SWAP2 SWAP1 POP JUMP JUMPDEST PUSH0 PUSH1 0x20 PUSH1 0x1F DUP4 ADD DIV SWAP1 POP SWAP2 SWAP1 POP JUMP JUMPDEST PUSH0 DUP3 DUP3 SHL SWAP1 POP SWAP3 SWAP2 POP POP JUMP JUMPDEST PUSH0 PUSH1 0x8 DUP4 MUL PUSH2 0x3C6D PUSH32 0xFFFFFFFFFFFFFFFFFFFFFFFFFFFFFFFFFFFFFFFFFFFFFFFFFFFFFFFFFFFFFFFF DUP3 PUSH2 0x3C32 JUMP JUMPDEST PUSH2 0x3C77 DUP7 DUP4 PUSH2 0x3C32 JUMP JUMPDEST SWAP6 POP DUP1 NOT DUP5 AND SWAP4 POP DUP1 DUP7 AND DUP5 OR SWAP3 POP POP POP SWAP4 SWAP3 POP POP POP JUMP JUMPDEST PUSH0 DUP2 SWAP1 POP SWAP2 SWAP1 POP JUMP JUMPDEST PUSH0 PUSH2 0x3CB2 PUSH2 0x3CAD PUSH2 0x3CA8 DUP5 PUSH2 0x30FE JUMP JUMPDEST PUSH2 0x3C8F JUMP JUMPDEST PUSH2 0x30FE JUMP JUMPDEST SWAP1 POP SWAP2 SWAP1 POP JUMP JUMPDEST PUSH0 DUP2 SWAP1 POP SWAP2 SWAP1 POP JUMP JUMPDEST PUSH2 0x3CCB DUP4 PUSH2 0x3C98 JUMP JUMPDEST PUSH2 0x3CDF PUSH2 0x3CD7 DUP3 PUSH2 0x3CB9 JUMP JUMPDEST DUP5 DUP5 SLOAD PUSH2 0x3C3E JUMP JUMPDEST DUP3 SSTORE POP POP POP POP JUMP JUMPDEST PUSH0 SWAP1 JUMP JUMPDEST PUSH2 0x3CF3 PUSH2 0x3CE7 JUMP JUMPDEST PUSH2 0x3CFE DUP2 DUP5 DUP5 PUSH2 0x3CC2 JUMP JUMPDEST POP POP POP JUMP JUMPDEST JUMPDEST DUP2 DUP2 LT ISZERO PUSH2 0x3D21 JUMPI PUSH2 0x3D16 PUSH0 DUP3 PUSH2 0x3CEB JUMP JUMPDEST PUSH1 0x1 DUP2 ADD SWAP1 POP PUSH2 0x3D04 JUMP JUMPDEST POP POP JUMP JUMPDEST PUSH1 0x1F DUP3 GT ISZERO PUSH2 0x3D66 JUMPI PUSH2 0x3D37 DUP2 PUSH2 0x3C11 JUMP JUMPDEST PUSH2 0x3D40 DUP5 PUSH2 0x3C23 JUMP JUMPDEST DUP2 ADD PUSH1 0x20 DUP6 LT ISZERO PUSH2 0x3D4F JUMPI DUP2 SWAP1 POP JUMPDEST PUSH2 0x3D63 PUSH2 0x3D5B DUP6 PUSH2 0x3C23 JUMP JUMPDEST DUP4 ADD DUP3 PUSH2 0x3D03 JUMP JUMPDEST POP POP JUMPDEST POP POP POP JUMP JUMPDEST PUSH0 DUP3 DUP3 SHR SWAP1 POP SWAP3 SWAP2 POP POP JUMP JUMPDEST PUSH0 PUSH2 0x3D86 PUSH0 NOT DUP5 PUSH1 0x8 MUL PUSH2 0x3D6B JUMP JUMPDEST NOT DUP1 DUP4 AND SWAP2 POP POP SWAP3 SWAP2 POP POP JUMP JUMPDEST PUSH0 PUSH2 0x3D9E DUP4 DUP4 PUSH2 0x3D77 JUMP JUMPDEST SWAP2 POP DUP3 PUSH1 0x2 MUL DUP3 OR SWAP1 POP SWAP3 SWAP2 POP POP JUMP JUMPDEST PUSH2 0x3DB7 DUP3 PUSH2 0x332F JUMP JUMPDEST PUSH8 0xFFFFFFFFFFFFFFFF DUP2 GT ISZERO PUSH2 0x3DD0 JUMPI PUSH2 0x3DCF PUSH2 0x2FDA JUMP JUMPDEST JUMPDEST PUSH2 0x3DDA DUP3 SLOAD PUSH2 0x3BE1 JUMP JUMPDEST PUSH2 0x3DE5 DUP3 DUP3 DUP6 PUSH2 0x3D25 JUMP JUMPDEST PUSH0 PUSH1 0x20 SWAP1 POP PUSH1 0x1F DUP4 GT PUSH1 0x1 DUP2 EQ PUSH2 0x3E16 JUMPI PUSH0 DUP5 ISZERO PUSH2 0x3E04 JUMPI DUP3 DUP8 ADD MLOAD SWAP1 POP JUMPDEST PUSH2 0x3E0E DUP6 DUP3 PUSH2 0x3D93 JUMP JUMPDEST DUP7 SSTORE POP PUSH2 0x3E75 JUMP JUMPDEST PUSH1 0x1F NOT DUP5 AND PUSH2 0x3E24 DUP7 PUSH2 0x3C11 JUMP JUMPDEST PUSH0 JUMPDEST DUP3 DUP2 LT ISZERO PUSH2 0x3E4B JUMPI DUP5 DUP10 ADD MLOAD DUP3 SSTORE PUSH1 0x1 DUP3 ADD SWAP2 POP PUSH1 0x20 DUP6 ADD SWAP5 POP PUSH1 0x20 DUP2 ADD SWAP1 POP PUSH2 0x3E26 JUMP JUMPDEST DUP7 DUP4 LT ISZERO PUSH2 0x3E68 JUMPI DUP5 DUP10 ADD MLOAD PUSH2 0x3E64 PUSH1 0x1F DUP10 AND DUP3 PUSH2 0x3D77 JUMP JUMPDEST DUP4 SSTORE POP JUMPDEST PUSH1 0x1 PUSH1 0x2 DUP9 MUL ADD DUP9 SSTORE POP POP POP JUMPDEST POP POP POP POP POP POP JUMP JUMPDEST PUSH32 0x4E487B7100000000000000000000000000000000000000000000000000000000 PUSH0 MSTORE PUSH1 0x11 PUSH1 0x4 MSTORE PUSH1 0x24 PUSH0 REVERT JUMPDEST PUSH0 PUSH2 0x3EB4 DUP3 PUSH2 0x30FE JUMP JUMPDEST SWAP2 POP PUSH32 0xFFFFFFFFFFFFFFFFFFFFFFFFFFFFFFFFFFFFFFFFFFFFFFFFFFFFFFFFFFFFFFFF DUP3 SUB PUSH2 0x3EE6 JUMPI PUSH2 0x3EE5 PUSH2 0x3E7D JUMP JUMPDEST JUMPDEST PUSH1 0x1 DUP3 ADD SWAP1 POP SWAP2 SWAP1 POP JUMP JUMPDEST PUSH32 0x4572726F723A20456E7465727072697365206E6F742072656769737465726564 PUSH0 DUP3 ADD MSTORE POP JUMP JUMPDEST PUSH0 PUSH2 0x3F25 PUSH1 0x20 DUP4 PUSH2 0x3838 JUMP JUMPDEST SWAP2 POP PUSH2 0x3F30 DUP3 PUSH2 0x3EF1 JUMP JUMPDEST PUSH1 0x20 DUP3 ADD SWAP1 POP SWAP2 SWAP1 POP JUMP JUMPDEST PUSH0 PUSH1 0x20 DUP3 ADD SWAP1 POP DUP2 DUP2 SUB PUSH0 DUP4 ADD MSTORE PUSH2 0x3F52 DUP2 PUSH2 0x3F19 JUMP JUMPDEST SWAP1 POP SWAP2 SWAP1 POP JUMP JUMPDEST PUSH32 0x4572726F723A20496E76616C6964207472616465496400000000000000000000 PUSH0 DUP3 ADD MSTORE POP JUMP JUMPDEST PUSH0 PUSH2 0x3F8D PUSH1 0x16 DUP4 PUSH2 0x3838 JUMP JUMPDEST SWAP2 POP PUSH2 0x3F98 DUP3 PUSH2 0x3F59 JUMP JUMPDEST PUSH1 0x20 DUP3 ADD SWAP1 POP SWAP2 SWAP1 POP JUMP JUMPDEST PUSH0 PUSH1 0x20 DUP3 ADD SWAP1 POP DUP2 DUP2 SUB PUSH0 DUP4 ADD MSTORE PUSH2 0x3FBA DUP2 PUSH2 0x3F81 JUMP JUMPDEST SWAP1 POP SWAP2 SWAP1 POP JUMP JUMPDEST PUSH32 0x5468652046756E64696E6720506172747920686173206E6F2054726164652044 PUSH0 DUP3 ADD MSTORE PUSH32 0x6174612061636365737300000000000000000000000000000000000000000000 PUSH1 0x20 DUP3 ADD MSTORE POP JUMP JUMPDEST PUSH0 PUSH2 0x401B PUSH1 0x2A DUP4 PUSH2 0x3838 JUMP JUMPDEST SWAP2 POP PUSH2 0x4026 DUP3 PUSH2 0x3FC1 JUMP JUMPDEST PUSH1 0x40 DUP3 ADD SWAP1 POP SWAP2 SWAP1 POP JUMP JUMPDEST PUSH0 PUSH1 0x20 DUP3 ADD SWAP1 POP DUP2 DUP2 SUB PUSH0 DUP4 ADD MSTORE PUSH2 0x4048 DUP2 PUSH2 0x400F JUMP JUMPDEST SWAP1 POP SWAP2 SWAP1 POP JUMP JUMPDEST PUSH32 0x4572726F723A205F66756E64696E67506172747941646472206E6F742046554E PUSH0 DUP3 ADD MSTORE PUSH32 0x44494E475F50415254595F524F4C450000000000000000000000000000000000 PUSH1 0x20 DUP3 ADD MSTORE POP JUMP JUMPDEST PUSH0 PUSH2 0x40A9 PUSH1 0x2F DUP4 PUSH2 0x3838 JUMP JUMPDEST SWAP2 POP PUSH2 0x40B4 DUP3 PUSH2 0x404F JUMP JUMPDEST PUSH1 0x40 DUP3 ADD SWAP1 POP SWAP2 SWAP1 POP JUMP JUMPDEST PUSH0 PUSH1 0x20 DUP3 ADD SWAP1 POP DUP2 DUP2 SUB PUSH0 DUP4 ADD MSTORE PUSH2 0x40D6 DUP2 PUSH2 0x409D JUMP JUMPDEST SWAP1 POP SWAP2 SWAP1 POP JUMP JUMPDEST PUSH32 0x4572726F72203A205468697320616464726573732068617320616C7265616479 PUSH0 DUP3 ADD MSTORE PUSH32 0x206265656E206164646564206173206120656E74657270726973652E00000000 PUSH1 0x20 DUP3 ADD MSTORE POP JUMP JUMPDEST PUSH0 PUSH2 0x4137 PUSH1 0x3C DUP4 PUSH2 0x3838 JUMP JUMPDEST SWAP2 POP PUSH2 0x4142 DUP3 PUSH2 0x40DD JUMP JUMPDEST PUSH1 0x40 DUP3 ADD SWAP1 POP SWAP2 SWAP1 POP JUMP JUMPDEST PUSH0 PUSH1 0x20 DUP3 ADD SWAP1 POP DUP2 DUP2 SUB PUSH0 DUP4 ADD MSTORE PUSH2 0x4164 DUP2 PUSH2 0x412B JUMP JUMPDEST SWAP1 POP SWAP2 SWAP1 POP JUMP JUMPDEST PUSH0 PUSH2 0x4175 DUP3 PUSH2 0x2EFE JUMP JUMPDEST SWAP2 POP PUSH2 0x4180 DUP4 PUSH2 0x2EFE JUMP JUMPDEST SWAP3 POP DUP3 DUP3 ADD SWAP1 POP PUSH6 0xFFFFFFFFFFFF DUP2 GT ISZERO PUSH2 0x419E JUMPI PUSH2 0x419D PUSH2 0x3E7D JUMP JUMPDEST JUMPDEST SWAP3 SWAP2 POP POP JUMP JUMPDEST PUSH0 PUSH1 0x40 DUP3 ADD SWAP1 POP PUSH2 0x41B7 PUSH0 DUP4 ADD DUP6 PUSH2 0x3774 JUMP JUMPDEST PUSH2 0x41C4 PUSH1 0x20 DUP4 ADD DUP5 PUSH2 0x2F40 JUMP JUMPDEST SWAP4 SWAP3 POP POP POP JUMP JUMPDEST PUSH0 DUP2 SWAP1 POP SWAP2 SWAP1 POP JUMP JUMPDEST PUSH0 PUSH1 0xFF DUP3 AND SWAP1 POP SWAP2 SWAP1 POP JUMP JUMPDEST PUSH0 PUSH2 0x41FA PUSH2 0x41F5 PUSH2 0x41F0 DUP5 PUSH2 0x41CB JUMP JUMPDEST PUSH2 0x3C8F JUMP JUMPDEST PUSH2 0x41D4 JUMP JUMPDEST SWAP1 POP SWAP2 SWAP1 POP JUMP JUMPDEST PUSH2 0x420A DUP2 PUSH2 0x41E0 JUMP JUMPDEST DUP3 MSTORE POP POP JUMP JUMPDEST PUSH0 PUSH1 0x40 DUP3 ADD SWAP1 POP PUSH2 0x4223 PUSH0 DUP4 ADD DUP6 PUSH2 0x4201 JUMP JUMPDEST PUSH2 0x4230 PUSH1 0x20 DUP4 ADD DUP5 PUSH2 0x3880 JUMP JUMPDEST SWAP4 SWAP3 POP POP POP JUMP JUMPDEST PUSH0 PUSH2 0x4241 DUP3 PUSH2 0x2EFE JUMP JUMPDEST SWAP2 POP PUSH2 0x424C DUP4 PUSH2 0x2EFE JUMP JUMPDEST SWAP3 POP DUP3 DUP3 SUB SWAP1 POP PUSH6 0xFFFFFFFFFFFF DUP2 GT ISZERO PUSH2 0x426A JUMPI PUSH2 0x4269 PUSH2 0x3E7D JUMP JUMPDEST JUMPDEST SWAP3 SWAP2 POP POP JUMP INVALID LOG2 PUSH5 0x6970667358 0x22 SLT KECCAK256 GT LOG4 PUSH13 0xA20C6DF0865B0C142C1915F416 0xA7 SDIV PREVRANDAO 0x28 0xAE PUSH17 0x383A2238BFFCB036734C64736F6C634300 ADDMOD XOR STOP CALLER "
		},
		"gasEstimates": {
			"creation": {
				"codeDepositCost": "3412400",
				"executionCost": "infinite",
				"totalCost": "infinite"
			},
			"external": {
				"AUCTION_PUBLISHER_ROLE()": "458",
				"BIDDER_ROLE()": "438",
				"DEFAULT_ADMIN_ROLE()": "419",
				"ENTERPRISE_ROLE()": "414",
				"EnterpriseTradeDataNum(address)": "2890",
				"EnterpriseTradeDataSet(address,uint256)": "infinite",
				"FPTradeInquiryAccess(address)": "2901",
				"FUNDING_PARTY_ROLE()": "415",
				"acceptDefaultAdminTransfer()": "infinite",
				"beginDefaultAdminTransfer(address)": "infinite",
				"cancelDefaultAdminTransfer()": "56538",
				"changeDefaultAdminDelay(uint48)": "infinite",
				"checkRole(address,bytes32)": "infinite",
				"createNewBillOfExchange(address,address,uint256,uint256,string)": "infinite",
				"createNewWarehouseReceipt(string,string,uint256,address)": "infinite",
				"defaultAdmin()": "2561",
				"defaultAdminDelay()": "4931",
				"defaultAdminDelayIncreaseWait()": "407",
				"enterpriseDataSet(address)": "infinite",
				"getRoleAdmin(bytes32)": "infinite",
				"getTradeData(address,uint256)": "infinite",
				"getTradeDataForFundingParty(address,address,uint256)": "infinite",
				"grantRole(bytes32,address)": "infinite",
				"grantTradeDataAccess(address,address)": "infinite",
				"hasRole(bytes32,address)": "3234",
				"nextAuctionId()": "2557",
				"nextRoleId()": "2535",
				"owner()": "2639",
				"pendingDefaultAdmin()": "4909",
				"pendingDefaultAdminDelay()": "infinite",
				"registerEnterprise(address,string,string,string,string,uint256)": "infinite",
				"renounceRole(bytes32,address)": "infinite",
				"revokeRole(bytes32,address)": "infinite",
				"rollbackDefaultAdminDelay()": "80261",
				"supportsInterface(bytes4)": "852",
				"uploadTradeData(address,string,string,uint256,address,address,address,uint256,uint256,string)": "infinite"
			}
		},
		"methodIdentifiers": {
			"AUCTION_PUBLISHER_ROLE()": "bb618760",
			"BIDDER_ROLE()": "0ce526d1",
			"DEFAULT_ADMIN_ROLE()": "a217fddf",
			"ENTERPRISE_ROLE()": "68dd17a5",
			"EnterpriseTradeDataNum(address)": "fa7e6bf5",
			"EnterpriseTradeDataSet(address,uint256)": "88560f91",
			"FPTradeInquiryAccess(address)": "354c2bf8",
			"FUNDING_PARTY_ROLE()": "279185a0",
			"acceptDefaultAdminTransfer()": "cefc1429",
			"beginDefaultAdminTransfer(address)": "634e93da",
			"cancelDefaultAdminTransfer()": "d602b9fd",
			"changeDefaultAdminDelay(uint48)": "649a5ec7",
			"checkRole(address,bytes32)": "2ae8a7e3",
			"createNewBillOfExchange(address,address,uint256,uint256,string)": "6f476034",
			"createNewWarehouseReceipt(string,string,uint256,address)": "b64a873c",
			"defaultAdmin()": "84ef8ffc",
			"defaultAdminDelay()": "cc8463c8",
			"defaultAdminDelayIncreaseWait()": "022d63fb",
			"enterpriseDataSet(address)": "a10fd6d8",
			"getRoleAdmin(bytes32)": "248a9ca3",
			"getTradeData(address,uint256)": "2bcd799e",
			"getTradeDataForFundingParty(address,address,uint256)": "59945ae7",
			"grantRole(bytes32,address)": "2f2ff15d",
			"grantTradeDataAccess(address,address)": "6c8c51e4",
			"hasRole(bytes32,address)": "91d14854",
			"nextAuctionId()": "fc528482",
			"nextRoleId()": "fc04f4ba",
			"owner()": "8da5cb5b",
			"pendingDefaultAdmin()": "cf6eefb7",
			"pendingDefaultAdminDelay()": "a1eda53c",
			"registerEnterprise(address,string,string,string,string,uint256)": "f98b5998",
			"renounceRole(bytes32,address)": "36568abe",
			"revokeRole(bytes32,address)": "d547741f",
			"rollbackDefaultAdminDelay()": "0aa6220b",
			"supportsInterface(bytes4)": "01ffc9a7",
			"uploadTradeData(address,string,string,uint256,address,address,address,uint256,uint256,string)": "1940767f"
		}
	},
	"abi": [
		{
			"inputs": [],
			"stateMutability": "nonpayable",
			"type": "constructor"
		},
		{
			"inputs": [],
			"name": "AccessControlBadConfirmation",
			"type": "error"
		},
		{
			"inputs": [
				{
					"internalType": "uint48",
					"name": "schedule",
					"type": "uint48"
				}
			],
			"name": "AccessControlEnforcedDefaultAdminDelay",
			"type": "error"
		},
		{
			"inputs": [],
			"name": "AccessControlEnforcedDefaultAdminRules",
			"type": "error"
		},
		{
			"inputs": [
				{
					"internalType": "address",
					"name": "defaultAdmin",
					"type": "address"
				}
			],
			"name": "AccessControlInvalidDefaultAdmin",
			"type": "error"
		},
		{
			"inputs": [
				{
					"internalType": "address",
					"name": "account",
					"type": "address"
				},
				{
					"internalType": "bytes32",
					"name": "neededRole",
					"type": "bytes32"
				}
			],
			"name": "AccessControlUnauthorizedAccount",
			"type": "error"
		},
		{
			"inputs": [
				{
					"internalType": "uint8",
					"name": "bits",
					"type": "uint8"
				},
				{
					"internalType": "uint256",
					"name": "value",
					"type": "uint256"
				}
			],
			"name": "SafeCastOverflowedUintDowncast",
			"type": "error"
		},
		{
			"anonymous": false,
			"inputs": [
				{
					"indexed": true,
					"internalType": "uint256",
					"name": "auctionId",
					"type": "uint256"
				},
				{
					"indexed": false,
					"internalType": "uint256",
					"name": "winningBid",
					"type": "uint256"
				}
			],
			"name": "AuctionClosed",
			"type": "event"
		},
		{
			"anonymous": false,
			"inputs": [
				{
					"indexed": true,
					"internalType": "uint256",
					"name": "auctionId",
					"type": "uint256"
				},
				{
					"indexed": false,
					"internalType": "string",
					"name": "itemDescription",
					"type": "string"
				},
				{
					"indexed": false,
					"internalType": "uint256",
					"name": "startPrice",
					"type": "uint256"
				},
				{
					"indexed": false,
					"internalType": "bool",
					"name": "isopen",
					"type": "bool"
				}
			],
			"name": "AuctionPublished",
			"type": "event"
		},
		{
			"anonymous": false,
			"inputs": [],
			"name": "DefaultAdminDelayChangeCanceled",
			"type": "event"
		},
		{
			"anonymous": false,
			"inputs": [
				{
					"indexed": false,
					"internalType": "uint48",
					"name": "newDelay",
					"type": "uint48"
				},
				{
					"indexed": false,
					"internalType": "uint48",
					"name": "effectSchedule",
					"type": "uint48"
				}
			],
			"name": "DefaultAdminDelayChangeScheduled",
			"type": "event"
		},
		{
			"anonymous": false,
			"inputs": [],
			"name": "DefaultAdminTransferCanceled",
			"type": "event"
		},
		{
			"anonymous": false,
			"inputs": [
				{
					"indexed": true,
					"internalType": "address",
					"name": "newAdmin",
					"type": "address"
				},
				{
					"indexed": false,
					"internalType": "uint48",
					"name": "acceptSchedule",
					"type": "uint48"
				}
			],
			"name": "DefaultAdminTransferScheduled",
			"type": "event"
		},
		{
			"anonymous": false,
			"inputs": [
				{
					"indexed": true,
					"internalType": "bytes32",
					"name": "role",
					"type": "bytes32"
				},
				{
					"indexed": true,
					"internalType": "bytes32",
					"name": "previousAdminRole",
					"type": "bytes32"
				},
				{
					"indexed": true,
					"internalType": "bytes32",
					"name": "newAdminRole",
					"type": "bytes32"
				}
			],
			"name": "RoleAdminChanged",
			"type": "event"
		},
		{
			"anonymous": false,
			"inputs": [
				{
					"indexed": true,
					"internalType": "bytes32",
					"name": "role",
					"type": "bytes32"
				},
				{
					"indexed": true,
					"internalType": "address",
					"name": "account",
					"type": "address"
				},
				{
					"indexed": true,
					"internalType": "address",
					"name": "sender",
					"type": "address"
				}
			],
			"name": "RoleGranted",
			"type": "event"
		},
		{
			"anonymous": false,
			"inputs": [
				{
					"indexed": true,
					"internalType": "bytes32",
					"name": "role",
					"type": "bytes32"
				},
				{
					"indexed": true,
					"internalType": "address",
					"name": "account",
					"type": "address"
				},
				{
					"indexed": true,
					"internalType": "address",
					"name": "sender",
					"type": "address"
				}
			],
			"name": "RoleRevoked",
			"type": "event"
		},
		{
			"inputs": [],
			"name": "AUCTION_PUBLISHER_ROLE",
			"outputs": [
				{
					"internalType": "bytes32",
					"name": "",
					"type": "bytes32"
				}
			],
			"stateMutability": "view",
			"type": "function"
		},
		{
			"inputs": [],
			"name": "BIDDER_ROLE",
			"outputs": [
				{
					"internalType": "bytes32",
					"name": "",
					"type": "bytes32"
				}
			],
			"stateMutability": "view",
			"type": "function"
		},
		{
			"inputs": [],
			"name": "DEFAULT_ADMIN_ROLE",
			"outputs": [
				{
					"internalType": "bytes32",
					"name": "",
					"type": "bytes32"
				}
			],
			"stateMutability": "view",
			"type": "function"
		},
		{
			"inputs": [],
			"name": "ENTERPRISE_ROLE",
			"outputs": [
				{
					"internalType": "bytes32",
					"name": "",
					"type": "bytes32"
				}
			],
			"stateMutability": "view",
			"type": "function"
		},
		{
			"inputs": [
				{
					"internalType": "address",
					"name": "",
					"type": "address"
				}
			],
			"name": "EnterpriseTradeDataNum",
			"outputs": [
				{
					"internalType": "uint256",
					"name": "",
					"type": "uint256"
				}
			],
			"stateMutability": "view",
			"type": "function"
		},
		{
			"inputs": [
				{
					"internalType": "address",
					"name": "",
					"type": "address"
				},
				{
					"internalType": "uint256",
					"name": "",
					"type": "uint256"
				}
			],
			"name": "EnterpriseTradeDataSet",
			"outputs": [
				{
					"components": [
						{
							"internalType": "string",
							"name": "description",
							"type": "string"
						},
						{
							"internalType": "string",
							"name": "warehouseName",
							"type": "string"
						},
						{
							"internalType": "uint256",
							"name": "storageDate",
							"type": "uint256"
						},
						{
							"internalType": "address",
							"name": "owner",
							"type": "address"
						}
					],
					"internalType": "struct FinancialTemplate.WarehouseReceipt",
					"name": "warehouseReceipt",
					"type": "tuple"
				},
				{
					"components": [
						{
							"internalType": "address",
							"name": "drawer",
							"type": "address"
						},
						{
							"internalType": "address",
							"name": "payee",
							"type": "address"
						},
						{
							"internalType": "uint256",
							"name": "amount",
							"type": "uint256"
						},
						{
							"internalType": "uint256",
							"name": "paymentDate",
							"type": "uint256"
						},
						{
							"internalType": "string",
							"name": "goodsDescription",
							"type": "string"
						}
					],
					"internalType": "struct FinancialTemplate.BillOfExchange",
					"name": "billOfExchange",
					"type": "tuple"
				}
			],
			"stateMutability": "view",
			"type": "function"
		},
		{
			"inputs": [
				{
					"internalType": "address",
					"name": "",
					"type": "address"
				}
			],
			"name": "FPTradeInquiryAccess",
			"outputs": [
				{
					"internalType": "bool",
					"name": "",
					"type": "bool"
				}
			],
			"stateMutability": "view",
			"type": "function"
		},
		{
			"inputs": [],
			"name": "FUNDING_PARTY_ROLE",
			"outputs": [
				{
					"internalType": "bytes32",
					"name": "",
					"type": "bytes32"
				}
			],
			"stateMutability": "view",
			"type": "function"
		},
		{
			"inputs": [],
			"name": "acceptDefaultAdminTransfer",
			"outputs": [],
			"stateMutability": "nonpayable",
			"type": "function"
		},
		{
			"inputs": [
				{
					"internalType": "address",
					"name": "newAdmin",
					"type": "address"
				}
			],
			"name": "beginDefaultAdminTransfer",
			"outputs": [],
			"stateMutability": "nonpayable",
			"type": "function"
		},
		{
			"inputs": [],
			"name": "cancelDefaultAdminTransfer",
			"outputs": [],
			"stateMutability": "nonpayable",
			"type": "function"
		},
		{
			"inputs": [
				{
					"internalType": "uint48",
					"name": "newDelay",
					"type": "uint48"
				}
			],
			"name": "changeDefaultAdminDelay",
			"outputs": [],
			"stateMutability": "nonpayable",
			"type": "function"
		},
		{
			"inputs": [
				{
					"internalType": "address",
					"name": "_checkAddr",
					"type": "address"
				},
				{
					"internalType": "bytes32",
					"name": "_role",
					"type": "bytes32"
				}
			],
			"name": "checkRole",
			"outputs": [
				{
					"internalType": "bool",
					"name": "",
					"type": "bool"
				}
			],
			"stateMutability": "view",
			"type": "function"
		},
		{
			"inputs": [
				{
					"internalType": "address",
					"name": "_drawer",
					"type": "address"
				},
				{
					"internalType": "address",
					"name": "_payee",
					"type": "address"
				},
				{
					"internalType": "uint256",
					"name": "_amount",
					"type": "uint256"
				},
				{
					"internalType": "uint256",
					"name": "_paymentDate",
					"type": "uint256"
				},
				{
					"internalType": "string",
					"name": "_goodsDescription",
					"type": "string"
				}
			],
			"name": "createNewBillOfExchange",
			"outputs": [
				{
					"components": [
						{
							"internalType": "address",
							"name": "drawer",
							"type": "address"
						},
						{
							"internalType": "address",
							"name": "payee",
							"type": "address"
						},
						{
							"internalType": "uint256",
							"name": "amount",
							"type": "uint256"
						},
						{
							"internalType": "uint256",
							"name": "paymentDate",
							"type": "uint256"
						},
						{
							"internalType": "string",
							"name": "goodsDescription",
							"type": "string"
						}
					],
					"internalType": "struct FinancialTemplate.BillOfExchange",
					"name": "",
					"type": "tuple"
				}
			],
			"stateMutability": "view",
			"type": "function"
		},
		{
			"inputs": [
				{
					"internalType": "string",
					"name": "_description",
					"type": "string"
				},
				{
					"internalType": "string",
					"name": "_warehouseName",
					"type": "string"
				},
				{
					"internalType": "uint256",
					"name": "_storageDate",
					"type": "uint256"
				},
				{
					"internalType": "address",
					"name": "_owner",
					"type": "address"
				}
			],
			"name": "createNewWarehouseReceipt",
			"outputs": [
				{
					"components": [
						{
							"internalType": "string",
							"name": "description",
							"type": "string"
						},
						{
							"internalType": "string",
							"name": "warehouseName",
							"type": "string"
						},
						{
							"internalType": "uint256",
							"name": "storageDate",
							"type": "uint256"
						},
						{
							"internalType": "address",
							"name": "owner",
							"type": "address"
						}
					],
					"internalType": "struct FinancialTemplate.WarehouseReceipt",
					"name": "",
					"type": "tuple"
				}
			],
			"stateMutability": "view",
			"type": "function"
		},
		{
			"inputs": [],
			"name": "defaultAdmin",
			"outputs": [
				{
					"internalType": "address",
					"name": "",
					"type": "address"
				}
			],
			"stateMutability": "view",
			"type": "function"
		},
		{
			"inputs": [],
			"name": "defaultAdminDelay",
			"outputs": [
				{
					"internalType": "uint48",
					"name": "",
					"type": "uint48"
				}
			],
			"stateMutability": "view",
			"type": "function"
		},
		{
			"inputs": [],
			"name": "defaultAdminDelayIncreaseWait",
			"outputs": [
				{
					"internalType": "uint48",
					"name": "",
					"type": "uint48"
				}
			],
			"stateMutability": "view",
			"type": "function"
		},
		{
			"inputs": [
				{
					"internalType": "address",
					"name": "",
					"type": "address"
				}
			],
			"name": "enterpriseDataSet",
			"outputs": [
				{
					"internalType": "string",
					"name": "registrationNumber",
					"type": "string"
				},
				{
					"internalType": "string",
					"name": "legalRepresentative",
					"type": "string"
				},
				{
					"internalType": "string",
					"name": "companyName",
					"type": "string"
				},
				{
					"internalType": "string",
					"name": "registrationAddress",
					"type": "string"
				},
				{
					"internalType": "uint256",
					"name": "establishmentDate",
					"type": "uint256"
				},
				{
					"internalType": "bool",
					"name": "isValid",
					"type": "bool"
				}
			],
			"stateMutability": "view",
			"type": "function"
		},
		{
			"inputs": [
				{
					"internalType": "bytes32",
					"name": "role",
					"type": "bytes32"
				}
			],
			"name": "getRoleAdmin",
			"outputs": [
				{
					"internalType": "bytes32",
					"name": "",
					"type": "bytes32"
				}
			],
			"stateMutability": "view",
			"type": "function"
		},
		{
			"inputs": [
				{
					"internalType": "address",
					"name": "_enterpriseAddr",
					"type": "address"
				},
				{
					"internalType": "uint256",
					"name": "_tradeId",
					"type": "uint256"
				}
			],
			"name": "getTradeData",
			"outputs": [
				{
					"components": [
						{
							"components": [
								{
									"internalType": "string",
									"name": "description",
									"type": "string"
								},
								{
									"internalType": "string",
									"name": "warehouseName",
									"type": "string"
								},
								{
									"internalType": "uint256",
									"name": "storageDate",
									"type": "uint256"
								},
								{
									"internalType": "address",
									"name": "owner",
									"type": "address"
								}
							],
							"internalType": "struct FinancialTemplate.WarehouseReceipt",
							"name": "warehouseReceipt",
							"type": "tuple"
						},
						{
							"components": [
								{
									"internalType": "address",
									"name": "drawer",
									"type": "address"
								},
								{
									"internalType": "address",
									"name": "payee",
									"type": "address"
								},
								{
									"internalType": "uint256",
									"name": "amount",
									"type": "uint256"
								},
								{
									"internalType": "uint256",
									"name": "paymentDate",
									"type": "uint256"
								},
								{
									"internalType": "string",
									"name": "goodsDescription",
									"type": "string"
								}
							],
							"internalType": "struct FinancialTemplate.BillOfExchange",
							"name": "billOfExchange",
							"type": "tuple"
						}
					],
					"internalType": "struct FinancialTemplate.TradeData",
					"name": "",
					"type": "tuple"
				}
			],
			"stateMutability": "view",
			"type": "function"
		},
		{
			"inputs": [
				{
					"internalType": "address",
					"name": "_fundingPartyAddr",
					"type": "address"
				},
				{
					"internalType": "address",
					"name": "_enterpriseAddr",
					"type": "address"
				},
				{
					"internalType": "uint256",
					"name": "_tradeId",
					"type": "uint256"
				}
			],
			"name": "getTradeDataForFundingParty",
			"outputs": [
				{
					"components": [
						{
							"components": [
								{
									"internalType": "string",
									"name": "description",
									"type": "string"
								},
								{
									"internalType": "string",
									"name": "warehouseName",
									"type": "string"
								},
								{
									"internalType": "uint256",
									"name": "storageDate",
									"type": "uint256"
								},
								{
									"internalType": "address",
									"name": "owner",
									"type": "address"
								}
							],
							"internalType": "struct FinancialTemplate.WarehouseReceipt",
							"name": "warehouseReceipt",
							"type": "tuple"
						},
						{
							"components": [
								{
									"internalType": "address",
									"name": "drawer",
									"type": "address"
								},
								{
									"internalType": "address",
									"name": "payee",
									"type": "address"
								},
								{
									"internalType": "uint256",
									"name": "amount",
									"type": "uint256"
								},
								{
									"internalType": "uint256",
									"name": "paymentDate",
									"type": "uint256"
								},
								{
									"internalType": "string",
									"name": "goodsDescription",
									"type": "string"
								}
							],
							"internalType": "struct FinancialTemplate.BillOfExchange",
							"name": "billOfExchange",
							"type": "tuple"
						}
					],
					"internalType": "struct FinancialTemplate.TradeData",
					"name": "",
					"type": "tuple"
				}
			],
			"stateMutability": "view",
			"type": "function"
		},
		{
			"inputs": [
				{
					"internalType": "bytes32",
					"name": "role",
					"type": "bytes32"
				},
				{
					"internalType": "address",
					"name": "account",
					"type": "address"
				}
			],
			"name": "grantRole",
			"outputs": [],
			"stateMutability": "nonpayable",
			"type": "function"
		},
		{
			"inputs": [
				{
					"internalType": "address",
					"name": "_fundingPartyAddr",
					"type": "address"
				},
				{
					"internalType": "address",
					"name": "_enterpriseAddr",
					"type": "address"
				}
			],
			"name": "grantTradeDataAccess",
			"outputs": [],
			"stateMutability": "nonpayable",
			"type": "function"
		},
		{
			"inputs": [
				{
					"internalType": "bytes32",
					"name": "role",
					"type": "bytes32"
				},
				{
					"internalType": "address",
					"name": "account",
					"type": "address"
				}
			],
			"name": "hasRole",
			"outputs": [
				{
					"internalType": "bool",
					"name": "",
					"type": "bool"
				}
			],
			"stateMutability": "view",
			"type": "function"
		},
		{
			"inputs": [],
			"name": "nextAuctionId",
			"outputs": [
				{
					"internalType": "uint256",
					"name": "",
					"type": "uint256"
				}
			],
			"stateMutability": "view",
			"type": "function"
		},
		{
			"inputs": [],
			"name": "nextRoleId",
			"outputs": [
				{
					"internalType": "uint256",
					"name": "",
					"type": "uint256"
				}
			],
			"stateMutability": "view",
			"type": "function"
		},
		{
			"inputs": [],
			"name": "owner",
			"outputs": [
				{
					"internalType": "address",
					"name": "",
					"type": "address"
				}
			],
			"stateMutability": "view",
			"type": "function"
		},
		{
			"inputs": [],
			"name": "pendingDefaultAdmin",
			"outputs": [
				{
					"internalType": "address",
					"name": "newAdmin",
					"type": "address"
				},
				{
					"internalType": "uint48",
					"name": "schedule",
					"type": "uint48"
				}
			],
			"stateMutability": "view",
			"type": "function"
		},
		{
			"inputs": [],
			"name": "pendingDefaultAdminDelay",
			"outputs": [
				{
					"internalType": "uint48",
					"name": "newDelay",
					"type": "uint48"
				},
				{
					"internalType": "uint48",
					"name": "schedule",
					"type": "uint48"
				}
			],
			"stateMutability": "view",
			"type": "function"
		},
		{
			"inputs": [
				{
					"internalType": "address",
					"name": "_enterpriseAddr",
					"type": "address"
				},
				{
					"internalType": "string",
					"name": "regNumber",
					"type": "string"
				},
				{
					"internalType": "string",
					"name": "legalRep",
					"type": "string"
				},
				{
					"internalType": "string",
					"name": "name",
					"type": "string"
				},
				{
					"internalType": "string",
					"name": "regAddress",
					"type": "string"
				},
				{
					"internalType": "uint256",
					"name": "establishmentDate",
					"type": "uint256"
				}
			],
			"name": "registerEnterprise",
			"outputs": [],
			"stateMutability": "nonpayable",
			"type": "function"
		},
		{
			"inputs": [
				{
					"internalType": "bytes32",
					"name": "role",
					"type": "bytes32"
				},
				{
					"internalType": "address",
					"name": "account",
					"type": "address"
				}
			],
			"name": "renounceRole",
			"outputs": [],
			"stateMutability": "nonpayable",
			"type": "function"
		},
		{
			"inputs": [
				{
					"internalType": "bytes32",
					"name": "role",
					"type": "bytes32"
				},
				{
					"internalType": "address",
					"name": "account",
					"type": "address"
				}
			],
			"name": "revokeRole",
			"outputs": [],
			"stateMutability": "nonpayable",
			"type": "function"
		},
		{
			"inputs": [],
			"name": "rollbackDefaultAdminDelay",
			"outputs": [],
			"stateMutability": "nonpayable",
			"type": "function"
		},
		{
			"inputs": [
				{
					"internalType": "bytes4",
					"name": "interfaceId",
					"type": "bytes4"
				}
			],
			"name": "supportsInterface",
			"outputs": [
				{
					"internalType": "bool",
					"name": "",
					"type": "bool"
				}
			],
			"stateMutability": "view",
			"type": "function"
		},
		{
			"inputs": [
				{
					"internalType": "address",
					"name": "_enterpriseAddr",
					"type": "address"
				},
				{
					"internalType": "string",
					"name": "_description",
					"type": "string"
				},
				{
					"internalType": "string",
					"name": "_warehouseName",
					"type": "string"
				},
				{
					"internalType": "uint256",
					"name": "_storageDate",
					"type": "uint256"
				},
				{
					"internalType": "address",
					"name": "_owner",
					"type": "address"
				},
				{
					"internalType": "address",
					"name": "_drawer",
					"type": "address"
				},
				{
					"internalType": "address",
					"name": "_payee",
					"type": "address"
				},
				{
					"internalType": "uint256",
					"name": "_amount",
					"type": "uint256"
				},
				{
					"internalType": "uint256",
					"name": "_paymentDate",
					"type": "uint256"
				},
				{
					"internalType": "string",
					"name": "_goodsDescription",
					"type": "string"
				}
			],
			"name": "uploadTradeData",
			"outputs": [],
			"stateMutability": "nonpayable",
			"type": "function"
		}
	]
}