{
	"data": {
		"bytecode": {
			"linkReferences": {},
			"object": "608060405234801561000f575f80fd5b506104ad8061001d5f395ff3fe608060405234801561000f575f80fd5b5060043610610029575f3560e01c80638003c5401461002d575b5f80fd5b61004760048036038101906100429190610403565b610049565b005b5f815f015190505f826020015190505f836040015190505f84604001515f815181106100785761007761044a565b5b60200260200101515f015190505f85604001515f8151811061009d5761009c61044a565b5b6020026020010151602001519050505050505050565b5f604051905090565b5f80fd5b5f80fd5b5f80fd5b5f601f19601f8301169050919050565b7f4e487b71000000000000000000000000000000000000000000000000000000005f52604160045260245ffd5b61010e826100c8565b810181811067ffffffffffffffff8211171561012d5761012c6100d8565b5b80604052505050565b5f61013f6100b3565b905061014b8282610105565b919050565b5f80fd5b5f819050919050565b61016681610154565b8114610170575f80fd5b50565b5f813590506101818161015d565b92915050565b5f80fd5b5f67ffffffffffffffff8211156101a5576101a46100d8565b5b602082029050602081019050919050565b5f80fd5b5f80fd5b5f67ffffffffffffffff8211156101d8576101d76100d8565b5b6101e1826100c8565b9050602081019050919050565b828183375f83830152505050565b5f61020e610209846101be565b610136565b90508281526020810184848401111561022a576102296101ba565b5b6102358482856101ee565b509392505050565b5f82601f83011261025157610250610187565b5b81356102618482602086016101fc565b91505092915050565b5f6040828403121561027f5761027e6100c4565b5b6102896040610136565b90505f61029884828501610173565b5f83015250602082013567ffffffffffffffff8111156102bb576102ba610150565b5b6102c78482850161023d565b60208301525092915050565b5f6102e56102e08461018b565b610136565b90508083825260208201905060208402830185811115610308576103076101b6565b5b835b8181101561034f57803567ffffffffffffffff81111561032d5761032c610187565b5b80860161033a898261026a565b8552602085019450505060208101905061030a565b5050509392505050565b5f82601f83011261036d5761036c610187565b5b813561037d8482602086016102d3565b91505092915050565b5f6060828403121561039b5761039a6100c4565b5b6103a56060610136565b90505f6103b484828501610173565b5f8301525060206103c784828501610173565b602083015250604082013567ffffffffffffffff8111156103eb576103ea610150565b5b6103f784828501610359565b60408301525092915050565b5f60208284031215610418576104176100bc565b5b5f82013567ffffffffffffffff811115610435576104346100c0565b5b61044184828501610386565b91505092915050565b7f4e487b71000000000000000000000000000000000000000000000000000000005f52603260045260245ffdfea26469706673582212202080e1c275885709e3fcfad5424ed42e303faed7f079b0737beeb63e31b8bb7864736f6c63430008180033",
			"opcodes": "PUSH1 0x80 PUSH1 0x40 MSTORE CALLVALUE DUP1 ISZERO PUSH2 0xF JUMPI PUSH0 DUP1 REVERT JUMPDEST POP PUSH2 0x4AD DUP1 PUSH2 0x1D PUSH0 CODECOPY PUSH0 RETURN INVALID PUSH1 0x80 PUSH1 0x40 MSTORE CALLVALUE DUP1 ISZERO PUSH2 0xF JUMPI PUSH0 DUP1 REVERT JUMPDEST POP PUSH1 0x4 CALLDATASIZE LT PUSH2 0x29 JUMPI PUSH0 CALLDATALOAD PUSH1 0xE0 SHR DUP1 PUSH4 0x8003C540 EQ PUSH2 0x2D JUMPI JUMPDEST PUSH0 DUP1 REVERT JUMPDEST PUSH2 0x47 PUSH1 0x4 DUP1 CALLDATASIZE SUB DUP2 ADD SWAP1 PUSH2 0x42 SWAP2 SWAP1 PUSH2 0x403 JUMP JUMPDEST PUSH2 0x49 JUMP JUMPDEST STOP JUMPDEST PUSH0 DUP2 PUSH0 ADD MLOAD SWAP1 POP PUSH0 DUP3 PUSH1 0x20 ADD MLOAD SWAP1 POP PUSH0 DUP4 PUSH1 0x40 ADD MLOAD SWAP1 POP PUSH0 DUP5 PUSH1 0x40 ADD MLOAD PUSH0 DUP2 MLOAD DUP2 LT PUSH2 0x78 JUMPI PUSH2 0x77 PUSH2 0x44A JUMP JUMPDEST JUMPDEST PUSH1 0x20 MUL PUSH1 0x20 ADD ADD MLOAD PUSH0 ADD MLOAD SWAP1 POP PUSH0 DUP6 PUSH1 0x40 ADD MLOAD PUSH0 DUP2 MLOAD DUP2 LT PUSH2 0x9D JUMPI PUSH2 0x9C PUSH2 0x44A JUMP JUMPDEST JUMPDEST PUSH1 0x20 MUL PUSH1 0x20 ADD ADD MLOAD PUSH1 0x20 ADD MLOAD SWAP1 POP POP POP POP POP POP POP JUMP JUMPDEST PUSH0 PUSH1 0x40 MLOAD SWAP1 POP SWAP1 JUMP JUMPDEST PUSH0 DUP1 REVERT JUMPDEST PUSH0 DUP1 REVERT JUMPDEST PUSH0 DUP1 REVERT JUMPDEST PUSH0 PUSH1 0x1F NOT PUSH1 0x1F DUP4 ADD AND SWAP1 POP SWAP2 SWAP1 POP JUMP JUMPDEST PUSH32 0x4E487B7100000000000000000000000000000000000000000000000000000000 PUSH0 MSTORE PUSH1 0x41 PUSH1 0x4 MSTORE PUSH1 0x24 PUSH0 REVERT JUMPDEST PUSH2 0x10E DUP3 PUSH2 0xC8 JUMP JUMPDEST DUP2 ADD DUP2 DUP2 LT PUSH8 0xFFFFFFFFFFFFFFFF DUP3 GT OR ISZERO PUSH2 0x12D JUMPI PUSH2 0x12C PUSH2 0xD8 JUMP JUMPDEST JUMPDEST DUP1 PUSH1 0x40 MSTORE POP POP POP JUMP JUMPDEST PUSH0 PUSH2 0x13F PUSH2 0xB3 JUMP JUMPDEST SWAP1 POP PUSH2 0x14B DUP3 DUP3 PUSH2 0x105 JUMP JUMPDEST SWAP2 SWAP1 POP JUMP JUMPDEST PUSH0 DUP1 REVERT JUMPDEST PUSH0 DUP2 SWAP1 POP SWAP2 SWAP1 POP JUMP JUMPDEST PUSH2 0x166 DUP2 PUSH2 0x154 JUMP JUMPDEST DUP2 EQ PUSH2 0x170 JUMPI PUSH0 DUP1 REVERT JUMPDEST POP JUMP JUMPDEST PUSH0 DUP2 CALLDATALOAD SWAP1 POP PUSH2 0x181 DUP2 PUSH2 0x15D JUMP JUMPDEST SWAP3 SWAP2 POP POP JUMP JUMPDEST PUSH0 DUP1 REVERT JUMPDEST PUSH0 PUSH8 0xFFFFFFFFFFFFFFFF DUP3 GT ISZERO PUSH2 0x1A5 JUMPI PUSH2 0x1A4 PUSH2 0xD8 JUMP JUMPDEST JUMPDEST PUSH1 0x20 DUP3 MUL SWAP1 POP PUSH1 0x20 DUP2 ADD SWAP1 POP SWAP2 SWAP1 POP JUMP JUMPDEST PUSH0 DUP1 REVERT JUMPDEST PUSH0 DUP1 REVERT JUMPDEST PUSH0 PUSH8 0xFFFFFFFFFFFFFFFF DUP3 GT ISZERO PUSH2 0x1D8 JUMPI PUSH2 0x1D7 PUSH2 0xD8 JUMP JUMPDEST JUMPDEST PUSH2 0x1E1 DUP3 PUSH2 0xC8 JUMP JUMPDEST SWAP1 POP PUSH1 0x20 DUP2 ADD SWAP1 POP SWAP2 SWAP1 POP JUMP JUMPDEST DUP3 DUP2 DUP4 CALLDATACOPY PUSH0 DUP4 DUP4 ADD MSTORE POP POP POP JUMP JUMPDEST PUSH0 PUSH2 0x20E PUSH2 0x209 DUP5 PUSH2 0x1BE JUMP JUMPDEST PUSH2 0x136 JUMP JUMPDEST SWAP1 POP DUP3 DUP2 MSTORE PUSH1 0x20 DUP2 ADD DUP5 DUP5 DUP5 ADD GT ISZERO PUSH2 0x22A JUMPI PUSH2 0x229 PUSH2 0x1BA JUMP JUMPDEST JUMPDEST PUSH2 0x235 DUP5 DUP3 DUP6 PUSH2 0x1EE JUMP JUMPDEST POP SWAP4 SWAP3 POP POP POP JUMP JUMPDEST PUSH0 DUP3 PUSH1 0x1F DUP4 ADD SLT PUSH2 0x251 JUMPI PUSH2 0x250 PUSH2 0x187 JUMP JUMPDEST JUMPDEST DUP2 CALLDATALOAD PUSH2 0x261 DUP5 DUP3 PUSH1 0x20 DUP7 ADD PUSH2 0x1FC JUMP JUMPDEST SWAP2 POP POP SWAP3 SWAP2 POP POP JUMP JUMPDEST PUSH0 PUSH1 0x40 DUP3 DUP5 SUB SLT ISZERO PUSH2 0x27F JUMPI PUSH2 0x27E PUSH2 0xC4 JUMP JUMPDEST JUMPDEST PUSH2 0x289 PUSH1 0x40 PUSH2 0x136 JUMP JUMPDEST SWAP1 POP PUSH0 PUSH2 0x298 DUP5 DUP3 DUP6 ADD PUSH2 0x173 JUMP JUMPDEST PUSH0 DUP4 ADD MSTORE POP PUSH1 0x20 DUP3 ADD CALLDATALOAD PUSH8 0xFFFFFFFFFFFFFFFF DUP2 GT ISZERO PUSH2 0x2BB JUMPI PUSH2 0x2BA PUSH2 0x150 JUMP JUMPDEST JUMPDEST PUSH2 0x2C7 DUP5 DUP3 DUP6 ADD PUSH2 0x23D JUMP JUMPDEST PUSH1 0x20 DUP4 ADD MSTORE POP SWAP3 SWAP2 POP POP JUMP JUMPDEST PUSH0 PUSH2 0x2E5 PUSH2 0x2E0 DUP5 PUSH2 0x18B JUMP JUMPDEST PUSH2 0x136 JUMP JUMPDEST SWAP1 POP DUP1 DUP4 DUP3 MSTORE PUSH1 0x20 DUP3 ADD SWAP1 POP PUSH1 0x20 DUP5 MUL DUP4 ADD DUP6 DUP2 GT ISZERO PUSH2 0x308 JUMPI PUSH2 0x307 PUSH2 0x1B6 JUMP JUMPDEST JUMPDEST DUP4 JUMPDEST DUP2 DUP2 LT ISZERO PUSH2 0x34F JUMPI DUP1 CALLDATALOAD PUSH8 0xFFFFFFFFFFFFFFFF DUP2 GT ISZERO PUSH2 0x32D JUMPI PUSH2 0x32C PUSH2 0x187 JUMP JUMPDEST JUMPDEST DUP1 DUP7 ADD PUSH2 0x33A DUP10 DUP3 PUSH2 0x26A JUMP JUMPDEST DUP6 MSTORE PUSH1 0x20 DUP6 ADD SWAP5 POP POP POP PUSH1 0x20 DUP2 ADD SWAP1 POP PUSH2 0x30A JUMP JUMPDEST POP POP POP SWAP4 SWAP3 POP POP POP JUMP JUMPDEST PUSH0 DUP3 PUSH1 0x1F DUP4 ADD SLT PUSH2 0x36D JUMPI PUSH2 0x36C PUSH2 0x187 JUMP JUMPDEST JUMPDEST DUP2 CALLDATALOAD PUSH2 0x37D DUP5 DUP3 PUSH1 0x20 DUP7 ADD PUSH2 0x2D3 JUMP JUMPDEST SWAP2 POP POP SWAP3 SWAP2 POP POP JUMP JUMPDEST PUSH0 PUSH1 0x60 DUP3 DUP5 SUB SLT ISZERO PUSH2 0x39B JUMPI PUSH2 0x39A PUSH2 0xC4 JUMP JUMPDEST JUMPDEST PUSH2 0x3A5 PUSH1 0x60 PUSH2 0x136 JUMP JUMPDEST SWAP1 POP PUSH0 PUSH2 0x3B4 DUP5 DUP3 DUP6 ADD PUSH2 0x173 JUMP JUMPDEST PUSH0 DUP4 ADD MSTORE POP PUSH1 0x20 PUSH2 0x3C7 DUP5 DUP3 DUP6 ADD PUSH2 0x173 JUMP JUMPDEST PUSH1 0x20 DUP4 ADD MSTORE POP PUSH1 0x40 DUP3 ADD CALLDATALOAD PUSH8 0xFFFFFFFFFFFFFFFF DUP2 GT ISZERO PUSH2 0x3EB JUMPI PUSH2 0x3EA PUSH2 0x150 JUMP JUMPDEST JUMPDEST PUSH2 0x3F7 DUP5 DUP3 DUP6 ADD PUSH2 0x359 JUMP JUMPDEST PUSH1 0x40 DUP4 ADD MSTORE POP SWAP3 SWAP2 POP POP JUMP JUMPDEST PUSH0 PUSH1 0x20 DUP3 DUP5 SUB SLT ISZERO PUSH2 0x418 JUMPI PUSH2 0x417 PUSH2 0xBC JUMP JUMPDEST JUMPDEST PUSH0 DUP3 ADD CALLDATALOAD PUSH8 0xFFFFFFFFFFFFFFFF DUP2 GT ISZERO PUSH2 0x435 JUMPI PUSH2 0x434 PUSH2 0xC0 JUMP JUMPDEST JUMPDEST PUSH2 0x441 DUP5 DUP3 DUP6 ADD PUSH2 0x386 JUMP JUMPDEST SWAP2 POP POP SWAP3 SWAP2 POP POP JUMP JUMPDEST PUSH32 0x4E487B7100000000000000000000000000000000000000000000000000000000 PUSH0 MSTORE PUSH1 0x32 PUSH1 0x4 MSTORE PUSH1 0x24 PUSH0 REVERT INVALID LOG2 PUSH5 0x6970667358 0x22 SLT KECCAK256 KECCAK256 DUP1 0xE1 0xC2 PUSH22 0x885709E3FCFAD5424ED42E303FAED7F079B0737BEEB6 RETURNDATACOPY BALANCE 0xB8 0xBB PUSH25 0x64736F6C634300081800330000000000000000000000000000 "
		},
		"gasEstimates": {
			"creation": {
				"codeDepositCost": "239400",
				"executionCost": "279",
				"totalCost": "239679"
			},
			"external": {
				"picker((uint256,uint256,(uint256,string)[]))": "infinite"
			}
		},
		"methodIdentifiers": {
			"picker((uint256,uint256,(uint256,string)[]))": "8003c540"
		}
	},
	"abi": [
		{
			"inputs": [
				{
					"components": [
						{
							"internalType": "uint256",
							"name": "slugCount",
							"type": "uint256"
						},
						{
							"internalType": "uint256",
							"name": "wormCount",
							"type": "uint256"
						},
						{
							"components": [
								{
									"internalType": "uint256",
									"name": "flowerNum",
									"type": "uint256"
								},
								{
									"internalType": "string",
									"name": "color",
									"type": "string"
								}
							],
							"internalType": "struct Sunshine.Flower[]",
							"name": "theFlowers",
							"type": "tuple[]"
						}
					],
					"internalType": "struct Sunshine.Garden",
					"name": "gardenPlot",
					"type": "tuple"
				}
			],
			"name": "picker",
			"outputs": [],
			"stateMutability": "pure",
			"type": "function"
		}
	]
}